
waveplayer.elf:     file format elf32-avr

Sections:
Idx Name          Size      VMA       LMA       File off  Algn
  0 .text         00008c6c  00000000  00000000  00000094  2**1
                  CONTENTS, ALLOC, LOAD, READONLY, CODE
  1 .data         0000028e  00802000  00008c6c  00008d00  2**0
                  CONTENTS, ALLOC, LOAD, DATA
  2 .bss          00000920  0080228e  0080228e  00008f8e  2**0
                  ALLOC
  3 .stab         000016e0  00000000  00000000  00008f90  2**2
                  CONTENTS, READONLY, DEBUGGING
  4 .stabstr      000007b1  00000000  00000000  0000a670  2**0
                  CONTENTS, READONLY, DEBUGGING
  5 .comment      0000002f  00000000  00000000  0000ae21  2**0
                  CONTENTS, READONLY
  6 .debug_aranges 00000148  00000000  00000000  0000ae50  2**0
                  CONTENTS, READONLY, DEBUGGING
  7 .debug_info   000011d8  00000000  00000000  0000af98  2**0
                  CONTENTS, READONLY, DEBUGGING
  8 .debug_abbrev 00000991  00000000  00000000  0000c170  2**0
                  CONTENTS, READONLY, DEBUGGING
  9 .debug_line   00000da4  00000000  00000000  0000cb01  2**0
                  CONTENTS, READONLY, DEBUGGING
 10 .debug_frame  00000208  00000000  00000000  0000d8a8  2**2
                  CONTENTS, READONLY, DEBUGGING
 11 .debug_str    00000571  00000000  00000000  0000dab0  2**0
                  CONTENTS, READONLY, DEBUGGING
 12 .debug_loc    00000c6b  00000000  00000000  0000e021  2**0
                  CONTENTS, READONLY, DEBUGGING
 13 .debug_ranges 00000098  00000000  00000000  0000ec8c  2**0
                  CONTENTS, READONLY, DEBUGGING

Disassembly of section .text:

00000000 <__vectors>:
       0:	0c 94 56 10 	jmp	0x20ac	; 0x20ac <__ctors_end>
       4:	0c 94 73 10 	jmp	0x20e6	; 0x20e6 <__bad_interrupt>
       8:	0c 94 73 10 	jmp	0x20e6	; 0x20e6 <__bad_interrupt>
       c:	0c 94 c8 22 	jmp	0x4590	; 0x4590 <__vector_3>
      10:	0c 94 75 22 	jmp	0x44ea	; 0x44ea <__vector_4>
      14:	0c 94 73 10 	jmp	0x20e6	; 0x20e6 <__bad_interrupt>
      18:	0c 94 73 10 	jmp	0x20e6	; 0x20e6 <__bad_interrupt>
      1c:	0c 94 73 10 	jmp	0x20e6	; 0x20e6 <__bad_interrupt>
      20:	0c 94 73 10 	jmp	0x20e6	; 0x20e6 <__bad_interrupt>
      24:	0c 94 73 10 	jmp	0x20e6	; 0x20e6 <__bad_interrupt>
      28:	0c 94 73 10 	jmp	0x20e6	; 0x20e6 <__bad_interrupt>
      2c:	0c 94 73 10 	jmp	0x20e6	; 0x20e6 <__bad_interrupt>
      30:	0c 94 73 10 	jmp	0x20e6	; 0x20e6 <__bad_interrupt>
      34:	0c 94 73 10 	jmp	0x20e6	; 0x20e6 <__bad_interrupt>
      38:	0c 94 2f 22 	jmp	0x445e	; 0x445e <__vector_14>
      3c:	0c 94 73 10 	jmp	0x20e6	; 0x20e6 <__bad_interrupt>
      40:	0c 94 73 10 	jmp	0x20e6	; 0x20e6 <__bad_interrupt>
      44:	0c 94 73 10 	jmp	0x20e6	; 0x20e6 <__bad_interrupt>
      48:	0c 94 73 10 	jmp	0x20e6	; 0x20e6 <__bad_interrupt>
      4c:	0c 94 73 10 	jmp	0x20e6	; 0x20e6 <__bad_interrupt>
      50:	0c 94 1b 23 	jmp	0x4636	; 0x4636 <__vector_20>
      54:	0c 94 73 10 	jmp	0x20e6	; 0x20e6 <__bad_interrupt>
      58:	0c 94 73 10 	jmp	0x20e6	; 0x20e6 <__bad_interrupt>
      5c:	0c 94 73 10 	jmp	0x20e6	; 0x20e6 <__bad_interrupt>
      60:	0c 94 73 10 	jmp	0x20e6	; 0x20e6 <__bad_interrupt>
      64:	0c 94 73 10 	jmp	0x20e6	; 0x20e6 <__bad_interrupt>
      68:	0c 94 73 10 	jmp	0x20e6	; 0x20e6 <__bad_interrupt>
      6c:	0c 94 73 10 	jmp	0x20e6	; 0x20e6 <__bad_interrupt>
      70:	0c 94 73 10 	jmp	0x20e6	; 0x20e6 <__bad_interrupt>
      74:	0c 94 73 10 	jmp	0x20e6	; 0x20e6 <__bad_interrupt>
      78:	0c 94 73 10 	jmp	0x20e6	; 0x20e6 <__bad_interrupt>
      7c:	0c 94 73 10 	jmp	0x20e6	; 0x20e6 <__bad_interrupt>
      80:	0c 94 73 10 	jmp	0x20e6	; 0x20e6 <__bad_interrupt>
      84:	0c 94 73 10 	jmp	0x20e6	; 0x20e6 <__bad_interrupt>
      88:	0c 94 73 10 	jmp	0x20e6	; 0x20e6 <__bad_interrupt>
      8c:	0c 94 73 10 	jmp	0x20e6	; 0x20e6 <__bad_interrupt>
      90:	0c 94 73 10 	jmp	0x20e6	; 0x20e6 <__bad_interrupt>
      94:	0c 94 73 10 	jmp	0x20e6	; 0x20e6 <__bad_interrupt>
      98:	0c 94 73 10 	jmp	0x20e6	; 0x20e6 <__bad_interrupt>
      9c:	0c 94 73 10 	jmp	0x20e6	; 0x20e6 <__bad_interrupt>
      a0:	0c 94 d0 21 	jmp	0x43a0	; 0x43a0 <__vector_40>
      a4:	0c 94 73 10 	jmp	0x20e6	; 0x20e6 <__bad_interrupt>
      a8:	0c 94 73 10 	jmp	0x20e6	; 0x20e6 <__bad_interrupt>

000000ac <__c.4051.2894.1710>:
      ac:	0a 3e 00                                            .>.

000000af <__c.4062.2893.1712>:
      af:	3e 00                                               >.

000000b1 <__c.4067.2892.1713>:
      b1:	68 65 6c 70 00                                      help.

000000b6 <__c.4080.2891.1745>:
      b6:	0a 49 6e 76 61 6c 69 64 20 61 72 67 75 6d 65 6e     .Invalid argumen
      c6:	74 28 73 29 21 20 53 65 65 20 68 65 6c 70 20 3c     t(s)! See help <
      d6:	63 6f 6d 6d 61 6e 64 3e 20 66 6f 72 20 75 73 61     command> for usa
      e6:	67 65 2e 00                                         ge..

000000ea <__c.4082.2890.1746>:
      ea:	0a 4d 69 73 73 69 6e 67 20 61 72 67 75 6d 65 6e     .Missing argumen
      fa:	74 28 73 29 21 20 53 65 65 20 68 65 6c 70 20 3c     t(s)! See help <
     10a:	63 6f 6d 6d 61 6e 64 3e 20 66 6f 72 20 75 73 61     command> for usa
     11a:	67 65 2e 00                                         ge..

0000011e <__c.4084.2889.1747>:
     11e:	3b 20 63 6f 6d 6d 61 6e 64 20 6e 6f 74 20 66 6f     ; command not fo
     12e:	75 6e 64 2e 20 45 6e 74 65 72 20 27 68 65 6c 70     und. Enter 'help
     13e:	27 20 66 6f 72 20 61 20 6c 69 73 74 20 6f 66 20     ' for a list of 
     14e:	76 61 6c 69 64 20 63 6f 6d 6d 61 6e 64 73 2e 00     valid commands..

0000015e <__c.4118.2897.1748>:
     15e:	54 68 65 20 66 6f 6c 6c 6f 77 69 6e 67 20 63 6f     The following co
     16e:	6d 6d 61 6e 64 73 20 61 72 65 20 61 76 61 69 6c     mmands are avail
     17e:	61 62 6c 65 3b 0a 00                                able;..

00000185 <__c.4121.2898.1749>:
     185:	20 20 20 20 00                                          .

0000018a <__c.4126.2899.1750>:
     18a:	0a 00                                               ..

0000018c <__c.4131.2900.1751>:
     18c:	45 6e 74 65 72 20 68 65 6c 70 20 3c 63 6f 6d 6d     Enter help <comm
     19c:	61 6e 64 3e 20 66 6f 72 20 68 65 6c 70 20 6f 6e     and> for help on
     1ac:	20 61 20 63 6f 6d 6d 61 6e 64 2e 0a 45 6e 74 65      a command..Ente
     1bc:	72 20 3c 63 6f 6d 6d 61 6e 64 3e 20 74 6f 20 65     r <command> to e
     1cc:	78 65 63 75 74 65 20 61 20 63 6f 6d 6d 61 6e 64     xecute a command
     1dc:	2e 0a 4e 6f 74 65 3a 20 6f 6e 6c 79 20 74 68 65     ..Note: only the
     1ec:	20 66 69 72 73 74 20 63 6f 70 79 20 6f 66 20 61      first copy of a
     1fc:	6e 20 61 72 67 75 6d 65 6e 74 20 69 73 20 6d 61     n argument is ma
     20c:	74 63 68 65 64 2c 20 49 45 2e 20 27 66 6f 6f 20     tched, IE. 'foo 
     21c:	2d 63 20 62 61 72 20 2d 63 20 71 75 78 27 0a 69     -c bar -c qux'.i
     22c:	73 20 65 71 75 69 76 61 6c 65 6e 74 20 74 6f 20     s equivalent to 
     23c:	27 66 6f 6f 20 2d 63 20 62 61 72 27 2e 00           'foo -c bar'..

0000024a <__c.4225.2886.1752>:
     24a:	20 20 0d 0a 00                                        ...

0000024f <__c.4227.2887.1753>:
     24f:	20 20 0d 0a 00                                        ...

00000254 <__c.4206.2884.1764>:
     254:	20 20 0d 0a 00                                        ...

00000259 <__c.4208.2885.1765>:
     259:	20 20 0d 0a 00                                        ...

0000025e <__c.4181.2902.1766>:
     25e:	20 20 0d 0a 00                                        ...

00000263 <__c.4183.2901.1767>:
     263:	20 20 0d 0a 00                                        ...

00000268 <__c.4159.2574.1768>:
     268:	44 65 74 65 63 74 65 64 20 63 61 72 64 20 70 61     Detected card pa
     278:	72 61 6d 65 74 65 72 73 3b 0a 00                    rameters;..

00000283 <__c.4161.2573.1783>:
     283:	09 4d 61 6e 75 66 2e 3a 30 78 25 78 0a 00           .Manuf.:0x%x..

00000291 <__c.4163.2572.1784>:
     291:	09 4f 45 4d 3a 20 20 20 25 73 0a 00                 .OEM:   %s..

0000029d <__c.4165.2570.1785>:
     29d:	09 50 72 6f 64 3a 20 20 25 73 0a 00                 .Prod:  %s..

000002a9 <__c.4167.2569.1786>:
     2a9:	09 52 65 76 3a 20 20 20 25 64 0a 00                 .Rev:   %d..

000002b5 <__c.4169.2568.1787>:
     2b5:	09 53 65 72 69 61 6c 3a 30 78 25 78 0a 00           .Serial:0x%x..

000002c3 <__c.4171.2567.1788>:
     2c3:	09 44 61 74 65 3a 20 20 25 64 2f 25 64 20 5b 59     .Date:  %d/%d [Y
     2d3:	2f 4d 5d 0a 00                                      /M]..

000002d8 <__c.4173.2566.1789>:
     2d8:	09 53 69 7a 65 3a 20 20 25 64 20 5b 4d 69 42 5d     .Size:  %d [MiB]
     2e8:	0a 00                                               ..

000002ea <__c.4349.3142.1688>:
     2ea:	45 52 52 30 31 3a 20 4d 65 6d 6f 72 79 20 63 61     ERR01: Memory ca
     2fa:	72 64 20 65 72 72 6f 72 3b 20 63 6f 75 6c 64 20     rd error; could 
     30a:	6e 6f 74 20 64 65 74 65 63 74 20 63 61 72 64 2e     not detect card.
     31a:	20 43 68 65 63 6b 20 63 6f 6e 6e 65 63 74 69 6f      Check connectio
     32a:	6e 20 61 6e 64 20 72 65 73 74 61 72 74 20 64 65     n and restart de
     33a:	76 69 63 65 2e 0a 00                                vice...

00000341 <__c.4352.3141.1689>:
     341:	0a 20 5f 5f 5f 20 20 20 20 20 20 5f 20 20 20 20     . ___      _    
     351:	5f 20 20 20 20 5f 20 5f 5f 20 20 5f 5f 20 20 20     _    _ __  __   
     361:	20 20 20 20 20 20 20 5f 20 20 20 5f 0a 7c 20 5f            _   _.| _
     371:	20 5c 5f 5f 20 5f 7c 20 7c 5f 5f 28 5f 29 5f 5f      \__ _| |__(_)__
     381:	7c 20 7c 20 20 5c 2f 20 20 7c 5f 5f 20 5f 20 5f     | |  \/  |__ _ _
     391:	20 5f 7c 20 7c 5f 28 5f 29 5f 5f 5f 0a 7c 20 20      _| |_(_)___.|  
     3a1:	20 2f 20 5f 60 20 7c 20 27 5f 20 5c 20 2f 20 5f      / _` | '_ \ / _
     3b1:	60 20 7c 20 7c 5c 2f 7c 20 2f 20 5f 60 20 7c 20     ` | |\/| / _` | 
     3c1:	27 20 5c 20 20 5f 7c 20 28 5f 2d 3c 0a 7c 5f 7c     ' \  _| (_-<.|_|
     3d1:	5f 5c 5f 5f 2c 5f 7c 5f 2e 5f 5f 2f 5f 5c 5f 5f     _\__,_|_.__/_\__
     3e1:	2c 5f 7c 5f 7c 5f 20 7c 5f 5c 5f 5f 2c 5f 7c 5f     ,_|_|_ |_\__,_|_
     3f1:	7c 7c 5f 5c 5f 5f 7c 5f 2f 5f 5f 2f 0a 5c 20 5c     ||_\__|_/__/.\ \
     401:	20 20 20 20 2f 20 2f 5f 20 5f 5f 5f 20 5f 5f 5f         / /_ ___ ___
     411:	5f 5f 7c 20 5f 20 5c 20 7c 5f 5f 20 5f 20 5f 20     __| _ \ |__ _ _ 
     421:	20 5f 20 5f 5f 5f 20 5f 20 5f 0a 20 5c 20 5c 2f      _ ___ _ _. \ \/
     431:	5c 2f 20 2f 20 5f 60 20 5c 20 56 20 2f 20 2d 5f     \/ / _` \ V / -_
     441:	29 20 20 5f 2f 20 2f 20 5f 60 20 7c 20 7c 7c 20     )  _/ / _` | || 
     451:	2f 20 2d 5f 29 20 27 5f 7c 0a 20 20 5c 5f 2f 5c     / -_) '_|.  \_/\
     461:	5f 2f 5c 5f 5f 2c 5f 7c 5c 5f 2f 5c 5f 5f 5f 7c     _/\__,_|\_/\___|
     471:	5f 7c 20 7c 5f 5c 5f 5f 2c 5f 7c 5c 5f 2c 20 5c     _| |_\__,_|\_, \
     481:	5f 5f 5f 7c 5f 7c 0a 20 20 20 20 20 20 20 20 20     ___|_|.         
     491:	20 20 20 20 20 20 20 20 20 20 20 20 20 20 20 20                     
     4a1:	20 20 20 20 20 20 20 20 7c 5f 5f 2f 0a 0a 56 65             |__/..Ve
     4b1:	72 73 69 6f 6e 20 30 2e 39 2c 20 4e 6f 76 20 32     rsion 0.9, Nov 2
     4c1:	31 20 32 30 31 34 2e 20 68 74 74 70 3a 2f 2f 77     1 2014. http://w
     4d1:	77 77 2e 72 61 62 69 64 6d 61 6e 74 69 73 2e 73     ww.rabidmantis.s
     4e1:	65 0a 54 79 70 65 20 27 68 65 6c 70 27 20 61 6e     e.Type 'help' an
     4f1:	64 20 70 72 65 73 73 20 65 6e 74 65 72 20 66 6f     d press enter fo
     501:	72 20 61 20 6c 69 73 74 20 6f 66 20 63 6f 6d 6d     r a list of comm
     511:	61 6e 64 73 2e 0a 0a 00                             ands....

00000519 <__c.4354.3140.1690>:
     519:	45 52 52 30 32 3a 20 4d 65 6d 6f 72 79 20 63 61     ERR02: Memory ca
     529:	72 64 20 70 61 72 74 69 74 69 6f 6e 20 65 72 72     rd partition err
     539:	6f 72 3b 20 63 6f 75 6c 64 20 6e 6f 74 20 64 65     or; could not de
     549:	74 65 63 74 20 61 6e 79 20 70 61 72 74 69 74 69     tect any partiti
     559:	6f 6e 2e 0a 00                                      on...

0000055e <__c.4357.3139.1691>:
     55e:	4d 53 47 30 32 3a 20 4d 65 6d 6f 72 79 20 63 61     MSG02: Memory ca
     56e:	72 64 20 66 6f 75 6e 64 20 77 69 74 68 20 22 73     rd found with "s
     57e:	75 70 70 65 72 66 6c 6f 70 70 79 22 20 73 74 72     upperfloppy" str
     58e:	75 63 74 75 72 65 20 28 6e 6f 20 4d 42 52 29 2e     ucture (no MBR).
     59e:	0a 00                                               ..

000005a0 <__c.4359.3138.1692>:
     5a0:	4d 53 47 30 31 3a 20 4d 65 6d 6f 72 79 20 63 61     MSG01: Memory ca
     5b0:	72 64 20 66 6f 75 6e 64 2c 20 73 74 61 6e 64 61     rd found, standa
     5c0:	72 64 20 4d 42 52 20 64 65 74 65 63 74 65 64 2e     rd MBR detected.
     5d0:	0a 00                                               ..

000005d2 <__c.4361.3137.1693>:
     5d2:	45 52 52 30 33 3a 20 4d 65 6d 6f 72 79 20 63 61     ERR03: Memory ca
     5e2:	72 64 20 66 69 6c 65 73 79 73 74 65 6d 20 65 72     rd filesystem er
     5f2:	72 6f 72 3b 20 63 6f 75 6c 64 20 6e 6f 74 20 64     ror; could not d
     602:	65 74 65 63 74 20 61 20 76 61 6c 69 64 20 46 41     etect a valid FA
     612:	54 31 36 2f 46 41 54 33 32 20 70 61 72 74 69 74     T16/FAT32 partit
     622:	69 6f 6e 2e 0a 00                                   ion...

00000628 <__c.4364.3135.1694>:
     628:	45 52 52 30 33 3a 20 4d 65 6d 6f 72 79 20 63 61     ERR03: Memory ca
     638:	72 64 20 66 69 6c 65 73 79 73 74 65 6d 20 65 72     rd filesystem er
     648:	72 6f 72 3b 20 63 6f 75 6c 64 20 6e 6f 74 20 64     ror; could not d
     658:	65 74 65 63 74 20 61 20 76 61 6c 69 64 20 46 41     etect a valid FA
     668:	54 31 36 2f 46 41 54 33 32 20 70 61 72 74 69 74     T16/FAT32 partit
     678:	69 6f 6e 2e 0a 00                                   ion...

0000067e <__c.4367.3133.1695>:
     67e:	45 52 52 30 34 3a 20 4d 65 6d 6f 72 79 20 63 61     ERR04: Memory ca
     68e:	72 64 20 65 72 72 6f 72 3b 20 63 6f 75 6c 64 20     rd error; could 
     69e:	6e 6f 74 20 72 65 61 64 20 64 69 73 6b 20 69 6e     not read disk in
     6ae:	66 6f 72 6d 61 74 69 6f 6e 2e 0a 00                 formation...

000006ba <__c.4372.3132.1696>:
     6ba:	45 52 52 30 37 3a 20 46 61 69 6c 65 64 20 74 6f     ERR07: Failed to
     6ca:	20 6f 70 65 6e 20 77 61 76 65 70 6c 61 79 5f 63      open waveplay_c
     6da:	6f 6e 66 69 67 2e 74 78 74 0a 00                    onfig.txt..

000006e5 <__c.4374.3131.1697>:
     6e5:	4d 53 47 31 34 3a 20 46 6f 75 6e 64 20 63 6f 6e     MSG14: Found con
     6f5:	66 69 67 75 72 61 74 69 6f 6e 20 66 69 6c 65 2c     figuration file,
     705:	20 73 74 61 72 74 69 6e 67 20 74 6f 20 61 70 70      starting to app
     715:	6c 79 20 63 6f 6d 6d 61 6e 64 73 3b 0a 00           ly commands;..

00000723 <__c.4379.3130.1698>:
     723:	23 21 77 61 76 65 70 6c 61 79 5f 63 6f 6e 66 69     #!waveplay_confi
     733:	67 66 69 6c 65 00                                   gfile.

00000739 <__c.4381.3129.1699>:
     739:	45 52 52 30 38 3a 20 4f 70 65 6e 65 64 20 77 61     ERR08: Opened wa
     749:	76 65 70 6c 61 79 5f 63 6f 6e 66 69 67 2e 74 78     veplay_config.tx
     759:	74 2c 20 62 75 74 20 64 65 74 65 63 74 65 64 20     t, but detected 
     769:	62 61 64 20 73 69 67 6e 61 74 75 72 65 2e 0a 46     bad signature..F
     779:	69 72 73 74 20 6c 69 6e 65 20 6d 75 73 74 20 62     irst line must b
     789:	65 20 65 78 61 63 74 6c 79 22 23 21 77 61 76 65     e exactly"#!wave
     799:	70 6c 61 79 5f 63 6f 6e 66 69 67 66 69 6c 65 22     play_configfile"
     7a9:	0a 00                                               ..

000007ab <__c.4386.3128.1700>:
     7ab:	4d 53 47 31 35 3a 20 41 70 70 6c 69 63 61 74 69     MSG15: Applicati
     7bb:	6f 6e 20 6f 66 20 63 6f 6e 66 69 67 75 72 61 74     on of configurat
     7cb:	69 6f 6e 20 66 69 6c 65 20 63 6f 6d 6d 61 6e 64     ion file command
     7db:	73 20 63 6f 6d 70 6c 65 74 65 64 2e 0a 00           s completed...

000007e9 <__c.4332.3126.1703>:
     7e9:	4d 53 47 31 34 3a 20 4e 6f 20 63 6f 6e 66 69 67     MSG14: No config
     7f9:	75 72 61 74 69 6f 6e 20 66 69 6c 65 20 66 6f 75     uration file fou
     809:	6e 64 20 6f 6e 20 6d 65 6d 6f 72 79 20 63 61 72     nd on memory car
     819:	64 2e 20 57 61 76 65 70 6c 61 79 65 72 20 77 69     d. Waveplayer wi
     829:	6c 6c 20 75 73 65 20 64 65 66 61 75 6c 74 20 69     ll use default i
     839:	6e 70 75 74 20 63 6f 6e 66 69 67 75 72 61 74 69     nput configurati
     849:	6f 6e 2e 0a 54 6f 20 63 68 61 6e 67 65 20 63 6f     on..To change co
     859:	6e 66 69 67 75 72 61 74 69 6f 6e 2c 20 70 6c 61     nfiguration, pla
     869:	63 65 20 61 20 70 6c 61 69 6e 20 74 65 78 74 20     ce a plain text 
     879:	66 69 6c 65 20 28 49 53 4f 2f 49 45 43 20 38 38     file (ISO/IEC 88
     889:	35 39 2d 31 20 2f 20 57 69 6e 64 6f 77 73 20 31     59-1 / Windows 1
     899:	32 35 32 20 2f 20 41 53 43 49 49 20 65 6e 63 6f     252 / ASCII enco
     8a9:	64 69 6e 67 29 20 6e 61 6d 65 64 0a 22 77 61 76     ding) named."wav
     8b9:	65 70 6c 61 79 5f 63 6f 6e 66 69 67 2e 74 78 74     eplay_config.txt
     8c9:	22 20 77 69 74 68 20 63 6f 6e 74 65 6e 74 73 20     " with contents 
     8d9:	73 74 72 75 63 74 75 72 65 64 20 61 73 20 69 6e     structured as in
     8e9:	20 74 68 65 20 66 6f 6c 6c 6f 77 69 6e 67 20 74      the following t
     8f9:	65 6d 70 6c 61 74 65 20 66 69 6c 65 20 69 6e 20     emplate file in 
     909:	74 68 65 20 72 6f 6f 74 20 64 69 72 65 63 74 6f     the root directo
     919:	72 79 3b 0a 2d 2d 20 53 54 41 52 54 20 4f 46 20     ry;.-- START OF 
     929:	46 49 4c 45 20 2d 2d 0a 23 21 77 61 76 65 70 6c     FILE --.#!wavepl
     939:	61 79 5f 63 6f 6e 66 69 67 66 69 6c 65 0a 23 54     ay_configfile.#T
     949:	75 72 6e 20 6f 6e 20 76 65 72 62 6f 73 65 20 6d     urn on verbose m
     959:	6f 64 65 0a 73 65 74 20 2d 70 20 76 65 72 62 6f     ode.set -p verbo
     969:	73 65 20 31 0a 23 45 6e 61 62 6c 65 20 6c 6f 77     se 1.#Enable low
     979:	2d 70 6f 77 65 72 20 6d 6f 64 65 2e 20 44 69 73     -power mode. Dis
     989:	61 62 6c 65 20 74 6f 20 6b 65 65 70 20 74 68 65     able to keep the
     999:	20 61 6e 61 6c 6f 67 20 6f 75 74 70 75 74 20 61      analog output a
     9a9:	63 74 69 76 65 20 61 74 20 63 6f 73 74 20 6f 66     ctive at cost of
     9b9:	20 70 6f 77 65 72 20 63 6f 6e 73 75 6d 70 74 69      power consumpti
     9c9:	6f 6e 2e 0a 73 65 74 20 2d 70 20 6c 6f 77 70 77     on..set -p lowpw
     9d9:	72 20 31 0a 23 53 65 74 20 74 68 65 20 64 65 66     r 1.#Set the def
     9e9:	61 75 6c 74 20 76 6f 6c 75 6d 65 2e 20 41 20 76     ault volume. A v
     9f9:	61 6c 75 65 20 6f 66 20 2d 31 30 30 20 67 69 76     alue of -100 giv
     a09:	65 73 20 6d 69 6e 69 6d 75 6d 20 76 6f 6c 75 6d     es minimum volum
     a19:	65 2c 20 61 20 76 61 6c 75 65 20 6f 66 20 2d 31     e, a value of -1
     a29:	33 20 67 69 76 65 73 20 61 0a 23 74 79 70 69 63     3 gives a.#typic
     a39:	61 6c 20 63 6f 6e 73 75 6d 65 72 20 6d 61 78 69     al consumer maxi
     a49:	6d 75 6d 20 6c 69 6e 65 2d 6c 65 76 65 6c 20 73     mum line-level s
     a59:	69 67 6e 61 6c 2c 20 61 20 76 61 6c 75 65 20 6f     ignal, a value o
     a69:	66 20 30 20 67 69 76 65 73 20 61 20 73 69 67 6e     f 0 gives a sign
     a79:	61 6c 20 61 6d 70 6c 69 74 75 64 65 20 6f 66 0a     al amplitude of.
     a89:	23 61 70 70 72 6f 78 69 6d 61 74 65 6c 79 20 34     #approximately 4
     a99:	56 70 70 0a 73 65 74 20 2d 70 20 76 6f 6c 75 6d     Vpp.set -p volum
     aa9:	65 20 2d 36 35 0a 23 45 6e 61 62 6c 65 73 20 74     e -65.#Enables t
     ab9:	68 65 20 65 78 74 65 72 6e 61 6c 20 76 6f 6c 75     he external volu
     ac9:	6d 65 20 63 6f 6e 74 72 6f 6c 20 70 6f 74 65 6e     me control poten
     ad9:	74 69 6f 6d 65 74 65 72 2e 20 43 6f 6e 6e 65 63     tiometer. Connec
     ae9:	74 20 61 20 31 30 6b 4f 68 6d 20 70 6f 74 65 6e     t a 10kOhm poten
     af9:	74 69 6f 6d 65 74 65 72 20 66 72 6f 6d 20 49 4e     tiometer from IN
     b09:	30 20 74 6f 0a 23 67 72 6f 75 6e 64 2e 20 4f 76     0 to.#ground. Ov
     b19:	65 72 72 69 64 65 73 20 74 68 65 20 64 65 66 61     errides the defa
     b29:	75 6c 74 20 76 6f 6c 75 6d 65 2e 0a 73 65 74 20     ult volume..set 
     b39:	2d 70 20 63 5f 76 6f 6c 5f 65 6e 20 31 0a 23 45     -p c_vol_en 1.#E
     b49:	6e 61 62 6c 65 73 20 72 61 6e 64 6f 6d 20 70 6c     nables random pl
     b59:	61 79 62 61 63 6b 20 6f 72 64 65 72 20 77 68 65     ayback order whe
     b69:	6e 20 70 6c 61 79 69 6e 67 20 74 68 65 20 6e 65     n playing the ne
     b79:	78 74 20 61 75 64 69 6f 20 74 72 61 63 6b 2e 0a     xt audio track..
     b89:	73 65 74 20 2d 70 20 73 68 75 66 66 6c 65 20 31     set -p shuffle 1
     b99:	0a 23 45 6e 61 62 6c 65 73 20 61 75 74 6f 6d 61     .#Enables automa
     ba9:	74 69 63 61 6c 6c 79 20 70 6c 61 79 69 6e 67 20     tically playing 
     bb9:	74 68 65 20 6e 65 78 74 20 61 75 64 69 6f 20 74     the next audio t
     bc9:	72 61 63 6b 20 77 68 65 6e 20 74 68 65 20 63 75     rack when the cu
     bd9:	72 72 65 6e 74 20 74 72 61 63 6b 20 69 73 20 66     rrent track is f
     be9:	69 6e 69 73 68 65 64 2e 0a 73 65 74 20 2d 70 20     inished..set -p 
     bf9:	61 75 74 6f 70 6c 61 79 20 31 0a 0a 23 41 6c 6c     autoplay 1..#All
     c09:	20 72 65 6d 61 69 6e 69 6e 67 20 73 65 74 74 69      remaining setti
     c19:	6e 67 73 20 61 6c 6c 6f 77 20 66 6f 72 20 62 69     ngs allow for bi
     c29:	6e 64 69 6e 67 20 61 20 62 75 74 74 6f 6e 2f 69     nding a button/i
     c39:	6e 70 75 74 20 74 6f 20 61 20 63 65 72 74 61 69     nput to a certai
     c49:	6e 20 65 76 65 6e 74 2e 0a 23 53 65 74 74 69 6e     n event..#Settin
     c59:	67 20 61 20 70 61 72 61 6d 65 74 65 72 20 74 6f     g a parameter to
     c69:	20 74 68 65 20 72 61 6e 67 65 20 6f 66 20 30 20      the range of 0 
     c79:	2d 20 35 20 77 69 6c 6c 20 63 61 75 73 65 20 74     - 5 will cause t
     c89:	68 65 20 61 73 73 6f 63 69 61 74 65 64 20 65 76     he associated ev
     c99:	65 6e 74 20 74 6f 20 6f 63 63 75 72 0a 23 77 68     ent to occur.#wh
     ca9:	65 6e 20 49 4e 50 30 20 2d 20 49 4e 50 35 20 67     en INP0 - INP5 g
     cb9:	6f 65 73 20 66 72 6f 6d 20 61 20 6c 6f 67 69 63     oes from a logic
     cc9:	20 68 69 67 68 20 74 6f 20 6c 6f 67 69 63 20 6c      high to logic l
     cd9:	6f 77 20 6c 65 76 65 6c 2e 20 41 20 70 61 72 61     ow level. A para
     ce9:	6d 65 74 65 72 27 73 20 76 61 6c 75 65 20 69 6e     meter's value in
     cf9:	20 74 68 65 0a 23 72 61 6e 67 65 20 36 20 2d 20      the.#range 6 - 
     d09:	31 31 20 77 69 6c 6c 20 63 61 75 73 65 20 74 68     11 will cause th
     d19:	65 20 61 73 73 6f 63 69 61 74 65 64 20 65 76 65     e associated eve
     d29:	6e 74 20 74 6f 20 6f 63 63 75 72 20 77 68 65 6e     nt to occur when
     d39:	20 49 4e 50 30 20 2d 20 49 4e 50 35 20 67 6f 65      INP0 - INP5 goe
     d49:	73 20 66 72 6f 6d 0a 23 61 20 6c 6f 67 69 63 20     s from.#a logic 
     d59:	6c 6f 77 20 74 6f 20 6c 6f 67 69 63 20 68 69 67     low to logic hig
     d69:	68 20 6c 65 76 65 6c 2e 20 54 68 65 20 66 6f 6c     h level. The fol
     d79:	6c 6f 77 69 6e 67 20 63 6f 6e 66 69 67 75 72 61     lowing configura
     d89:	74 69 6f 6e 20 73 65 74 73 20 75 70 20 77 61 76     tion sets up wav
     d99:	65 70 6c 61 79 65 72 20 66 6f 72 20 61 0a 23 68     eplayer for a.#h
     da9:	61 72 64 77 61 72 65 20 63 6f 6e 66 69 67 75 72     ardware configur
     db9:	61 74 69 6f 6e 20 6f 66 20 35 20 6e 6f 72 6d 61     ation of 5 norma
     dc9:	6c 6c 79 20 6f 70 65 6e 20 62 75 74 74 6f 6e 73     lly open buttons
     dd9:	20 63 6f 6e 6e 65 63 74 65 64 20 74 6f 20 49 4e      connected to IN
     de9:	50 31 20 74 68 72 6f 75 67 68 20 49 4e 50 35 2c     P1 through INP5,
     df9:	20 77 68 65 72 65 3b 0a 23 20 2d 20 50 72 65 73      where;.# - Pres
     e09:	73 69 6e 67 20 62 75 74 74 6f 6e 20 31 20 74 72     sing button 1 tr
     e19:	69 67 67 65 72 73 20 74 68 65 20 6e 65 78 74 20     iggers the next 
     e29:	74 72 61 63 6b 20 74 6f 20 62 65 20 70 6c 61 79     track to be play
     e39:	65 64 0a 23 20 2d 20 50 72 65 73 73 69 6e 67 20     ed.# - Pressing 
     e49:	62 75 74 74 6f 6e 20 32 20 70 61 75 73 65 73 20     button 2 pauses 
     e59:	70 6c 61 79 62 61 63 6b 2c 20 72 65 6c 65 61 73     playback, releas
     e69:	69 6e 67 20 62 75 74 74 6f 6e 20 32 20 72 65 73     ing button 2 res
     e79:	75 6d 65 73 20 70 6c 61 79 62 61 63 6b 0a 23 20     umes playback.# 
     e89:	2d 20 50 72 65 73 73 69 6e 67 20 62 75 74 74 6f     - Pressing butto
     e99:	6e 20 33 20 73 74 6f 70 73 20 70 6c 61 79 62 61     n 3 stops playba
     ea9:	63 6b 0a 23 20 2d 20 50 72 65 73 73 69 6e 67 20     ck.# - Pressing 
     eb9:	62 75 74 74 6f 6e 20 34 20 74 72 69 67 67 65 72     button 4 trigger
     ec9:	73 20 70 6c 61 79 62 61 63 6b 20 6f 66 20 74 68     s playback of th
     ed9:	65 20 66 69 6c 65 20 22 30 31 2e 77 61 76 22 20     e file "01.wav" 
     ee9:	28 69 66 20 69 74 20 65 78 69 73 74 73 29 0a 23     (if it exists).#
     ef9:	20 2d 20 50 72 65 73 73 69 6e 67 20 62 75 74 74      - Pressing butt
     f09:	6f 6e 20 35 20 74 72 69 67 67 65 72 73 20 70 6c     on 5 triggers pl
     f19:	61 79 62 61 63 6b 20 6f 66 20 74 68 65 20 66 69     ayback of the fi
     f29:	6c 65 20 22 30 32 2e 77 61 76 22 20 28 69 66 20     le "02.wav" (if 
     f39:	69 74 20 65 78 69 73 74 73 29 0a 73 65 74 20 2d     it exists).set -
     f49:	70 20 62 74 6e 5f 70 6c 61 79 6e 65 78 74 20 31     p btn_playnext 1
     f59:	0a 73 65 74 20 2d 70 20 62 74 6e 5f 70 61 75 73     .set -p btn_paus
     f69:	65 20 32 0a 73 65 74 20 2d 70 20 62 74 6e 5f 72     e 2.set -p btn_r
     f79:	65 73 75 6d 65 20 38 0a 73 65 74 20 2d 70 20 62     esume 8.set -p b
     f89:	74 6e 5f 73 74 6f 70 20 33 0a 73 65 74 20 2d 70     tn_stop 3.set -p
     f99:	20 62 74 6e 5f 30 31 2e 77 61 76 20 34 0a 73 65      btn_01.wav 4.se
     fa9:	74 20 2d 70 20 62 74 6e 5f 30 32 2e 77 61 76 20     t -p btn_02.wav 
     fb9:	35 0a 23 54 68 65 20 66 6f 6c 6c 6f 77 69 6e 67     5.#The following
     fc9:	20 66 75 6e 63 74 69 6f 6e 73 20 61 72 65 20 6e      functions are n
     fd9:	6f 74 20 75 73 65 64 20 69 6e 20 74 68 69 73 20     ot used in this 
     fe9:	65 78 61 6d 70 6c 65 20 61 6e 64 20 61 72 65 20     example and are 
     ff9:	6c 65 66 74 20 75 6e 75 73 65 64 20 69 6e 20 74     left unused in t
    1009:	68 69 73 20 65 78 61 6d 70 6c 65 0a 23 62 74 6e     his example.#btn
    1019:	5f 74 67 6c 5f 70 61 75 73 65 2c 20 62 74 6e 5f     _tgl_pause, btn_
    1029:	30 33 2e 77 61 76 20 2d 2d 2d 20 62 74 6e 5f 30     03.wav --- btn_0
    1039:	36 2e 77 61 76 0a 23 53 65 65 20 74 68 65 20 64     6.wav.#See the d
    1049:	6f 63 75 6d 65 6e 74 61 74 69 6f 6e 20 66 6f 72     ocumentation for
    1059:	20 6d 6f 72 65 20 74 68 6f 72 6f 75 67 68 20 64      more thorough d
    1069:	65 73 63 72 69 70 74 69 6f 6e 73 20 6f 66 20 68     escriptions of h
    1079:	6f 77 20 74 68 65 73 65 20 65 76 65 6e 74 20 62     ow these event b
    1089:	69 6e 64 69 6e 67 73 20 77 6f 72 6b 2e 0a 23 4e     indings work..#N
    1099:	6f 74 65 3a 20 54 68 65 20 6c 61 73 74 20 6c 69     ote: The last li
    10a9:	6e 65 20 74 6f 20 70 61 72 73 65 20 6d 75 73 74     ne to parse must
    10b9:	20 68 61 76 65 20 61 20 6e 65 77 6c 69 6e 65 20      have a newline 
    10c9:	63 68 61 72 61 63 74 65 72 20 69 6e 20 6f 72 64     character in ord
    10d9:	65 72 20 74 6f 20 62 65 20 70 61 72 73 65 64 2e     er to be parsed.
    10e9:	0a 2d 2d 2d 20 45 4e 44 20 4f 46 20 46 49 4c 45     .--- END OF FILE
    10f9:	20 2d 2d 2d 0a 00                                    ---..

000010ff <__c.4043.2896.1705>:
    10ff:	3c 65 78 65 63 75 74 69 6e 67 3e 20 00              <executing> .

0000110c <__c.4045.2895.1706>:
    110c:	3c 65 78 65 63 75 74 69 6f 6e 20 63 6f 6d 70 6c     <execution compl
    111c:	65 74 65 64 3e 0a 00                                eted>..

00001123 <__c.4099.2888>:
    1123:	3e 00                                               >.

00001125 <__c.4665.3379.1631>:
    1125:	45 52 52 30 35 3a 20 41 75 64 69 6f 20 73 74 72     ERR05: Audio str
    1135:	65 61 6d 20 62 75 66 66 65 72 20 75 6e 64 65 72     eam buffer under
    1145:	72 75 6e 2c 20 63 6f 75 6c 64 20 6e 6f 74 20 72     run, could not r
    1155:	65 61 64 20 64 61 74 61 20 66 72 6f 6d 20 6d 65     ead data from me
    1165:	6d 6f 72 79 20 63 61 72 64 20 71 75 69 63 6b 6c     mory card quickl
    1175:	79 20 65 6e 6f 75 67 68 2e 0a 50 6f 73 73 69 62     y enough..Possib
    1185:	6c 65 20 72 65 73 6f 6c 75 74 69 6f 6e 73 3b 0a     le resolutions;.
    1195:	09 2d 20 44 65 66 72 61 67 6d 65 6e 74 20 6d 65     .- Defragment me
    11a5:	6d 6f 72 79 20 63 61 72 64 0a 09 2d 20 46 6f 72     mory card..- For
    11b5:	6d 61 74 20 6d 65 6d 6f 72 79 20 63 61 72 64 20     mat memory card 
    11c5:	77 69 74 68 20 6c 61 72 67 65 72 20 62 6c 6f 63     with larger bloc
    11d5:	6b 20 73 69 7a 65 0a 09 2d 20 53 77 69 74 63 68     k size..- Switch
    11e5:	20 6d 65 6d 6f 72 79 20 63 61 72 64 73 0a 09 2d      memory cards..-
    11f5:	20 50 6c 61 79 20 6d 6f 6e 6f 20 61 75 64 69 6f      Play mono audio
    1205:	20 61 6e 64 2f 6f 72 20 61 75 64 69 6f 20 77 69      and/or audio wi
    1215:	74 68 20 38 2d 62 69 74 20 64 65 70 74 68 0a 00     th 8-bit depth..

00001225 <__c.4732.3378.1641>:
    1225:	4d 53 47 30 34 3a 20 50 6c 61 79 62 61 63 6b 20     MSG04: Playback 
    1235:	63 6f 6d 70 6c 65 74 65 64 2e 0a 00                 completed...

00001241 <__c.4734.3377.1642>:
    1241:	4d 53 47 30 35 3a 20 50 6c 61 79 62 61 63 6b 20     MSG05: Playback 
    1251:	73 74 6f 70 70 65 64 2e 0a 00                       stopped...

0000125b <__c.4627.3339.1643>:
    125b:	4d 53 47 30 37 3a 20 50 6c 61 79 62 61 63 6b 20     MSG07: Playback 
    126b:	72 65 73 75 6d 65 64 2e 0a 00                       resumed...

00001275 <__c.4632.3340.1644>:
    1275:	4d 53 47 30 36 3a 20 50 6c 61 79 62 61 63 6b 20     MSG06: Playback 
    1285:	70 61 75 73 65 64 2e 0a 00                          paused...

0000128e <__c.4637.3341.1645>:
    128e:	4d 53 47 30 36 3a 20 50 6c 61 79 62 61 63 6b 20     MSG06: Playback 
    129e:	70 61 75 73 65 64 2e 0a 00                          paused...

000012a7 <__c.4639.3342.1646>:
    12a7:	4d 53 47 30 37 3a 20 50 6c 61 79 62 61 63 6b 20     MSG07: Playback 
    12b7:	72 65 73 75 6d 65 64 2e 0a 00                       resumed...

000012c1 <__c.4345.2702.1650>:
    12c1:	4d 53 47 30 38 3a 20 43 61 6e 6e 6f 74 20 62 72     MSG08: Cannot br
    12d1:	6f 77 73 65 20 66 69 6c 65 73 79 73 74 65 6d 20     owse filesystem 
    12e1:	77 68 69 6c 65 20 70 6c 61 79 62 61 63 6b 20 61     while playback a
    12f1:	63 74 69 76 65 2e 0a 00                             ctive...

000012f9 <__c.4350.2699.1651>:
    12f9:	5b 4e 41 4d 45 5d 00                                [NAME].

00001300 <__c.4356.2700.1652>:
    1300:	5b 53 69 7a 65 20 28 62 79 74 65 73 29 5d 00        [Size (bytes)].

0000130f <__c.4362.2701.1653>:
    130f:	25 6c 75 00                                         %lu.

00001313 <__c.4424.2695.1654>:
    1313:	4d 53 47 30 39 3a 20 50 6c 61 79 62 61 63 6b 20     MSG09: Playback 
    1323:	61 63 74 69 76 65 2e 0a 00                          active...

0000132c <__c.4426.2694.1655>:
    132c:	4d 53 47 31 30 3a 20 50 6c 61 79 62 61 63 6b 20     MSG10: Playback 
    133c:	69 6e 61 63 74 69 76 65 2e 0a 00                    inactive...

00001347 <__c.4384.2696.1656>:
    1347:	4d 53 47 30 38 3a 20 43 61 6e 6e 6f 74 20 62 72     MSG08: Cannot br
    1357:	6f 77 73 65 20 66 69 6c 65 73 79 73 74 65 6d 20     owse filesystem 
    1367:	77 68 69 6c 65 20 70 6c 61 79 62 61 63 6b 20 61     while playback a
    1377:	63 74 69 76 65 2e 0a 00                             ctive...

0000137f <__c.4372.2698.1657>:
    137f:	4d 53 47 30 38 3a 20 43 61 6e 6e 6f 74 20 62 72     MSG08: Cannot br
    138f:	6f 77 73 65 20 66 69 6c 65 73 79 73 74 65 6d 20     owse filesystem 
    139f:	77 68 69 6c 65 20 70 6c 61 79 62 61 63 6b 20 61     while playback a
    13af:	63 74 69 76 65 2e 0a 00                             ctive...

000013b7 <__c.4377.2697.1658>:
    13b7:	45 72 72 6f 72 3a 20 63 6f 75 6c 64 20 6e 6f 74     Error: could not
    13c7:	20 66 69 6e 64 20 64 69 72 65 63 74 6f 72 79 3a      find directory:
    13d7:	20 25 73 0a 00                                       %s..

000013dc <__c.4534.3371.1561>:
    13dc:	4d 53 47 30 33 3a 20 50 6c 61 79 62 61 63 6b 20     MSG03: Playback 
    13ec:	69 6e 20 70 72 6f 67 72 65 73 73 2c 20 73 74 6f     in progress, sto
    13fc:	70 70 69 6e 67 20 63 75 72 72 65 6e 74 20 66 69     pping current fi
    140c:	6c 65 2e 0a 00                                      le...

00001411 <__c.4540.3370.1565>:
    1411:	45 52 52 3a 20 63 6f 75 6c 64 20 6e 6f 74 20 66     ERR: could not f
    1421:	69 6e 64 20 66 69 6c 65 20 27 25 73 27 2e 0a 00     ind file '%s'...

00001431 <__c.4546.3368.1567>:
    1431:	52 49 46 46 00                                      RIFF.

00001436 <__c.4548.3367.1568>:
    1436:	45 52 52 3a 20 57 61 76 65 20 68 65 61 64 65 72     ERR: Wave header
    1446:	20 63 68 75 6e 6b 69 64 20 69 6e 63 6f 72 72 65      chunkid incorre
    1456:	63 74 3b 20 25 2e 34 73 0a 00                       ct; %.4s..

00001460 <__c.4552.3366.1569>:
    1460:	45 52 52 3a 20 46 69 6c 65 20 73 69 7a 65 20 65     ERR: File size e
    1470:	72 72 6f 72 20 74 6f 6f 20 6c 61 72 67 65 3b 20     rror too large; 
	...

00001481 <__c.4554.3365.1570>:
    1481:	57 61 76 65 20 68 65 61 64 65 72 20 73 70 65 63     Wave header spec
    1491:	69 66 69 65 73 20 61 20 74 6f 74 61 6c 20 73 69     ifies a total si
    14a1:	7a 65 20 6f 66 20 25 6c 75 20 62 79 74 65 73 2c     ze of %lu bytes,
    14b1:	20 66 69 6c 65 20 69 73 20 61 63 74 75 61 6c 6c      file is actuall
    14c1:	79 20 25 6c 75 20 62 79 74 65 73 2e 00              y %lu bytes..

000014ce <__c.4556.3364.1571>:
    14ce:	0a 00                                               ..

000014d0 <__c.4558.3363.1572>:
    14d0:	57 41 52 4e 30 32 3a 20 00                          WARN02: .

000014d9 <__c.4560.3362.1573>:
    14d9:	57 61 76 65 20 68 65 61 64 65 72 20 73 70 65 63     Wave header spec
    14e9:	69 66 69 65 73 20 61 20 74 6f 74 61 6c 20 73 69     ifies a total si
    14f9:	7a 65 20 6f 66 20 25 6c 75 20 62 79 74 65 73 2c     ze of %lu bytes,
    1509:	20 66 69 6c 65 20 69 73 20 61 63 74 75 61 6c 6c      file is actuall
    1519:	79 20 25 6c 75 20 62 79 74 65 73 2e 00              y %lu bytes..

00001526 <__c.4562.3361.1574>:
    1526:	20 41 73 73 75 6d 69 6e 67 20 73 6d 61 6c 6c 65      Assuming smalle
    1536:	73 74 20 76 61 6c 75 65 2e 0a 00                    st value...

00001541 <__c.4564.3360.1575>:
    1541:	57 41 56 45 00                                      WAVE.

00001546 <__c.4566.3359.1576>:
    1546:	45 52 52 3a 20 57 61 76 65 20 68 65 61 64 65 72     ERR: Wave header
    1556:	20 66 6f 72 6d 61 74 20 69 6e 63 6f 72 72 65 63      format incorrec
    1566:	74 3b 20 25 2e 34 73 0a 00                          t; %.4s..

0000156f <__c.4568.3358.1577>:
    156f:	66 6d 74 20 00                                      fmt .

00001574 <__c.4570.3357.1578>:
    1574:	45 52 52 3a 20 57 61 76 65 20 68 65 61 64 65 72     ERR: Wave header
    1584:	20 73 75 62 63 68 75 6e 6b 31 69 64 20 69 6e 63      subchunk1id inc
    1594:	6f 72 72 65 63 74 3b 20 25 2e 34 73 0a 00           orrect; %.4s..

000015a2 <__c.4572.3356.1579>:
    15a2:	45 52 52 3a 20 57 61 76 65 20 68 65 61 64 65 72     ERR: Wave header
    15b2:	20 73 70 65 63 69 66 69 65 73 20 6e 6f 6e 2d 50      specifies non-P
    15c2:	43 4d 20 66 6f 72 6d 61 74 2e 0a 00                 CM format...

000015ce <__c.4574.3355.1580>:
    15ce:	45 52 52 3a 20 57 61 76 65 20 68 65 61 64 65 72     ERR: Wave header
    15de:	20 73 70 65 63 69 66 69 65 73 20 25 75 20 63 68      specifies %u ch
    15ee:	61 6e 6e 65 6c 73 2c 20 6f 6e 6c 79 20 31 20 6f     annels, only 1 o
    15fe:	72 20 32 20 73 75 70 70 6f 72 74 65 64 2e 0a 00     r 2 supported...

0000160e <__c.4577.3354.1581>:
    160e:	45 52 52 3a 20 57 61 76 65 20 68 65 61 64 65 72     ERR: Wave header
    161e:	20 73 70 65 63 69 66 69 65 73 20 73 61 6d 70 6c      specifies sampl
    162e:	65 20 72 61 74 65 20 25 6c 75 2c 20 73 75 70 70     e rate %lu, supp
    163e:	6f 72 74 65 64 20 72 61 74 65 73 20 61 72 65 20     orted rates are 
    164e:	38 30 30 30 2c 20 31 31 30 32 35 2c 20 31 36 30     8000, 11025, 160
    165e:	30 30 2c 20 32 32 31 30 30 2c 20 33 32 30 30 30     00, 22100, 32000
    166e:	2c 20 34 34 31 30 30 2c 20 61 6e 64 20 34 38 30     , 44100, and 480
    167e:	30 30 20 48 7a 2e 0a 00                             00 Hz...

00001686 <__c.4579.3353.1582>:
    1686:	45 52 52 3a 20 57 61 76 65 20 68 65 61 64 65 72     ERR: Wave header
    1696:	20 73 70 65 63 69 66 69 65 73 20 62 69 74 20 64      specifies bit d
    16a6:	65 70 74 68 20 25 75 2c 20 73 75 70 70 6f 72 74     epth %u, support
    16b6:	65 64 20 76 61 6c 75 65 73 20 61 72 65 20 38 2c     ed values are 8,
    16c6:	20 31 36 2c 20 6f 72 20 32 34 00                     16, or 24.

000016d1 <__c.4582.3352.1583>:
    16d1:	64 61 74 61 00                                      data.

000016d6 <__c.4584.3351.1584>:
    16d6:	4d 53 47 30 32 3a 20 46 6f 75 6e 64 20 76 61 6c     MSG02: Found val
    16e6:	69 64 20 77 61 76 65 20 64 61 74 61 20 68 65 61     id wave data hea
    16f6:	64 65 72 21 0a 00                                   der!..

000016fc <__c.4587.3350.1585>:
    16fc:	45 52 52 3a 20 43 6f 75 6c 64 20 6e 6f 74 20 64     ERR: Could not d
    170c:	65 74 65 63 74 20 73 74 61 72 74 20 6f 66 20 77     etect start of w
    171c:	61 76 65 20 64 61 74 61 20 63 6f 6e 74 65 6e 74     ave data content
    172c:	3b 20 00                                            ; .

0000172f <__c.4589.3349.1586>:
    172f:	6d 61 78 69 6d 75 6d 20 6e 75 6d 62 65 72 20 6f     maximum number o
    173f:	66 20 75 6e 72 65 63 6f 67 6e 69 7a 65 64 20 66     f unrecognized f
    174f:	69 65 6c 64 73 20 73 6b 69 70 70 65 64 2e 0a 00     ields skipped...

0000175f <__c.4591.3348.1587>:
    175f:	57 41 52 4e 30 31 3a 20 55 6e 65 78 70 65 63 74     WARN01: Unexpect
    176f:	65 64 20 77 61 76 65 20 68 65 61 64 65 72 20 66     ed wave header f
    177f:	69 65 6c 64 20 64 65 74 65 63 74 65 64 21 20 41     ield detected! A
    178f:	74 74 65 6d 70 74 69 6e 67 20 74 6f 20 62 79 70     ttempting to byp
    179f:	61 73 73 20 66 69 65 6c 64 20 22 25 2e 34 73 22     ass field "%.4s"
    17af:	20 77 69 74 68 20 25 75 20 62 79 74 65 73 0a 00      with %u bytes..

000017bf <__c.4594.3347.1588>:
    17bf:	45 52 52 3a 20 43 6f 75 6c 64 20 6e 6f 74 20 64     ERR: Could not d
    17cf:	65 74 65 63 74 20 73 74 61 72 74 20 6f 66 20 77     etect start of w
    17df:	61 76 65 20 64 61 74 61 20 63 6f 6e 74 65 6e 74     ave data content
    17ef:	3b 20 00                                            ; .

000017f2 <__c.4596.3346.1589>:
    17f2:	73 63 61 6e 6e 65 64 20 70 61 73 74 20 65 6e 64     scanned past end
    1802:	20 6f 66 20 66 69 6c 65 2e 0a 00                     of file...

0000180d <__c.4600.3345.1590>:
    180d:	45 52 52 3a 20 43 6f 75 6c 64 20 6e 6f 74 20 6f     ERR: Could not o
    181d:	70 65 6e 20 66 69 6c 65 2c 20 68 65 61 64 65 72     pen file, header
    182d:	20 69 6e 63 6f 72 72 65 63 74 2f 63 6f 72 72 75      incorrect/corru
    183d:	70 74 2e 0a 00                                      pt...

00001842 <__c.4602.3344.1591>:
    1842:	4d 53 47 30 31 3a 20 53 74 61 72 74 65 64 20 70     MSG01: Started p
    1852:	6c 61 79 62 61 63 6b 20 6f 66 20 66 69 6c 65 20     layback of file 
    1862:	77 69 74 68 20 25 75 20 63 68 61 6e 6e 65 6c 28     with %u channel(
    1872:	73 29 2c 20 25 6c 75 20 48 7a 20 73 61 6d 70 6c     s), %lu Hz sampl
    1882:	65 20 72 61 74 65 2c 20 25 75 20 62 69 74 73 20     e rate, %u bits 
    1892:	70 65 72 20 73 61 6d 70 6c 65 2c 20 61 6e 64 20     per sample, and 
    18a2:	61 20 73 69 7a 65 20 6f 66 20 25 6c 75 20 62 79     a size of %lu by
    18b2:	74 65 73 2e 0a 00                                   tes...

000018b8 <__c.4614.3343.1592>:
    18b8:	45 52 52 3a 20 43 6f 75 6c 64 20 6e 6f 74 20 6f     ERR: Could not o
    18c8:	70 65 6e 20 66 69 6c 65 2c 20 68 65 61 64 65 72     pen file, header
    18d8:	20 69 6e 63 6f 72 72 65 63 74 2f 63 6f 72 72 75      incorrect/corru
    18e8:	70 74 2e 0a 00                                      pt...

000018ed <__c.4457.2678.1631>:
    18ed:	50 41 52 41 4d 20 20 20 20 20 20 20 20 7c 54 59     PARAM        |TY
    18fd:	50 45 20 20 20 20 20 7c 56 41 4c 55 45 20 20 20     PE     |VALUE   
    190d:	20 20 20 20 20 20 20 7c 4d 49 4e 49 4d 55 4d 20            |MINIMUM 
    191d:	20 20 20 20 20 20 20 7c 4d 41 58 49 4d 55 4d 0a            |MAXIMUM.
	...

0000192e <__c.4475.2693.1632>:
    192e:	49 4e 54 45 47 45 52 00                             INTEGER.

00001936 <__c.4479.2692.1633>:
    1936:	53 54 52 49 4e 47 00                                STRING.

0000193d <__c.4490.2691.1634>:
    193d:	5b 72 77 5d 00                                      [rw].

00001942 <__c.4494.2690.1635>:
    1942:	20 5b 72 5d 00                                       [r].

00001947 <__c.4497.2689.1636>:
    1947:	20 5b 77 5d 00                                       [w].

0000194c <__c.4500.2688.1637>:
    194c:	20 5b 2d 5d 00                                       [-].

00001951 <__c.4508.2687.1638>:
    1951:	5b 72 77 5d 00                                      [rw].

00001956 <__c.4512.2686.1639>:
    1956:	20 5b 72 5d 00                                       [r].

0000195b <__c.4515.2685.1640>:
    195b:	20 5b 77 5d 00                                       [w].

00001960 <__c.4518.2684.1641>:
    1960:	20 5b 2d 5d 00                                       [-].

00001965 <__c.4526.2683.1642>:
    1965:	5b 72 77 5d 00                                      [rw].

0000196a <__c.4530.2682.1643>:
    196a:	20 5b 72 5d 00                                       [r].

0000196f <__c.4533.2681.1644>:
    196f:	20 5b 77 5d 00                                       [w].

00001974 <__c.4536.2680.1645>:
    1974:	20 5b 2d 5d 00                                       [-].

00001979 <__c.4325.2679.1646>:
    1979:	25 6c 64 00                                         %ld.

0000197d <shell_cmd_array>:
    197d:	70 1b 75 1b 3e 23 ab 1b b0 1b 7e 10 ec 1b f2 1b     p.u.>#....~.....
    198d:	63 2a 6b 1c 72 1c 4e 2a b3 1c bd 1c 82 2a 47 1d     c*k.r.N*.....*G.
    199d:	4b 1d 9c 32 91 1d 95 1d 50 31 fa 1e fd 1e 82 24     K..2....P1.....$
    19ad:	46 1f 49 1f 30 25 99 1f a2 1f 22 25 e7 1f ec 1f     F.I.0%...."%....
    19bd:	dd 32 43 20 48 20 ea 34                             .2C H .4

000019c5 <__c.4484.3376.1575>:
    19c5:	4d 53 47 30 33 3a 20 50 6c 61 79 62 61 63 6b 20     MSG03: Playback 
    19d5:	69 6e 20 70 72 6f 67 72 65 73 73 2c 20 73 74 6f     in progress, sto
    19e5:	70 70 69 6e 67 20 63 75 72 72 65 6e 74 20 66 69     pping current fi
    19f5:	6c 65 2e 0a 00                                      le...

000019fa <__c.4495.3375.1577>:
    19fa:	45 52 52 30 36 3a 20 4e 6f 74 20 65 6e 6f 75 67     ERR06: Not enoug
    1a0a:	68 20 76 61 6c 69 64 20 2e 77 61 76 20 66 69 6c     h valid .wav fil
    1a1a:	65 73 20 66 6f 75 6e 64 21 20 28 31 20 66 69 6c     es found! (1 fil
    1a2a:	65 20 6e 65 65 64 65 64 20 69 66 20 73 68 75 66     e needed if shuf
    1a3a:	66 6c 65 20 64 69 73 61 62 6c 65 64 2c 20 32 20     fle disabled, 2 
    1a4a:	66 69 6c 65 73 20 6e 65 65 64 65 64 20 69 66 20     files needed if 
    1a5a:	73 68 75 66 66 6c 65 20 65 6e 61 62 6c 65 64 2e     shuffle enabled.
    1a6a:	29 0a 00                                            )..

00001a6d <__c.4508.3374.1579>:
    1a6d:	4d 53 47 31 32 3a 20 52 61 6e 64 6f 6d 69 7a 65     MSG12: Randomize
    1a7d:	64 20 66 69 6c 65 20 70 6c 61 79 62 61 63 6b 20     d file playback 
    1a8d:	6f 66 20 22 25 73 22 2e 0a 00                       of "%s"...

00001a97 <__c.4515.3373.1580>:
    1a97:	45 52 52 30 36 3a 20 4e 6f 74 20 65 6e 6f 75 67     ERR06: Not enoug
    1aa7:	68 20 76 61 6c 69 64 20 2e 77 61 76 20 66 69 6c     h valid .wav fil
    1ab7:	65 73 20 66 6f 75 6e 64 21 20 28 31 20 66 69 6c     es found! (1 fil
    1ac7:	65 20 6e 65 65 64 65 64 20 69 66 20 73 68 75 66     e needed if shuf
    1ad7:	66 6c 65 20 64 69 73 61 62 6c 65 64 2c 20 32 20     fle disabled, 2 
    1ae7:	66 69 6c 65 73 20 6e 65 65 64 65 64 20 69 66 20     files needed if 
    1af7:	73 68 75 66 66 6c 65 20 65 6e 61 62 6c 65 64 2e     shuffle enabled.
    1b07:	29 0a 00                                            )..

00001b0a <__c.4528.3372.1581>:
    1b0a:	4d 53 47 31 33 3a 20 4f 72 64 72 65 64 20 66 69     MSG13: Ordred fi
    1b1a:	6c 65 20 70 6c 61 79 62 61 63 6b 20 6f 66 20 22     le playback of "
    1b2a:	25 73 22 2e 0a 00                                   %s"...

00001b30 <__c.4478.3338.1582>:
    1b30:	2e 77 61 76 00                                      .wav.

00001b35 <__c.4182.1942.1572>:
    1b35:	4d 53 47 31 31 3a 20 45 78 74 65 72 6e 61 6c 20     MSG11: External 
    1b45:	63 6f 6e 74 72 6f 6c 20 74 72 69 67 67 65 72 65     control triggere
    1b55:	64 20 76 6f 6c 75 6d 65 20 63 68 61 6e 67 65 20     d volume change 
    1b65:	74 6f 20 25 64 20 64 42 2e 0a 00                    to %d dB...

00001b70 <cmd_busy_cmd.2712>:
    1b70:	62 75 73 79 00                                      busy.

00001b75 <cmd_busy_help.2713>:
    1b75:	55 73 61 67 65 3a 20 27 62 75 73 79 27 2e 0a 20     Usage: 'busy'.. 
    1b85:	4f 75 74 70 75 74 73 20 74 68 65 20 63 75 72 72     Outputs the curr
    1b95:	65 6e 74 20 70 6c 61 79 62 61 63 6b 20 73 74 61     ent playback sta
    1ba5:	74 75 73 2e 0a 00                                   tus...

00001bab <cmd_stop_cmd.2714>:
    1bab:	73 74 6f 70 00                                      stop.

00001bb0 <cmd_stop_help.2715>:
    1bb0:	55 73 61 67 65 3a 20 27 73 74 6f 70 27 2e 0a 53     Usage: 'stop'..S
    1bc0:	74 6f 70 73 20 70 6c 61 79 62 61 63 6b 20 6f 66     tops playback of
    1bd0:	20 61 6e 79 20 63 75 72 72 65 6e 74 6c 79 20 70      any currently p
    1be0:	6c 61 79 69 6e 67 20 66 69 6c 65 00                 laying file.

00001bec <cmd_pause_cmd.2716>:
    1bec:	70 61 75 73 65 00                                   pause.

00001bf2 <cmd_pause_help.2717>:
    1bf2:	55 73 61 67 65 3a 20 27 70 61 75 73 65 27 2e 0a     Usage: 'pause'..
    1c02:	50 61 75 73 65 73 20 70 6c 61 79 62 61 63 6b 20     Pauses playback 
    1c12:	6f 66 20 61 6e 79 20 63 75 72 72 65 6e 74 6c 79     of any currently
    1c22:	20 70 6c 61 79 69 6e 67 20 66 69 6c 65 2e 0a 4e      playing file..N
    1c32:	4f 54 45 3a 20 44 65 76 69 63 65 20 64 6f 65 73     OTE: Device does
    1c42:	20 2a 4e 4f 54 2a 20 65 6e 74 65 72 20 6c 6f 77      *NOT* enter low
    1c52:	20 70 6f 77 65 72 20 6d 6f 64 65 20 77 68 65 6e      power mode when
    1c62:	20 70 61 75 73 65 64 21 00                           paused!.

00001c6b <cmd_resume_cmd.2718>:
    1c6b:	72 65 73 75 6d 65 00                                resume.

00001c72 <cmd_resume_help.2719>:
    1c72:	55 73 61 67 65 3a 20 27 72 65 73 75 6d 65 27 2e     Usage: 'resume'.
    1c82:	0a 52 65 73 75 6d 65 73 20 70 6c 61 79 62 61 63     .Resumes playbac
    1c92:	6b 20 6f 66 20 61 6e 79 20 63 75 72 72 65 6e 74     k of any current
    1ca2:	6c 79 20 70 61 75 73 65 64 20 66 69 6c 65 2e 0a     ly paused file..
	...

00001cb3 <cmd_playpause_cmd.2720>:
    1cb3:	70 6c 61 79 70 61 75 73 65 00                       playpause.

00001cbd <cmd_playpause_help.2721>:
    1cbd:	55 73 61 67 65 3a 20 27 70 6c 61 79 70 61 75 73     Usage: 'playpaus
    1ccd:	65 27 2e 0a 54 6f 67 67 6c 65 73 20 74 68 65 20     e'..Toggles the 
    1cdd:	70 6c 61 79 2f 70 61 75 73 65 20 73 74 61 74 65     play/pause state
    1ced:	20 6f 66 20 74 68 65 20 63 75 72 72 65 6e 74 6c      of the currentl
    1cfd:	79 20 70 6c 61 79 69 6e 67 20 66 69 6c 65 2e 0a     y playing file..
    1d0d:	4e 4f 54 45 3a 20 44 65 76 69 63 65 20 64 6f 65     NOTE: Device doe
    1d1d:	73 20 2a 4e 4f 54 2a 20 65 6e 74 65 72 20 6c 6f     s *NOT* enter lo
    1d2d:	77 20 70 6f 77 65 72 20 6d 6f 64 65 20 77 68 65     w power mode whe
    1d3d:	6e 20 70 61 75 73 65 64 21 00                       n paused!.

00001d47 <cmd_get_cmd.2722>:
    1d47:	67 65 74 00                                         get.

00001d4b <cmd_get_help.2723>:
    1d4b:	55 73 61 67 65 3a 20 27 67 65 74 27 20 28 6e 6f     Usage: 'get' (no
    1d5b:	20 61 72 67 75 6d 65 6e 74 73 29 0a 4c 69 73 74      arguments).List
    1d6b:	20 61 6c 6c 20 70 61 72 61 6d 65 74 65 72 73 20      all parameters 
    1d7b:	61 6e 64 20 74 68 65 69 72 20 70 72 6f 70 65 72     and their proper
    1d8b:	74 69 65 73 2e 00                                   ties..

00001d91 <cmd_set_cmd.2724>:
    1d91:	73 65 74 00                                         set.

00001d95 <cmd_set_help.2725>:
    1d95:	55 73 61 67 65 3a 20 27 73 65 74 20 2d 70 20 3c     Usage: 'set -p <
    1da5:	70 61 72 61 6d 3e 20 3c 6e 65 77 20 76 61 6c 75     param> <new valu
    1db5:	65 3e 27 0a 09 2d 70 20 3c 70 61 72 61 6d 3e 3b     e>'..-p <param>;
    1dc5:	20 70 61 72 61 6d 65 74 65 72 20 74 6f 20 61 70      parameter to ap
    1dd5:	70 6c 79 20 63 68 61 6e 67 65 20 74 6f 2e 0a 09     ply change to...
    1de5:	3c 6e 65 77 20 76 61 6c 75 65 3e 3b 20 6e 65 77     <new value>; new
    1df5:	20 76 61 6c 75 65 20 74 6f 20 61 70 70 6c 79 2e      value to apply.
    1e05:	0a 09 2d 73 75 64 6f 3b 20 66 6f 72 63 65 73 20     ..-sudo; forces 
    1e15:	77 72 69 74 65 20 28 69 67 6e 6f 72 65 73 20 70     write (ignores p
    1e25:	61 72 61 6d 65 74 65 72 20 77 72 69 74 65 20 70     arameter write p
    1e35:	65 72 6d 69 73 73 69 6f 6e 29 2e 0a 09 2d 6d 61     ermission)...-ma
    1e45:	78 3b 20 61 70 70 6c 69 65 73 20 63 68 61 6e 67     x; applies chang
    1e55:	65 20 74 6f 20 70 61 72 61 6d 65 74 65 72 27 73     e to parameter's
    1e65:	20 6d 61 78 69 6d 75 6d 20 76 61 6c 75 65 2e 0a      maximum value..
    1e75:	09 2d 6d 69 6e 3b 20 61 70 70 6c 69 65 73 20 63     .-min; applies c
    1e85:	68 61 6e 67 65 20 74 6f 20 70 61 72 61 6d 65 74     hange to paramet
    1e95:	65 72 27 73 20 6d 69 6e 69 6d 75 6d 20 76 61 6c     er's minimum val
    1ea5:	75 65 2e 0a 53 65 74 73 20 61 20 6e 65 77 20 76     ue..Sets a new v
    1eb5:	61 6c 75 65 20 74 6f 20 61 20 70 61 72 61 6d 65     alue to a parame
    1ec5:	74 65 72 2e 20 4c 69 6d 69 74 65 64 20 74 6f 20     ter. Limited to 
    1ed5:	72 61 6e 67 65 20 6f 66 20 6d 69 6e 69 6d 75 6d     range of minimum
    1ee5:	20 61 6e 64 20 6d 61 78 69 6d 75 6d 20 76 61 6c      and maximum val
    1ef5:	75 65 73 2e 00                                      ues..

00001efa <cmd_ls_cmd.2726>:
    1efa:	6c 73 00                                            ls.

00001efd <cmd_ls_help.2727>:
    1efd:	55 73 61 67 65 3a 20 27 6c 73 27 20 28 6e 6f 20     Usage: 'ls' (no 
    1f0d:	61 72 67 75 6d 65 6e 74 73 29 2e 0a 4c 69 73 74     arguments)..List
    1f1d:	73 20 74 68 65 20 63 6f 6e 74 65 6e 74 73 20 6f     s the contents o
    1f2d:	66 20 74 68 65 20 63 75 72 72 65 6e 74 20 64 69     f the current di
    1f3d:	72 65 63 74 6f 72 79 2e 00                          rectory..

00001f46 <cmd_cd_cmd.2728>:
    1f46:	63 64 00                                            cd.

00001f49 <cmd_cd_help.2729>:
    1f49:	55 73 61 67 65 3a 20 27 63 64 20 3c 64 69 72 3e     Usage: 'cd <dir>
    1f59:	27 2e 0a 4d 6f 76 65 73 20 74 6f 20 64 69 72 65     '..Moves to dire
    1f69:	63 74 6f 72 79 20 3c 64 69 72 3e 2c 20 72 65 6c     ctory <dir>, rel
    1f79:	61 74 69 76 65 20 74 6f 20 74 68 65 20 63 75 72     ative to the cur
    1f89:	72 65 6e 74 20 64 69 72 65 63 74 6f 72 79 2e 00     rent directory..

00001f99 <cmd_diskinfo_cmd.2730>:
    1f99:	64 69 73 6b 69 6e 66 6f 00                          diskinfo.

00001fa2 <cmd_diskinfo_help.2731>:
    1fa2:	55 73 61 67 65 3a 20 27 64 69 73 6b 69 6e 66 6f     Usage: 'diskinfo
    1fb2:	27 20 28 6e 6f 20 61 72 67 75 6d 65 6e 74 73 29     ' (no arguments)
    1fc2:	2e 0a 44 69 73 70 6c 61 79 73 20 76 61 72 69 6f     ..Displays vario
    1fd2:	75 73 20 64 69 73 6b 20 69 6e 66 6f 72 6d 61 74     us disk informat
    1fe2:	69 6f 6e 2e 00                                      ion..

00001fe7 <cmd_play_cmd.2732>:
    1fe7:	70 6c 61 79 00                                      play.

00001fec <cmd_play_help.2733>:
    1fec:	55 73 61 67 65 3a 20 27 70 6c 61 79 20 3c 66 69     Usage: 'play <fi
    1ffc:	6c 65 6e 61 6d 65 3e 27 2e 0a 53 74 61 72 74 73     lename>'..Starts
    200c:	20 70 6c 61 79 62 61 63 6b 20 6f 66 20 66 69 6c      playback of fil
    201c:	65 20 3c 66 69 6c 65 6e 61 6d 65 3e 20 69 6e 20     e <filename> in 
    202c:	74 68 65 20 63 75 72 72 65 6e 74 20 64 69 72 65     the current dire
    203c:	63 74 6f 72 79 2e 00                                ctory..

00002043 <cmd_next_cmd.2734>:
    2043:	6e 65 78 74 00                                      next.

00002048 <cmd_next_help.2735>:
    2048:	55 73 61 67 65 3a 20 27 6e 65 78 74 27 2e 0a 50     Usage: 'next'..P
    2058:	6c 61 79 73 20 74 68 65 20 6e 65 78 74 20 74 72     lays the next tr
    2068:	61 63 6b 2c 20 72 61 6e 64 6f 6d 6c 79 20 69 66     ack, randomly if
    2078:	20 73 68 75 66 66 6c 65 20 69 73 20 73 65 74 2c      shuffle is set,
    2088:	20 69 6e 20 61 6c 70 68 61 62 65 74 69 63 61 6c      in alphabetical
    2098:	20 6f 72 64 65 72 20 6f 74 68 65 72 77 69 73 65      order otherwise
    20a8:	2e 0a 00 00                                         ....

000020ac <__ctors_end>:
    20ac:	11 24       	eor	r1, r1
    20ae:	1f be       	out	0x3f, r1	; 63
    20b0:	cf ef       	ldi	r28, 0xFF	; 255
    20b2:	df e2       	ldi	r29, 0x2F	; 47
    20b4:	de bf       	out	0x3e, r29	; 62
    20b6:	cd bf       	out	0x3d, r28	; 61

000020b8 <__do_copy_data>:
    20b8:	12 e2       	ldi	r17, 0x22	; 34
    20ba:	a0 e0       	ldi	r26, 0x00	; 0
    20bc:	b0 e2       	ldi	r27, 0x20	; 32
    20be:	ec e6       	ldi	r30, 0x6C	; 108
    20c0:	fc e8       	ldi	r31, 0x8C	; 140
    20c2:	02 c0       	rjmp	.+4      	; 0x20c8 <__do_copy_data+0x10>
    20c4:	05 90       	lpm	r0, Z+
    20c6:	0d 92       	st	X+, r0
    20c8:	ae 38       	cpi	r26, 0x8E	; 142
    20ca:	b1 07       	cpc	r27, r17
    20cc:	d9 f7       	brne	.-10     	; 0x20c4 <__do_copy_data+0xc>

000020ce <__do_clear_bss>:
    20ce:	2b e2       	ldi	r18, 0x2B	; 43
    20d0:	ae e8       	ldi	r26, 0x8E	; 142
    20d2:	b2 e2       	ldi	r27, 0x22	; 34
    20d4:	01 c0       	rjmp	.+2      	; 0x20d8 <.do_clear_bss_start>

000020d6 <.do_clear_bss_loop>:
    20d6:	1d 92       	st	X+, r1

000020d8 <.do_clear_bss_start>:
    20d8:	ae 3a       	cpi	r26, 0xAE	; 174
    20da:	b2 07       	cpc	r27, r18
    20dc:	e1 f7       	brne	.-8      	; 0x20d6 <.do_clear_bss_loop>
    20de:	0e 94 d9 36 	call	0x6db2	; 0x6db2 <main>
    20e2:	0c 94 34 46 	jmp	0x8c68	; 0x8c68 <_exit>

000020e6 <__bad_interrupt>:
    20e6:	0c 94 ca 21 	jmp	0x4394	; 0x4394 <__vector_default>

000020ea <waveplay_stop>:
    20ea:	8f b7       	in	r24, 0x3f	; 63
    20ec:	f8 94       	cli
    20ee:	91 e0       	ldi	r25, 0x01	; 1
    20f0:	90 93 90 2b 	sts	0x2B90, r25
    20f4:	10 92 91 2b 	sts	0x2B91, r1
    20f8:	8f bf       	out	0x3f, r24	; 63
    20fa:	08 95       	ret

000020fc <cmd_stop_f>:
    20fc:	f6 df       	rcall	.-20     	; 0x20ea <waveplay_stop>
    20fe:	80 e0       	ldi	r24, 0x00	; 0
    2100:	08 95       	ret

00002102 <uart_getc.1432>:
    2102:	80 91 48 20 	lds	r24, 0x2048
    2106:	90 91 47 20 	lds	r25, 0x2047
    210a:	89 17       	cp	r24, r25
    210c:	a1 f0       	breq	.+40     	; 0x2136 <uart_getc.1432+0x34>
    210e:	90 e0       	ldi	r25, 0x00	; 0
    2110:	01 96       	adiw	r24, 0x01	; 1
    2112:	60 91 49 20 	lds	r22, 0x2049
    2116:	70 e0       	ldi	r23, 0x00	; 0
    2118:	0e 94 04 40 	call	0x8008	; 0x8008 <__divmodhi4>
    211c:	80 93 48 20 	sts	0x2048, r24
    2120:	20 91 4a 20 	lds	r18, 0x204A
    2124:	28 9f       	mul	r18, r24
    2126:	f0 01       	movw	r30, r0
    2128:	29 9f       	mul	r18, r25
    212a:	f0 0d       	add	r31, r0
    212c:	11 24       	eor	r1, r1
    212e:	e9 5b       	subi	r30, 0xB9	; 185
    2130:	ff 4d       	sbci	r31, 0xDF	; 223
    2132:	84 81       	ldd	r24, Z+4	; 0x04
    2134:	08 95       	ret
    2136:	ff cf       	rjmp	.-2      	; 0x2136 <uart_getc.1432+0x34>

00002138 <terminal_getc.1437>:
    2138:	20 91 90 22 	lds	r18, 0x2290
    213c:	30 91 91 22 	lds	r19, 0x2291
    2140:	21 15       	cp	r18, r1
    2142:	31 05       	cpc	r19, r1
    2144:	e1 f0       	breq	.+56     	; 0x217e <terminal_getc.1437+0x46>
    2146:	80 91 03 20 	lds	r24, 0x2003
    214a:	90 91 02 20 	lds	r25, 0x2002
    214e:	98 17       	cp	r25, r24
    2150:	f1 f0       	breq	.+60     	; 0x218e <terminal_getc.1437+0x56>
    2152:	90 e0       	ldi	r25, 0x00	; 0
    2154:	01 96       	adiw	r24, 0x01	; 1
    2156:	60 91 04 20 	lds	r22, 0x2004
    215a:	70 e0       	ldi	r23, 0x00	; 0
    215c:	0e 94 04 40 	call	0x8008	; 0x8008 <__divmodhi4>
    2160:	80 93 03 20 	sts	0x2003, r24
    2164:	40 91 05 20 	lds	r20, 0x2005
    2168:	48 9f       	mul	r20, r24
    216a:	f0 01       	movw	r30, r0
    216c:	49 9f       	mul	r20, r25
    216e:	f0 0d       	add	r31, r0
    2170:	11 24       	eor	r1, r1
    2172:	ee 5f       	subi	r30, 0xFE	; 254
    2174:	ff 4d       	sbci	r31, 0xDF	; 223
    2176:	84 81       	ldd	r24, Z+4	; 0x04
    2178:	8a 30       	cpi	r24, 0x0A	; 10
    217a:	11 f0       	breq	.+4      	; 0x2180 <terminal_getc.1437+0x48>
    217c:	08 95       	ret
    217e:	ff cf       	rjmp	.-2      	; 0x217e <terminal_getc.1437+0x46>
    2180:	21 50       	subi	r18, 0x01	; 1
    2182:	31 09       	sbc	r19, r1
    2184:	20 93 90 22 	sts	0x2290, r18
    2188:	30 93 91 22 	sts	0x2291, r19
    218c:	08 95       	ret
    218e:	ff cf       	rjmp	.-2      	; 0x218e <terminal_getc.1437+0x56>

00002190 <shell_stream_getc>:
    2190:	d3 df       	rcall	.-90     	; 0x2138 <terminal_getc.1437>
    2192:	90 e0       	ldi	r25, 0x00	; 0
    2194:	08 95       	ret

00002196 <fat_get_next_cluster.2258.1572>:
    2196:	8f 92       	push	r8
    2198:	9f 92       	push	r9
    219a:	af 92       	push	r10
    219c:	bf 92       	push	r11
    219e:	cf 92       	push	r12
    21a0:	df 92       	push	r13
    21a2:	ef 92       	push	r14
    21a4:	ff 92       	push	r15
    21a6:	0f 93       	push	r16
    21a8:	1f 93       	push	r17
    21aa:	cf 93       	push	r28
    21ac:	df 93       	push	r29
    21ae:	cd b7       	in	r28, 0x3d	; 61
    21b0:	de b7       	in	r29, 0x3e	; 62
    21b2:	26 97       	sbiw	r28, 0x06	; 6
    21b4:	cd bf       	out	0x3d, r28	; 61
    21b6:	de bf       	out	0x3e, r29	; 62
    21b8:	fc 01       	movw	r30, r24
    21ba:	00 97       	sbiw	r24, 0x00	; 0
    21bc:	09 f4       	brne	.+2      	; 0x21c0 <fat_get_next_cluster.2258.1572+0x2a>
    21be:	54 c0       	rjmp	.+168    	; 0x2268 <fat_get_next_cluster.2258.1572+0xd2>
    21c0:	42 30       	cpi	r20, 0x02	; 2
    21c2:	51 05       	cpc	r21, r1
    21c4:	61 05       	cpc	r22, r1
    21c6:	71 05       	cpc	r23, r1
    21c8:	08 f4       	brcc	.+2      	; 0x21cc <fat_get_next_cluster.2258.1572+0x36>
    21ca:	4e c0       	rjmp	.+156    	; 0x2268 <fat_get_next_cluster.2258.1572+0xd2>
    21cc:	a0 81       	ld	r26, Z
    21ce:	b1 81       	ldd	r27, Z+1	; 0x01
    21d0:	18 96       	adiw	r26, 0x08	; 8
    21d2:	8c 91       	ld	r24, X
    21d4:	18 97       	sbiw	r26, 0x08	; 8
    21d6:	4a 01       	movw	r8, r20
    21d8:	5b 01       	movw	r10, r22
    21da:	9a 01       	movw	r18, r20
    21dc:	a5 01       	movw	r20, r10
    21de:	60 e0       	ldi	r22, 0x00	; 0
    21e0:	70 e0       	ldi	r23, 0x00	; 0
    21e2:	8b 30       	cpi	r24, 0x0B	; 11
    21e4:	09 f4       	brne	.+2      	; 0x21e8 <fat_get_next_cluster.2258.1572+0x52>
    21e6:	55 c0       	rjmp	.+170    	; 0x2292 <fat_get_next_cluster.2258.1572+0xfc>
    21e8:	80 e0       	ldi	r24, 0x00	; 0
    21ea:	90 e0       	ldi	r25, 0x00	; 0
    21ec:	01 e0       	ldi	r16, 0x01	; 1
    21ee:	0e 94 68 40 	call	0x80d0	; 0x80d0 <__ashldi3>
    21f2:	a2 84       	ldd	r10, Z+10	; 0x0a
    21f4:	b3 84       	ldd	r11, Z+11	; 0x0b
    21f6:	c4 84       	ldd	r12, Z+12	; 0x0c
    21f8:	d5 84       	ldd	r13, Z+13	; 0x0d
    21fa:	e6 84       	ldd	r14, Z+14	; 0x0e
    21fc:	f7 84       	ldd	r15, Z+15	; 0x0f
    21fe:	00 89       	ldd	r16, Z+16	; 0x10
    2200:	11 89       	ldd	r17, Z+17	; 0x11
    2202:	0e 94 86 40 	call	0x810c	; 0x810c <__adddi3>
    2206:	ed 91       	ld	r30, X+
    2208:	fc 91       	ld	r31, X
    220a:	a2 e0       	ldi	r26, 0x02	; 2
    220c:	ea 2e       	mov	r14, r26
    220e:	f1 2c       	mov	r15, r1
    2210:	8e 01       	movw	r16, r28
    2212:	0b 5f       	subi	r16, 0xFB	; 251
    2214:	1f 4f       	sbci	r17, 0xFF	; 255
    2216:	09 95       	icall
    2218:	88 23       	and	r24, r24
    221a:	31 f1       	breq	.+76     	; 0x2268 <fat_get_next_cluster.2258.1572+0xd2>
    221c:	cd 80       	ldd	r12, Y+5	; 0x05
    221e:	de 80       	ldd	r13, Y+6	; 0x06
    2220:	e1 2c       	mov	r14, r1
    2222:	f1 2c       	mov	r15, r1
    2224:	c1 14       	cp	r12, r1
    2226:	d1 04       	cpc	r13, r1
    2228:	e1 04       	cpc	r14, r1
    222a:	f1 04       	cpc	r15, r1
    222c:	e9 f0       	breq	.+58     	; 0x2268 <fat_get_next_cluster.2258.1572+0xd2>
    222e:	87 ef       	ldi	r24, 0xF7	; 247
    2230:	c8 16       	cp	r12, r24
    2232:	8f ef       	ldi	r24, 0xFF	; 255
    2234:	d8 06       	cpc	r13, r24
    2236:	e1 04       	cpc	r14, r1
    2238:	f1 04       	cpc	r15, r1
    223a:	b1 f0       	breq	.+44     	; 0x2268 <fat_get_next_cluster.2258.1572+0xd2>
    223c:	97 01       	movw	r18, r14
    223e:	86 01       	movw	r16, r12
    2240:	00 5f       	subi	r16, 0xF0	; 240
    2242:	1f 4f       	sbci	r17, 0xFF	; 255
    2244:	21 09       	sbc	r18, r1
    2246:	31 09       	sbc	r19, r1
    2248:	07 30       	cpi	r16, 0x07	; 7
    224a:	11 05       	cpc	r17, r1
    224c:	21 05       	cpc	r18, r1
    224e:	31 05       	cpc	r19, r1
    2250:	58 f0       	brcs	.+22     	; 0x2268 <fat_get_next_cluster.2258.1572+0xd2>
    2252:	a7 01       	movw	r20, r14
    2254:	96 01       	movw	r18, r12
    2256:	28 5f       	subi	r18, 0xF8	; 248
    2258:	3f 4f       	sbci	r19, 0xFF	; 255
    225a:	41 09       	sbc	r20, r1
    225c:	51 09       	sbc	r21, r1
    225e:	28 30       	cpi	r18, 0x08	; 8
    2260:	31 05       	cpc	r19, r1
    2262:	41 05       	cpc	r20, r1
    2264:	51 05       	cpc	r21, r1
    2266:	18 f4       	brcc	.+6      	; 0x226e <fat_get_next_cluster.2258.1572+0xd8>
    2268:	c1 2c       	mov	r12, r1
    226a:	d1 2c       	mov	r13, r1
    226c:	76 01       	movw	r14, r12
    226e:	b6 01       	movw	r22, r12
    2270:	c7 01       	movw	r24, r14
    2272:	26 96       	adiw	r28, 0x06	; 6
    2274:	cd bf       	out	0x3d, r28	; 61
    2276:	de bf       	out	0x3e, r29	; 62
    2278:	df 91       	pop	r29
    227a:	cf 91       	pop	r28
    227c:	1f 91       	pop	r17
    227e:	0f 91       	pop	r16
    2280:	ff 90       	pop	r15
    2282:	ef 90       	pop	r14
    2284:	df 90       	pop	r13
    2286:	cf 90       	pop	r12
    2288:	bf 90       	pop	r11
    228a:	af 90       	pop	r10
    228c:	9f 90       	pop	r9
    228e:	8f 90       	pop	r8
    2290:	08 95       	ret
    2292:	80 e0       	ldi	r24, 0x00	; 0
    2294:	90 e0       	ldi	r25, 0x00	; 0
    2296:	02 e0       	ldi	r16, 0x02	; 2
    2298:	0e 94 68 40 	call	0x80d0	; 0x80d0 <__ashldi3>
    229c:	a2 84       	ldd	r10, Z+10	; 0x0a
    229e:	b3 84       	ldd	r11, Z+11	; 0x0b
    22a0:	c4 84       	ldd	r12, Z+12	; 0x0c
    22a2:	d5 84       	ldd	r13, Z+13	; 0x0d
    22a4:	e6 84       	ldd	r14, Z+14	; 0x0e
    22a6:	f7 84       	ldd	r15, Z+15	; 0x0f
    22a8:	00 89       	ldd	r16, Z+16	; 0x10
    22aa:	11 89       	ldd	r17, Z+17	; 0x11
    22ac:	0e 94 86 40 	call	0x810c	; 0x810c <__adddi3>
    22b0:	ed 91       	ld	r30, X+
    22b2:	fc 91       	ld	r31, X
    22b4:	b4 e0       	ldi	r27, 0x04	; 4
    22b6:	eb 2e       	mov	r14, r27
    22b8:	f1 2c       	mov	r15, r1
    22ba:	8e 01       	movw	r16, r28
    22bc:	0f 5f       	subi	r16, 0xFF	; 255
    22be:	1f 4f       	sbci	r17, 0xFF	; 255
    22c0:	09 95       	icall
    22c2:	88 23       	and	r24, r24
    22c4:	89 f2       	breq	.-94     	; 0x2268 <fat_get_next_cluster.2258.1572+0xd2>
    22c6:	c9 80       	ldd	r12, Y+1	; 0x01
    22c8:	da 80       	ldd	r13, Y+2	; 0x02
    22ca:	eb 80       	ldd	r14, Y+3	; 0x03
    22cc:	fc 80       	ldd	r15, Y+4	; 0x04
    22ce:	c1 14       	cp	r12, r1
    22d0:	d1 04       	cpc	r13, r1
    22d2:	e1 04       	cpc	r14, r1
    22d4:	f1 04       	cpc	r15, r1
    22d6:	41 f2       	breq	.-112    	; 0x2268 <fat_get_next_cluster.2258.1572+0xd2>
    22d8:	87 ef       	ldi	r24, 0xF7	; 247
    22da:	c8 16       	cp	r12, r24
    22dc:	8f ef       	ldi	r24, 0xFF	; 255
    22de:	d8 06       	cpc	r13, r24
    22e0:	e8 06       	cpc	r14, r24
    22e2:	8f e0       	ldi	r24, 0x0F	; 15
    22e4:	f8 06       	cpc	r15, r24
    22e6:	09 f4       	brne	.+2      	; 0x22ea <fat_get_next_cluster.2258.1572+0x154>
    22e8:	bf cf       	rjmp	.-130    	; 0x2268 <fat_get_next_cluster.2258.1572+0xd2>
    22ea:	b7 01       	movw	r22, r14
    22ec:	a6 01       	movw	r20, r12
    22ee:	40 5f       	subi	r20, 0xF0	; 240
    22f0:	5f 4f       	sbci	r21, 0xFF	; 255
    22f2:	6f 4f       	sbci	r22, 0xFF	; 255
    22f4:	7f 40       	sbci	r23, 0x0F	; 15
    22f6:	47 30       	cpi	r20, 0x07	; 7
    22f8:	51 05       	cpc	r21, r1
    22fa:	61 05       	cpc	r22, r1
    22fc:	71 05       	cpc	r23, r1
    22fe:	08 f4       	brcc	.+2      	; 0x2302 <fat_get_next_cluster.2258.1572+0x16c>
    2300:	b3 cf       	rjmp	.-154    	; 0x2268 <fat_get_next_cluster.2258.1572+0xd2>
    2302:	c7 01       	movw	r24, r14
    2304:	b6 01       	movw	r22, r12
    2306:	68 5f       	subi	r22, 0xF8	; 248
    2308:	7f 4f       	sbci	r23, 0xFF	; 255
    230a:	8f 4f       	sbci	r24, 0xFF	; 255
    230c:	9f 40       	sbci	r25, 0x0F	; 15
    230e:	68 30       	cpi	r22, 0x08	; 8
    2310:	71 05       	cpc	r23, r1
    2312:	81 05       	cpc	r24, r1
    2314:	91 05       	cpc	r25, r1
    2316:	08 f0       	brcs	.+2      	; 0x231a <fat_get_next_cluster.2258.1572+0x184>
    2318:	aa cf       	rjmp	.-172    	; 0x226e <fat_get_next_cluster.2258.1572+0xd8>
    231a:	a6 cf       	rjmp	.-180    	; 0x2268 <fat_get_next_cluster.2258.1572+0xd2>

0000231c <board_set_uart_txbuf>:
    231c:	80 93 c0 09 	sts	0x09C0, r24
    2320:	08 95       	ret

00002322 <board_get_uart_txfull>:
    2322:	e0 ec       	ldi	r30, 0xC0	; 192
    2324:	f9 e0       	ldi	r31, 0x09	; 9
    2326:	81 81       	ldd	r24, Z+1	; 0x01
    2328:	85 fb       	bst	r24, 5
    232a:	88 27       	eor	r24, r24
    232c:	80 f9       	bld	r24, 0
    232e:	91 e0       	ldi	r25, 0x01	; 1
    2330:	89 27       	eor	r24, r25
    2332:	08 95       	ret

00002334 <board_get_btn>:
    2334:	86 30       	cpi	r24, 0x06	; 6
    2336:	60 f4       	brcc	.+24     	; 0x2350 <board_get_btn+0x1c>
    2338:	20 91 08 06 	lds	r18, 0x0608
    233c:	30 e0       	ldi	r19, 0x00	; 0
    233e:	02 c0       	rjmp	.+4      	; 0x2344 <board_get_btn+0x10>
    2340:	35 95       	asr	r19
    2342:	27 95       	ror	r18
    2344:	8a 95       	dec	r24
    2346:	e2 f7       	brpl	.-8      	; 0x2340 <board_get_btn+0xc>
    2348:	82 2f       	mov	r24, r18
    234a:	80 95       	com	r24
    234c:	81 70       	andi	r24, 0x01	; 1
    234e:	08 95       	ret
    2350:	80 e0       	ldi	r24, 0x00	; 0
    2352:	08 95       	ret

00002354 <waveplay_bufwrite_16bit>:
    2354:	cf 93       	push	r28
    2356:	df 93       	push	r29
    2358:	ec 01       	movw	r28, r24
    235a:	46 2f       	mov	r20, r22
    235c:	80 91 b4 2a 	lds	r24, 0x2AB4
    2360:	20 91 b5 2a 	lds	r18, 0x2AB5
    2364:	90 e0       	ldi	r25, 0x00	; 0
    2366:	02 96       	adiw	r24, 0x02	; 2
    2368:	6a e0       	ldi	r22, 0x0A	; 10
    236a:	70 e0       	ldi	r23, 0x00	; 0
    236c:	0e 94 04 40 	call	0x8008	; 0x8008 <__divmodhi4>
    2370:	30 e0       	ldi	r19, 0x00	; 0
    2372:	82 17       	cp	r24, r18
    2374:	93 07       	cpc	r25, r19
    2376:	61 f1       	breq	.+88     	; 0x23d0 <waveplay_bufwrite_16bit+0x7c>
    2378:	a0 91 b4 2a 	lds	r26, 0x2AB4
    237c:	30 e8       	ldi	r19, 0x80	; 128
    237e:	a3 9f       	mul	r26, r19
    2380:	d0 01       	movw	r26, r0
    2382:	11 24       	eor	r1, r1
    2384:	ac 54       	subi	r26, 0x4C	; 76
    2386:	ba 4d       	sbci	r27, 0xDA	; 218
    2388:	fd 01       	movw	r30, r26
    238a:	31 96       	adiw	r30, 0x01	; 1
    238c:	bd 01       	movw	r22, r26
    238e:	6f 57       	subi	r22, 0x7F	; 127
    2390:	7f 4f       	sbci	r23, 0xFF	; 255
    2392:	0a c0       	rjmp	.+20     	; 0x23a8 <waveplay_bufwrite_16bit+0x54>
    2394:	29 91       	ld	r18, Y+
    2396:	39 91       	ld	r19, Y+
    2398:	3c 93       	st	X, r19
    239a:	20 83       	st	Z, r18
    239c:	41 50       	subi	r20, 0x01	; 1
    239e:	12 96       	adiw	r26, 0x02	; 2
    23a0:	32 96       	adiw	r30, 0x02	; 2
    23a2:	e6 17       	cp	r30, r22
    23a4:	f7 07       	cpc	r31, r23
    23a6:	49 f0       	breq	.+18     	; 0x23ba <waveplay_bufwrite_16bit+0x66>
    23a8:	41 11       	cpse	r20, r1
    23aa:	f4 cf       	rjmp	.-24     	; 0x2394 <waveplay_bufwrite_16bit+0x40>
    23ac:	1c 92       	st	X, r1
    23ae:	10 82       	st	Z, r1
    23b0:	12 96       	adiw	r26, 0x02	; 2
    23b2:	32 96       	adiw	r30, 0x02	; 2
    23b4:	e6 17       	cp	r30, r22
    23b6:	f7 07       	cpc	r31, r23
    23b8:	b9 f7       	brne	.-18     	; 0x23a8 <waveplay_bufwrite_16bit+0x54>
    23ba:	50 91 b4 2a 	lds	r21, 0x2AB4
    23be:	85 2f       	mov	r24, r21
    23c0:	90 e0       	ldi	r25, 0x00	; 0
    23c2:	01 96       	adiw	r24, 0x01	; 1
    23c4:	6a e0       	ldi	r22, 0x0A	; 10
    23c6:	70 e0       	ldi	r23, 0x00	; 0
    23c8:	0e 94 04 40 	call	0x8008	; 0x8008 <__divmodhi4>
    23cc:	80 93 b4 2a 	sts	0x2AB4, r24
    23d0:	df 91       	pop	r29
    23d2:	cf 91       	pop	r28
    23d4:	08 95       	ret

000023d6 <waveplay_bufwrite_8bit>:
    23d6:	cf 93       	push	r28
    23d8:	df 93       	push	r29
    23da:	ec 01       	movw	r28, r24
    23dc:	46 2f       	mov	r20, r22
    23de:	80 91 b4 2a 	lds	r24, 0x2AB4
    23e2:	20 91 b5 2a 	lds	r18, 0x2AB5
    23e6:	90 e0       	ldi	r25, 0x00	; 0
    23e8:	02 96       	adiw	r24, 0x02	; 2
    23ea:	6a e0       	ldi	r22, 0x0A	; 10
    23ec:	70 e0       	ldi	r23, 0x00	; 0
    23ee:	0e 94 04 40 	call	0x8008	; 0x8008 <__divmodhi4>
    23f2:	30 e0       	ldi	r19, 0x00	; 0
    23f4:	82 17       	cp	r24, r18
    23f6:	93 07       	cpc	r25, r19
    23f8:	61 f1       	breq	.+88     	; 0x2452 <waveplay_bufwrite_8bit+0x7c>
    23fa:	a0 91 b4 2a 	lds	r26, 0x2AB4
    23fe:	30 e8       	ldi	r19, 0x80	; 128
    2400:	a3 9f       	mul	r26, r19
    2402:	d0 01       	movw	r26, r0
    2404:	11 24       	eor	r1, r1
    2406:	ac 54       	subi	r26, 0x4C	; 76
    2408:	ba 4d       	sbci	r27, 0xDA	; 218
    240a:	fd 01       	movw	r30, r26
    240c:	31 96       	adiw	r30, 0x01	; 1
    240e:	bd 01       	movw	r22, r26
    2410:	6f 57       	subi	r22, 0x7F	; 127
    2412:	7f 4f       	sbci	r23, 0xFF	; 255
    2414:	0a c0       	rjmp	.+20     	; 0x242a <waveplay_bufwrite_8bit+0x54>
    2416:	59 91       	ld	r21, Y+
    2418:	5f 57       	subi	r21, 0x7F	; 127
    241a:	5c 93       	st	X, r21
    241c:	10 82       	st	Z, r1
    241e:	41 50       	subi	r20, 0x01	; 1
    2420:	12 96       	adiw	r26, 0x02	; 2
    2422:	32 96       	adiw	r30, 0x02	; 2
    2424:	e6 17       	cp	r30, r22
    2426:	f7 07       	cpc	r31, r23
    2428:	49 f0       	breq	.+18     	; 0x243c <waveplay_bufwrite_8bit+0x66>
    242a:	41 11       	cpse	r20, r1
    242c:	f4 cf       	rjmp	.-24     	; 0x2416 <waveplay_bufwrite_8bit+0x40>
    242e:	1c 92       	st	X, r1
    2430:	10 82       	st	Z, r1
    2432:	12 96       	adiw	r26, 0x02	; 2
    2434:	32 96       	adiw	r30, 0x02	; 2
    2436:	e6 17       	cp	r30, r22
    2438:	f7 07       	cpc	r31, r23
    243a:	b9 f7       	brne	.-18     	; 0x242a <waveplay_bufwrite_8bit+0x54>
    243c:	70 91 b4 2a 	lds	r23, 0x2AB4
    2440:	87 2f       	mov	r24, r23
    2442:	90 e0       	ldi	r25, 0x00	; 0
    2444:	01 96       	adiw	r24, 0x01	; 1
    2446:	6a e0       	ldi	r22, 0x0A	; 10
    2448:	70 e0       	ldi	r23, 0x00	; 0
    244a:	0e 94 04 40 	call	0x8008	; 0x8008 <__divmodhi4>
    244e:	80 93 b4 2a 	sts	0x2AB4, r24
    2452:	df 91       	pop	r29
    2454:	cf 91       	pop	r28
    2456:	08 95       	ret

00002458 <systime_get_delay_passed>:
    2458:	cf 92       	push	r12
    245a:	df 92       	push	r13
    245c:	ef 92       	push	r14
    245e:	ff 92       	push	r15
    2460:	cf 93       	push	r28
    2462:	df 93       	push	r29
    2464:	00 d0       	rcall	.+0      	; 0x2466 <systime_get_delay_passed+0xe>
    2466:	00 d0       	rcall	.+0      	; 0x2468 <systime_get_delay_passed+0x10>
    2468:	cd b7       	in	r28, 0x3d	; 61
    246a:	de b7       	in	r29, 0x3e	; 62
    246c:	2f b7       	in	r18, 0x3f	; 63
    246e:	f8 94       	cli
    2470:	c0 90 b6 2a 	lds	r12, 0x2AB6
    2474:	d0 90 b7 2a 	lds	r13, 0x2AB7
    2478:	e0 90 b8 2a 	lds	r14, 0x2AB8
    247c:	f0 90 b9 2a 	lds	r15, 0x2AB9
    2480:	c9 82       	std	Y+1, r12	; 0x01
    2482:	da 82       	std	Y+2, r13	; 0x02
    2484:	eb 82       	std	Y+3, r14	; 0x03
    2486:	fc 82       	std	Y+4, r15	; 0x04
    2488:	2f bf       	out	0x3f, r18	; 63
    248a:	29 81       	ldd	r18, Y+1	; 0x01
    248c:	3a 81       	ldd	r19, Y+2	; 0x02
    248e:	4b 81       	ldd	r20, Y+3	; 0x03
    2490:	5c 81       	ldd	r21, Y+4	; 0x04
    2492:	26 1b       	sub	r18, r22
    2494:	37 0b       	sbc	r19, r23
    2496:	48 0b       	sbc	r20, r24
    2498:	59 0b       	sbc	r21, r25
    249a:	81 e0       	ldi	r24, 0x01	; 1
    249c:	2f 3f       	cpi	r18, 0xFF	; 255
    249e:	9f ef       	ldi	r25, 0xFF	; 255
    24a0:	39 07       	cpc	r19, r25
    24a2:	49 07       	cpc	r20, r25
    24a4:	9f e7       	ldi	r25, 0x7F	; 127
    24a6:	59 07       	cpc	r21, r25
    24a8:	08 f0       	brcs	.+2      	; 0x24ac <systime_get_delay_passed+0x54>
    24aa:	80 e0       	ldi	r24, 0x00	; 0
    24ac:	24 96       	adiw	r28, 0x04	; 4
    24ae:	cd bf       	out	0x3d, r28	; 61
    24b0:	de bf       	out	0x3e, r29	; 62
    24b2:	df 91       	pop	r29
    24b4:	cf 91       	pop	r28
    24b6:	ff 90       	pop	r15
    24b8:	ef 90       	pop	r14
    24ba:	df 90       	pop	r13
    24bc:	cf 90       	pop	r12
    24be:	08 95       	ret

000024c0 <systime_get_delay>:
    24c0:	cf 92       	push	r12
    24c2:	df 92       	push	r13
    24c4:	ef 92       	push	r14
    24c6:	ff 92       	push	r15
    24c8:	0f 93       	push	r16
    24ca:	1f 93       	push	r17
    24cc:	cf 93       	push	r28
    24ce:	df 93       	push	r29
    24d0:	00 d0       	rcall	.+0      	; 0x24d2 <systime_get_delay+0x12>
    24d2:	00 d0       	rcall	.+0      	; 0x24d4 <systime_get_delay+0x14>
    24d4:	cd b7       	in	r28, 0x3d	; 61
    24d6:	de b7       	in	r29, 0x3e	; 62
    24d8:	4f b7       	in	r20, 0x3f	; 63
    24da:	f8 94       	cli
    24dc:	00 91 b6 2a 	lds	r16, 0x2AB6
    24e0:	10 91 b7 2a 	lds	r17, 0x2AB7
    24e4:	20 91 b8 2a 	lds	r18, 0x2AB8
    24e8:	30 91 b9 2a 	lds	r19, 0x2AB9
    24ec:	09 83       	std	Y+1, r16	; 0x01
    24ee:	1a 83       	std	Y+2, r17	; 0x02
    24f0:	2b 83       	std	Y+3, r18	; 0x03
    24f2:	3c 83       	std	Y+4, r19	; 0x04
    24f4:	4f bf       	out	0x3f, r20	; 63
    24f6:	c9 80       	ldd	r12, Y+1	; 0x01
    24f8:	da 80       	ldd	r13, Y+2	; 0x02
    24fa:	eb 80       	ldd	r14, Y+3	; 0x03
    24fc:	fc 80       	ldd	r15, Y+4	; 0x04
    24fe:	2f ef       	ldi	r18, 0xFF	; 255
    2500:	c2 1a       	sub	r12, r18
    2502:	d2 0a       	sbc	r13, r18
    2504:	e2 0a       	sbc	r14, r18
    2506:	f2 0a       	sbc	r15, r18
    2508:	24 ef       	ldi	r18, 0xF4	; 244
    250a:	31 e0       	ldi	r19, 0x01	; 1
    250c:	40 e0       	ldi	r20, 0x00	; 0
    250e:	50 e0       	ldi	r21, 0x00	; 0
    2510:	0e 94 aa 45 	call	0x8b54	; 0x8b54 <__udivmodsi4>
    2514:	c2 0e       	add	r12, r18
    2516:	d3 1e       	adc	r13, r19
    2518:	e4 1e       	adc	r14, r20
    251a:	f5 1e       	adc	r15, r21
    251c:	01 e0       	ldi	r16, 0x01	; 1
    251e:	10 e0       	ldi	r17, 0x00	; 0
    2520:	20 e0       	ldi	r18, 0x00	; 0
    2522:	30 e0       	ldi	r19, 0x00	; 0
    2524:	8f ef       	ldi	r24, 0xFF	; 255
    2526:	c8 16       	cp	r12, r24
    2528:	d8 06       	cpc	r13, r24
    252a:	e8 06       	cpc	r14, r24
    252c:	f8 06       	cpc	r15, r24
    252e:	18 f4       	brcc	.+6      	; 0x2536 <systime_get_delay+0x76>
    2530:	00 e0       	ldi	r16, 0x00	; 0
    2532:	10 e0       	ldi	r17, 0x00	; 0
    2534:	98 01       	movw	r18, r16
    2536:	0c 0d       	add	r16, r12
    2538:	1d 1d       	adc	r17, r13
    253a:	2e 1d       	adc	r18, r14
    253c:	3f 1d       	adc	r19, r15
    253e:	b8 01       	movw	r22, r16
    2540:	c9 01       	movw	r24, r18
    2542:	24 96       	adiw	r28, 0x04	; 4
    2544:	cd bf       	out	0x3d, r28	; 61
    2546:	de bf       	out	0x3e, r29	; 62
    2548:	df 91       	pop	r29
    254a:	cf 91       	pop	r28
    254c:	1f 91       	pop	r17
    254e:	0f 91       	pop	r16
    2550:	ff 90       	pop	r15
    2552:	ef 90       	pop	r14
    2554:	df 90       	pop	r13
    2556:	cf 90       	pop	r12
    2558:	08 95       	ret

0000255a <board_set_pwrdn_analog>:
    255a:	cf 92       	push	r12
    255c:	df 92       	push	r13
    255e:	ef 92       	push	r14
    2560:	ff 92       	push	r15
    2562:	88 23       	and	r24, r24
    2564:	19 f1       	breq	.+70     	; 0x25ac <board_set_pwrdn_analog+0x52>
    2566:	d0 90 64 06 	lds	r13, 0x0664
    256a:	d2 fe       	sbrs	r13, 2
    256c:	1a c0       	rjmp	.+52     	; 0x25a2 <board_set_pwrdn_analog+0x48>
    256e:	b0 e4       	ldi	r27, 0x40	; 64
    2570:	b0 93 02 06 	sts	0x0602, r27
    2574:	e0 e8       	ldi	r30, 0x80	; 128
    2576:	e0 93 02 06 	sts	0x0602, r30
    257a:	f1 e0       	ldi	r31, 0x01	; 1
    257c:	f0 93 42 06 	sts	0x0642, r31
    2580:	80 e2       	ldi	r24, 0x20	; 32
    2582:	80 93 62 06 	sts	0x0662, r24
    2586:	22 e0       	ldi	r18, 0x02	; 2
    2588:	20 93 42 06 	sts	0x0642, r18
    258c:	38 e0       	ldi	r19, 0x08	; 8
    258e:	30 93 42 06 	sts	0x0642, r19
    2592:	40 e1       	ldi	r20, 0x10	; 16
    2594:	40 93 62 06 	sts	0x0662, r20
    2598:	54 e0       	ldi	r21, 0x04	; 4
    259a:	50 93 66 06 	sts	0x0666, r21
    259e:	40 93 45 06 	sts	0x0645, r20
    25a2:	ff 90       	pop	r15
    25a4:	ef 90       	pop	r14
    25a6:	df 90       	pop	r13
    25a8:	cf 90       	pop	r12
    25aa:	08 95       	ret
    25ac:	80 91 64 06 	lds	r24, 0x0664
    25b0:	82 fd       	sbrc	r24, 2
    25b2:	f7 cf       	rjmp	.-18     	; 0x25a2 <board_set_pwrdn_analog+0x48>
    25b4:	24 e0       	ldi	r18, 0x04	; 4
    25b6:	20 93 65 06 	sts	0x0665, r18
    25ba:	60 e3       	ldi	r22, 0x30	; 48
    25bc:	75 e7       	ldi	r23, 0x75	; 117
    25be:	80 e0       	ldi	r24, 0x00	; 0
    25c0:	90 e0       	ldi	r25, 0x00	; 0
    25c2:	7e df       	rcall	.-260    	; 0x24c0 <systime_get_delay>
    25c4:	6b 01       	movw	r12, r22
    25c6:	7c 01       	movw	r14, r24
    25c8:	c7 01       	movw	r24, r14
    25ca:	b6 01       	movw	r22, r12
    25cc:	45 df       	rcall	.-374    	; 0x2458 <systime_get_delay_passed>
    25ce:	88 23       	and	r24, r24
    25d0:	d9 f3       	breq	.-10     	; 0x25c8 <board_set_pwrdn_analog+0x6e>
    25d2:	30 e4       	ldi	r19, 0x40	; 64
    25d4:	30 93 06 06 	sts	0x0606, r19
    25d8:	30 93 01 06 	sts	0x0601, r19
    25dc:	40 e8       	ldi	r20, 0x80	; 128
    25de:	40 93 06 06 	sts	0x0606, r20
    25e2:	40 93 01 06 	sts	0x0601, r20
    25e6:	51 e0       	ldi	r21, 0x01	; 1
    25e8:	50 93 45 06 	sts	0x0645, r21
    25ec:	50 93 41 06 	sts	0x0641, r21
    25f0:	60 e2       	ldi	r22, 0x20	; 32
    25f2:	60 93 61 06 	sts	0x0661, r22
    25f6:	72 e0       	ldi	r23, 0x02	; 2
    25f8:	70 93 41 06 	sts	0x0641, r23
    25fc:	98 e0       	ldi	r25, 0x08	; 8
    25fe:	90 93 41 06 	sts	0x0641, r25
    2602:	a0 e1       	ldi	r26, 0x10	; 16
    2604:	a0 93 61 06 	sts	0x0661, r26
    2608:	a0 93 46 06 	sts	0x0646, r26
    260c:	ff 90       	pop	r15
    260e:	ef 90       	pop	r14
    2610:	df 90       	pop	r13
    2612:	cf 90       	pop	r12
    2614:	08 95       	ret

00002616 <uart_putc>:
    2616:	cf 93       	push	r28
    2618:	c8 2f       	mov	r28, r24
    261a:	e0 91 45 23 	lds	r30, 0x2345
    261e:	f0 91 46 23 	lds	r31, 0x2346
    2622:	30 97       	sbiw	r30, 0x00	; 0
    2624:	a9 f0       	breq	.+42     	; 0x2650 <uart_putc+0x3a>
    2626:	20 91 43 23 	lds	r18, 0x2343
    262a:	30 91 44 23 	lds	r19, 0x2344
    262e:	23 2b       	or	r18, r19
    2630:	29 f4       	brne	.+10     	; 0x263c <uart_putc+0x26>
    2632:	0e c0       	rjmp	.+28     	; 0x2650 <uart_putc+0x3a>
    2634:	e0 91 45 23 	lds	r30, 0x2345
    2638:	f0 91 46 23 	lds	r31, 0x2346
    263c:	09 95       	icall
    263e:	81 11       	cpse	r24, r1
    2640:	f9 cf       	rjmp	.-14     	; 0x2634 <uart_putc+0x1e>
    2642:	e0 91 43 23 	lds	r30, 0x2343
    2646:	f0 91 44 23 	lds	r31, 0x2344
    264a:	8c 2f       	mov	r24, r28
    264c:	cf 91       	pop	r28
    264e:	09 94       	ijmp
    2650:	cf 91       	pop	r28
    2652:	08 95       	ret

00002654 <terminal_putc>:
    2654:	cf 93       	push	r28
    2656:	c8 2f       	mov	r28, r24
    2658:	20 91 8e 22 	lds	r18, 0x228E
    265c:	30 91 8f 22 	lds	r19, 0x228F
    2660:	2f 5f       	subi	r18, 0xFF	; 255
    2662:	3f 4f       	sbci	r19, 0xFF	; 255
    2664:	20 93 8e 22 	sts	0x228E, r18
    2668:	30 93 8f 22 	sts	0x228F, r19
    266c:	8a 30       	cpi	r24, 0x0A	; 10
    266e:	29 f0       	breq	.+10     	; 0x267a <terminal_putc+0x26>
    2670:	8d 30       	cpi	r24, 0x0D	; 13
    2672:	29 f0       	breq	.+10     	; 0x267e <terminal_putc+0x2a>
    2674:	8c 2f       	mov	r24, r28
    2676:	cf 91       	pop	r28
    2678:	ce cf       	rjmp	.-100    	; 0x2616 <uart_putc>
    267a:	8d e0       	ldi	r24, 0x0D	; 13
    267c:	cc df       	rcall	.-104    	; 0x2616 <uart_putc>
    267e:	10 92 8e 22 	sts	0x228E, r1
    2682:	10 92 8f 22 	sts	0x228F, r1
    2686:	8c 2f       	mov	r24, r28
    2688:	cf 91       	pop	r28
    268a:	c5 cf       	rjmp	.-118    	; 0x2616 <uart_putc>

0000268c <shell_stream_putc>:
    268c:	e3 df       	rcall	.-58     	; 0x2654 <terminal_putc>
    268e:	80 e0       	ldi	r24, 0x00	; 0
    2690:	90 e0       	ldi	r25, 0x00	; 0
    2692:	08 95       	ret

00002694 <shell_extmsg_prefix>:
    2694:	0a c0       	rjmp	.+20     	; 0x26aa <shell_extmsg_prefix+0x16>
    2696:	3a 30       	cpi	r19, 0x0A	; 10
    2698:	19 f1       	breq	.+70     	; 0x26e0 <shell_extmsg_prefix+0x4c>
    269a:	80 93 03 20 	sts	0x2003, r24
    269e:	33 23       	and	r19, r19
    26a0:	f9 f0       	breq	.+62     	; 0x26e0 <shell_extmsg_prefix+0x4c>
    26a2:	88 e0       	ldi	r24, 0x08	; 8
    26a4:	d7 df       	rcall	.-82     	; 0x2654 <terminal_putc>
    26a6:	80 e2       	ldi	r24, 0x20	; 32
    26a8:	d5 df       	rcall	.-86     	; 0x2654 <terminal_putc>
    26aa:	88 e0       	ldi	r24, 0x08	; 8
    26ac:	d3 df       	rcall	.-90     	; 0x2654 <terminal_putc>
    26ae:	80 91 03 20 	lds	r24, 0x2003
    26b2:	90 91 02 20 	lds	r25, 0x2002
    26b6:	89 17       	cp	r24, r25
    26b8:	99 f0       	breq	.+38     	; 0x26e0 <shell_extmsg_prefix+0x4c>
    26ba:	90 e0       	ldi	r25, 0x00	; 0
    26bc:	01 96       	adiw	r24, 0x01	; 1
    26be:	60 91 04 20 	lds	r22, 0x2004
    26c2:	70 e0       	ldi	r23, 0x00	; 0
    26c4:	0e 94 04 40 	call	0x8008	; 0x8008 <__divmodhi4>
    26c8:	20 91 05 20 	lds	r18, 0x2005
    26cc:	28 9f       	mul	r18, r24
    26ce:	f0 01       	movw	r30, r0
    26d0:	29 9f       	mul	r18, r25
    26d2:	f0 0d       	add	r31, r0
    26d4:	11 24       	eor	r1, r1
    26d6:	ee 5f       	subi	r30, 0xFE	; 254
    26d8:	ff 4d       	sbci	r31, 0xDF	; 223
    26da:	34 81       	ldd	r19, Z+4	; 0x04
    26dc:	3d 30       	cpi	r19, 0x0D	; 13
    26de:	d9 f6       	brne	.-74     	; 0x2696 <shell_extmsg_prefix+0x2>
    26e0:	08 95       	ret

000026e2 <shell_puts_int_P>:
    26e2:	cf 93       	push	r28
    26e4:	df 93       	push	r29
    26e6:	ec 01       	movw	r28, r24
    26e8:	21 96       	adiw	r28, 0x01	; 1
    26ea:	fc 01       	movw	r30, r24
    26ec:	84 91       	lpm	r24, Z
    26ee:	88 23       	and	r24, r24
    26f0:	31 f0       	breq	.+12     	; 0x26fe <shell_puts_int_P+0x1c>
    26f2:	b0 df       	rcall	.-160    	; 0x2654 <terminal_putc>
    26f4:	fe 01       	movw	r30, r28
    26f6:	21 96       	adiw	r28, 0x01	; 1
    26f8:	84 91       	lpm	r24, Z
    26fa:	81 11       	cpse	r24, r1
    26fc:	fa cf       	rjmp	.-12     	; 0x26f2 <shell_puts_int_P+0x10>
    26fe:	df 91       	pop	r29
    2700:	cf 91       	pop	r28
    2702:	08 95       	ret

00002704 <shell_printf_ext_P>:
    2704:	0f 93       	push	r16
    2706:	1f 93       	push	r17
    2708:	cf 93       	push	r28
    270a:	df 93       	push	r29
    270c:	cd b7       	in	r28, 0x3d	; 61
    270e:	de b7       	in	r29, 0x3e	; 62
    2710:	8e 01       	movw	r16, r28
    2712:	09 5f       	subi	r16, 0xF9	; 249
    2714:	1f 4f       	sbci	r17, 0xFF	; 255
    2716:	f8 01       	movw	r30, r16
    2718:	81 91       	ld	r24, Z+
    271a:	91 91       	ld	r25, Z+
    271c:	8f 01       	movw	r16, r30
    271e:	ba df       	rcall	.-140    	; 0x2694 <shell_extmsg_prefix>
    2720:	a8 01       	movw	r20, r16
    2722:	6f 81       	ldd	r22, Y+7	; 0x07
    2724:	78 85       	ldd	r23, Y+8	; 0x08
    2726:	80 91 aa 2b 	lds	r24, 0x2BAA
    272a:	90 91 ab 2b 	lds	r25, 0x2BAB
    272e:	0e 94 28 43 	call	0x8650	; 0x8650 <vfprintf_P>
    2732:	83 e2       	ldi	r24, 0x23	; 35
    2734:	91 e1       	ldi	r25, 0x11	; 17
    2736:	d5 df       	rcall	.-86     	; 0x26e2 <shell_puts_int_P>
    2738:	df 91       	pop	r29
    273a:	cf 91       	pop	r28
    273c:	1f 91       	pop	r17
    273e:	0f 91       	pop	r16
    2740:	08 95       	ret

00002742 <terminal_puts>:
    2742:	cf 93       	push	r28
    2744:	df 93       	push	r29
    2746:	ec 01       	movw	r28, r24
    2748:	88 81       	ld	r24, Y
    274a:	88 23       	and	r24, r24
    274c:	29 f0       	breq	.+10     	; 0x2758 <terminal_puts+0x16>
    274e:	21 96       	adiw	r28, 0x01	; 1
    2750:	81 df       	rcall	.-254    	; 0x2654 <terminal_putc>
    2752:	89 91       	ld	r24, Y+
    2754:	81 11       	cpse	r24, r1
    2756:	fc cf       	rjmp	.-8      	; 0x2750 <terminal_puts+0xe>
    2758:	df 91       	pop	r29
    275a:	cf 91       	pop	r28
    275c:	08 95       	ret

0000275e <shell_idle>:
    275e:	af 92       	push	r10
    2760:	bf 92       	push	r11
    2762:	cf 92       	push	r12
    2764:	df 92       	push	r13
    2766:	ef 92       	push	r14
    2768:	ff 92       	push	r15
    276a:	0f 93       	push	r16
    276c:	1f 93       	push	r17
    276e:	cf 93       	push	r28
    2770:	df 93       	push	r29
    2772:	cd b7       	in	r28, 0x3d	; 61
    2774:	de b7       	in	r29, 0x3e	; 62
    2776:	c2 54       	subi	r28, 0x42	; 66
    2778:	d1 09       	sbc	r29, r1
    277a:	cd bf       	out	0x3d, r28	; 61
    277c:	de bf       	out	0x3e, r29	; 62
    277e:	20 e4       	ldi	r18, 0x40	; 64
    2780:	e2 2e       	mov	r14, r18
    2782:	f1 2c       	mov	r15, r1
    2784:	ec 0e       	add	r14, r28
    2786:	fd 1e       	adc	r15, r29
    2788:	8f ef       	ldi	r24, 0xFF	; 255
    278a:	e8 1a       	sub	r14, r24
    278c:	f8 0a       	sbc	r15, r24
    278e:	31 e4       	ldi	r19, 0x41	; 65
    2790:	c3 2e       	mov	r12, r19
    2792:	d1 2c       	mov	r13, r1
    2794:	cc 0e       	add	r12, r28
    2796:	dd 1e       	adc	r13, r29
    2798:	ef ef       	ldi	r30, 0xFF	; 255
    279a:	ce 1a       	sub	r12, r30
    279c:	de 0a       	sbc	r13, r30
    279e:	90 91 48 20 	lds	r25, 0x2048
    27a2:	80 91 47 20 	lds	r24, 0x2047
    27a6:	98 17       	cp	r25, r24
    27a8:	09 f4       	brne	.+2      	; 0x27ac <shell_idle+0x4e>
    27aa:	7a c0       	rjmp	.+244    	; 0x28a0 <shell_idle+0x142>
    27ac:	a0 90 03 20 	lds	r10, 0x2003
    27b0:	b1 2c       	mov	r11, r1
    27b2:	30 91 04 20 	lds	r19, 0x2004
    27b6:	03 2f       	mov	r16, r19
    27b8:	10 e0       	ldi	r17, 0x00	; 0
    27ba:	80 91 02 20 	lds	r24, 0x2002
    27be:	90 e0       	ldi	r25, 0x00	; 0
    27c0:	8a 19       	sub	r24, r10
    27c2:	9b 09       	sbc	r25, r11
    27c4:	80 0f       	add	r24, r16
    27c6:	91 1f       	adc	r25, r17
    27c8:	b8 01       	movw	r22, r16
    27ca:	0e 94 04 40 	call	0x8008	; 0x8008 <__divmodhi4>
    27ce:	38 1b       	sub	r19, r24
    27d0:	31 30       	cpi	r19, 0x01	; 1
    27d2:	09 f4       	brne	.+2      	; 0x27d6 <shell_idle+0x78>
    27d4:	d7 c0       	rjmp	.+430    	; 0x2984 <shell_idle+0x226>
    27d6:	95 dc       	rcall	.-1750   	; 0x2102 <uart_getc.1432>
    27d8:	58 2f       	mov	r21, r24
    27da:	22 96       	adiw	r28, 0x02	; 2
    27dc:	8f af       	std	Y+63, r24	; 0x3f
    27de:	22 97       	sbiw	r28, 0x02	; 2
    27e0:	80 52       	subi	r24, 0x20	; 32
    27e2:	8f 35       	cpi	r24, 0x5F	; 95
    27e4:	08 f0       	brcs	.+2      	; 0x27e8 <shell_idle+0x8a>
    27e6:	e9 c0       	rjmp	.+466    	; 0x29ba <shell_idle+0x25c>
    27e8:	00 91 8e 22 	lds	r16, 0x228E
    27ec:	10 91 8f 22 	lds	r17, 0x228F
    27f0:	0f 33       	cpi	r16, 0x3F	; 63
    27f2:	11 05       	cpc	r17, r1
    27f4:	0c f4       	brge	.+2      	; 0x27f8 <shell_idle+0x9a>
    27f6:	1c c1       	rjmp	.+568    	; 0x2a30 <shell_idle+0x2d2>
    27f8:	5d 30       	cpi	r21, 0x0D	; 13
    27fa:	09 f0       	breq	.+2      	; 0x27fe <shell_idle+0xa0>
    27fc:	12 c1       	rjmp	.+548    	; 0x2a22 <shell_idle+0x2c4>
    27fe:	8d e0       	ldi	r24, 0x0D	; 13
    2800:	0a df       	rcall	.-492    	; 0x2616 <uart_putc>
    2802:	8a e0       	ldi	r24, 0x0A	; 10
    2804:	08 df       	rcall	.-496    	; 0x2616 <uart_putc>
    2806:	80 91 03 20 	lds	r24, 0x2003
    280a:	b0 90 02 20 	lds	r11, 0x2002
    280e:	8b 15       	cp	r24, r11
    2810:	09 f4       	brne	.+2      	; 0x2814 <shell_idle+0xb6>
    2812:	3f c1       	rjmp	.+638    	; 0x2a92 <shell_idle+0x334>
    2814:	20 91 04 20 	lds	r18, 0x2004
    2818:	40 e0       	ldi	r20, 0x00	; 0
    281a:	a0 90 05 20 	lds	r10, 0x2005
    281e:	90 e0       	ldi	r25, 0x00	; 0
    2820:	01 96       	adiw	r24, 0x01	; 1
    2822:	62 2f       	mov	r22, r18
    2824:	74 2f       	mov	r23, r20
    2826:	0e 94 04 40 	call	0x8008	; 0x8008 <__divmodhi4>
    282a:	a8 9e       	mul	r10, r24
    282c:	f0 01       	movw	r30, r0
    282e:	a9 9e       	mul	r10, r25
    2830:	f0 0d       	add	r31, r0
    2832:	11 24       	eor	r1, r1
    2834:	ee 5f       	subi	r30, 0xFE	; 254
    2836:	ff 4d       	sbci	r31, 0xDF	; 223
    2838:	b4 81       	ldd	r27, Z+4	; 0x04
    283a:	ba 30       	cpi	r27, 0x0A	; 10
    283c:	09 f4       	brne	.+2      	; 0x2840 <shell_idle+0xe2>
    283e:	af cf       	rjmp	.-162    	; 0x279e <shell_idle+0x40>
    2840:	fa e0       	ldi	r31, 0x0A	; 10
    2842:	21 96       	adiw	r28, 0x01	; 1
    2844:	ff af       	std	Y+63, r31	; 0x3f
    2846:	21 97       	sbiw	r28, 0x01	; 1
    2848:	8b 2d       	mov	r24, r11
    284a:	90 e0       	ldi	r25, 0x00	; 0
    284c:	01 96       	adiw	r24, 0x01	; 1
    284e:	62 2f       	mov	r22, r18
    2850:	74 2f       	mov	r23, r20
    2852:	0e 94 04 40 	call	0x8008	; 0x8008 <__divmodhi4>
    2856:	80 93 02 20 	sts	0x2002, r24
    285a:	aa 20       	and	r10, r10
    285c:	71 f0       	breq	.+28     	; 0x287a <shell_idle+0x11c>
    285e:	8a 9d       	mul	r24, r10
    2860:	f0 01       	movw	r30, r0
    2862:	11 24       	eor	r1, r1
    2864:	ea 5f       	subi	r30, 0xFA	; 250
    2866:	ff 4d       	sbci	r31, 0xDF	; 223
    2868:	d7 01       	movw	r26, r14
    286a:	9a e0       	ldi	r25, 0x0A	; 10
    286c:	60 e0       	ldi	r22, 0x00	; 0
    286e:	01 c0       	rjmp	.+2      	; 0x2872 <shell_idle+0x114>
    2870:	9d 91       	ld	r25, X+
    2872:	91 93       	st	Z+, r25
    2874:	6f 5f       	subi	r22, 0xFF	; 255
    2876:	6a 11       	cpse	r22, r10
    2878:	fb cf       	rjmp	.-10     	; 0x2870 <shell_idle+0x112>
    287a:	80 91 90 22 	lds	r24, 0x2290
    287e:	90 91 91 22 	lds	r25, 0x2291
    2882:	01 96       	adiw	r24, 0x01	; 1
    2884:	80 93 90 22 	sts	0x2290, r24
    2888:	90 93 91 22 	sts	0x2291, r25
    288c:	10 92 8e 22 	sts	0x228E, r1
    2890:	10 92 8f 22 	sts	0x228F, r1
    2894:	90 91 48 20 	lds	r25, 0x2048
    2898:	80 91 47 20 	lds	r24, 0x2047
    289c:	98 13       	cpse	r25, r24
    289e:	86 cf       	rjmp	.-244    	; 0x27ac <shell_idle+0x4e>
    28a0:	a0 91 00 20 	lds	r26, 0x2000
    28a4:	b0 91 01 20 	lds	r27, 0x2001
    28a8:	10 97       	sbiw	r26, 0x00	; 0
    28aa:	09 f0       	breq	.+2      	; 0x28ae <shell_idle+0x150>
    28ac:	19 c1       	rjmp	.+562    	; 0x2ae0 <shell_idle+0x382>
    28ae:	e0 91 90 22 	lds	r30, 0x2290
    28b2:	f0 91 91 22 	lds	r31, 0x2291
    28b6:	30 97       	sbiw	r30, 0x00	; 0
    28b8:	09 f0       	breq	.+2      	; 0x28bc <shell_idle+0x15e>
    28ba:	f1 c0       	rjmp	.+482    	; 0x2a9e <shell_idle+0x340>
    28bc:	a0 90 50 25 	lds	r10, 0x2550
    28c0:	aa 20       	and	r10, r10
    28c2:	09 f4       	brne	.+2      	; 0x28c6 <shell_idle+0x168>
    28c4:	50 c0       	rjmp	.+160    	; 0x2966 <shell_idle+0x208>
    28c6:	10 92 50 25 	sts	0x2550, r1
    28ca:	67 e3       	ldi	r22, 0x37	; 55
    28cc:	72 e2       	ldi	r23, 0x22	; 34
    28ce:	81 e5       	ldi	r24, 0x51	; 81
    28d0:	95 e2       	ldi	r25, 0x25	; 37
    28d2:	0e 94 d6 40 	call	0x81ac	; 0x81ac <strcspn>
    28d6:	6c 01       	movw	r12, r24
    28d8:	00 97       	sbiw	r24, 0x00	; 0
    28da:	09 f4       	brne	.+2      	; 0x28de <shell_idle+0x180>
    28dc:	fd c0       	rjmp	.+506    	; 0x2ad8 <shell_idle+0x37a>
    28de:	ac 01       	movw	r20, r24
    28e0:	61 e5       	ldi	r22, 0x51	; 81
    28e2:	75 e2       	ldi	r23, 0x25	; 37
    28e4:	ce 01       	movw	r24, r28
    28e6:	01 96       	adiw	r24, 0x01	; 1
    28e8:	0e 94 f3 40 	call	0x81e6	; 0x81e6 <strncpy>
    28ec:	e1 e0       	ldi	r30, 0x01	; 1
    28ee:	f0 e0       	ldi	r31, 0x00	; 0
    28f0:	ec 0f       	add	r30, r28
    28f2:	fd 1f       	adc	r31, r29
    28f4:	ec 0d       	add	r30, r12
    28f6:	fd 1d       	adc	r31, r13
    28f8:	10 82       	st	Z, r1
    28fa:	49 e0       	ldi	r20, 0x09	; 9
    28fc:	50 e0       	ldi	r21, 0x00	; 0
    28fe:	61 eb       	ldi	r22, 0xB1	; 177
    2900:	70 e0       	ldi	r23, 0x00	; 0
    2902:	ce 01       	movw	r24, r28
    2904:	01 96       	adiw	r24, 0x01	; 1
    2906:	0e 94 9b 42 	call	0x8536	; 0x8536 <strncmp_P>
    290a:	89 2b       	or	r24, r25
    290c:	09 f4       	brne	.+2      	; 0x2910 <shell_idle+0x1b2>
    290e:	f0 c0       	rjmp	.+480    	; 0x2af0 <shell_idle+0x392>
    2910:	e1 2c       	mov	r14, r1
    2912:	f1 2c       	mov	r15, r1
    2914:	57 01       	movw	r10, r14
    2916:	aa 0c       	add	r10, r10
    2918:	bb 1c       	adc	r11, r11
    291a:	ae 0c       	add	r10, r14
    291c:	bf 1c       	adc	r11, r15
    291e:	aa 0c       	add	r10, r10
    2920:	bb 1c       	adc	r11, r11
    2922:	f5 01       	movw	r30, r10
    2924:	e3 58       	subi	r30, 0x83	; 131
    2926:	f6 4e       	sbci	r31, 0xE6	; 230
    2928:	25 91       	lpm	r18, Z+
    292a:	34 91       	lpm	r19, Z
    292c:	49 e0       	ldi	r20, 0x09	; 9
    292e:	50 e0       	ldi	r21, 0x00	; 0
    2930:	b9 01       	movw	r22, r18
    2932:	ce 01       	movw	r24, r28
    2934:	01 96       	adiw	r24, 0x01	; 1
    2936:	0e 94 9b 42 	call	0x8536	; 0x8536 <strncmp_P>
    293a:	89 2b       	or	r24, r25
    293c:	09 f4       	brne	.+2      	; 0x2940 <shell_idle+0x1e2>
    293e:	e8 c0       	rjmp	.+464    	; 0x2b10 <shell_idle+0x3b2>
    2940:	8f ef       	ldi	r24, 0xFF	; 255
    2942:	e8 1a       	sub	r14, r24
    2944:	f8 0a       	sbc	r15, r24
    2946:	ec e0       	ldi	r30, 0x0C	; 12
    2948:	ee 16       	cp	r14, r30
    294a:	f1 04       	cpc	r15, r1
    294c:	19 f7       	brne	.-58     	; 0x2914 <shell_idle+0x1b6>
    294e:	ce 01       	movw	r24, r28
    2950:	01 96       	adiw	r24, 0x01	; 1
    2952:	f7 de       	rcall	.-530    	; 0x2742 <terminal_puts>
    2954:	8e e1       	ldi	r24, 0x1E	; 30
    2956:	91 e0       	ldi	r25, 0x01	; 1
    2958:	c4 de       	rcall	.-632    	; 0x26e2 <shell_puts_int_P>
    295a:	61 e0       	ldi	r22, 0x01	; 1
    295c:	70 e0       	ldi	r23, 0x00	; 0
    295e:	60 93 00 20 	sts	0x2000, r22
    2962:	70 93 01 20 	sts	0x2001, r23
    2966:	ce 5b       	subi	r28, 0xBE	; 190
    2968:	df 4f       	sbci	r29, 0xFF	; 255
    296a:	cd bf       	out	0x3d, r28	; 61
    296c:	de bf       	out	0x3e, r29	; 62
    296e:	df 91       	pop	r29
    2970:	cf 91       	pop	r28
    2972:	1f 91       	pop	r17
    2974:	0f 91       	pop	r16
    2976:	ff 90       	pop	r15
    2978:	ef 90       	pop	r14
    297a:	df 90       	pop	r13
    297c:	cf 90       	pop	r12
    297e:	bf 90       	pop	r11
    2980:	af 90       	pop	r10
    2982:	08 95       	ret
    2984:	be db       	rcall	.-2180   	; 0x2102 <uart_getc.1432>
    2986:	88 30       	cpi	r24, 0x08	; 8
    2988:	09 f0       	breq	.+2      	; 0x298c <shell_idle+0x22e>
    298a:	09 cf       	rjmp	.-494    	; 0x279e <shell_idle+0x40>
    298c:	c5 01       	movw	r24, r10
    298e:	01 96       	adiw	r24, 0x01	; 1
    2990:	b8 01       	movw	r22, r16
    2992:	0e 94 04 40 	call	0x8008	; 0x8008 <__divmodhi4>
    2996:	80 93 03 20 	sts	0x2003, r24
    299a:	88 e0       	ldi	r24, 0x08	; 8
    299c:	3c de       	rcall	.-904    	; 0x2616 <uart_putc>
    299e:	80 e2       	ldi	r24, 0x20	; 32
    29a0:	3a de       	rcall	.-908    	; 0x2616 <uart_putc>
    29a2:	88 e0       	ldi	r24, 0x08	; 8
    29a4:	38 de       	rcall	.-912    	; 0x2616 <uart_putc>
    29a6:	a0 91 8e 22 	lds	r26, 0x228E
    29aa:	b0 91 8f 22 	lds	r27, 0x228F
    29ae:	11 97       	sbiw	r26, 0x01	; 1
    29b0:	a0 93 8e 22 	sts	0x228E, r26
    29b4:	b0 93 8f 22 	sts	0x228F, r27
    29b8:	f2 ce       	rjmp	.-540    	; 0x279e <shell_idle+0x40>
    29ba:	58 30       	cpi	r21, 0x08	; 8
    29bc:	a9 f5       	brne	.+106    	; 0x2a28 <shell_idle+0x2ca>
    29be:	80 91 8e 22 	lds	r24, 0x228E
    29c2:	90 91 8f 22 	lds	r25, 0x228F
    29c6:	02 97       	sbiw	r24, 0x02	; 2
    29c8:	64 f1       	brlt	.+88     	; 0x2a22 <shell_idle+0x2c4>
    29ca:	c5 01       	movw	r24, r10
    29cc:	01 96       	adiw	r24, 0x01	; 1
    29ce:	b8 01       	movw	r22, r16
    29d0:	0e 94 04 40 	call	0x8008	; 0x8008 <__divmodhi4>
    29d4:	10 91 05 20 	lds	r17, 0x2005
    29d8:	18 9f       	mul	r17, r24
    29da:	f0 01       	movw	r30, r0
    29dc:	19 9f       	mul	r17, r25
    29de:	f0 0d       	add	r31, r0
    29e0:	11 24       	eor	r1, r1
    29e2:	ee 5f       	subi	r30, 0xFE	; 254
    29e4:	ff 4d       	sbci	r31, 0xDF	; 223
    29e6:	74 81       	ldd	r23, Z+4	; 0x04
    29e8:	7a 30       	cpi	r23, 0x0A	; 10
    29ea:	d9 f0       	breq	.+54     	; 0x2a22 <shell_idle+0x2c4>
    29ec:	88 e0       	ldi	r24, 0x08	; 8
    29ee:	13 de       	rcall	.-986    	; 0x2616 <uart_putc>
    29f0:	80 e2       	ldi	r24, 0x20	; 32
    29f2:	11 de       	rcall	.-990    	; 0x2616 <uart_putc>
    29f4:	88 e0       	ldi	r24, 0x08	; 8
    29f6:	0f de       	rcall	.-994    	; 0x2616 <uart_putc>
    29f8:	80 91 02 20 	lds	r24, 0x2002
    29fc:	90 e0       	ldi	r25, 0x00	; 0
    29fe:	01 97       	sbiw	r24, 0x01	; 1
    2a00:	60 91 04 20 	lds	r22, 0x2004
    2a04:	70 e0       	ldi	r23, 0x00	; 0
    2a06:	0e 94 04 40 	call	0x8008	; 0x8008 <__divmodhi4>
    2a0a:	80 93 02 20 	sts	0x2002, r24
    2a0e:	a0 91 8e 22 	lds	r26, 0x228E
    2a12:	b0 91 8f 22 	lds	r27, 0x228F
    2a16:	11 97       	sbiw	r26, 0x01	; 1
    2a18:	a0 93 8e 22 	sts	0x228E, r26
    2a1c:	b0 93 8f 22 	sts	0x228F, r27
    2a20:	be ce       	rjmp	.-644    	; 0x279e <shell_idle+0x40>
    2a22:	87 e0       	ldi	r24, 0x07	; 7
    2a24:	f8 dd       	rcall	.-1040   	; 0x2616 <uart_putc>
    2a26:	bb ce       	rjmp	.-650    	; 0x279e <shell_idle+0x40>
    2a28:	5a 30       	cpi	r21, 0x0A	; 10
    2a2a:	09 f0       	breq	.+2      	; 0x2a2e <shell_idle+0x2d0>
    2a2c:	e5 ce       	rjmp	.-566    	; 0x27f8 <shell_idle+0x9a>
    2a2e:	e7 ce       	rjmp	.-562    	; 0x27fe <shell_idle+0xa0>
    2a30:	85 2f       	mov	r24, r21
    2a32:	23 96       	adiw	r28, 0x03	; 3
    2a34:	5f af       	std	Y+63, r21	; 0x3f
    2a36:	23 97       	sbiw	r28, 0x03	; 3
    2a38:	ee dd       	rcall	.-1060   	; 0x2616 <uart_putc>
    2a3a:	30 91 02 20 	lds	r19, 0x2002
    2a3e:	83 2f       	mov	r24, r19
    2a40:	90 e0       	ldi	r25, 0x00	; 0
    2a42:	01 96       	adiw	r24, 0x01	; 1
    2a44:	60 91 04 20 	lds	r22, 0x2004
    2a48:	70 e0       	ldi	r23, 0x00	; 0
    2a4a:	0e 94 04 40 	call	0x8008	; 0x8008 <__divmodhi4>
    2a4e:	80 93 02 20 	sts	0x2002, r24
    2a52:	50 91 05 20 	lds	r21, 0x2005
    2a56:	23 96       	adiw	r28, 0x03	; 3
    2a58:	7f ad       	ldd	r23, Y+63	; 0x3f
    2a5a:	23 97       	sbiw	r28, 0x03	; 3
    2a5c:	55 23       	and	r21, r21
    2a5e:	79 f0       	breq	.+30     	; 0x2a7e <shell_idle+0x320>
    2a60:	58 9f       	mul	r21, r24
    2a62:	f0 01       	movw	r30, r0
    2a64:	59 9f       	mul	r21, r25
    2a66:	f0 0d       	add	r31, r0
    2a68:	11 24       	eor	r1, r1
    2a6a:	ea 5f       	subi	r30, 0xFA	; 250
    2a6c:	ff 4d       	sbci	r31, 0xDF	; 223
    2a6e:	d6 01       	movw	r26, r12
    2a70:	10 e0       	ldi	r17, 0x00	; 0
    2a72:	01 c0       	rjmp	.+2      	; 0x2a76 <shell_idle+0x318>
    2a74:	7d 91       	ld	r23, X+
    2a76:	71 93       	st	Z+, r23
    2a78:	1f 5f       	subi	r17, 0xFF	; 255
    2a7a:	15 13       	cpse	r17, r21
    2a7c:	fb cf       	rjmp	.-10     	; 0x2a74 <shell_idle+0x316>
    2a7e:	80 91 8e 22 	lds	r24, 0x228E
    2a82:	90 91 8f 22 	lds	r25, 0x228F
    2a86:	01 96       	adiw	r24, 0x01	; 1
    2a88:	80 93 8e 22 	sts	0x228E, r24
    2a8c:	90 93 8f 22 	sts	0x228F, r25
    2a90:	86 ce       	rjmp	.-756    	; 0x279e <shell_idle+0x40>
    2a92:	a0 90 05 20 	lds	r10, 0x2005
    2a96:	20 91 04 20 	lds	r18, 0x2004
    2a9a:	40 e0       	ldi	r20, 0x00	; 0
    2a9c:	d1 ce       	rjmp	.-606    	; 0x2840 <shell_idle+0xe2>
    2a9e:	b0 90 50 25 	lds	r11, 0x2550
    2aa2:	b1 10       	cpse	r11, r1
    2aa4:	10 cf       	rjmp	.-480    	; 0x28c6 <shell_idle+0x168>
    2aa6:	01 e5       	ldi	r16, 0x51	; 81
    2aa8:	15 e2       	ldi	r17, 0x25	; 37
    2aaa:	f8 01       	movw	r30, r16
    2aac:	11 92       	st	Z+, r1
    2aae:	85 e2       	ldi	r24, 0x25	; 37
    2ab0:	e1 39       	cpi	r30, 0x91	; 145
    2ab2:	f8 07       	cpc	r31, r24
    2ab4:	d9 f7       	brne	.-10     	; 0x2aac <shell_idle+0x34e>
    2ab6:	05 c0       	rjmp	.+10     	; 0x2ac2 <shell_idle+0x364>
    2ab8:	f5 e2       	ldi	r31, 0x25	; 37
    2aba:	00 39       	cpi	r16, 0x90	; 144
    2abc:	1f 07       	cpc	r17, r31
    2abe:	09 f4       	brne	.+2      	; 0x2ac2 <shell_idle+0x364>
    2ac0:	04 cf       	rjmp	.-504    	; 0x28ca <shell_idle+0x16c>
    2ac2:	3a db       	rcall	.-2444   	; 0x2138 <terminal_getc.1437>
    2ac4:	f8 01       	movw	r30, r16
    2ac6:	81 93       	st	Z+, r24
    2ac8:	8f 01       	movw	r16, r30
    2aca:	80 91 90 22 	lds	r24, 0x2290
    2ace:	90 91 91 22 	lds	r25, 0x2291
    2ad2:	89 2b       	or	r24, r25
    2ad4:	89 f7       	brne	.-30     	; 0x2ab8 <shell_idle+0x35a>
    2ad6:	f9 ce       	rjmp	.-526    	; 0x28ca <shell_idle+0x16c>
    2ad8:	8f ea       	ldi	r24, 0xAF	; 175
    2ada:	90 e0       	ldi	r25, 0x00	; 0
    2adc:	02 de       	rcall	.-1020   	; 0x26e2 <shell_puts_int_P>
    2ade:	43 cf       	rjmp	.-378    	; 0x2966 <shell_idle+0x208>
    2ae0:	8c ea       	ldi	r24, 0xAC	; 172
    2ae2:	90 e0       	ldi	r25, 0x00	; 0
    2ae4:	fe dd       	rcall	.-1028   	; 0x26e2 <shell_puts_int_P>
    2ae6:	10 92 00 20 	sts	0x2000, r1
    2aea:	10 92 01 20 	sts	0x2001, r1
    2aee:	df ce       	rjmp	.-578    	; 0x28ae <shell_idle+0x150>
    2af0:	ed e0       	ldi	r30, 0x0D	; 13
    2af2:	f7 e1       	ldi	r31, 0x17	; 23
    2af4:	30 97       	sbiw	r30, 0x00	; 0
    2af6:	29 f0       	breq	.+10     	; 0x2b02 <shell_idle+0x3a4>
    2af8:	09 95       	icall
    2afa:	82 30       	cpi	r24, 0x02	; 2
    2afc:	81 f0       	breq	.+32     	; 0x2b1e <shell_idle+0x3c0>
    2afe:	81 30       	cpi	r24, 0x01	; 1
    2b00:	91 f0       	breq	.+36     	; 0x2b26 <shell_idle+0x3c8>
    2b02:	61 e0       	ldi	r22, 0x01	; 1
    2b04:	70 e0       	ldi	r23, 0x00	; 0
    2b06:	60 93 00 20 	sts	0x2000, r22
    2b0a:	70 93 01 20 	sts	0x2001, r23
    2b0e:	2b cf       	rjmp	.-426    	; 0x2966 <shell_idle+0x208>
    2b10:	f5 01       	movw	r30, r10
    2b12:	ef 57       	subi	r30, 0x7F	; 127
    2b14:	f6 4e       	sbci	r31, 0xE6	; 230
    2b16:	45 91       	lpm	r20, Z+
    2b18:	54 91       	lpm	r21, Z
    2b1a:	fa 01       	movw	r30, r20
    2b1c:	eb cf       	rjmp	.-42     	; 0x2af4 <shell_idle+0x396>
    2b1e:	86 eb       	ldi	r24, 0xB6	; 182
    2b20:	90 e0       	ldi	r25, 0x00	; 0
    2b22:	df dd       	rcall	.-1090   	; 0x26e2 <shell_puts_int_P>
    2b24:	ee cf       	rjmp	.-36     	; 0x2b02 <shell_idle+0x3a4>
    2b26:	8a ee       	ldi	r24, 0xEA	; 234
    2b28:	90 e0       	ldi	r25, 0x00	; 0
    2b2a:	db dd       	rcall	.-1098   	; 0x26e2 <shell_puts_int_P>
    2b2c:	ea cf       	rjmp	.-44     	; 0x2b02 <shell_idle+0x3a4>

00002b2e <shell_check_arg>:
    2b2e:	cf 92       	push	r12
    2b30:	df 92       	push	r13
    2b32:	ef 92       	push	r14
    2b34:	ff 92       	push	r15
    2b36:	0f 93       	push	r16
    2b38:	1f 93       	push	r17
    2b3a:	cf 93       	push	r28
    2b3c:	df 93       	push	r29
    2b3e:	cd b7       	in	r28, 0x3d	; 61
    2b40:	de b7       	in	r29, 0x3e	; 62
    2b42:	c2 54       	subi	r28, 0x42	; 66
    2b44:	d1 09       	sbc	r29, r1
    2b46:	cd bf       	out	0x3d, r28	; 61
    2b48:	de bf       	out	0x3e, r29	; 62
    2b4a:	dc 01       	movw	r26, r24
    2b4c:	0d 90       	ld	r0, X+
    2b4e:	00 20       	and	r0, r0
    2b50:	e9 f7       	brne	.-6      	; 0x2b4c <shell_check_arg+0x1e>
    2b52:	9d 01       	movw	r18, r26
    2b54:	21 50       	subi	r18, 0x01	; 1
    2b56:	31 09       	sbc	r19, r1
    2b58:	28 1b       	sub	r18, r24
    2b5a:	39 0b       	sbc	r19, r25
    2b5c:	09 f0       	breq	.+2      	; 0x2b60 <shell_check_arg+0x32>
    2b5e:	60 c0       	rjmp	.+192    	; 0x2c20 <shell_check_arg+0xf2>
    2b60:	4f e3       	ldi	r20, 0x3F	; 63
    2b62:	50 e0       	ldi	r21, 0x00	; 0
    2b64:	61 e5       	ldi	r22, 0x51	; 81
    2b66:	75 e2       	ldi	r23, 0x25	; 37
    2b68:	01 e0       	ldi	r16, 0x01	; 1
    2b6a:	10 e0       	ldi	r17, 0x00	; 0
    2b6c:	0c 0f       	add	r16, r28
    2b6e:	1d 1f       	adc	r17, r29
    2b70:	c8 01       	movw	r24, r16
    2b72:	0e 94 f3 40 	call	0x81e6	; 0x81e6 <strncpy>
    2b76:	21 96       	adiw	r28, 0x01	; 1
    2b78:	1f ae       	std	Y+63, r1	; 0x3f
    2b7a:	21 97       	sbiw	r28, 0x01	; 1
    2b7c:	d8 01       	movw	r26, r16
    2b7e:	0d 90       	ld	r0, X+
    2b80:	00 20       	and	r0, r0
    2b82:	e9 f7       	brne	.-6      	; 0x2b7e <shell_check_arg+0x50>
    2b84:	11 97       	sbiw	r26, 0x01	; 1
    2b86:	a0 1b       	sub	r26, r16
    2b88:	b1 0b       	sbc	r27, r17
    2b8a:	9d 01       	movw	r18, r26
    2b8c:	21 50       	subi	r18, 0x01	; 1
    2b8e:	31 09       	sbc	r19, r1
    2b90:	81 f0       	breq	.+32     	; 0x2bb2 <shell_check_arg+0x84>
    2b92:	a0 0f       	add	r26, r16
    2b94:	b1 1f       	adc	r27, r17
    2b96:	f8 01       	movw	r30, r16
    2b98:	60 e0       	ldi	r22, 0x00	; 0
    2b9a:	70 e0       	ldi	r23, 0x00	; 0
    2b9c:	80 81       	ld	r24, Z
    2b9e:	9e 91       	ld	r25, -X
    2ba0:	91 93       	st	Z+, r25
    2ba2:	8c 93       	st	X, r24
    2ba4:	6f 5f       	subi	r22, 0xFF	; 255
    2ba6:	7f 4f       	sbci	r23, 0xFF	; 255
    2ba8:	21 50       	subi	r18, 0x01	; 1
    2baa:	31 09       	sbc	r19, r1
    2bac:	62 17       	cp	r22, r18
    2bae:	73 07       	cpc	r23, r19
    2bb0:	a8 f3       	brcs	.-22     	; 0x2b9c <shell_check_arg+0x6e>
    2bb2:	6e e5       	ldi	r22, 0x5E	; 94
    2bb4:	72 e0       	ldi	r23, 0x02	; 2
    2bb6:	c8 01       	movw	r24, r16
    2bb8:	0e 94 8f 42 	call	0x851e	; 0x851e <strtok_P>
    2bbc:	7c 01       	movw	r14, r24
    2bbe:	63 e6       	ldi	r22, 0x63	; 99
    2bc0:	72 e0       	ldi	r23, 0x02	; 2
    2bc2:	80 e0       	ldi	r24, 0x00	; 0
    2bc4:	90 e0       	ldi	r25, 0x00	; 0
    2bc6:	0e 94 8f 42 	call	0x851e	; 0x851e <strtok_P>
    2bca:	11 e0       	ldi	r17, 0x01	; 1
    2bcc:	f7 01       	movw	r30, r14
    2bce:	d0 80       	ld	r13, Z
    2bd0:	dd 20       	and	r13, r13
    2bd2:	09 f4       	brne	.+2      	; 0x2bd6 <shell_check_arg+0xa8>
    2bd4:	72 c0       	rjmp	.+228    	; 0x2cba <shell_check_arg+0x18c>
    2bd6:	dc 01       	movw	r26, r24
    2bd8:	3c 91       	ld	r19, X
    2bda:	33 23       	and	r19, r19
    2bdc:	41 f0       	breq	.+16     	; 0x2bee <shell_check_arg+0xc0>
    2bde:	6d e2       	ldi	r22, 0x2D	; 45
    2be0:	70 e0       	ldi	r23, 0x00	; 0
    2be2:	0e 94 c2 40 	call	0x8184	; 0x8184 <strchr>
    2be6:	31 e0       	ldi	r19, 0x01	; 1
    2be8:	89 2b       	or	r24, r25
    2bea:	09 f0       	breq	.+2      	; 0x2bee <shell_check_arg+0xc0>
    2bec:	30 e0       	ldi	r19, 0x00	; 0
    2bee:	11 23       	and	r17, r17
    2bf0:	09 f4       	brne	.+2      	; 0x2bf4 <shell_check_arg+0xc6>
    2bf2:	53 c0       	rjmp	.+166    	; 0x2c9a <shell_check_arg+0x16c>
    2bf4:	33 23       	and	r19, r19
    2bf6:	09 f4       	brne	.+2      	; 0x2bfa <shell_check_arg+0xcc>
    2bf8:	50 c0       	rjmp	.+160    	; 0x2c9a <shell_check_arg+0x16c>
    2bfa:	41 e5       	ldi	r20, 0x51	; 81
    2bfc:	55 e2       	ldi	r21, 0x25	; 37
    2bfe:	fa 01       	movw	r30, r20
    2c00:	01 90       	ld	r0, Z+
    2c02:	00 20       	and	r0, r0
    2c04:	e9 f7       	brne	.-6      	; 0x2c00 <shell_check_arg+0xd2>
    2c06:	8f 01       	movw	r16, r30
    2c08:	d7 01       	movw	r26, r14
    2c0a:	0d 90       	ld	r0, X+
    2c0c:	00 20       	and	r0, r0
    2c0e:	e9 f7       	brne	.-6      	; 0x2c0a <shell_check_arg+0xdc>
    2c10:	11 97       	sbiw	r26, 0x01	; 1
    2c12:	ae 19       	sub	r26, r14
    2c14:	bf 09       	sbc	r27, r15
    2c16:	0a 1b       	sub	r16, r26
    2c18:	1b 0b       	sbc	r17, r27
    2c1a:	02 50       	subi	r16, 0x02	; 2
    2c1c:	11 09       	sbc	r17, r1
    2c1e:	3f c0       	rjmp	.+126    	; 0x2c9e <shell_check_arg+0x170>
    2c20:	40 e2       	ldi	r20, 0x20	; 32
    2c22:	49 83       	std	Y+1, r20	; 0x01
    2c24:	0d e2       	ldi	r16, 0x2D	; 45
    2c26:	0a 83       	std	Y+2, r16	; 0x02
    2c28:	fe 01       	movw	r30, r28
    2c2a:	33 96       	adiw	r30, 0x03	; 3
    2c2c:	d9 01       	movw	r26, r18
    2c2e:	11 96       	adiw	r26, 0x01	; 1
    2c30:	ad 01       	movw	r20, r26
    2c32:	bc 01       	movw	r22, r24
    2c34:	cf 01       	movw	r24, r30
    2c36:	22 96       	adiw	r28, 0x02	; 2
    2c38:	2f af       	std	Y+63, r18	; 0x3f
    2c3a:	22 97       	sbiw	r28, 0x02	; 2
    2c3c:	23 96       	adiw	r28, 0x03	; 3
    2c3e:	3f af       	std	Y+63, r19	; 0x3f
    2c40:	23 97       	sbiw	r28, 0x03	; 3
    2c42:	0e 94 b9 40 	call	0x8172	; 0x8172 <memcpy>
    2c46:	ee 24       	eor	r14, r14
    2c48:	e3 94       	inc	r14
    2c4a:	f1 2c       	mov	r15, r1
    2c4c:	ec 0e       	add	r14, r28
    2c4e:	fd 1e       	adc	r15, r29
    2c50:	b7 01       	movw	r22, r14
    2c52:	81 e5       	ldi	r24, 0x51	; 81
    2c54:	95 e2       	ldi	r25, 0x25	; 37
    2c56:	0e 94 02 41 	call	0x8204	; 0x8204 <strstr>
    2c5a:	8c 01       	movw	r16, r24
    2c5c:	22 96       	adiw	r28, 0x02	; 2
    2c5e:	2f ad       	ldd	r18, Y+63	; 0x3f
    2c60:	22 97       	sbiw	r28, 0x02	; 2
    2c62:	23 96       	adiw	r28, 0x03	; 3
    2c64:	3f ad       	ldd	r19, Y+63	; 0x3f
    2c66:	23 97       	sbiw	r28, 0x03	; 3
    2c68:	00 97       	sbiw	r24, 0x00	; 0
    2c6a:	b9 f0       	breq	.+46     	; 0x2c9a <shell_check_arg+0x16c>
    2c6c:	69 01       	movw	r12, r18
    2c6e:	b2 e0       	ldi	r27, 0x02	; 2
    2c70:	cb 0e       	add	r12, r27
    2c72:	d1 1c       	adc	r13, r1
    2c74:	f8 01       	movw	r30, r16
    2c76:	ec 0d       	add	r30, r12
    2c78:	fd 1d       	adc	r31, r13
    2c7a:	60 81       	ld	r22, Z
    2c7c:	70 e0       	ldi	r23, 0x00	; 0
    2c7e:	87 e3       	ldi	r24, 0x37	; 55
    2c80:	92 e2       	ldi	r25, 0x22	; 34
    2c82:	0e 94 c2 40 	call	0x8184	; 0x8184 <strchr>
    2c86:	89 2b       	or	r24, r25
    2c88:	51 f4       	brne	.+20     	; 0x2c9e <shell_check_arg+0x170>
    2c8a:	b7 01       	movw	r22, r14
    2c8c:	c8 01       	movw	r24, r16
    2c8e:	01 96       	adiw	r24, 0x01	; 1
    2c90:	0e 94 02 41 	call	0x8204	; 0x8204 <strstr>
    2c94:	8c 01       	movw	r16, r24
    2c96:	00 97       	sbiw	r24, 0x00	; 0
    2c98:	69 f7       	brne	.-38     	; 0x2c74 <shell_check_arg+0x146>
    2c9a:	00 e0       	ldi	r16, 0x00	; 0
    2c9c:	10 e0       	ldi	r17, 0x00	; 0
    2c9e:	c8 01       	movw	r24, r16
    2ca0:	ce 5b       	subi	r28, 0xBE	; 190
    2ca2:	df 4f       	sbci	r29, 0xFF	; 255
    2ca4:	cd bf       	out	0x3d, r28	; 61
    2ca6:	de bf       	out	0x3e, r29	; 62
    2ca8:	df 91       	pop	r29
    2caa:	cf 91       	pop	r28
    2cac:	1f 91       	pop	r17
    2cae:	0f 91       	pop	r16
    2cb0:	ff 90       	pop	r15
    2cb2:	ef 90       	pop	r14
    2cb4:	df 90       	pop	r13
    2cb6:	cf 90       	pop	r12
    2cb8:	08 95       	ret
    2cba:	10 e0       	ldi	r17, 0x00	; 0
    2cbc:	dc 01       	movw	r26, r24
    2cbe:	3c 91       	ld	r19, X
    2cc0:	31 11       	cpse	r19, r1
    2cc2:	8d cf       	rjmp	.-230    	; 0x2bde <shell_check_arg+0xb0>
    2cc4:	94 cf       	rjmp	.-216    	; 0x2bee <shell_check_arg+0xc0>

00002cc6 <shell_extract_arg_len.constprop.2>:
    2cc6:	0f 93       	push	r16
    2cc8:	1f 93       	push	r17
    2cca:	cf 93       	push	r28
    2ccc:	df 93       	push	r29
    2cce:	cd b7       	in	r28, 0x3d	; 61
    2cd0:	de b7       	in	r29, 0x3e	; 62
    2cd2:	c0 54       	subi	r28, 0x40	; 64
    2cd4:	d1 09       	sbc	r29, r1
    2cd6:	cd bf       	out	0x3d, r28	; 61
    2cd8:	de bf       	out	0x3e, r29	; 62
    2cda:	8a e3       	ldi	r24, 0x3A	; 58
    2cdc:	92 e2       	ldi	r25, 0x22	; 34
    2cde:	27 df       	rcall	.-434    	; 0x2b2e <shell_check_arg>
    2ce0:	89 2b       	or	r24, r25
    2ce2:	71 f1       	breq	.+92     	; 0x2d40 <shell_extract_arg_len.constprop.2+0x7a>
    2ce4:	4f e3       	ldi	r20, 0x3F	; 63
    2ce6:	50 e0       	ldi	r21, 0x00	; 0
    2ce8:	61 e5       	ldi	r22, 0x51	; 81
    2cea:	75 e2       	ldi	r23, 0x25	; 37
    2cec:	ce 01       	movw	r24, r28
    2cee:	01 96       	adiw	r24, 0x01	; 1
    2cf0:	0e 94 f3 40 	call	0x81e6	; 0x81e6 <strncpy>
    2cf4:	21 96       	adiw	r28, 0x01	; 1
    2cf6:	1f ae       	std	Y+63, r1	; 0x3f
    2cf8:	21 97       	sbiw	r28, 0x01	; 1
    2cfa:	6a e4       	ldi	r22, 0x4A	; 74
    2cfc:	72 e0       	ldi	r23, 0x02	; 2
    2cfe:	ce 01       	movw	r24, r28
    2d00:	01 96       	adiw	r24, 0x01	; 1
    2d02:	0e 94 8f 42 	call	0x851e	; 0x851e <strtok_P>
    2d06:	00 97       	sbiw	r24, 0x00	; 0
    2d08:	d9 f0       	breq	.+54     	; 0x2d40 <shell_extract_arg_len.constprop.2+0x7a>
    2d0a:	dc 01       	movw	r26, r24
    2d0c:	0d 90       	ld	r0, X+
    2d0e:	00 20       	and	r0, r0
    2d10:	e9 f7       	brne	.-6      	; 0x2d0c <shell_extract_arg_len.constprop.2+0x46>
    2d12:	8d 01       	movw	r16, r26
    2d14:	01 50       	subi	r16, 0x01	; 1
    2d16:	11 09       	sbc	r17, r1
    2d18:	08 1b       	sub	r16, r24
    2d1a:	19 0b       	sbc	r17, r25
    2d1c:	6f e4       	ldi	r22, 0x4F	; 79
    2d1e:	72 e0       	ldi	r23, 0x02	; 2
    2d20:	80 e0       	ldi	r24, 0x00	; 0
    2d22:	90 e0       	ldi	r25, 0x00	; 0
    2d24:	0e 94 8f 42 	call	0x851e	; 0x851e <strtok_P>
    2d28:	00 97       	sbiw	r24, 0x00	; 0
    2d2a:	79 f7       	brne	.-34     	; 0x2d0a <shell_extract_arg_len.constprop.2+0x44>
    2d2c:	c8 01       	movw	r24, r16
    2d2e:	c0 5c       	subi	r28, 0xC0	; 192
    2d30:	df 4f       	sbci	r29, 0xFF	; 255
    2d32:	cd bf       	out	0x3d, r28	; 61
    2d34:	de bf       	out	0x3e, r29	; 62
    2d36:	df 91       	pop	r29
    2d38:	cf 91       	pop	r28
    2d3a:	1f 91       	pop	r17
    2d3c:	0f 91       	pop	r16
    2d3e:	08 95       	ret
    2d40:	00 e0       	ldi	r16, 0x00	; 0
    2d42:	10 e0       	ldi	r17, 0x00	; 0
    2d44:	f3 cf       	rjmp	.-26     	; 0x2d2c <shell_extract_arg_len.constprop.2+0x66>

00002d46 <shell_extract_arg>:
    2d46:	cf 92       	push	r12
    2d48:	df 92       	push	r13
    2d4a:	ef 92       	push	r14
    2d4c:	ff 92       	push	r15
    2d4e:	0f 93       	push	r16
    2d50:	1f 93       	push	r17
    2d52:	cf 93       	push	r28
    2d54:	df 93       	push	r29
    2d56:	cd b7       	in	r28, 0x3d	; 61
    2d58:	de b7       	in	r29, 0x3e	; 62
    2d5a:	c0 54       	subi	r28, 0x40	; 64
    2d5c:	d1 09       	sbc	r29, r1
    2d5e:	cd bf       	out	0x3d, r28	; 61
    2d60:	de bf       	out	0x3e, r29	; 62
    2d62:	7c 01       	movw	r14, r24
    2d64:	8b 01       	movw	r16, r22
    2d66:	6a 01       	movw	r12, r20
    2d68:	e2 de       	rcall	.-572    	; 0x2b2e <shell_check_arg>
    2d6a:	00 97       	sbiw	r24, 0x00	; 0
    2d6c:	29 f1       	breq	.+74     	; 0x2db8 <shell_extract_arg+0x72>
    2d6e:	d7 01       	movw	r26, r14
    2d70:	2c 91       	ld	r18, X
    2d72:	21 11       	cpse	r18, r1
    2d74:	2e c0       	rjmp	.+92     	; 0x2dd2 <shell_extract_arg+0x8c>
    2d76:	4f e3       	ldi	r20, 0x3F	; 63
    2d78:	50 e0       	ldi	r21, 0x00	; 0
    2d7a:	61 e5       	ldi	r22, 0x51	; 81
    2d7c:	75 e2       	ldi	r23, 0x25	; 37
    2d7e:	ce 01       	movw	r24, r28
    2d80:	01 96       	adiw	r24, 0x01	; 1
    2d82:	0e 94 f3 40 	call	0x81e6	; 0x81e6 <strncpy>
    2d86:	21 96       	adiw	r28, 0x01	; 1
    2d88:	1f ae       	std	Y+63, r1	; 0x3f
    2d8a:	21 97       	sbiw	r28, 0x01	; 1
    2d8c:	64 e5       	ldi	r22, 0x54	; 84
    2d8e:	72 e0       	ldi	r23, 0x02	; 2
    2d90:	ce 01       	movw	r24, r28
    2d92:	01 96       	adiw	r24, 0x01	; 1
    2d94:	0e 94 8f 42 	call	0x851e	; 0x851e <strtok_P>
    2d98:	00 97       	sbiw	r24, 0x00	; 0
    2d9a:	71 f0       	breq	.+28     	; 0x2db8 <shell_extract_arg+0x72>
    2d9c:	76 01       	movw	r14, r12
    2d9e:	a7 01       	movw	r20, r14
    2da0:	bc 01       	movw	r22, r24
    2da2:	c8 01       	movw	r24, r16
    2da4:	0e 94 f3 40 	call	0x81e6	; 0x81e6 <strncpy>
    2da8:	69 e5       	ldi	r22, 0x59	; 89
    2daa:	72 e0       	ldi	r23, 0x02	; 2
    2dac:	80 e0       	ldi	r24, 0x00	; 0
    2dae:	90 e0       	ldi	r25, 0x00	; 0
    2db0:	0e 94 8f 42 	call	0x851e	; 0x851e <strtok_P>
    2db4:	00 97       	sbiw	r24, 0x00	; 0
    2db6:	99 f7       	brne	.-26     	; 0x2d9e <shell_extract_arg+0x58>
    2db8:	c0 5c       	subi	r28, 0xC0	; 192
    2dba:	df 4f       	sbci	r29, 0xFF	; 255
    2dbc:	cd bf       	out	0x3d, r28	; 61
    2dbe:	de bf       	out	0x3e, r29	; 62
    2dc0:	df 91       	pop	r29
    2dc2:	cf 91       	pop	r28
    2dc4:	1f 91       	pop	r17
    2dc6:	0f 91       	pop	r16
    2dc8:	ff 90       	pop	r15
    2dca:	ef 90       	pop	r14
    2dcc:	df 90       	pop	r13
    2dce:	cf 90       	pop	r12
    2dd0:	08 95       	ret
    2dd2:	f7 01       	movw	r30, r14
    2dd4:	d7 01       	movw	r26, r14
    2dd6:	0d 90       	ld	r0, X+
    2dd8:	00 20       	and	r0, r0
    2dda:	e9 f7       	brne	.-6      	; 0x2dd6 <shell_extract_arg+0x90>
    2ddc:	7d 01       	movw	r14, r26
    2dde:	ee 1a       	sub	r14, r30
    2de0:	ff 0a       	sbc	r15, r31
    2de2:	e2 e0       	ldi	r30, 0x02	; 2
    2de4:	ee 0e       	add	r14, r30
    2de6:	f1 1c       	adc	r15, r1
    2de8:	e8 0e       	add	r14, r24
    2dea:	f9 1e       	adc	r15, r25
    2dec:	67 e3       	ldi	r22, 0x37	; 55
    2dee:	72 e2       	ldi	r23, 0x22	; 34
    2df0:	c7 01       	movw	r24, r14
    2df2:	0e 94 d6 40 	call	0x81ac	; 0x81ac <strcspn>
    2df6:	a6 01       	movw	r20, r12
    2df8:	41 50       	subi	r20, 0x01	; 1
    2dfa:	51 09       	sbc	r21, r1
    2dfc:	6c 01       	movw	r12, r24
    2dfe:	48 17       	cp	r20, r24
    2e00:	59 07       	cpc	r21, r25
    2e02:	0c f4       	brge	.+2      	; 0x2e06 <shell_extract_arg+0xc0>
    2e04:	6a 01       	movw	r12, r20
    2e06:	a6 01       	movw	r20, r12
    2e08:	b7 01       	movw	r22, r14
    2e0a:	c8 01       	movw	r24, r16
    2e0c:	0e 94 f3 40 	call	0x81e6	; 0x81e6 <strncpy>
    2e10:	f8 01       	movw	r30, r16
    2e12:	ec 0d       	add	r30, r12
    2e14:	fd 1d       	adc	r31, r13
    2e16:	10 82       	st	Z, r1
    2e18:	cf cf       	rjmp	.-98     	; 0x2db8 <shell_extract_arg+0x72>

00002e1a <shell_help_cmd.1338>:
    2e1a:	ef 92       	push	r14
    2e1c:	ff 92       	push	r15
    2e1e:	0f 93       	push	r16
    2e20:	1f 93       	push	r17
    2e22:	cf 93       	push	r28
    2e24:	df 93       	push	r29
    2e26:	cd b7       	in	r28, 0x3d	; 61
    2e28:	de b7       	in	r29, 0x3e	; 62
    2e2a:	ef 97       	sbiw	r28, 0x3f	; 63
    2e2c:	cd bf       	out	0x3d, r28	; 61
    2e2e:	de bf       	out	0x3e, r29	; 62
    2e30:	4a df       	rcall	.-364    	; 0x2cc6 <shell_extract_arg_len.constprop.2>
    2e32:	00 97       	sbiw	r24, 0x00	; 0
    2e34:	39 f1       	breq	.+78     	; 0x2e84 <shell_help_cmd.1338+0x6a>
    2e36:	ac 01       	movw	r20, r24
    2e38:	4f 5f       	subi	r20, 0xFF	; 255
    2e3a:	5f 4f       	sbci	r21, 0xFF	; 255
    2e3c:	be 01       	movw	r22, r28
    2e3e:	6f 5f       	subi	r22, 0xFF	; 255
    2e40:	7f 4f       	sbci	r23, 0xFF	; 255
    2e42:	8a e3       	ldi	r24, 0x3A	; 58
    2e44:	92 e2       	ldi	r25, 0x22	; 34
    2e46:	7f df       	rcall	.-258    	; 0x2d46 <shell_extract_arg>
    2e48:	e1 2c       	mov	r14, r1
    2e4a:	f1 2c       	mov	r15, r1
    2e4c:	87 01       	movw	r16, r14
    2e4e:	00 0f       	add	r16, r16
    2e50:	11 1f       	adc	r17, r17
    2e52:	0e 0d       	add	r16, r14
    2e54:	1f 1d       	adc	r17, r15
    2e56:	00 0f       	add	r16, r16
    2e58:	11 1f       	adc	r17, r17
    2e5a:	f8 01       	movw	r30, r16
    2e5c:	e3 58       	subi	r30, 0x83	; 131
    2e5e:	f6 4e       	sbci	r31, 0xE6	; 230
    2e60:	85 91       	lpm	r24, Z+
    2e62:	94 91       	lpm	r25, Z
    2e64:	bc 01       	movw	r22, r24
    2e66:	ce 01       	movw	r24, r28
    2e68:	01 96       	adiw	r24, 0x01	; 1
    2e6a:	0e 94 92 42 	call	0x8524	; 0x8524 <strcmp_P>
    2e6e:	89 2b       	or	r24, r25
    2e70:	a1 f1       	breq	.+104    	; 0x2eda <shell_help_cmd.1338+0xc0>
    2e72:	8f ef       	ldi	r24, 0xFF	; 255
    2e74:	e8 1a       	sub	r14, r24
    2e76:	f8 0a       	sbc	r15, r24
    2e78:	8c e0       	ldi	r24, 0x0C	; 12
    2e7a:	e8 16       	cp	r14, r24
    2e7c:	f1 04       	cpc	r15, r1
    2e7e:	31 f7       	brne	.-52     	; 0x2e4c <shell_help_cmd.1338+0x32>
    2e80:	82 e0       	ldi	r24, 0x02	; 2
    2e82:	21 c0       	rjmp	.+66     	; 0x2ec6 <shell_help_cmd.1338+0xac>
    2e84:	8e e5       	ldi	r24, 0x5E	; 94
    2e86:	91 e0       	ldi	r25, 0x01	; 1
    2e88:	2c dc       	rcall	.-1960   	; 0x26e2 <shell_puts_int_P>
    2e8a:	00 e0       	ldi	r16, 0x00	; 0
    2e8c:	10 e0       	ldi	r17, 0x00	; 0
    2e8e:	85 e8       	ldi	r24, 0x85	; 133
    2e90:	91 e0       	ldi	r25, 0x01	; 1
    2e92:	27 dc       	rcall	.-1970   	; 0x26e2 <shell_puts_int_P>
    2e94:	f8 01       	movw	r30, r16
    2e96:	ee 0f       	add	r30, r30
    2e98:	ff 1f       	adc	r31, r31
    2e9a:	e0 0f       	add	r30, r16
    2e9c:	f1 1f       	adc	r31, r17
    2e9e:	ee 0f       	add	r30, r30
    2ea0:	ff 1f       	adc	r31, r31
    2ea2:	e3 58       	subi	r30, 0x83	; 131
    2ea4:	f6 4e       	sbci	r31, 0xE6	; 230
    2ea6:	25 91       	lpm	r18, Z+
    2ea8:	34 91       	lpm	r19, Z
    2eaa:	c9 01       	movw	r24, r18
    2eac:	1a dc       	rcall	.-1996   	; 0x26e2 <shell_puts_int_P>
    2eae:	8a e8       	ldi	r24, 0x8A	; 138
    2eb0:	91 e0       	ldi	r25, 0x01	; 1
    2eb2:	17 dc       	rcall	.-2002   	; 0x26e2 <shell_puts_int_P>
    2eb4:	0f 5f       	subi	r16, 0xFF	; 255
    2eb6:	1f 4f       	sbci	r17, 0xFF	; 255
    2eb8:	0c 30       	cpi	r16, 0x0C	; 12
    2eba:	11 05       	cpc	r17, r1
    2ebc:	41 f7       	brne	.-48     	; 0x2e8e <shell_help_cmd.1338+0x74>
    2ebe:	8c e8       	ldi	r24, 0x8C	; 140
    2ec0:	91 e0       	ldi	r25, 0x01	; 1
    2ec2:	0f dc       	rcall	.-2018   	; 0x26e2 <shell_puts_int_P>
    2ec4:	80 e0       	ldi	r24, 0x00	; 0
    2ec6:	ef 96       	adiw	r28, 0x3f	; 63
    2ec8:	cd bf       	out	0x3d, r28	; 61
    2eca:	de bf       	out	0x3e, r29	; 62
    2ecc:	df 91       	pop	r29
    2ece:	cf 91       	pop	r28
    2ed0:	1f 91       	pop	r17
    2ed2:	0f 91       	pop	r16
    2ed4:	ff 90       	pop	r15
    2ed6:	ef 90       	pop	r14
    2ed8:	08 95       	ret
    2eda:	01 58       	subi	r16, 0x81	; 129
    2edc:	16 4e       	sbci	r17, 0xE6	; 230
    2ede:	f8 01       	movw	r30, r16
    2ee0:	45 91       	lpm	r20, Z+
    2ee2:	54 91       	lpm	r21, Z
    2ee4:	ca 01       	movw	r24, r20
    2ee6:	fd db       	rcall	.-2054   	; 0x26e2 <shell_puts_int_P>
    2ee8:	80 e0       	ldi	r24, 0x00	; 0
    2eea:	ed cf       	rjmp	.-38     	; 0x2ec6 <shell_help_cmd.1338+0xac>

00002eec <sd_reader_print_info>:
    2eec:	0f 93       	push	r16
    2eee:	88 e6       	ldi	r24, 0x68	; 104
    2ef0:	92 e0       	ldi	r25, 0x02	; 2
    2ef2:	9f 93       	push	r25
    2ef4:	8f 93       	push	r24
    2ef6:	0e 94 ea 42 	call	0x85d4	; 0x85d4 <printf_P>
    2efa:	80 91 92 25 	lds	r24, 0x2592
    2efe:	1f 92       	push	r1
    2f00:	8f 93       	push	r24
    2f02:	83 e8       	ldi	r24, 0x83	; 131
    2f04:	92 e0       	ldi	r25, 0x02	; 2
    2f06:	9f 93       	push	r25
    2f08:	8f 93       	push	r24
    2f0a:	0e 94 ea 42 	call	0x85d4	; 0x85d4 <printf_P>
    2f0e:	83 e9       	ldi	r24, 0x93	; 147
    2f10:	95 e2       	ldi	r25, 0x25	; 37
    2f12:	9f 93       	push	r25
    2f14:	8f 93       	push	r24
    2f16:	81 e9       	ldi	r24, 0x91	; 145
    2f18:	92 e0       	ldi	r25, 0x02	; 2
    2f1a:	9f 93       	push	r25
    2f1c:	8f 93       	push	r24
    2f1e:	0e 94 ea 42 	call	0x85d4	; 0x85d4 <printf_P>
    2f22:	86 e9       	ldi	r24, 0x96	; 150
    2f24:	95 e2       	ldi	r25, 0x25	; 37
    2f26:	9f 93       	push	r25
    2f28:	8f 93       	push	r24
    2f2a:	8d e9       	ldi	r24, 0x9D	; 157
    2f2c:	92 e0       	ldi	r25, 0x02	; 2
    2f2e:	9f 93       	push	r25
    2f30:	8f 93       	push	r24
    2f32:	0e 94 ea 42 	call	0x85d4	; 0x85d4 <printf_P>
    2f36:	00 91 9c 25 	lds	r16, 0x259C
    2f3a:	1f 92       	push	r1
    2f3c:	0f 93       	push	r16
    2f3e:	89 ea       	ldi	r24, 0xA9	; 169
    2f40:	92 e0       	ldi	r25, 0x02	; 2
    2f42:	9f 93       	push	r25
    2f44:	8f 93       	push	r24
    2f46:	0e 94 ea 42 	call	0x85d4	; 0x85d4 <printf_P>
    2f4a:	ed e9       	ldi	r30, 0x9D	; 157
    2f4c:	f5 e2       	ldi	r31, 0x25	; 37
    2f4e:	23 81       	ldd	r18, Z+3	; 0x03
    2f50:	2f 93       	push	r18
    2f52:	32 81       	ldd	r19, Z+2	; 0x02
    2f54:	3f 93       	push	r19
    2f56:	41 81       	ldd	r20, Z+1	; 0x01
    2f58:	4f 93       	push	r20
    2f5a:	50 81       	ld	r21, Z
    2f5c:	5f 93       	push	r21
    2f5e:	85 eb       	ldi	r24, 0xB5	; 181
    2f60:	92 e0       	ldi	r25, 0x02	; 2
    2f62:	9f 93       	push	r25
    2f64:	8f 93       	push	r24
    2f66:	0e 94 ea 42 	call	0x85d4	; 0x85d4 <printf_P>
    2f6a:	60 91 a1 25 	lds	r22, 0x25A1
    2f6e:	86 2f       	mov	r24, r22
    2f70:	90 e0       	ldi	r25, 0x00	; 0
    2f72:	1f 92       	push	r1
    2f74:	6f 93       	push	r22
    2f76:	80 53       	subi	r24, 0x30	; 48
    2f78:	98 4f       	sbci	r25, 0xF8	; 248
    2f7a:	9f 93       	push	r25
    2f7c:	8f 93       	push	r24
    2f7e:	83 ec       	ldi	r24, 0xC3	; 195
    2f80:	92 e0       	ldi	r25, 0x02	; 2
    2f82:	9f 93       	push	r25
    2f84:	8f 93       	push	r24
    2f86:	0e 94 ea 42 	call	0x85d4	; 0x85d4 <printf_P>
    2f8a:	e3 ea       	ldi	r30, 0xA3	; 163
    2f8c:	f5 e2       	ldi	r31, 0x25	; 37
    2f8e:	20 81       	ld	r18, Z
    2f90:	31 81       	ldd	r19, Z+1	; 0x01
    2f92:	42 81       	ldd	r20, Z+2	; 0x02
    2f94:	53 81       	ldd	r21, Z+3	; 0x03
    2f96:	64 81       	ldd	r22, Z+4	; 0x04
    2f98:	75 81       	ldd	r23, Z+5	; 0x05
    2f9a:	86 81       	ldd	r24, Z+6	; 0x06
    2f9c:	97 81       	ldd	r25, Z+7	; 0x07
    2f9e:	04 e1       	ldi	r16, 0x14	; 20
    2fa0:	0e 94 77 40 	call	0x80ee	; 0x80ee <__lshrdi3>
    2fa4:	9f 93       	push	r25
    2fa6:	8f 93       	push	r24
    2fa8:	7f 93       	push	r23
    2faa:	6f 93       	push	r22
    2fac:	5f 93       	push	r21
    2fae:	4f 93       	push	r20
    2fb0:	3f 93       	push	r19
    2fb2:	2f 93       	push	r18
    2fb4:	88 ed       	ldi	r24, 0xD8	; 216
    2fb6:	92 e0       	ldi	r25, 0x02	; 2
    2fb8:	9f 93       	push	r25
    2fba:	8f 93       	push	r24
    2fbc:	0e 94 ea 42 	call	0x85d4	; 0x85d4 <printf_P>
    2fc0:	ad b7       	in	r26, 0x3d	; 61
    2fc2:	be b7       	in	r27, 0x3e	; 62
    2fc4:	98 96       	adiw	r26, 0x28	; 40
    2fc6:	ad bf       	out	0x3d, r26	; 61
    2fc8:	be bf       	out	0x3e, r27	; 62
    2fca:	0f 91       	pop	r16
    2fcc:	08 95       	ret

00002fce <sd_raw_send_command.2410>:
    2fce:	0f 93       	push	r16
    2fd0:	1f 93       	push	r17
    2fd2:	cf 93       	push	r28
    2fd4:	df 93       	push	r29
    2fd6:	cd b7       	in	r28, 0x3d	; 61
    2fd8:	de b7       	in	r29, 0x3e	; 62
    2fda:	2a 97       	sbiw	r28, 0x0a	; 10
    2fdc:	cd bf       	out	0x3d, r28	; 61
    2fde:	de bf       	out	0x3e, r29	; 62
    2fe0:	9f ef       	ldi	r25, 0xFF	; 255
    2fe2:	90 93 e3 08 	sts	0x08E3, r25
    2fe6:	00 91 e2 08 	lds	r16, 0x08E2
    2fea:	07 ff       	sbrs	r16, 7
    2fec:	fc cf       	rjmp	.-8      	; 0x2fe6 <sd_raw_send_command.2410+0x18>
    2fee:	10 91 e2 08 	lds	r17, 0x08E2
    2ff2:	1a 87       	std	Y+10, r17	; 0x0a
    2ff4:	20 91 e3 08 	lds	r18, 0x08E3
    2ff8:	2a 87       	std	Y+10, r18	; 0x0a
    2ffa:	9a 85       	ldd	r25, Y+10	; 0x0a
    2ffc:	90 91 e3 08 	lds	r25, 0x08E3
    3000:	38 2f       	mov	r19, r24
    3002:	30 64       	ori	r19, 0x40	; 64
    3004:	30 93 e3 08 	sts	0x08E3, r19
    3008:	a0 91 e2 08 	lds	r26, 0x08E2
    300c:	a7 ff       	sbrs	r26, 7
    300e:	fc cf       	rjmp	.-8      	; 0x3008 <__stack+0x9>
    3010:	b0 91 e2 08 	lds	r27, 0x08E2
    3014:	b9 87       	std	Y+9, r27	; 0x09
    3016:	e0 91 e3 08 	lds	r30, 0x08E3
    301a:	e9 87       	std	Y+9, r30	; 0x09
    301c:	99 85       	ldd	r25, Y+9	; 0x09
    301e:	07 2f       	mov	r16, r23
    3020:	11 27       	eor	r17, r17
    3022:	22 27       	eor	r18, r18
    3024:	33 27       	eor	r19, r19
    3026:	00 93 e3 08 	sts	0x08E3, r16
    302a:	f0 91 e2 08 	lds	r31, 0x08E2
    302e:	f7 ff       	sbrs	r31, 7
    3030:	fc cf       	rjmp	.-8      	; 0x302a <__stack+0x2b>
    3032:	90 91 e2 08 	lds	r25, 0x08E2
    3036:	98 87       	std	Y+8, r25	; 0x08
    3038:	00 91 e3 08 	lds	r16, 0x08E3
    303c:	08 87       	std	Y+8, r16	; 0x08
    303e:	98 85       	ldd	r25, Y+8	; 0x08
    3040:	8b 01       	movw	r16, r22
    3042:	22 27       	eor	r18, r18
    3044:	33 27       	eor	r19, r19
    3046:	00 93 e3 08 	sts	0x08E3, r16
    304a:	10 91 e2 08 	lds	r17, 0x08E2
    304e:	17 ff       	sbrs	r17, 7
    3050:	fc cf       	rjmp	.-8      	; 0x304a <__stack+0x4b>
    3052:	20 91 e2 08 	lds	r18, 0x08E2
    3056:	2f 83       	std	Y+7, r18	; 0x07
    3058:	30 91 e3 08 	lds	r19, 0x08E3
    305c:	3f 83       	std	Y+7, r19	; 0x07
    305e:	9f 81       	ldd	r25, Y+7	; 0x07
    3060:	05 2f       	mov	r16, r21
    3062:	16 2f       	mov	r17, r22
    3064:	27 2f       	mov	r18, r23
    3066:	33 27       	eor	r19, r19
    3068:	00 93 e3 08 	sts	0x08E3, r16
    306c:	50 91 e2 08 	lds	r21, 0x08E2
    3070:	57 ff       	sbrs	r21, 7
    3072:	fc cf       	rjmp	.-8      	; 0x306c <__stack+0x6d>
    3074:	60 91 e2 08 	lds	r22, 0x08E2
    3078:	6e 83       	std	Y+6, r22	; 0x06
    307a:	70 91 e3 08 	lds	r23, 0x08E3
    307e:	7e 83       	std	Y+6, r23	; 0x06
    3080:	9e 81       	ldd	r25, Y+6	; 0x06
    3082:	40 93 e3 08 	sts	0x08E3, r20
    3086:	40 91 e2 08 	lds	r20, 0x08E2
    308a:	47 ff       	sbrs	r20, 7
    308c:	fc cf       	rjmp	.-8      	; 0x3086 <__stack+0x87>
    308e:	a0 91 e2 08 	lds	r26, 0x08E2
    3092:	ad 83       	std	Y+5, r26	; 0x05
    3094:	b0 91 e3 08 	lds	r27, 0x08E3
    3098:	bd 83       	std	Y+5, r27	; 0x05
    309a:	9d 81       	ldd	r25, Y+5	; 0x05
    309c:	81 11       	cpse	r24, r1
    309e:	0f c0       	rjmp	.+30     	; 0x30be <__stack+0xbf>
    30a0:	55 e9       	ldi	r21, 0x95	; 149
    30a2:	50 93 e3 08 	sts	0x08E3, r21
    30a6:	60 91 e2 08 	lds	r22, 0x08E2
    30aa:	67 ff       	sbrs	r22, 7
    30ac:	fc cf       	rjmp	.-8      	; 0x30a6 <__stack+0xa7>
    30ae:	70 91 e2 08 	lds	r23, 0x08E2
    30b2:	7c 83       	std	Y+4, r23	; 0x04
    30b4:	40 91 e3 08 	lds	r20, 0x08E3
    30b8:	4c 83       	std	Y+4, r20	; 0x04
    30ba:	8c 81       	ldd	r24, Y+4	; 0x04
    30bc:	10 c0       	rjmp	.+32     	; 0x30de <__stack+0xdf>
    30be:	88 30       	cpi	r24, 0x08	; 8
    30c0:	59 f1       	breq	.+86     	; 0x3118 <__stack+0x119>
    30c2:	8f ef       	ldi	r24, 0xFF	; 255
    30c4:	80 93 e3 08 	sts	0x08E3, r24
    30c8:	e0 91 e2 08 	lds	r30, 0x08E2
    30cc:	e7 ff       	sbrs	r30, 7
    30ce:	fc cf       	rjmp	.-8      	; 0x30c8 <__stack+0xc9>
    30d0:	f0 91 e2 08 	lds	r31, 0x08E2
    30d4:	fa 83       	std	Y+2, r31	; 0x02
    30d6:	90 91 e3 08 	lds	r25, 0x08E3
    30da:	9a 83       	std	Y+2, r25	; 0x02
    30dc:	8a 81       	ldd	r24, Y+2	; 0x02
    30de:	aa e0       	ldi	r26, 0x0A	; 10
    30e0:	bf ef       	ldi	r27, 0xFF	; 255
    30e2:	b0 93 e3 08 	sts	0x08E3, r27
    30e6:	80 91 e2 08 	lds	r24, 0x08E2
    30ea:	87 ff       	sbrs	r24, 7
    30ec:	fc cf       	rjmp	.-8      	; 0x30e6 <__stack+0xe7>
    30ee:	e0 91 e2 08 	lds	r30, 0x08E2
    30f2:	e9 83       	std	Y+1, r30	; 0x01
    30f4:	f0 91 e3 08 	lds	r31, 0x08E3
    30f8:	f9 83       	std	Y+1, r31	; 0x01
    30fa:	89 81       	ldd	r24, Y+1	; 0x01
    30fc:	80 91 e3 08 	lds	r24, 0x08E3
    3100:	8f 3f       	cpi	r24, 0xFF	; 255
    3102:	11 f4       	brne	.+4      	; 0x3108 <__stack+0x109>
    3104:	a1 50       	subi	r26, 0x01	; 1
    3106:	69 f7       	brne	.-38     	; 0x30e2 <__stack+0xe3>
    3108:	2a 96       	adiw	r28, 0x0a	; 10
    310a:	cd bf       	out	0x3d, r28	; 61
    310c:	de bf       	out	0x3e, r29	; 62
    310e:	df 91       	pop	r29
    3110:	cf 91       	pop	r28
    3112:	1f 91       	pop	r17
    3114:	0f 91       	pop	r16
    3116:	08 95       	ret
    3118:	07 e8       	ldi	r16, 0x87	; 135
    311a:	00 93 e3 08 	sts	0x08E3, r16
    311e:	10 91 e2 08 	lds	r17, 0x08E2
    3122:	17 ff       	sbrs	r17, 7
    3124:	fc cf       	rjmp	.-8      	; 0x311e <__stack+0x11f>
    3126:	20 91 e2 08 	lds	r18, 0x08E2
    312a:	2b 83       	std	Y+3, r18	; 0x03
    312c:	30 91 e3 08 	lds	r19, 0x08E3
    3130:	3b 83       	std	Y+3, r19	; 0x03
    3132:	8b 81       	ldd	r24, Y+3	; 0x03
    3134:	d4 cf       	rjmp	.-88     	; 0x30de <__stack+0xdf>

00003136 <sd_raw_read>:
    3136:	2f 92       	push	r2
    3138:	3f 92       	push	r3
    313a:	4f 92       	push	r4
    313c:	5f 92       	push	r5
    313e:	6f 92       	push	r6
    3140:	7f 92       	push	r7
    3142:	8f 92       	push	r8
    3144:	9f 92       	push	r9
    3146:	af 92       	push	r10
    3148:	bf 92       	push	r11
    314a:	cf 92       	push	r12
    314c:	df 92       	push	r13
    314e:	ef 92       	push	r14
    3150:	ff 92       	push	r15
    3152:	0f 93       	push	r16
    3154:	1f 93       	push	r17
    3156:	cf 93       	push	r28
    3158:	df 93       	push	r29
    315a:	cd b7       	in	r28, 0x3d	; 61
    315c:	de b7       	in	r29, 0x3e	; 62
    315e:	6c 97       	sbiw	r28, 0x1c	; 28
    3160:	cd bf       	out	0x3d, r28	; 61
    3162:	de bf       	out	0x3e, r29	; 62
    3164:	22 2e       	mov	r2, r18
    3166:	3a 8b       	std	Y+18, r19	; 0x12
    3168:	4f 8b       	std	Y+23, r20	; 0x17
    316a:	58 8f       	std	Y+24, r21	; 0x18
    316c:	69 8f       	std	Y+25, r22	; 0x19
    316e:	7a 8f       	std	Y+26, r23	; 0x1a
    3170:	8b 8f       	std	Y+27, r24	; 0x1b
    3172:	9c 8f       	std	Y+28, r25	; 0x1c
    3174:	38 01       	movw	r6, r16
    3176:	27 01       	movw	r4, r14
    3178:	e1 14       	cp	r14, r1
    317a:	f1 04       	cpc	r15, r1
    317c:	09 f4       	brne	.+2      	; 0x3180 <sd_raw_read+0x4a>
    317e:	08 c1       	rjmp	.+528    	; 0x3390 <sd_raw_read+0x25a>
    3180:	33 24       	eor	r3, r3
    3182:	3a 94       	dec	r3
    3184:	ba 88       	ldd	r11, Y+18	; 0x12
    3186:	21 e0       	ldi	r18, 0x01	; 1
    3188:	b2 22       	and	r11, r18
    318a:	2e 82       	std	Y+6, r2	; 0x06
    318c:	bf 82       	std	Y+7, r11	; 0x07
    318e:	22 2d       	mov	r18, r2
    3190:	3a 89       	ldd	r19, Y+18	; 0x12
    3192:	4f 89       	ldd	r20, Y+23	; 0x17
    3194:	58 8d       	ldd	r21, Y+24	; 0x18
    3196:	69 8d       	ldd	r22, Y+25	; 0x19
    3198:	7a 8d       	ldd	r23, Y+26	; 0x1a
    319a:	8b 8d       	ldd	r24, Y+27	; 0x1b
    319c:	9c 8d       	ldd	r25, Y+28	; 0x1c
    319e:	a2 2c       	mov	r10, r2
    31a0:	c1 2c       	mov	r12, r1
    31a2:	d1 2c       	mov	r13, r1
    31a4:	e1 2c       	mov	r14, r1
    31a6:	f1 2c       	mov	r15, r1
    31a8:	00 e0       	ldi	r16, 0x00	; 0
    31aa:	10 e0       	ldi	r17, 0x00	; 0
    31ac:	0e 94 9b 40 	call	0x8136	; 0x8136 <__subdi3>
    31b0:	2e 87       	std	Y+14, r18	; 0x0e
    31b2:	3f 87       	std	Y+15, r19	; 0x0f
    31b4:	48 8b       	std	Y+16, r20	; 0x10
    31b6:	59 8b       	std	Y+17, r21	; 0x11
    31b8:	6b 8b       	std	Y+19, r22	; 0x13
    31ba:	7c 8b       	std	Y+20, r23	; 0x14
    31bc:	8d 8b       	std	Y+21, r24	; 0x15
    31be:	9e 8b       	std	Y+22, r25	; 0x16
    31c0:	81 2c       	mov	r8, r1
    31c2:	f2 e0       	ldi	r31, 0x02	; 2
    31c4:	9f 2e       	mov	r9, r31
    31c6:	4e 81       	ldd	r20, Y+6	; 0x06
    31c8:	5f 81       	ldd	r21, Y+7	; 0x07
    31ca:	84 1a       	sub	r8, r20
    31cc:	95 0a       	sbc	r9, r21
    31ce:	48 14       	cp	r4, r8
    31d0:	59 04       	cpc	r5, r9
    31d2:	08 f4       	brcc	.+2      	; 0x31d6 <sd_raw_read+0xa0>
    31d4:	42 01       	movw	r8, r4
    31d6:	a0 90 47 25 	lds	r10, 0x2547
    31da:	b0 90 48 25 	lds	r11, 0x2548
    31de:	c0 90 49 25 	lds	r12, 0x2549
    31e2:	d0 90 4a 25 	lds	r13, 0x254A
    31e6:	e0 90 4b 25 	lds	r14, 0x254B
    31ea:	f0 90 4c 25 	lds	r15, 0x254C
    31ee:	00 91 4d 25 	lds	r16, 0x254D
    31f2:	10 91 4e 25 	lds	r17, 0x254E
    31f6:	2e 85       	ldd	r18, Y+14	; 0x0e
    31f8:	3f 85       	ldd	r19, Y+15	; 0x0f
    31fa:	48 89       	ldd	r20, Y+16	; 0x10
    31fc:	59 89       	ldd	r21, Y+17	; 0x11
    31fe:	6b 89       	ldd	r22, Y+19	; 0x13
    3200:	7c 89       	ldd	r23, Y+20	; 0x14
    3202:	8d 89       	ldd	r24, Y+21	; 0x15
    3204:	9e 89       	ldd	r25, Y+22	; 0x16
    3206:	0e 94 a4 40 	call	0x8148	; 0x8148 <__cmpdi2>
    320a:	09 f4       	brne	.+2      	; 0x320e <sd_raw_read+0xd8>
    320c:	e6 c0       	rjmp	.+460    	; 0x33da <sd_raw_read+0x2a4>
    320e:	52 e0       	ldi	r21, 0x02	; 2
    3210:	50 93 66 06 	sts	0x0666, r21
    3214:	a0 90 4f 25 	lds	r10, 0x254F
    3218:	a2 fe       	sbrs	r10, 2
    321a:	d1 c0       	rjmp	.+418    	; 0x33be <sd_raw_read+0x288>
    321c:	2e 85       	ldd	r18, Y+14	; 0x0e
    321e:	3f 85       	ldd	r19, Y+15	; 0x0f
    3220:	48 89       	ldd	r20, Y+16	; 0x10
    3222:	59 89       	ldd	r21, Y+17	; 0x11
    3224:	6b 89       	ldd	r22, Y+19	; 0x13
    3226:	7c 89       	ldd	r23, Y+20	; 0x14
    3228:	8d 89       	ldd	r24, Y+21	; 0x15
    322a:	9e 89       	ldd	r25, Y+22	; 0x16
    322c:	09 e0       	ldi	r16, 0x09	; 9
    322e:	0e 94 77 40 	call	0x80ee	; 0x80ee <__lshrdi3>
    3232:	ba 01       	movw	r22, r20
    3234:	42 2f       	mov	r20, r18
    3236:	53 2f       	mov	r21, r19
    3238:	81 e1       	ldi	r24, 0x11	; 17
    323a:	c9 de       	rcall	.-622    	; 0x2fce <sd_raw_send_command.2410>
    323c:	81 11       	cpse	r24, r1
    323e:	c8 c0       	rjmp	.+400    	; 0x33d0 <sd_raw_read+0x29a>
    3240:	30 92 e3 08 	sts	0x08E3, r3
    3244:	c0 90 e2 08 	lds	r12, 0x08E2
    3248:	c7 fe       	sbrs	r12, 7
    324a:	fc cf       	rjmp	.-8      	; 0x3244 <sd_raw_read+0x10e>
    324c:	d0 90 e2 08 	lds	r13, 0x08E2
    3250:	dd 82       	std	Y+5, r13	; 0x05
    3252:	e0 90 e3 08 	lds	r14, 0x08E3
    3256:	ed 82       	std	Y+5, r14	; 0x05
    3258:	8d 81       	ldd	r24, Y+5	; 0x05
    325a:	00 91 e3 08 	lds	r16, 0x08E3
    325e:	0e 3f       	cpi	r16, 0xFE	; 254
    3260:	79 f7       	brne	.-34     	; 0x3240 <sd_raw_read+0x10a>
    3262:	e7 e4       	ldi	r30, 0x47	; 71
    3264:	f3 e2       	ldi	r31, 0x23	; 35
    3266:	30 92 e3 08 	sts	0x08E3, r3
    326a:	f0 90 e2 08 	lds	r15, 0x08E2
    326e:	f7 fe       	sbrs	r15, 7
    3270:	fc cf       	rjmp	.-8      	; 0x326a <sd_raw_read+0x134>
    3272:	10 91 e2 08 	lds	r17, 0x08E2
    3276:	1c 83       	std	Y+4, r17	; 0x04
    3278:	30 91 e3 08 	lds	r19, 0x08E3
    327c:	3c 83       	std	Y+4, r19	; 0x04
    327e:	8c 81       	ldd	r24, Y+4	; 0x04
    3280:	60 91 e3 08 	lds	r22, 0x08E3
    3284:	61 93       	st	Z+, r22
    3286:	65 e2       	ldi	r22, 0x25	; 37
    3288:	e7 34       	cpi	r30, 0x47	; 71
    328a:	f6 07       	cpc	r31, r22
    328c:	61 f7       	brne	.-40     	; 0x3266 <sd_raw_read+0x130>
    328e:	7e 85       	ldd	r23, Y+14	; 0x0e
    3290:	70 93 47 25 	sts	0x2547, r23
    3294:	af 85       	ldd	r26, Y+15	; 0x0f
    3296:	a0 93 48 25 	sts	0x2548, r26
    329a:	b8 89       	ldd	r27, Y+16	; 0x10
    329c:	b0 93 49 25 	sts	0x2549, r27
    32a0:	f9 89       	ldd	r31, Y+17	; 0x11
    32a2:	f0 93 4a 25 	sts	0x254A, r31
    32a6:	2b 89       	ldd	r18, Y+19	; 0x13
    32a8:	20 93 4b 25 	sts	0x254B, r18
    32ac:	4c 89       	ldd	r20, Y+20	; 0x14
    32ae:	40 93 4c 25 	sts	0x254C, r20
    32b2:	8d 89       	ldd	r24, Y+21	; 0x15
    32b4:	80 93 4d 25 	sts	0x254D, r24
    32b8:	5e 89       	ldd	r21, Y+22	; 0x16
    32ba:	50 93 4e 25 	sts	0x254E, r21
    32be:	0e 81       	ldd	r16, Y+6	; 0x06
    32c0:	1f 81       	ldd	r17, Y+7	; 0x07
    32c2:	09 5b       	subi	r16, 0xB9	; 185
    32c4:	1c 4d       	sbci	r17, 0xDC	; 220
    32c6:	a4 01       	movw	r20, r8
    32c8:	b8 01       	movw	r22, r16
    32ca:	c3 01       	movw	r24, r6
    32cc:	0e 94 b9 40 	call	0x8172	; 0x8172 <memcpy>
    32d0:	68 0c       	add	r6, r8
    32d2:	79 1c       	adc	r7, r9
    32d4:	30 92 e3 08 	sts	0x08E3, r3
    32d8:	a0 90 e2 08 	lds	r10, 0x08E2
    32dc:	a7 fe       	sbrs	r10, 7
    32de:	fc cf       	rjmp	.-8      	; 0x32d8 <sd_raw_read+0x1a2>
    32e0:	90 91 e2 08 	lds	r25, 0x08E2
    32e4:	9b 83       	std	Y+3, r25	; 0x03
    32e6:	b0 90 e3 08 	lds	r11, 0x08E3
    32ea:	bb 82       	std	Y+3, r11	; 0x03
    32ec:	8b 81       	ldd	r24, Y+3	; 0x03
    32ee:	80 91 e3 08 	lds	r24, 0x08E3
    32f2:	30 92 e3 08 	sts	0x08E3, r3
    32f6:	c0 90 e2 08 	lds	r12, 0x08E2
    32fa:	c7 fe       	sbrs	r12, 7
    32fc:	fc cf       	rjmp	.-8      	; 0x32f6 <sd_raw_read+0x1c0>
    32fe:	d0 90 e2 08 	lds	r13, 0x08E2
    3302:	da 82       	std	Y+2, r13	; 0x02
    3304:	e0 90 e3 08 	lds	r14, 0x08E3
    3308:	ea 82       	std	Y+2, r14	; 0x02
    330a:	8a 81       	ldd	r24, Y+2	; 0x02
    330c:	80 91 e3 08 	lds	r24, 0x08E3
    3310:	e2 e0       	ldi	r30, 0x02	; 2
    3312:	e0 93 65 06 	sts	0x0665, r30
    3316:	30 92 e3 08 	sts	0x08E3, r3
    331a:	f0 90 e2 08 	lds	r15, 0x08E2
    331e:	f7 fe       	sbrs	r15, 7
    3320:	fc cf       	rjmp	.-8      	; 0x331a <sd_raw_read+0x1e4>
    3322:	10 91 e2 08 	lds	r17, 0x08E2
    3326:	19 83       	std	Y+1, r17	; 0x01
    3328:	30 91 e3 08 	lds	r19, 0x08E3
    332c:	39 83       	std	Y+1, r19	; 0x01
    332e:	89 81       	ldd	r24, Y+1	; 0x01
    3330:	80 91 e3 08 	lds	r24, 0x08E3
    3334:	48 18       	sub	r4, r8
    3336:	59 08       	sbc	r5, r9
    3338:	94 01       	movw	r18, r8
    333a:	40 e0       	ldi	r20, 0x00	; 0
    333c:	50 e0       	ldi	r21, 0x00	; 0
    333e:	60 e0       	ldi	r22, 0x00	; 0
    3340:	70 e0       	ldi	r23, 0x00	; 0
    3342:	cb 01       	movw	r24, r22
    3344:	8e 82       	std	Y+6, r8	; 0x06
    3346:	3f 83       	std	Y+7, r19	; 0x07
    3348:	48 87       	std	Y+8, r20	; 0x08
    334a:	59 87       	std	Y+9, r21	; 0x09
    334c:	6a 87       	std	Y+10, r22	; 0x0a
    334e:	7b 87       	std	Y+11, r23	; 0x0b
    3350:	8c 87       	std	Y+12, r24	; 0x0c
    3352:	9d 87       	std	Y+13, r25	; 0x0d
    3354:	22 2d       	mov	r18, r2
    3356:	3a 89       	ldd	r19, Y+18	; 0x12
    3358:	4f 89       	ldd	r20, Y+23	; 0x17
    335a:	58 8d       	ldd	r21, Y+24	; 0x18
    335c:	69 8d       	ldd	r22, Y+25	; 0x19
    335e:	7a 8d       	ldd	r23, Y+26	; 0x1a
    3360:	8b 8d       	ldd	r24, Y+27	; 0x1b
    3362:	9c 8d       	ldd	r25, Y+28	; 0x1c
    3364:	ae 80       	ldd	r10, Y+6	; 0x06
    3366:	bf 80       	ldd	r11, Y+7	; 0x07
    3368:	c1 2c       	mov	r12, r1
    336a:	d1 2c       	mov	r13, r1
    336c:	e1 2c       	mov	r14, r1
    336e:	f1 2c       	mov	r15, r1
    3370:	00 e0       	ldi	r16, 0x00	; 0
    3372:	10 e0       	ldi	r17, 0x00	; 0
    3374:	0e 94 86 40 	call	0x810c	; 0x810c <__adddi3>
    3378:	22 2e       	mov	r2, r18
    337a:	3a 8b       	std	Y+18, r19	; 0x12
    337c:	4f 8b       	std	Y+23, r20	; 0x17
    337e:	58 8f       	std	Y+24, r21	; 0x18
    3380:	69 8f       	std	Y+25, r22	; 0x19
    3382:	7a 8f       	std	Y+26, r23	; 0x1a
    3384:	8b 8f       	std	Y+27, r24	; 0x1b
    3386:	9c 8f       	std	Y+28, r25	; 0x1c
    3388:	41 14       	cp	r4, r1
    338a:	51 04       	cpc	r5, r1
    338c:	09 f0       	breq	.+2      	; 0x3390 <sd_raw_read+0x25a>
    338e:	fa ce       	rjmp	.-524    	; 0x3184 <sd_raw_read+0x4e>
    3390:	81 e0       	ldi	r24, 0x01	; 1
    3392:	6c 96       	adiw	r28, 0x1c	; 28
    3394:	cd bf       	out	0x3d, r28	; 61
    3396:	de bf       	out	0x3e, r29	; 62
    3398:	df 91       	pop	r29
    339a:	cf 91       	pop	r28
    339c:	1f 91       	pop	r17
    339e:	0f 91       	pop	r16
    33a0:	ff 90       	pop	r15
    33a2:	ef 90       	pop	r14
    33a4:	df 90       	pop	r13
    33a6:	cf 90       	pop	r12
    33a8:	bf 90       	pop	r11
    33aa:	af 90       	pop	r10
    33ac:	9f 90       	pop	r9
    33ae:	8f 90       	pop	r8
    33b0:	7f 90       	pop	r7
    33b2:	6f 90       	pop	r6
    33b4:	5f 90       	pop	r5
    33b6:	4f 90       	pop	r4
    33b8:	3f 90       	pop	r3
    33ba:	2f 90       	pop	r2
    33bc:	08 95       	ret
    33be:	4e 85       	ldd	r20, Y+14	; 0x0e
    33c0:	5f 85       	ldd	r21, Y+15	; 0x0f
    33c2:	68 89       	ldd	r22, Y+16	; 0x10
    33c4:	79 89       	ldd	r23, Y+17	; 0x11
    33c6:	81 e1       	ldi	r24, 0x11	; 17
    33c8:	02 de       	rcall	.-1020   	; 0x2fce <sd_raw_send_command.2410>
    33ca:	88 23       	and	r24, r24
    33cc:	09 f4       	brne	.+2      	; 0x33d0 <sd_raw_read+0x29a>
    33ce:	38 cf       	rjmp	.-400    	; 0x3240 <sd_raw_read+0x10a>
    33d0:	62 e0       	ldi	r22, 0x02	; 2
    33d2:	60 93 65 06 	sts	0x0665, r22
    33d6:	80 e0       	ldi	r24, 0x00	; 0
    33d8:	dc cf       	rjmp	.-72     	; 0x3392 <sd_raw_read+0x25c>
    33da:	8e 81       	ldd	r24, Y+6	; 0x06
    33dc:	9f 81       	ldd	r25, Y+7	; 0x07
    33de:	89 5b       	subi	r24, 0xB9	; 185
    33e0:	9c 4d       	sbci	r25, 0xDC	; 220
    33e2:	a4 01       	movw	r20, r8
    33e4:	bc 01       	movw	r22, r24
    33e6:	c3 01       	movw	r24, r6
    33e8:	0e 94 b9 40 	call	0x8172	; 0x8172 <memcpy>
    33ec:	68 0c       	add	r6, r8
    33ee:	79 1c       	adc	r7, r9
    33f0:	a1 cf       	rjmp	.-190    	; 0x3334 <sd_raw_read+0x1fe>

000033f2 <sd_raw_read_interval>:
    33f2:	2f 92       	push	r2
    33f4:	3f 92       	push	r3
    33f6:	4f 92       	push	r4
    33f8:	5f 92       	push	r5
    33fa:	6f 92       	push	r6
    33fc:	7f 92       	push	r7
    33fe:	8f 92       	push	r8
    3400:	9f 92       	push	r9
    3402:	af 92       	push	r10
    3404:	bf 92       	push	r11
    3406:	cf 92       	push	r12
    3408:	df 92       	push	r13
    340a:	ef 92       	push	r14
    340c:	ff 92       	push	r15
    340e:	0f 93       	push	r16
    3410:	1f 93       	push	r17
    3412:	cf 93       	push	r28
    3414:	df 93       	push	r29
    3416:	cd b7       	in	r28, 0x3d	; 61
    3418:	de b7       	in	r29, 0x3e	; 62
    341a:	60 97       	sbiw	r28, 0x10	; 16
    341c:	cd bf       	out	0x3d, r28	; 61
    341e:	de bf       	out	0x3e, r29	; 62
    3420:	2f 87       	std	Y+15, r18	; 0x0f
    3422:	38 8b       	std	Y+16, r19	; 0x10
    3424:	74 2e       	mov	r7, r20
    3426:	65 2e       	mov	r6, r21
    3428:	56 2e       	mov	r5, r22
    342a:	47 2e       	mov	r4, r23
    342c:	38 2e       	mov	r3, r24
    342e:	29 2e       	mov	r2, r25
    3430:	09 83       	std	Y+1, r16	; 0x01
    3432:	1a 83       	std	Y+2, r17	; 0x02
    3434:	86 01       	movw	r16, r12
    3436:	ab 86       	std	Y+11, r10	; 0x0b
    3438:	bc 86       	std	Y+12, r11	; 0x0c
    343a:	29 81       	ldd	r18, Y+1	; 0x01
    343c:	3a 81       	ldd	r19, Y+2	; 0x02
    343e:	23 2b       	or	r18, r19
    3440:	09 f4       	brne	.+2      	; 0x3444 <sd_raw_read_interval+0x52>
    3442:	55 c0       	rjmp	.+170    	; 0x34ee <sd_raw_read_interval+0xfc>
    3444:	e1 14       	cp	r14, r1
    3446:	f1 04       	cpc	r15, r1
    3448:	09 f4       	brne	.+2      	; 0x344c <sd_raw_read_interval+0x5a>
    344a:	51 c0       	rjmp	.+162    	; 0x34ee <sd_raw_read_interval+0xfc>
    344c:	ce 14       	cp	r12, r14
    344e:	df 04       	cpc	r13, r15
    3450:	08 f4       	brcc	.+2      	; 0x3454 <sd_raw_read_interval+0x62>
    3452:	4d c0       	rjmp	.+154    	; 0x34ee <sd_raw_read_interval+0xfc>
    3454:	ab 28       	or	r10, r11
    3456:	09 f4       	brne	.+2      	; 0x345a <sd_raw_read_interval+0x68>
    3458:	4a c0       	rjmp	.+148    	; 0x34ee <sd_raw_read_interval+0xfc>
    345a:	97 01       	movw	r18, r14
    345c:	eb 82       	std	Y+3, r14	; 0x03
    345e:	3c 83       	std	Y+4, r19	; 0x04
    3460:	8d 86       	std	Y+13, r8	; 0x0d
    3462:	9e 86       	std	Y+14, r9	; 0x0e
    3464:	47 01       	movw	r8, r14
    3466:	df 84       	ldd	r13, Y+15	; 0x0f
    3468:	c8 88       	ldd	r12, Y+16	; 0x10
    346a:	53 01       	movw	r10, r6
    346c:	38 01       	movw	r6, r16
    346e:	74 01       	movw	r14, r8
    3470:	09 81       	ldd	r16, Y+1	; 0x01
    3472:	1a 81       	ldd	r17, Y+2	; 0x02
    3474:	2d 2d       	mov	r18, r13
    3476:	3c 2d       	mov	r19, r12
    3478:	4b 2d       	mov	r20, r11
    347a:	5a 2d       	mov	r21, r10
    347c:	65 2d       	mov	r22, r5
    347e:	74 2d       	mov	r23, r4
    3480:	83 2d       	mov	r24, r3
    3482:	92 2d       	mov	r25, r2
    3484:	58 de       	rcall	.-848    	; 0x3136 <sd_raw_read>
    3486:	88 23       	and	r24, r24
    3488:	91 f1       	breq	.+100    	; 0x34ee <sd_raw_read_interval+0xfc>
    348a:	ed 84       	ldd	r14, Y+13	; 0x0d
    348c:	fe 84       	ldd	r15, Y+14	; 0x0e
    348e:	0d 2d       	mov	r16, r13
    3490:	1c 2d       	mov	r17, r12
    3492:	2b 2d       	mov	r18, r11
    3494:	3a 2d       	mov	r19, r10
    3496:	45 2d       	mov	r20, r5
    3498:	54 2d       	mov	r21, r4
    349a:	63 2d       	mov	r22, r3
    349c:	72 2d       	mov	r23, r2
    349e:	89 81       	ldd	r24, Y+1	; 0x01
    34a0:	9a 81       	ldd	r25, Y+2	; 0x02
    34a2:	eb 85       	ldd	r30, Y+11	; 0x0b
    34a4:	fc 85       	ldd	r31, Y+12	; 0x0c
    34a6:	09 95       	icall
    34a8:	88 23       	and	r24, r24
    34aa:	f9 f0       	breq	.+62     	; 0x34ea <sd_raw_read_interval+0xf8>
    34ac:	2d 2d       	mov	r18, r13
    34ae:	3c 2d       	mov	r19, r12
    34b0:	4b 2d       	mov	r20, r11
    34b2:	5a 2d       	mov	r21, r10
    34b4:	65 2d       	mov	r22, r5
    34b6:	74 2d       	mov	r23, r4
    34b8:	83 2d       	mov	r24, r3
    34ba:	92 2d       	mov	r25, r2
    34bc:	ab 80       	ldd	r10, Y+3	; 0x03
    34be:	bc 80       	ldd	r11, Y+4	; 0x04
    34c0:	c1 2c       	mov	r12, r1
    34c2:	d1 2c       	mov	r13, r1
    34c4:	e1 2c       	mov	r14, r1
    34c6:	f1 2c       	mov	r15, r1
    34c8:	00 e0       	ldi	r16, 0x00	; 0
    34ca:	10 e0       	ldi	r17, 0x00	; 0
    34cc:	0e 94 86 40 	call	0x810c	; 0x810c <__adddi3>
    34d0:	d2 2e       	mov	r13, r18
    34d2:	c3 2e       	mov	r12, r19
    34d4:	b4 2e       	mov	r11, r20
    34d6:	a5 2e       	mov	r10, r21
    34d8:	56 2e       	mov	r5, r22
    34da:	47 2e       	mov	r4, r23
    34dc:	38 2e       	mov	r3, r24
    34de:	29 2e       	mov	r2, r25
    34e0:	68 18       	sub	r6, r8
    34e2:	79 08       	sbc	r7, r9
    34e4:	68 14       	cp	r6, r8
    34e6:	79 04       	cpc	r7, r9
    34e8:	10 f6       	brcc	.-124    	; 0x346e <sd_raw_read_interval+0x7c>
    34ea:	81 e0       	ldi	r24, 0x01	; 1
    34ec:	01 c0       	rjmp	.+2      	; 0x34f0 <sd_raw_read_interval+0xfe>
    34ee:	80 e0       	ldi	r24, 0x00	; 0
    34f0:	60 96       	adiw	r28, 0x10	; 16
    34f2:	cd bf       	out	0x3d, r28	; 61
    34f4:	de bf       	out	0x3e, r29	; 62
    34f6:	df 91       	pop	r29
    34f8:	cf 91       	pop	r28
    34fa:	1f 91       	pop	r17
    34fc:	0f 91       	pop	r16
    34fe:	ff 90       	pop	r15
    3500:	ef 90       	pop	r14
    3502:	df 90       	pop	r13
    3504:	cf 90       	pop	r12
    3506:	bf 90       	pop	r11
    3508:	af 90       	pop	r10
    350a:	9f 90       	pop	r9
    350c:	8f 90       	pop	r8
    350e:	7f 90       	pop	r7
    3510:	6f 90       	pop	r6
    3512:	5f 90       	pop	r5
    3514:	4f 90       	pop	r4
    3516:	3f 90       	pop	r3
    3518:	2f 90       	pop	r2
    351a:	08 95       	ret

0000351c <fat_open_dir>:
    351c:	cf 93       	push	r28
    351e:	df 93       	push	r29
    3520:	00 97       	sbiw	r24, 0x00	; 0
    3522:	a1 f0       	breq	.+40     	; 0x354c <fat_open_dir+0x30>
    3524:	61 15       	cp	r22, r1
    3526:	71 05       	cpc	r23, r1
    3528:	89 f0       	breq	.+34     	; 0x354c <fat_open_dir+0x30>
    352a:	fb 01       	movw	r30, r22
    352c:	20 a1       	ldd	r18, Z+32	; 0x20
    352e:	24 ff       	sbrs	r18, 4
    3530:	0d c0       	rjmp	.+26     	; 0x354c <fat_open_dir+0x30>
    3532:	40 91 92 22 	lds	r20, 0x2292
    3536:	50 91 93 22 	lds	r21, 0x2293
    353a:	41 15       	cp	r20, r1
    353c:	51 05       	cpc	r21, r1
    353e:	61 f0       	breq	.+24     	; 0x3558 <fat_open_dir+0x3c>
    3540:	a0 91 cb 22 	lds	r26, 0x22CB
    3544:	b0 91 cc 22 	lds	r27, 0x22CC
    3548:	10 97       	sbiw	r26, 0x00	; 0
    354a:	f1 f0       	breq	.+60     	; 0x3588 <fat_open_dir+0x6c>
    354c:	c0 e0       	ldi	r28, 0x00	; 0
    354e:	d0 e0       	ldi	r29, 0x00	; 0
    3550:	ce 01       	movw	r24, r28
    3552:	df 91       	pop	r29
    3554:	cf 91       	pop	r28
    3556:	08 95       	ret
    3558:	c2 e9       	ldi	r28, 0x92	; 146
    355a:	d2 e2       	ldi	r29, 0x22	; 34
    355c:	de 01       	movw	r26, r28
    355e:	12 96       	adiw	r26, 0x02	; 2
    3560:	31 e3       	ldi	r19, 0x31	; 49
    3562:	fb 01       	movw	r30, r22
    3564:	01 90       	ld	r0, Z+
    3566:	0d 92       	st	X+, r0
    3568:	3a 95       	dec	r19
    356a:	e1 f7       	brne	.-8      	; 0x3564 <fat_open_dir+0x48>
    356c:	88 83       	st	Y, r24
    356e:	99 83       	std	Y+1, r25	; 0x01
    3570:	fb 01       	movw	r30, r22
    3572:	61 a1       	ldd	r22, Z+33	; 0x21
    3574:	72 a1       	ldd	r23, Z+34	; 0x22
    3576:	83 a1       	ldd	r24, Z+35	; 0x23
    3578:	94 a1       	ldd	r25, Z+36	; 0x24
    357a:	6b ab       	std	Y+51, r22	; 0x33
    357c:	7c ab       	std	Y+52, r23	; 0x34
    357e:	8d ab       	std	Y+53, r24	; 0x35
    3580:	9e ab       	std	Y+54, r25	; 0x36
    3582:	1f aa       	std	Y+55, r1	; 0x37
    3584:	18 ae       	std	Y+56, r1	; 0x38
    3586:	e4 cf       	rjmp	.-56     	; 0x3550 <fat_open_dir+0x34>
    3588:	cb ec       	ldi	r28, 0xCB	; 203
    358a:	d2 e2       	ldi	r29, 0x22	; 34
    358c:	e7 cf       	rjmp	.-50     	; 0x355c <fat_open_dir+0x40>

0000358e <fat_open_file>:
    358e:	00 97       	sbiw	r24, 0x00	; 0
    3590:	71 f0       	breq	.+28     	; 0x35ae <fat_open_file+0x20>
    3592:	61 15       	cp	r22, r1
    3594:	71 05       	cpc	r23, r1
    3596:	59 f0       	breq	.+22     	; 0x35ae <fat_open_file+0x20>
    3598:	fb 01       	movw	r30, r22
    359a:	20 a1       	ldd	r18, Z+32	; 0x20
    359c:	24 fd       	sbrc	r18, 4
    359e:	07 c0       	rjmp	.+14     	; 0x35ae <fat_open_file+0x20>
    35a0:	40 91 04 23 	lds	r20, 0x2304
    35a4:	50 91 05 23 	lds	r21, 0x2305
    35a8:	41 15       	cp	r20, r1
    35aa:	51 05       	cpc	r21, r1
    35ac:	21 f0       	breq	.+8      	; 0x35b6 <fat_open_file+0x28>
    35ae:	60 e0       	ldi	r22, 0x00	; 0
    35b0:	70 e0       	ldi	r23, 0x00	; 0
    35b2:	cb 01       	movw	r24, r22
    35b4:	08 95       	ret
    35b6:	31 e3       	ldi	r19, 0x31	; 49
    35b8:	fb 01       	movw	r30, r22
    35ba:	a6 e0       	ldi	r26, 0x06	; 6
    35bc:	b3 e2       	ldi	r27, 0x23	; 35
    35be:	01 90       	ld	r0, Z+
    35c0:	0d 92       	st	X+, r0
    35c2:	3a 95       	dec	r19
    35c4:	e1 f7       	brne	.-8      	; 0x35be <fat_open_file+0x30>
    35c6:	80 93 04 23 	sts	0x2304, r24
    35ca:	90 93 05 23 	sts	0x2305, r25
    35ce:	10 92 37 23 	sts	0x2337, r1
    35d2:	10 92 38 23 	sts	0x2338, r1
    35d6:	10 92 39 23 	sts	0x2339, r1
    35da:	10 92 3a 23 	sts	0x233A, r1
    35de:	10 92 3b 23 	sts	0x233B, r1
    35e2:	10 92 3c 23 	sts	0x233C, r1
    35e6:	10 92 3d 23 	sts	0x233D, r1
    35ea:	10 92 3e 23 	sts	0x233E, r1
    35ee:	fb 01       	movw	r30, r22
    35f0:	81 a1       	ldd	r24, Z+33	; 0x21
    35f2:	92 a1       	ldd	r25, Z+34	; 0x22
    35f4:	a3 a1       	ldd	r26, Z+35	; 0x23
    35f6:	b4 a1       	ldd	r27, Z+36	; 0x24
    35f8:	80 93 3f 23 	sts	0x233F, r24
    35fc:	90 93 40 23 	sts	0x2340, r25
    3600:	a0 93 41 23 	sts	0x2341, r26
    3604:	b0 93 42 23 	sts	0x2342, r27
    3608:	64 e0       	ldi	r22, 0x04	; 4
    360a:	73 e2       	ldi	r23, 0x23	; 35
    360c:	cb 01       	movw	r24, r22
    360e:	08 95       	ret

00003610 <fat_read_dir>:
    3610:	2f 92       	push	r2
    3612:	3f 92       	push	r3
    3614:	4f 92       	push	r4
    3616:	5f 92       	push	r5
    3618:	6f 92       	push	r6
    361a:	7f 92       	push	r7
    361c:	8f 92       	push	r8
    361e:	9f 92       	push	r9
    3620:	af 92       	push	r10
    3622:	bf 92       	push	r11
    3624:	cf 92       	push	r12
    3626:	df 92       	push	r13
    3628:	ef 92       	push	r14
    362a:	ff 92       	push	r15
    362c:	0f 93       	push	r16
    362e:	1f 93       	push	r17
    3630:	cf 93       	push	r28
    3632:	df 93       	push	r29
    3634:	cd b7       	in	r28, 0x3d	; 61
    3636:	de b7       	in	r29, 0x3e	; 62
    3638:	c0 54       	subi	r28, 0x40	; 64
    363a:	d1 09       	sbc	r29, r1
    363c:	cd bf       	out	0x3d, r28	; 61
    363e:	de bf       	out	0x3e, r29	; 62
    3640:	89 ab       	std	Y+49, r24	; 0x31
    3642:	9a ab       	std	Y+50, r25	; 0x32
    3644:	89 2b       	or	r24, r25
    3646:	51 f1       	breq	.+84     	; 0x369c <fat_read_dir+0x8c>
    3648:	61 15       	cp	r22, r1
    364a:	71 05       	cpc	r23, r1
    364c:	39 f1       	breq	.+78     	; 0x369c <fat_read_dir+0x8c>
    364e:	a9 a9       	ldd	r26, Y+49	; 0x31
    3650:	ba a9       	ldd	r27, Y+50	; 0x32
    3652:	4d 90       	ld	r4, X+
    3654:	5c 90       	ld	r5, X
    3656:	11 97       	sbiw	r26, 0x01	; 1
    3658:	f2 01       	movw	r30, r4
    365a:	20 8c       	ldd	r2, Z+24	; 0x18
    365c:	31 8c       	ldd	r3, Z+25	; 0x19
    365e:	d3 96       	adiw	r26, 0x33	; 51
    3660:	0d 91       	ld	r16, X+
    3662:	1d 91       	ld	r17, X+
    3664:	2d 91       	ld	r18, X+
    3666:	3c 91       	ld	r19, X
    3668:	d6 97       	sbiw	r26, 0x36	; 54
    366a:	0b ab       	std	Y+51, r16	; 0x33
    366c:	1c ab       	std	Y+52, r17	; 0x34
    366e:	2d ab       	std	Y+53, r18	; 0x35
    3670:	3e ab       	std	Y+54, r19	; 0x36
    3672:	d7 96       	adiw	r26, 0x37	; 55
    3674:	6d 90       	ld	r6, X+
    3676:	7c 90       	ld	r7, X
    3678:	d8 97       	sbiw	r26, 0x38	; 56
    367a:	62 14       	cp	r6, r2
    367c:	73 04       	cpc	r7, r3
    367e:	30 f1       	brcs	.+76     	; 0x36cc <fat_read_dir+0xbc>
    3680:	93 96       	adiw	r26, 0x23	; 35
    3682:	ad 90       	ld	r10, X+
    3684:	bd 90       	ld	r11, X+
    3686:	cd 90       	ld	r12, X+
    3688:	dc 90       	ld	r13, X
    368a:	96 97       	sbiw	r26, 0x26	; 38
    368c:	e9 a9       	ldd	r30, Y+49	; 0x31
    368e:	fa a9       	ldd	r31, Y+50	; 0x32
    3690:	a3 aa       	std	Z+51, r10	; 0x33
    3692:	b4 aa       	std	Z+52, r11	; 0x34
    3694:	c5 aa       	std	Z+53, r12	; 0x35
    3696:	d6 aa       	std	Z+54, r13	; 0x36
    3698:	17 aa       	std	Z+55, r1	; 0x37
    369a:	10 ae       	std	Z+56, r1	; 0x38
    369c:	80 e0       	ldi	r24, 0x00	; 0
    369e:	c0 5c       	subi	r28, 0xC0	; 192
    36a0:	df 4f       	sbci	r29, 0xFF	; 255
    36a2:	cd bf       	out	0x3d, r28	; 61
    36a4:	de bf       	out	0x3e, r29	; 62
    36a6:	df 91       	pop	r29
    36a8:	cf 91       	pop	r28
    36aa:	1f 91       	pop	r17
    36ac:	0f 91       	pop	r16
    36ae:	ff 90       	pop	r15
    36b0:	ef 90       	pop	r14
    36b2:	df 90       	pop	r13
    36b4:	cf 90       	pop	r12
    36b6:	bf 90       	pop	r11
    36b8:	af 90       	pop	r10
    36ba:	9f 90       	pop	r9
    36bc:	8f 90       	pop	r8
    36be:	7f 90       	pop	r7
    36c0:	6f 90       	pop	r6
    36c2:	5f 90       	pop	r5
    36c4:	4f 90       	pop	r4
    36c6:	3f 90       	pop	r3
    36c8:	2f 90       	pop	r2
    36ca:	08 95       	ret
    36cc:	9e 01       	movw	r18, r28
    36ce:	2f 5d       	subi	r18, 0xDF	; 223
    36d0:	3f 4f       	sbci	r19, 0xFF	; 255
    36d2:	2f a3       	std	Y+39, r18	; 0x27
    36d4:	38 a7       	std	Y+40, r19	; 0x28
    36d6:	86 e0       	ldi	r24, 0x06	; 6
    36d8:	d9 01       	movw	r26, r18
    36da:	1d 92       	st	X+, r1
    36dc:	8a 95       	dec	r24
    36de:	e9 f7       	brne	.-6      	; 0x36da <fat_read_dir+0xca>
    36e0:	11 e3       	ldi	r17, 0x31	; 49
    36e2:	fb 01       	movw	r30, r22
    36e4:	11 92       	st	Z+, r1
    36e6:	1a 95       	dec	r17
    36e8:	e9 f7       	brne	.-6      	; 0x36e4 <fat_read_dir+0xd4>
    36ea:	69 a3       	std	Y+33, r22	; 0x21
    36ec:	7a a3       	std	Y+34, r23	; 0x22
    36ee:	8b a8       	ldd	r8, Y+51	; 0x33
    36f0:	9c a8       	ldd	r9, Y+52	; 0x34
    36f2:	ad a8       	ldd	r10, Y+53	; 0x35
    36f4:	be a8       	ldd	r11, Y+54	; 0x36
    36f6:	81 14       	cp	r8, r1
    36f8:	91 04       	cpc	r9, r1
    36fa:	a1 04       	cpc	r10, r1
    36fc:	b1 04       	cpc	r11, r1
    36fe:	09 f4       	brne	.+2      	; 0x3702 <fat_read_dir+0xf2>
    3700:	e0 c0       	rjmp	.+448    	; 0x38c2 <fat_read_dir+0x2b2>
    3702:	80 e0       	ldi	r24, 0x00	; 0
    3704:	47 c0       	rjmp	.+142    	; 0x3794 <fat_read_dir+0x184>
    3706:	40 e0       	ldi	r20, 0x00	; 0
    3708:	50 e0       	ldi	r21, 0x00	; 0
    370a:	60 e0       	ldi	r22, 0x00	; 0
    370c:	70 e0       	ldi	r23, 0x00	; 0
    370e:	80 e0       	ldi	r24, 0x00	; 0
    3710:	90 e0       	ldi	r25, 0x00	; 0
    3712:	d2 01       	movw	r26, r4
    3714:	92 96       	adiw	r26, 0x22	; 34
    3716:	ac 90       	ld	r10, X
    3718:	92 97       	sbiw	r26, 0x22	; 34
    371a:	93 96       	adiw	r26, 0x23	; 35
    371c:	bc 90       	ld	r11, X
    371e:	93 97       	sbiw	r26, 0x23	; 35
    3720:	94 96       	adiw	r26, 0x24	; 36
    3722:	cc 90       	ld	r12, X
    3724:	94 97       	sbiw	r26, 0x24	; 36
    3726:	95 96       	adiw	r26, 0x25	; 37
    3728:	dc 90       	ld	r13, X
    372a:	95 97       	sbiw	r26, 0x25	; 37
    372c:	96 96       	adiw	r26, 0x26	; 38
    372e:	ec 90       	ld	r14, X
    3730:	96 97       	sbiw	r26, 0x26	; 38
    3732:	97 96       	adiw	r26, 0x27	; 39
    3734:	fc 90       	ld	r15, X
    3736:	97 97       	sbiw	r26, 0x27	; 39
    3738:	98 96       	adiw	r26, 0x28	; 40
    373a:	0c 91       	ld	r16, X
    373c:	98 97       	sbiw	r26, 0x28	; 40
    373e:	99 96       	adiw	r26, 0x29	; 41
    3740:	1c 91       	ld	r17, X
    3742:	0e 94 86 40 	call	0x810c	; 0x810c <__adddi3>
    3746:	1b a2       	std	Y+35, r1	; 0x23
    3748:	1c a2       	std	Y+36, r1	; 0x24
    374a:	f2 01       	movw	r30, r4
    374c:	01 90       	ld	r0, Z+
    374e:	f0 81       	ld	r31, Z
    3750:	e0 2d       	mov	r30, r0
    3752:	02 80       	ldd	r0, Z+2	; 0x02
    3754:	f3 81       	ldd	r31, Z+3	; 0x03
    3756:	e0 2d       	mov	r30, r0
    3758:	a1 e2       	ldi	r26, 0x21	; 33
    375a:	8a 2e       	mov	r8, r26
    375c:	91 2c       	mov	r9, r1
    375e:	8c 0e       	add	r8, r28
    3760:	9d 1e       	adc	r9, r29
    3762:	be e4       	ldi	r27, 0x4E	; 78
    3764:	ab 2e       	mov	r10, r27
    3766:	b3 e2       	ldi	r27, 0x23	; 35
    3768:	bb 2e       	mov	r11, r27
    376a:	cf a8       	ldd	r12, Y+55	; 0x37
    376c:	d8 ac       	ldd	r13, Y+56	; 0x38
    376e:	10 e2       	ldi	r17, 0x20	; 32
    3770:	e1 2e       	mov	r14, r17
    3772:	f1 2c       	mov	r15, r1
    3774:	8e 01       	movw	r16, r28
    3776:	0f 5f       	subi	r16, 0xFF	; 255
    3778:	1f 4f       	sbci	r17, 0xFF	; 255
    377a:	09 95       	icall
    377c:	88 23       	and	r24, r24
    377e:	09 f4       	brne	.+2      	; 0x3782 <fat_read_dir+0x172>
    3780:	8d cf       	rjmp	.-230    	; 0x369c <fat_read_dir+0x8c>
    3782:	8b a1       	ldd	r24, Y+35	; 0x23
    3784:	9c a1       	ldd	r25, Y+36	; 0x24
    3786:	68 0e       	add	r6, r24
    3788:	79 1e       	adc	r7, r25
    378a:	62 14       	cp	r6, r2
    378c:	73 04       	cpc	r7, r3
    378e:	08 f0       	brcs	.+2      	; 0x3792 <fat_read_dir+0x182>
    3790:	75 c0       	rjmp	.+234    	; 0x387c <fat_read_dir+0x26c>
    3792:	8e a1       	ldd	r24, Y+38	; 0x26
    3794:	81 11       	cpse	r24, r1
    3796:	a4 c0       	rjmp	.+328    	; 0x38e0 <fat_read_dir+0x2d0>
    3798:	71 01       	movw	r14, r2
    379a:	e6 18       	sub	r14, r6
    379c:	f7 08       	sbc	r15, r7
    379e:	ef aa       	std	Y+55, r14	; 0x37
    37a0:	f8 ae       	std	Y+56, r15	; 0x38
    37a2:	93 01       	movw	r18, r6
    37a4:	40 e0       	ldi	r20, 0x00	; 0
    37a6:	50 e0       	ldi	r21, 0x00	; 0
    37a8:	60 e0       	ldi	r22, 0x00	; 0
    37aa:	70 e0       	ldi	r23, 0x00	; 0
    37ac:	cb 01       	movw	r24, r22
    37ae:	69 a6       	std	Y+41, r6	; 0x29
    37b0:	3a a7       	std	Y+42, r19	; 0x2a
    37b2:	4b a7       	std	Y+43, r20	; 0x2b
    37b4:	5c a7       	std	Y+44, r21	; 0x2c
    37b6:	6d a7       	std	Y+45, r22	; 0x2d
    37b8:	7e a7       	std	Y+46, r23	; 0x2e
    37ba:	8f a7       	std	Y+47, r24	; 0x2f
    37bc:	98 ab       	std	Y+48, r25	; 0x30
    37be:	4b a9       	ldd	r20, Y+51	; 0x33
    37c0:	5c a9       	ldd	r21, Y+52	; 0x34
    37c2:	6d a9       	ldd	r22, Y+53	; 0x35
    37c4:	7e a9       	ldd	r23, Y+54	; 0x36
    37c6:	45 2b       	or	r20, r21
    37c8:	46 2b       	or	r20, r22
    37ca:	47 2b       	or	r20, r23
    37cc:	09 f4       	brne	.+2      	; 0x37d0 <fat_read_dir+0x1c0>
    37ce:	9b cf       	rjmp	.-202    	; 0x3706 <fat_read_dir+0xf6>
    37d0:	41 14       	cp	r4, r1
    37d2:	51 04       	cpc	r5, r1
    37d4:	09 f4       	brne	.+2      	; 0x37d8 <fat_read_dir+0x1c8>
    37d6:	49 c0       	rjmp	.+146    	; 0x386a <fat_read_dir+0x25a>
    37d8:	6b a9       	ldd	r22, Y+51	; 0x33
    37da:	7c a9       	ldd	r23, Y+52	; 0x34
    37dc:	8d a9       	ldd	r24, Y+53	; 0x35
    37de:	9e a9       	ldd	r25, Y+54	; 0x36
    37e0:	62 30       	cpi	r22, 0x02	; 2
    37e2:	71 05       	cpc	r23, r1
    37e4:	81 05       	cpc	r24, r1
    37e6:	91 05       	cpc	r25, r1
    37e8:	08 f4       	brcc	.+2      	; 0x37ec <fat_read_dir+0x1dc>
    37ea:	3f c0       	rjmp	.+126    	; 0x386a <fat_read_dir+0x25a>
    37ec:	8b 01       	movw	r16, r22
    37ee:	9c 01       	movw	r18, r24
    37f0:	02 50       	subi	r16, 0x02	; 2
    37f2:	11 09       	sbc	r17, r1
    37f4:	21 09       	sbc	r18, r1
    37f6:	31 09       	sbc	r19, r1
    37f8:	40 e0       	ldi	r20, 0x00	; 0
    37fa:	50 e0       	ldi	r21, 0x00	; 0
    37fc:	ba 01       	movw	r22, r20
    37fe:	09 af       	std	Y+57, r16	; 0x39
    3800:	1a af       	std	Y+58, r17	; 0x3a
    3802:	2b af       	std	Y+59, r18	; 0x3b
    3804:	3c af       	std	Y+60, r19	; 0x3c
    3806:	4d af       	std	Y+61, r20	; 0x3d
    3808:	5e af       	std	Y+62, r21	; 0x3e
    380a:	6f af       	std	Y+63, r22	; 0x3f
    380c:	21 96       	adiw	r28, 0x01	; 1
    380e:	7f af       	std	Y+63, r23	; 0x3f
    3810:	21 97       	sbiw	r28, 0x01	; 1
    3812:	d2 01       	movw	r26, r4
    3814:	58 96       	adiw	r26, 0x18	; 24
    3816:	2d 91       	ld	r18, X+
    3818:	3c 91       	ld	r19, X
    381a:	59 97       	sbiw	r26, 0x19	; 25
    381c:	59 01       	movw	r10, r18
    381e:	c1 2c       	mov	r12, r1
    3820:	d1 2c       	mov	r13, r1
    3822:	e1 2c       	mov	r14, r1
    3824:	f1 2c       	mov	r15, r1
    3826:	00 e0       	ldi	r16, 0x00	; 0
    3828:	10 e0       	ldi	r17, 0x00	; 0
    382a:	29 ad       	ldd	r18, Y+57	; 0x39
    382c:	3a ad       	ldd	r19, Y+58	; 0x3a
    382e:	4b ad       	ldd	r20, Y+59	; 0x3b
    3830:	5c ad       	ldd	r21, Y+60	; 0x3c
    3832:	60 e0       	ldi	r22, 0x00	; 0
    3834:	70 e0       	ldi	r23, 0x00	; 0
    3836:	80 e0       	ldi	r24, 0x00	; 0
    3838:	90 e0       	ldi	r25, 0x00	; 0
    383a:	0e 94 17 40 	call	0x802e	; 0x802e <__muldi3>
    383e:	f2 01       	movw	r30, r4
    3840:	a2 8c       	ldd	r10, Z+26	; 0x1a
    3842:	b3 8c       	ldd	r11, Z+27	; 0x1b
    3844:	c4 8c       	ldd	r12, Z+28	; 0x1c
    3846:	d5 8c       	ldd	r13, Z+29	; 0x1d
    3848:	e6 8c       	ldd	r14, Z+30	; 0x1e
    384a:	f7 8c       	ldd	r15, Z+31	; 0x1f
    384c:	00 a1       	ldd	r16, Z+32	; 0x20
    384e:	11 a1       	ldd	r17, Z+33	; 0x21
    3850:	0e 94 86 40 	call	0x810c	; 0x810c <__adddi3>
    3854:	a9 a4       	ldd	r10, Y+41	; 0x29
    3856:	ba a4       	ldd	r11, Y+42	; 0x2a
    3858:	cb a4       	ldd	r12, Y+43	; 0x2b
    385a:	dc a4       	ldd	r13, Y+44	; 0x2c
    385c:	ed a4       	ldd	r14, Y+45	; 0x2d
    385e:	fe a4       	ldd	r15, Y+46	; 0x2e
    3860:	0f a5       	ldd	r16, Y+47	; 0x2f
    3862:	18 a9       	ldd	r17, Y+48	; 0x30
    3864:	0e 94 86 40 	call	0x810c	; 0x810c <__adddi3>
    3868:	6e cf       	rjmp	.-292    	; 0x3746 <fat_read_dir+0x136>
    386a:	20 e0       	ldi	r18, 0x00	; 0
    386c:	30 e0       	ldi	r19, 0x00	; 0
    386e:	40 e0       	ldi	r20, 0x00	; 0
    3870:	50 e0       	ldi	r21, 0x00	; 0
    3872:	60 e0       	ldi	r22, 0x00	; 0
    3874:	70 e0       	ldi	r23, 0x00	; 0
    3876:	80 e0       	ldi	r24, 0x00	; 0
    3878:	90 e0       	ldi	r25, 0x00	; 0
    387a:	ec cf       	rjmp	.-40     	; 0x3854 <fat_read_dir+0x244>
    387c:	4b a9       	ldd	r20, Y+51	; 0x33
    387e:	5c a9       	ldd	r21, Y+52	; 0x34
    3880:	6d a9       	ldd	r22, Y+53	; 0x35
    3882:	7e a9       	ldd	r23, Y+54	; 0x36
    3884:	c2 01       	movw	r24, r4
    3886:	0e 94 cb 10 	call	0x2196	; 0x2196 <fat_get_next_cluster.2258.1572>
    388a:	6b ab       	std	Y+51, r22	; 0x33
    388c:	7c ab       	std	Y+52, r23	; 0x34
    388e:	8d ab       	std	Y+53, r24	; 0x35
    3890:	9e ab       	std	Y+54, r25	; 0x36
    3892:	67 2b       	or	r22, r23
    3894:	68 2b       	or	r22, r24
    3896:	69 2b       	or	r22, r25
    3898:	81 f4       	brne	.+32     	; 0x38ba <fat_read_dir+0x2aa>
    389a:	8e a1       	ldd	r24, Y+38	; 0x26
    389c:	81 11       	cpse	r24, r1
    389e:	20 c0       	rjmp	.+64     	; 0x38e0 <fat_read_dir+0x2d0>
    38a0:	e9 a9       	ldd	r30, Y+49	; 0x31
    38a2:	fa a9       	ldd	r31, Y+50	; 0x32
    38a4:	63 a0       	ldd	r6, Z+35	; 0x23
    38a6:	74 a0       	ldd	r7, Z+36	; 0x24
    38a8:	85 a0       	ldd	r8, Z+37	; 0x25
    38aa:	96 a0       	ldd	r9, Z+38	; 0x26
    38ac:	63 aa       	std	Z+51, r6	; 0x33
    38ae:	74 aa       	std	Z+52, r7	; 0x34
    38b0:	85 aa       	std	Z+53, r8	; 0x35
    38b2:	96 aa       	std	Z+54, r9	; 0x36
    38b4:	17 aa       	std	Z+55, r1	; 0x37
    38b6:	10 ae       	std	Z+56, r1	; 0x38
    38b8:	f2 ce       	rjmp	.-540    	; 0x369e <fat_read_dir+0x8e>
    38ba:	8e a1       	ldd	r24, Y+38	; 0x26
    38bc:	61 2c       	mov	r6, r1
    38be:	71 2c       	mov	r7, r1
    38c0:	69 cf       	rjmp	.-302    	; 0x3794 <fat_read_dir+0x184>
    38c2:	d2 01       	movw	r26, r4
    38c4:	ed 91       	ld	r30, X+
    38c6:	fc 91       	ld	r31, X
    38c8:	11 97       	sbiw	r26, 0x01	; 1
    38ca:	30 85       	ldd	r19, Z+8	; 0x08
    38cc:	3b 30       	cpi	r19, 0x0B	; 11
    38ce:	c9 f0       	breq	.+50     	; 0x3902 <fat_read_dir+0x2f2>
    38d0:	f2 01       	movw	r30, r4
    38d2:	22 8c       	ldd	r2, Z+26	; 0x1a
    38d4:	33 8c       	ldd	r3, Z+27	; 0x1b
    38d6:	a2 a0       	ldd	r10, Z+34	; 0x22
    38d8:	b3 a0       	ldd	r11, Z+35	; 0x23
    38da:	2a 18       	sub	r2, r10
    38dc:	3b 08       	sbc	r3, r11
    38de:	11 cf       	rjmp	.-478    	; 0x3702 <fat_read_dir+0xf2>
    38e0:	8b a8       	ldd	r8, Y+51	; 0x33
    38e2:	9c a8       	ldd	r9, Y+52	; 0x34
    38e4:	ad a8       	ldd	r10, Y+53	; 0x35
    38e6:	be a8       	ldd	r11, Y+54	; 0x36
    38e8:	a9 a9       	ldd	r26, Y+49	; 0x31
    38ea:	ba a9       	ldd	r27, Y+50	; 0x32
    38ec:	d3 96       	adiw	r26, 0x33	; 51
    38ee:	8d 92       	st	X+, r8
    38f0:	9d 92       	st	X+, r9
    38f2:	ad 92       	st	X+, r10
    38f4:	bc 92       	st	X, r11
    38f6:	d6 97       	sbiw	r26, 0x36	; 54
    38f8:	d7 96       	adiw	r26, 0x37	; 55
    38fa:	6d 92       	st	X+, r6
    38fc:	7c 92       	st	X, r7
    38fe:	d8 97       	sbiw	r26, 0x38	; 56
    3900:	ce ce       	rjmp	.-612    	; 0x369e <fat_read_dir+0x8e>
    3902:	9a 96       	adiw	r26, 0x2a	; 42
    3904:	cd 90       	ld	r12, X+
    3906:	dd 90       	ld	r13, X+
    3908:	ed 90       	ld	r14, X+
    390a:	fc 90       	ld	r15, X
    390c:	9d 97       	sbiw	r26, 0x2d	; 45
    390e:	cb aa       	std	Y+51, r12	; 0x33
    3910:	dc aa       	std	Y+52, r13	; 0x34
    3912:	ed aa       	std	Y+53, r14	; 0x35
    3914:	fe aa       	std	Y+54, r15	; 0x36
    3916:	f5 ce       	rjmp	.-534    	; 0x3702 <fat_read_dir+0xf2>

00003918 <fat_reset_dir>:
    3918:	fc 01       	movw	r30, r24
    391a:	00 97       	sbiw	r24, 0x00	; 0
    391c:	61 f0       	breq	.+24     	; 0x3936 <fat_reset_dir+0x1e>
    391e:	43 a1       	ldd	r20, Z+35	; 0x23
    3920:	54 a1       	ldd	r21, Z+36	; 0x24
    3922:	65 a1       	ldd	r22, Z+37	; 0x25
    3924:	76 a1       	ldd	r23, Z+38	; 0x26
    3926:	43 ab       	std	Z+51, r20	; 0x33
    3928:	54 ab       	std	Z+52, r21	; 0x34
    392a:	65 ab       	std	Z+53, r22	; 0x35
    392c:	76 ab       	std	Z+54, r23	; 0x36
    392e:	17 aa       	std	Z+55, r1	; 0x37
    3930:	10 ae       	std	Z+56, r1	; 0x38
    3932:	81 e0       	ldi	r24, 0x01	; 1
    3934:	08 95       	ret
    3936:	80 e0       	ldi	r24, 0x00	; 0
    3938:	08 95       	ret

0000393a <find_file_in_dir>:
    393a:	ef 92       	push	r14
    393c:	ff 92       	push	r15
    393e:	0f 93       	push	r16
    3940:	1f 93       	push	r17
    3942:	cf 93       	push	r28
    3944:	df 93       	push	r29
    3946:	8b 01       	movw	r16, r22
    3948:	7a 01       	movw	r14, r20
    394a:	e9 01       	movw	r28, r18
    394c:	06 c0       	rjmp	.+12     	; 0x395a <find_file_in_dir+0x20>
    394e:	b7 01       	movw	r22, r14
    3950:	ce 01       	movw	r24, r28
    3952:	0e 94 cd 40 	call	0x819a	; 0x819a <strcmp>
    3956:	00 97       	sbiw	r24, 0x00	; 0
    3958:	61 f0       	breq	.+24     	; 0x3972 <find_file_in_dir+0x38>
    395a:	be 01       	movw	r22, r28
    395c:	c8 01       	movw	r24, r16
    395e:	58 de       	rcall	.-848    	; 0x3610 <fat_read_dir>
    3960:	81 11       	cpse	r24, r1
    3962:	f5 cf       	rjmp	.-22     	; 0x394e <find_file_in_dir+0x14>
    3964:	df 91       	pop	r29
    3966:	cf 91       	pop	r28
    3968:	1f 91       	pop	r17
    396a:	0f 91       	pop	r16
    396c:	ff 90       	pop	r15
    396e:	ef 90       	pop	r14
    3970:	08 95       	ret
    3972:	c8 01       	movw	r24, r16
    3974:	d1 df       	rcall	.-94     	; 0x3918 <fat_reset_dir>
    3976:	81 e0       	ldi	r24, 0x01	; 1
    3978:	df 91       	pop	r29
    397a:	cf 91       	pop	r28
    397c:	1f 91       	pop	r17
    397e:	0f 91       	pop	r16
    3980:	ff 90       	pop	r15
    3982:	ef 90       	pop	r14
    3984:	08 95       	ret

00003986 <fat_read_file>:
    3986:	2f 92       	push	r2
    3988:	3f 92       	push	r3
    398a:	4f 92       	push	r4
    398c:	5f 92       	push	r5
    398e:	6f 92       	push	r6
    3990:	7f 92       	push	r7
    3992:	8f 92       	push	r8
    3994:	9f 92       	push	r9
    3996:	af 92       	push	r10
    3998:	bf 92       	push	r11
    399a:	cf 92       	push	r12
    399c:	df 92       	push	r13
    399e:	ef 92       	push	r14
    39a0:	ff 92       	push	r15
    39a2:	0f 93       	push	r16
    39a4:	1f 93       	push	r17
    39a6:	cf 93       	push	r28
    39a8:	df 93       	push	r29
    39aa:	cd b7       	in	r28, 0x3d	; 61
    39ac:	de b7       	in	r29, 0x3e	; 62
    39ae:	6d 97       	sbiw	r28, 0x1d	; 29
    39b0:	cd bf       	out	0x3d, r28	; 61
    39b2:	de bf       	out	0x3e, r29	; 62
    39b4:	1c 01       	movw	r2, r24
    39b6:	6b 8b       	std	Y+19, r22	; 0x13
    39b8:	7c 8b       	std	Y+20, r23	; 0x14
    39ba:	4f 8b       	std	Y+23, r20	; 0x17
    39bc:	58 8f       	std	Y+24, r21	; 0x18
    39be:	00 97       	sbiw	r24, 0x00	; 0
    39c0:	09 f4       	brne	.+2      	; 0x39c4 <fat_read_file+0x3e>
    39c2:	d7 c0       	rjmp	.+430    	; 0x3b72 <fat_read_file+0x1ec>
    39c4:	ab 88       	ldd	r10, Y+19	; 0x13
    39c6:	bc 88       	ldd	r11, Y+20	; 0x14
    39c8:	ab 28       	or	r10, r11
    39ca:	09 f4       	brne	.+2      	; 0x39ce <fat_read_file+0x48>
    39cc:	d2 c0       	rjmp	.+420    	; 0x3b72 <fat_read_file+0x1ec>
    39ce:	cf 88       	ldd	r12, Y+23	; 0x17
    39d0:	d8 8c       	ldd	r13, Y+24	; 0x18
    39d2:	c1 14       	cp	r12, r1
    39d4:	d1 04       	cpc	r13, r1
    39d6:	09 f4       	brne	.+2      	; 0x39da <fat_read_file+0x54>
    39d8:	cc c0       	rjmp	.+408    	; 0x3b72 <fat_read_file+0x1ec>
    39da:	dc 01       	movw	r26, r24
    39dc:	d3 96       	adiw	r26, 0x33	; 51
    39de:	fc 91       	ld	r31, X
    39e0:	d3 97       	sbiw	r26, 0x33	; 51
    39e2:	d4 96       	adiw	r26, 0x34	; 52
    39e4:	ec 91       	ld	r30, X
    39e6:	d4 97       	sbiw	r26, 0x34	; 52
    39e8:	d5 96       	adiw	r26, 0x35	; 53
    39ea:	bc 91       	ld	r27, X
    39ec:	b9 8f       	std	Y+25, r27	; 0x19
    39ee:	dc 01       	movw	r26, r24
    39f0:	d6 96       	adiw	r26, 0x36	; 54
    39f2:	4c 90       	ld	r4, X
    39f4:	4a 8e       	std	Y+26, r4	; 0x1a
    39f6:	dc 01       	movw	r26, r24
    39f8:	d7 96       	adiw	r26, 0x37	; 55
    39fa:	5c 90       	ld	r5, X
    39fc:	5c 8e       	std	Y+28, r5	; 0x1c
    39fe:	dc 01       	movw	r26, r24
    3a00:	d8 96       	adiw	r26, 0x38	; 56
    3a02:	6c 90       	ld	r6, X
    3a04:	6b 8e       	std	Y+27, r6	; 0x1b
    3a06:	dc 01       	movw	r26, r24
    3a08:	d9 96       	adiw	r26, 0x39	; 57
    3a0a:	7c 90       	ld	r7, X
    3a0c:	79 8a       	std	Y+17, r7	; 0x11
    3a0e:	dc 01       	movw	r26, r24
    3a10:	da 96       	adiw	r26, 0x3a	; 58
    3a12:	8c 90       	ld	r8, X
    3a14:	89 82       	std	Y+1, r8	; 0x01
    3a16:	dc 01       	movw	r26, r24
    3a18:	97 96       	adiw	r26, 0x27	; 39
    3a1a:	4d 90       	ld	r4, X+
    3a1c:	5d 90       	ld	r5, X+
    3a1e:	6d 90       	ld	r6, X+
    3a20:	7c 90       	ld	r7, X
    3a22:	9a 97       	sbiw	r26, 0x2a	; 42
    3a24:	96 01       	movw	r18, r12
    3a26:	40 e0       	ldi	r20, 0x00	; 0
    3a28:	50 e0       	ldi	r21, 0x00	; 0
    3a2a:	60 e0       	ldi	r22, 0x00	; 0
    3a2c:	70 e0       	ldi	r23, 0x00	; 0
    3a2e:	80 e0       	ldi	r24, 0x00	; 0
    3a30:	90 e0       	ldi	r25, 0x00	; 0
    3a32:	af 2e       	mov	r10, r31
    3a34:	be 2e       	mov	r11, r30
    3a36:	c9 8c       	ldd	r12, Y+25	; 0x19
    3a38:	da 8c       	ldd	r13, Y+26	; 0x1a
    3a3a:	ec 8c       	ldd	r14, Y+28	; 0x1c
    3a3c:	fb 8c       	ldd	r15, Y+27	; 0x1b
    3a3e:	09 89       	ldd	r16, Y+17	; 0x11
    3a40:	19 81       	ldd	r17, Y+1	; 0x01
    3a42:	0e 94 86 40 	call	0x810c	; 0x810c <__adddi3>
    3a46:	63 01       	movw	r12, r6
    3a48:	52 01       	movw	r10, r4
    3a4a:	e1 2c       	mov	r14, r1
    3a4c:	f1 2c       	mov	r15, r1
    3a4e:	87 01       	movw	r16, r14
    3a50:	49 86       	std	Y+9, r4	; 0x09
    3a52:	ba 86       	std	Y+10, r11	; 0x0a
    3a54:	cb 86       	std	Y+11, r12	; 0x0b
    3a56:	dc 86       	std	Y+12, r13	; 0x0c
    3a58:	ed 86       	std	Y+13, r14	; 0x0d
    3a5a:	fe 86       	std	Y+14, r15	; 0x0e
    3a5c:	0f 87       	std	Y+15, r16	; 0x0f
    3a5e:	18 8b       	std	Y+16, r17	; 0x10
    3a60:	e1 2c       	mov	r14, r1
    3a62:	f1 2c       	mov	r15, r1
    3a64:	00 e0       	ldi	r16, 0x00	; 0
    3a66:	10 e0       	ldi	r17, 0x00	; 0
    3a68:	0e 94 a4 40 	call	0x8148	; 0x8148 <__cmpdi2>
    3a6c:	29 f1       	breq	.+74     	; 0x3ab8 <fat_read_file+0x132>
    3a6e:	20 f1       	brcs	.+72     	; 0x3ab8 <fat_read_file+0x132>
    3a70:	cf 01       	movw	r24, r30
    3a72:	09 2f       	mov	r16, r25
    3a74:	18 2f       	mov	r17, r24
    3a76:	92 01       	movw	r18, r4
    3a78:	20 1b       	sub	r18, r16
    3a7a:	31 0b       	sbc	r19, r17
    3a7c:	2f 8b       	std	Y+23, r18	; 0x17
    3a7e:	38 8f       	std	Y+24, r19	; 0x18
    3a80:	21 15       	cp	r18, r1
    3a82:	31 05       	cpc	r19, r1
    3a84:	e1 f4       	brne	.+56     	; 0x3abe <fat_read_file+0x138>
    3a86:	20 e0       	ldi	r18, 0x00	; 0
    3a88:	30 e0       	ldi	r19, 0x00	; 0
    3a8a:	c9 01       	movw	r24, r18
    3a8c:	6d 96       	adiw	r28, 0x1d	; 29
    3a8e:	cd bf       	out	0x3d, r28	; 61
    3a90:	de bf       	out	0x3e, r29	; 62
    3a92:	df 91       	pop	r29
    3a94:	cf 91       	pop	r28
    3a96:	1f 91       	pop	r17
    3a98:	0f 91       	pop	r16
    3a9a:	ff 90       	pop	r15
    3a9c:	ef 90       	pop	r14
    3a9e:	df 90       	pop	r13
    3aa0:	cf 90       	pop	r12
    3aa2:	bf 90       	pop	r11
    3aa4:	af 90       	pop	r10
    3aa6:	9f 90       	pop	r9
    3aa8:	8f 90       	pop	r8
    3aaa:	7f 90       	pop	r7
    3aac:	6f 90       	pop	r6
    3aae:	5f 90       	pop	r5
    3ab0:	4f 90       	pop	r4
    3ab2:	3f 90       	pop	r3
    3ab4:	2f 90       	pop	r2
    3ab6:	08 95       	ret
    3ab8:	cf 01       	movw	r24, r30
    3aba:	09 2f       	mov	r16, r25
    3abc:	18 2f       	mov	r17, r24
    3abe:	d1 01       	movw	r26, r2
    3ac0:	8d 90       	ld	r8, X+
    3ac2:	9c 90       	ld	r9, X
    3ac4:	d4 01       	movw	r26, r8
    3ac6:	58 96       	adiw	r26, 0x18	; 24
    3ac8:	4d 91       	ld	r20, X+
    3aca:	5c 91       	ld	r21, X
    3acc:	59 97       	sbiw	r26, 0x19	; 25
    3ace:	4d 8b       	std	Y+21, r20	; 0x15
    3ad0:	5e 8b       	std	Y+22, r21	; 0x16
    3ad2:	d1 01       	movw	r26, r2
    3ad4:	db 96       	adiw	r26, 0x3b	; 59
    3ad6:	4d 90       	ld	r4, X+
    3ad8:	5d 90       	ld	r5, X+
    3ada:	6d 90       	ld	r6, X+
    3adc:	7c 90       	ld	r7, X
    3ade:	de 97       	sbiw	r26, 0x3e	; 62
    3ae0:	41 14       	cp	r4, r1
    3ae2:	51 04       	cpc	r5, r1
    3ae4:	61 04       	cpc	r6, r1
    3ae6:	71 04       	cpc	r7, r1
    3ae8:	09 f0       	breq	.+2      	; 0x3aec <fat_read_file+0x166>
    3aea:	49 c0       	rjmp	.+146    	; 0x3b7e <fat_read_file+0x1f8>
    3aec:	93 96       	adiw	r26, 0x23	; 35
    3aee:	4d 90       	ld	r4, X+
    3af0:	5d 90       	ld	r5, X+
    3af2:	6d 90       	ld	r6, X+
    3af4:	7c 90       	ld	r7, X
    3af6:	96 97       	sbiw	r26, 0x26	; 38
    3af8:	2f 2f       	mov	r18, r31
    3afa:	3e 2f       	mov	r19, r30
    3afc:	49 8d       	ldd	r20, Y+25	; 0x19
    3afe:	5a 8d       	ldd	r21, Y+26	; 0x1a
    3b00:	6c 8d       	ldd	r22, Y+28	; 0x1c
    3b02:	7b 8d       	ldd	r23, Y+27	; 0x1b
    3b04:	89 89       	ldd	r24, Y+17	; 0x11
    3b06:	99 81       	ldd	r25, Y+1	; 0x01
    3b08:	a0 e0       	ldi	r26, 0x00	; 0
    3b0a:	41 14       	cp	r4, r1
    3b0c:	51 04       	cpc	r5, r1
    3b0e:	61 04       	cpc	r6, r1
    3b10:	71 04       	cpc	r7, r1
    3b12:	09 f4       	brne	.+2      	; 0x3b16 <fat_read_file+0x190>
    3b14:	2e c1       	rjmp	.+604    	; 0x3d72 <fat_read_file+0x3ec>
    3b16:	0e 94 ad 40 	call	0x815a	; 0x815a <__cmpdi2_s8>
    3b1a:	89 f1       	breq	.+98     	; 0x3b7e <fat_read_file+0x1f8>
    3b1c:	9f 01       	movw	r18, r30
    3b1e:	c3 2e       	mov	r12, r19
    3b20:	d2 2e       	mov	r13, r18
    3b22:	e4 2e       	mov	r14, r20
    3b24:	f5 2e       	mov	r15, r21
    3b26:	6d 89       	ldd	r22, Y+21	; 0x15
    3b28:	7e 89       	ldd	r23, Y+22	; 0x16
    3b2a:	9b 01       	movw	r18, r22
    3b2c:	40 e0       	ldi	r20, 0x00	; 0
    3b2e:	50 e0       	ldi	r21, 0x00	; 0
    3b30:	29 87       	std	Y+9, r18	; 0x09
    3b32:	3a 87       	std	Y+10, r19	; 0x0a
    3b34:	4b 87       	std	Y+11, r20	; 0x0b
    3b36:	5c 87       	std	Y+12, r21	; 0x0c
    3b38:	b3 01       	movw	r22, r6
    3b3a:	a2 01       	movw	r20, r4
    3b3c:	c4 01       	movw	r24, r8
    3b3e:	49 84       	ldd	r4, Y+9	; 0x09
    3b40:	5a 84       	ldd	r5, Y+10	; 0x0a
    3b42:	6b 84       	ldd	r6, Y+11	; 0x0b
    3b44:	7c 84       	ldd	r7, Y+12	; 0x0c
    3b46:	03 c0       	rjmp	.+6      	; 0x3b4e <fat_read_file+0x1c8>
    3b48:	f1 01       	movw	r30, r2
    3b4a:	80 81       	ld	r24, Z
    3b4c:	91 81       	ldd	r25, Z+1	; 0x01
    3b4e:	c4 14       	cp	r12, r4
    3b50:	d5 04       	cpc	r13, r5
    3b52:	e6 04       	cpc	r14, r6
    3b54:	f7 04       	cpc	r15, r7
    3b56:	80 f0       	brcs	.+32     	; 0x3b78 <fat_read_file+0x1f2>
    3b58:	c4 18       	sub	r12, r4
    3b5a:	d5 08       	sbc	r13, r5
    3b5c:	e6 08       	sbc	r14, r6
    3b5e:	f7 08       	sbc	r15, r7
    3b60:	0e 94 cb 10 	call	0x2196	; 0x2196 <fat_get_next_cluster.2258.1572>
    3b64:	ab 01       	movw	r20, r22
    3b66:	bc 01       	movw	r22, r24
    3b68:	41 15       	cp	r20, r1
    3b6a:	51 05       	cpc	r21, r1
    3b6c:	61 05       	cpc	r22, r1
    3b6e:	71 05       	cpc	r23, r1
    3b70:	59 f7       	brne	.-42     	; 0x3b48 <fat_read_file+0x1c2>
    3b72:	2f ef       	ldi	r18, 0xFF	; 255
    3b74:	3f ef       	ldi	r19, 0xFF	; 255
    3b76:	89 cf       	rjmp	.-238    	; 0x3a8a <fat_read_file+0x104>
    3b78:	2a 01       	movw	r4, r20
    3b7a:	3b 01       	movw	r6, r22
    3b7c:	4c 01       	movw	r8, r24
    3b7e:	ed 89       	ldd	r30, Y+21	; 0x15
    3b80:	fe 89       	ldd	r31, Y+22	; 0x16
    3b82:	31 97       	sbiw	r30, 0x01	; 1
    3b84:	e0 23       	and	r30, r16
    3b86:	f1 23       	and	r31, r17
    3b88:	e9 8b       	std	Y+17, r30	; 0x11
    3b8a:	fa 8b       	std	Y+18, r31	; 0x12
    3b8c:	0f 89       	ldd	r16, Y+23	; 0x17
    3b8e:	18 8d       	ldd	r17, Y+24	; 0x18
    3b90:	09 87       	std	Y+9, r16	; 0x09
    3b92:	1a 87       	std	Y+10, r17	; 0x0a
    3b94:	2c 8e       	std	Y+28, r2	; 0x1c
    3b96:	3d 8e       	std	Y+29, r3	; 0x1d
    3b98:	0f c0       	rjmp	.+30     	; 0x3bb8 <fat_read_file+0x232>
    3b9a:	ac 8d       	ldd	r26, Y+28	; 0x1c
    3b9c:	bd 8d       	ldd	r27, Y+29	; 0x1d
    3b9e:	db 96       	adiw	r26, 0x3b	; 59
    3ba0:	4d 92       	st	X+, r4
    3ba2:	5d 92       	st	X+, r5
    3ba4:	6d 92       	st	X+, r6
    3ba6:	7c 92       	st	X, r7
    3ba8:	de 97       	sbiw	r26, 0x3e	; 62
    3baa:	89 85       	ldd	r24, Y+9	; 0x09
    3bac:	9a 85       	ldd	r25, Y+10	; 0x0a
    3bae:	00 97       	sbiw	r24, 0x00	; 0
    3bb0:	09 f4       	brne	.+2      	; 0x3bb4 <fat_read_file+0x22e>
    3bb2:	dc c0       	rjmp	.+440    	; 0x3d6c <fat_read_file+0x3e6>
    3bb4:	8d 90       	ld	r8, X+
    3bb6:	9c 90       	ld	r9, X
    3bb8:	81 14       	cp	r8, r1
    3bba:	91 04       	cpc	r9, r1
    3bbc:	09 f4       	brne	.+2      	; 0x3bc0 <fat_read_file+0x23a>
    3bbe:	cd c0       	rjmp	.+410    	; 0x3d5a <fat_read_file+0x3d4>
    3bc0:	02 e0       	ldi	r16, 0x02	; 2
    3bc2:	40 16       	cp	r4, r16
    3bc4:	51 04       	cpc	r5, r1
    3bc6:	61 04       	cpc	r6, r1
    3bc8:	71 04       	cpc	r7, r1
    3bca:	08 f4       	brcc	.+2      	; 0x3bce <fat_read_file+0x248>
    3bcc:	c6 c0       	rjmp	.+396    	; 0x3d5a <fat_read_file+0x3d4>
    3bce:	a3 01       	movw	r20, r6
    3bd0:	92 01       	movw	r18, r4
    3bd2:	22 50       	subi	r18, 0x02	; 2
    3bd4:	31 09       	sbc	r19, r1
    3bd6:	41 09       	sbc	r20, r1
    3bd8:	51 09       	sbc	r21, r1
    3bda:	59 01       	movw	r10, r18
    3bdc:	6a 01       	movw	r12, r20
    3bde:	e1 2c       	mov	r14, r1
    3be0:	f1 2c       	mov	r15, r1
    3be2:	87 01       	movw	r16, r14
    3be4:	29 83       	std	Y+1, r18	; 0x01
    3be6:	ba 82       	std	Y+2, r11	; 0x02
    3be8:	cb 82       	std	Y+3, r12	; 0x03
    3bea:	dc 82       	std	Y+4, r13	; 0x04
    3bec:	ed 82       	std	Y+5, r14	; 0x05
    3bee:	fe 82       	std	Y+6, r15	; 0x06
    3bf0:	0f 83       	std	Y+7, r16	; 0x07
    3bf2:	18 87       	std	Y+8, r17	; 0x08
    3bf4:	d4 01       	movw	r26, r8
    3bf6:	58 96       	adiw	r26, 0x18	; 24
    3bf8:	2d 90       	ld	r2, X+
    3bfa:	3c 90       	ld	r3, X
    3bfc:	59 97       	sbiw	r26, 0x19	; 25
    3bfe:	51 01       	movw	r10, r2
    3c00:	c1 2c       	mov	r12, r1
    3c02:	d1 2c       	mov	r13, r1
    3c04:	e1 2c       	mov	r14, r1
    3c06:	f1 2c       	mov	r15, r1
    3c08:	00 e0       	ldi	r16, 0x00	; 0
    3c0a:	10 e0       	ldi	r17, 0x00	; 0
    3c0c:	29 81       	ldd	r18, Y+1	; 0x01
    3c0e:	3a 81       	ldd	r19, Y+2	; 0x02
    3c10:	4b 81       	ldd	r20, Y+3	; 0x03
    3c12:	5c 81       	ldd	r21, Y+4	; 0x04
    3c14:	60 e0       	ldi	r22, 0x00	; 0
    3c16:	70 e0       	ldi	r23, 0x00	; 0
    3c18:	80 e0       	ldi	r24, 0x00	; 0
    3c1a:	90 e0       	ldi	r25, 0x00	; 0
    3c1c:	0e 94 17 40 	call	0x802e	; 0x802e <__muldi3>
    3c20:	f4 01       	movw	r30, r8
    3c22:	a2 8c       	ldd	r10, Z+26	; 0x1a
    3c24:	b3 8c       	ldd	r11, Z+27	; 0x1b
    3c26:	c4 8c       	ldd	r12, Z+28	; 0x1c
    3c28:	d5 8c       	ldd	r13, Z+29	; 0x1d
    3c2a:	e6 8c       	ldd	r14, Z+30	; 0x1e
    3c2c:	f7 8c       	ldd	r15, Z+31	; 0x1f
    3c2e:	00 a1       	ldd	r16, Z+32	; 0x20
    3c30:	11 a1       	ldd	r17, Z+33	; 0x21
    3c32:	0e 94 86 40 	call	0x810c	; 0x810c <__adddi3>
    3c36:	2d 88       	ldd	r2, Y+21	; 0x15
    3c38:	3e 88       	ldd	r3, Y+22	; 0x16
    3c3a:	a9 88       	ldd	r10, Y+17	; 0x11
    3c3c:	ba 88       	ldd	r11, Y+18	; 0x12
    3c3e:	2a 18       	sub	r2, r10
    3c40:	3b 08       	sbc	r3, r11
    3c42:	c9 84       	ldd	r12, Y+9	; 0x09
    3c44:	da 84       	ldd	r13, Y+10	; 0x0a
    3c46:	c2 14       	cp	r12, r2
    3c48:	d3 04       	cpc	r13, r3
    3c4a:	08 f4       	brcc	.+2      	; 0x3c4e <fat_read_file+0x2c8>
    3c4c:	16 01       	movw	r2, r12
    3c4e:	d4 01       	movw	r26, r8
    3c50:	ed 91       	ld	r30, X+
    3c52:	fc 91       	ld	r31, X
    3c54:	89 88       	ldd	r8, Y+17	; 0x11
    3c56:	9a 88       	ldd	r9, Y+18	; 0x12
    3c58:	54 01       	movw	r10, r8
    3c5a:	c1 2c       	mov	r12, r1
    3c5c:	d1 2c       	mov	r13, r1
    3c5e:	e1 2c       	mov	r14, r1
    3c60:	f1 2c       	mov	r15, r1
    3c62:	87 01       	movw	r16, r14
    3c64:	89 82       	std	Y+1, r8	; 0x01
    3c66:	ba 82       	std	Y+2, r11	; 0x02
    3c68:	cb 82       	std	Y+3, r12	; 0x03
    3c6a:	dc 82       	std	Y+4, r13	; 0x04
    3c6c:	ed 82       	std	Y+5, r14	; 0x05
    3c6e:	fe 82       	std	Y+6, r15	; 0x06
    3c70:	0f 83       	std	Y+7, r16	; 0x07
    3c72:	18 87       	std	Y+8, r17	; 0x08
    3c74:	c1 2c       	mov	r12, r1
    3c76:	d1 2c       	mov	r13, r1
    3c78:	e1 2c       	mov	r14, r1
    3c7a:	f1 2c       	mov	r15, r1
    3c7c:	00 e0       	ldi	r16, 0x00	; 0
    3c7e:	10 e0       	ldi	r17, 0x00	; 0
    3c80:	0e 94 86 40 	call	0x810c	; 0x810c <__adddi3>
    3c84:	01 90       	ld	r0, Z+
    3c86:	f0 81       	ld	r31, Z
    3c88:	e0 2d       	mov	r30, r0
    3c8a:	71 01       	movw	r14, r2
    3c8c:	0b 89       	ldd	r16, Y+19	; 0x13
    3c8e:	1c 89       	ldd	r17, Y+20	; 0x14
    3c90:	09 95       	icall
    3c92:	88 23       	and	r24, r24
    3c94:	09 f4       	brne	.+2      	; 0x3c98 <fat_read_file+0x312>
    3c96:	72 c0       	rjmp	.+228    	; 0x3d7c <fat_read_file+0x3f6>
    3c98:	eb 88       	ldd	r14, Y+19	; 0x13
    3c9a:	fc 88       	ldd	r15, Y+20	; 0x14
    3c9c:	e2 0c       	add	r14, r2
    3c9e:	f3 1c       	adc	r15, r3
    3ca0:	eb 8a       	std	Y+19, r14	; 0x13
    3ca2:	fc 8a       	std	Y+20, r15	; 0x14
    3ca4:	49 85       	ldd	r20, Y+9	; 0x09
    3ca6:	5a 85       	ldd	r21, Y+10	; 0x0a
    3ca8:	42 19       	sub	r20, r2
    3caa:	53 09       	sbc	r21, r3
    3cac:	49 87       	std	Y+9, r20	; 0x09
    3cae:	5a 87       	std	Y+10, r21	; 0x0a
    3cb0:	91 01       	movw	r18, r2
    3cb2:	40 e0       	ldi	r20, 0x00	; 0
    3cb4:	50 e0       	ldi	r21, 0x00	; 0
    3cb6:	60 e0       	ldi	r22, 0x00	; 0
    3cb8:	70 e0       	ldi	r23, 0x00	; 0
    3cba:	80 e0       	ldi	r24, 0x00	; 0
    3cbc:	90 e0       	ldi	r25, 0x00	; 0
    3cbe:	ac 8d       	ldd	r26, Y+28	; 0x1c
    3cc0:	bd 8d       	ldd	r27, Y+29	; 0x1d
    3cc2:	d3 96       	adiw	r26, 0x33	; 51
    3cc4:	ac 90       	ld	r10, X
    3cc6:	d3 97       	sbiw	r26, 0x33	; 51
    3cc8:	d4 96       	adiw	r26, 0x34	; 52
    3cca:	bc 90       	ld	r11, X
    3ccc:	d4 97       	sbiw	r26, 0x34	; 52
    3cce:	d5 96       	adiw	r26, 0x35	; 53
    3cd0:	cc 90       	ld	r12, X
    3cd2:	d5 97       	sbiw	r26, 0x35	; 53
    3cd4:	d6 96       	adiw	r26, 0x36	; 54
    3cd6:	dc 90       	ld	r13, X
    3cd8:	d6 97       	sbiw	r26, 0x36	; 54
    3cda:	d7 96       	adiw	r26, 0x37	; 55
    3cdc:	ec 90       	ld	r14, X
    3cde:	d7 97       	sbiw	r26, 0x37	; 55
    3ce0:	d8 96       	adiw	r26, 0x38	; 56
    3ce2:	fc 90       	ld	r15, X
    3ce4:	d8 97       	sbiw	r26, 0x38	; 56
    3ce6:	d9 96       	adiw	r26, 0x39	; 57
    3ce8:	0c 91       	ld	r16, X
    3cea:	d9 97       	sbiw	r26, 0x39	; 57
    3cec:	da 96       	adiw	r26, 0x3a	; 58
    3cee:	1c 91       	ld	r17, X
    3cf0:	da 97       	sbiw	r26, 0x3a	; 58
    3cf2:	0e 94 86 40 	call	0x810c	; 0x810c <__adddi3>
    3cf6:	d3 96       	adiw	r26, 0x33	; 51
    3cf8:	2c 93       	st	X, r18
    3cfa:	d3 97       	sbiw	r26, 0x33	; 51
    3cfc:	d4 96       	adiw	r26, 0x34	; 52
    3cfe:	3c 93       	st	X, r19
    3d00:	d4 97       	sbiw	r26, 0x34	; 52
    3d02:	d5 96       	adiw	r26, 0x35	; 53
    3d04:	4c 93       	st	X, r20
    3d06:	d5 97       	sbiw	r26, 0x35	; 53
    3d08:	d6 96       	adiw	r26, 0x36	; 54
    3d0a:	5c 93       	st	X, r21
    3d0c:	d6 97       	sbiw	r26, 0x36	; 54
    3d0e:	d7 96       	adiw	r26, 0x37	; 55
    3d10:	6c 93       	st	X, r22
    3d12:	d7 97       	sbiw	r26, 0x37	; 55
    3d14:	d8 96       	adiw	r26, 0x38	; 56
    3d16:	7c 93       	st	X, r23
    3d18:	d8 97       	sbiw	r26, 0x38	; 56
    3d1a:	d9 96       	adiw	r26, 0x39	; 57
    3d1c:	8c 93       	st	X, r24
    3d1e:	d9 97       	sbiw	r26, 0x39	; 57
    3d20:	da 96       	adiw	r26, 0x3a	; 58
    3d22:	9c 93       	st	X, r25
    3d24:	da 97       	sbiw	r26, 0x3a	; 58
    3d26:	69 89       	ldd	r22, Y+17	; 0x11
    3d28:	7a 89       	ldd	r23, Y+18	; 0x12
    3d2a:	26 0e       	add	r2, r22
    3d2c:	37 1e       	adc	r3, r23
    3d2e:	0d 89       	ldd	r16, Y+21	; 0x15
    3d30:	1e 89       	ldd	r17, Y+22	; 0x16
    3d32:	20 16       	cp	r2, r16
    3d34:	31 06       	cpc	r3, r17
    3d36:	08 f4       	brcc	.+2      	; 0x3d3a <fat_read_file+0x3b4>
    3d38:	30 cf       	rjmp	.-416    	; 0x3b9a <fat_read_file+0x214>
    3d3a:	b3 01       	movw	r22, r6
    3d3c:	a2 01       	movw	r20, r4
    3d3e:	8d 91       	ld	r24, X+
    3d40:	9c 91       	ld	r25, X
    3d42:	0e 94 cb 10 	call	0x2196	; 0x2196 <fat_get_next_cluster.2258.1572>
    3d46:	2b 01       	movw	r4, r22
    3d48:	3c 01       	movw	r6, r24
    3d4a:	61 15       	cp	r22, r1
    3d4c:	71 05       	cpc	r23, r1
    3d4e:	81 05       	cpc	r24, r1
    3d50:	91 05       	cpc	r25, r1
    3d52:	d9 f0       	breq	.+54     	; 0x3d8a <fat_read_file+0x404>
    3d54:	19 8a       	std	Y+17, r1	; 0x11
    3d56:	1a 8a       	std	Y+18, r1	; 0x12
    3d58:	20 cf       	rjmp	.-448    	; 0x3b9a <fat_read_file+0x214>
    3d5a:	20 e0       	ldi	r18, 0x00	; 0
    3d5c:	30 e0       	ldi	r19, 0x00	; 0
    3d5e:	40 e0       	ldi	r20, 0x00	; 0
    3d60:	50 e0       	ldi	r21, 0x00	; 0
    3d62:	60 e0       	ldi	r22, 0x00	; 0
    3d64:	70 e0       	ldi	r23, 0x00	; 0
    3d66:	80 e0       	ldi	r24, 0x00	; 0
    3d68:	90 e0       	ldi	r25, 0x00	; 0
    3d6a:	65 cf       	rjmp	.-310    	; 0x3c36 <fat_read_file+0x2b0>
    3d6c:	2f 89       	ldd	r18, Y+23	; 0x17
    3d6e:	38 8d       	ldd	r19, Y+24	; 0x18
    3d70:	8c ce       	rjmp	.-744    	; 0x3a8a <fat_read_file+0x104>
    3d72:	0e 94 ad 40 	call	0x815a	; 0x815a <__cmpdi2_s8>
    3d76:	09 f4       	brne	.+2      	; 0x3d7a <fat_read_file+0x3f4>
    3d78:	86 ce       	rjmp	.-756    	; 0x3a86 <fat_read_file+0x100>
    3d7a:	fb ce       	rjmp	.-522    	; 0x3b72 <fat_read_file+0x1ec>
    3d7c:	2f 89       	ldd	r18, Y+23	; 0x17
    3d7e:	38 8d       	ldd	r19, Y+24	; 0x18
    3d80:	c9 84       	ldd	r12, Y+9	; 0x09
    3d82:	da 84       	ldd	r13, Y+10	; 0x0a
    3d84:	2c 19       	sub	r18, r12
    3d86:	3d 09       	sbc	r19, r13
