S012000077617665706C617965722E73726563D2
S11300000C9456100C9473100C9473100C94C82216
S11300100C9475220C9473100C9473100C9473103C
S11300200C9473100C9473100C9473100C94731040
S11300300C9473100C9473100C942F220C94731062
S11300400C9473100C9473100C9473100C94731020
S11300500C941B230C9473100C9473100C94731055
S11300600C9473100C9473100C9473100C94731000
S11300700C9473100C9473100C9473100C947310F0
S11300800C9473100C9473100C9473100C947310E0
S11300900C9473100C9473100C9473100C947310D0
S11300A00C94D0210C9473100C9473100A3E003EEF
S11300B00068656C70000A496E76616C6964206141
S11300C07267756D656E74287329212053656520E8
S11300D068656C70203C636F6D6D616E643E206674
S11300E06F722075736167652E000A4D69737369B9
S11300F06E6720617267756D656E7428732921209F
S11301005365652068656C70203C636F6D6D616E2E
S1130110643E20666F722075736167652E003B2014
S1130120636F6D6D616E64206E6F7420666F756EA3
S1130130642E20456E746572202768656C702720D4
S1130140666F722061206C697374206F662076611B
S11301506C696420636F6D6D616E64732E00546806
S11301606520666F6C6C6F77696E6720636F6D6D69
S1130170616E64732061726520617661696C61628D
S11301806C653B0A0020202020000A00456E74653F
S1130190722068656C70203C636F6D6D616E643EA7
S11301A020666F722068656C70206F6E206120631A
S11301B06F6D6D616E642E0A456E746572203C63CA
S11301C06F6D6D616E643E20746F20657865637534
S11301D07465206120636F6D6D616E642E0A4E6FCD
S11301E074653A206F6E6C79207468652066697254
S11301F0737420636F7079206F6620616E20617262
S113020067756D656E74206973206D6174636865CC
S1130210642C2049452E2027666F6F202D632062B1
S11302206172202D6320717578270A6973206571C6
S1130230756976616C656E7420746F2027666F6FC4
S1130240202D6320626172272E0020200D0A0020D9
S1130250200D0A0020200D0A0020200D0A00202075
S11302600D0A0020200D0A004465746563746564FA
S1130270206361726420706172616D65746572736C
S11302803B0A00094D616E75662E3A307825780A6E
S113029000094F454D3A20202025730A0009507269
S11302A06F643A202025730A00095265763A2020AB
S11302B02025640A000953657269616C3A30782517
S11302C0780A0009446174653A202025642F256466
S11302D0205B592F4D5D0A000953697A653A202045
S11302E02564205B4D69425D0A0045525230313A23
S11302F0204D656D6F72792063617264206572723E
S11303006F723B20636F756C64206E6F742064653C
S11303107465637420636172642E20436865636B43
S113032020636F6E6E656374696F6E20616E642006
S113033072657374617274206465766963652E0AEC
S1130340000A205F5F5F2020202020205F202020E3
S1130350205F202020205F205F5F20205F5F20201F
S113036020202020202020205F2020205F0A7C20C5
S11303705F205C5F5F205F7C207C5F5F285F295F7C
S11303805F7C207C20205C2F20207C5F5F205F200E
S11303905F205F7C207C5F285F295F5F5F0A7C2091
S11303A020202F205F60207C20275F205C202F20CE
S11303B05F60207C207C5C2F7C202F205F60207C71
S11303C02027205C20205F7C20285F2D3C0A7C5F56
S11303D07C5F5C5F5F2C5F7C5F2E5F5F2F5F5C5F89
S11303E05F2C5F7C5F7C5F207C5F5C5F5F2C5F7C4D
S11303F05F7C7C5F5C5F5F7C5F2F5F5F2F0A5C20AC
S11304005C202020202F202F5F205F5F5F205F5F14
S11304105F5F5F7C205F205C207C5F5F205F205FEC
S113042020205F205F5F5F205F205F0A205C205CEC
S11304302F5C2F202F205F60205C2056202F202D42
S11304405F2920205F2F202F205F60207C207C7C70
S1130450202F202D5F2920275F7C0A20205C5F2F1E
S11304605C5F2F5C5F5F2C5F7C5C5F2F5C5F5F5F1A
S11304707C5F7C207C5F5C5F5F2C5F7C5C5F2C20FE
S11304805C5F5F5F7C5F7C0A20202020202020208E
S11304902020202020202020202020202020202058
S11304A02020202020202020207C5F5F2F0A0A5655
S11304B0657273696F6E20302E392C204E6F762052
S11304C0323120323031342E20687474703A2F2F38
S11304D07777772E72616269646D616E7469732EC9
S11304E073650A54797065202768656C70272061EC
S11304F06E6420707265737320656E746572206615
S11305006F722061206C697374206F6620636F6D55
S11305106D616E64732E0A0A0045525230323A20DD
S11305204D656D6F727920636172642070617274BD
S11305306974696F6E206572726F723B20636F75A8
S11305406C64206E6F742064657465637420616EDE
S11305507920706172746974696F6E2E0A004D534C
S11305604730323A204D656D6F7279206361726451
S113057020666F756E6420776974682022737570C5
S1130580706572666C6F7070792220737472756313
S11305907475726520286E6F204D4252292E0A0010
S11305A04D534730313A204D656D6F727920636148
S11305B0726420666F756E642C207374616E64615E
S11305C07264204D42522064657465637465642EC0
S11305D00A0045525230333A204D656D6F727920CE
S11305E0636172642066696C6573797374656D20E8
S11305F06572726F723B20636F756C64206E6F74EA
S11306002064657465637420612076616C6964207C
S113061046415431362F464154333220706172744E
S11306206974696F6E2E0A0045525230333A204D78
S1130630656D6F727920636172642066696C65739D
S1130640797374656D206572726F723B20636F7588
S11306506C64206E6F74206465746563742061201B
S113066076616C69642046415431362F46415433D7
S11306703220706172746974696F6E2E0A0045527B
S11306805230343A204D656D6F7279206361726423
S1130690206572726F723B20636F756C64206E6F9D
S11306A0742072656164206469736B20696E666F7F
S11306B0726D6174696F6E2E0A0045525230373A7A
S11306C0204661696C656420746F206F70656E20CC
S11306D077617665706C61795F636F6E6669672EAA
S11306E07478740A004D534731343A20466F756E5E
S11306F06420636F6E66696775726174696F6E20DA
S113070066696C652C207374617274696E672074F9
S11307106F206170706C7920636F6D6D616E6473AE
S11307203B0A00232177617665706C61795F636FA2
S11307306E66696766696C650045525230383A20C6
S11307404F70656E65642077617665706C61795F62
S1130750636F6E6669672E7478742C2062757420DA
S11307606465746563746564206261642073696799
S11307706E61747572652E0A4669727374206C69B1
S11307806E65206D7573742062652065786163748D
S11307906C7922232177617665706C61795F636F70
S11307A06E66696766696C65220A004D5347313588
S11307B03A204170706C69636174696F6E206F6672
S11307C020636F6E66696775726174696F6E206607
S11307D0696C6520636F6D6D616E647320636F6D0A
S11307E0706C657465642E0A004D534731343A20A9
S11307F04E6F20636F6E66696775726174696F6EA0
S11308002066696C6520666F756E64206F6E206D5E
S1130810656D6F727920636172642E20576176650D
S1130820706C617965722077696C6C2075736520D2
S113083064656661756C7420696E70757420636F8D
S11308406E66696775726174696F6E2E0A546F20E3
S11308506368616E676520636F6E66696775726150
S113086074696F6E2C20706C616365206120706CFC
S113087061696E20746578742066696C6520284906
S1130880534F2F49454320383835392D31202F20F7
S113089057696E646F77732031323532202F2041CF
S11308A05343494920656E636F64696E6729206EFE
S11308B0616D65640A2277617665706C61795F6346
S11308C06F6E6669672E7478742220776974682065
S11308D0636F6E74656E747320737472756374756C
S11308E072656420617320696E2074686520666F88
S11308F06C6C6F77696E672074656D706C6174657C
S11309002066696C6520696E2074686520726F6F5B
S113091074206469726563746F72793B0A2D2D20AB
S11309205354415254204F462046494C45202D2DC6
S11309300A232177617665706C61795F636F6E66F7
S1130940696766696C650A235475726E206F6E2040
S1130950766572626F7365206D6F64650A73657482
S1130960202D7020766572626F736520310A2345ED
S11309706E61626C65206C6F772D706F7765722085
S11309806D6F64652E2044697361626C6520746FB9
S1130990206B6565702074686520616E616C6F679B
S11309A0206F757470757420616374697665206155
S11309B07420636F7374206F6620706F7765722084
S11309C0636F6E73756D7074696F6E2E0A736574E0
S11309D0202D70206C6F7770777220310A23536555
S11309E074207468652064656661756C7420766F24
S11309F06C756D652E20412076616C7565206F667F
S1130A00202D313030206769766573206D696E69F9
S1130A106D756D20766F6C756D652C206120766127
S1130A206C7565206F66202D313320676976657398
S1130A3020610A237479706963616C20636F6E733B
S1130A40756D6572206D6178696D756D206C696E68
S1130A50652D6C6576656C207369676E616C2C20FE
S1130A60612076616C7565206F6620302067697639
S1130A7065732061207369676E616C20616D706CB1
S1130A806974756465206F660A23617070726F788B
S1130A90696D6174656C7920345670700A7365747D
S1130AA0202D7020766F6C756D65202D36350A23E8
S1130AB0456E61626C657320746865206578746541
S1130AC0726E616C20766F6C756D6520636F6E74E9
S1130AD0726F6C20706F74656E74696F6D65746588
S1130AE0722E20436F6E6E65637420612031306B0B
S1130AF04F686D20706F74656E74696F6D65746591
S1130B00722066726F6D20494E3020746F0A23671D
S1130B10726F756E642E204F7665727269646573A8
S1130B20207468652064656661756C7420766F6CEA
S1130B30756D652E0A736574202D7020635F766F62
S1130B406C5F656E20310A23456E61626C657320AB
S1130B5072616E646F6D20706C61796261636B2089
S1130B606F72646572207768656E20706C61796954
S1130B706E6720746865206E657874206175646999
S1130B806F20747261636B2E0A736574202D70205C
S1130B9073687566666C6520310A23456E61626C04
S1130BA06573206175746F6D61746963616C6C79D0
S1130BB020706C6179696E6720746865206E657851
S1130BC07420617564696F20747261636B20776847
S1130BD0656E207468652063757272656E74207426
S1130BE07261636B2069732066696E6973686564FA
S1130BF02E0A736574202D70206175746F706C619A
S1130C007920310A0A23416C6C2072656D61696E2A
S1130C10696E672073657474696E677320616C6CA8
S1130C206F7720666F722062696E64696E672061F7
S1130C3020627574746F6E2F696E70757420746F92
S1130C402061206365727461696E206576656E74D7
S1130C502E0A2353657474696E6720612070617273
S1130C60616D6574657220746F20746865207261AB
S1130C706E6765206F662030202D20352077696CE3
S1130C806C20636175736520746865206173736F8C
S1130C90636961746564206576656E7420746F2081
S1130CA06F636375720A237768656E20494E50300E
S1130CB0202D20494E503520676F65732066726F72
S1130CC06D2061206C6F67696320686967682074B0
S1130CD06F206C6F676963206C6F77206C65766535
S1130CE06C2E204120706172616D6574657227738A
S1130CF02076616C756520696E207468650A2372BC
S1130D00616E67652036202D2031312077696C6C47
S1130D1020636175736520746865206173736F6304
S1130D206961746564206576656E7420746F206FE4
S1130D3063637572207768656E20494E5030202DAC
S1130D4020494E503520676F65732066726F6D0AB7
S1130D502361206C6F676963206C6F7720746F2048
S1130D606C6F6769632068696768206C6576656C79
S1130D702E2054686520666F6C6C6F77696E6720EF
S1130D80636F6E66696775726174696F6E207365EF
S1130D9074732075702077617665706C6179657203
S1130DA020666F7220610A236861726477617265DC
S1130DB020636F6E66696775726174696F6E206F08
S1130DC0662035206E6F726D616C6C79206F706572
S1130DD06E20627574746F6E7320636F6E6E6563DC
S1130DE074656420746F20494E5031207468726FAA
S1130DF075676820494E50352C2077686572653BCD
S1130E000A23202D205072657373696E6720627502
S1130E1074746F6E20312074726967676572732011
S1130E20746865206E65787420747261636B2074D5
S1130E306F20626520706C617965640A23202D201F
S1130E405072657373696E6720627574746F6E2077
S1130E50322070617573657320706C6179626163AF
S1130E606B2C2072656C656173696E6720627574A2
S1130E70746F6E203220726573756D657320706CAB
S1130E8061796261636B0A23202D2050726573734C
S1130E90696E6720627574746F6E20332073746F8B
S1130EA0707320706C61796261636B0A23202D205A
S1130EB05072657373696E6720627574746F6E2007
S1130EC03420747269676765727320706C6179622B
S1130ED061636B206F66207468652066696C6520A9
S1130EE02230312E776176222028696620697420A9
S1130EF0657869737473290A23202D2050726573F1
S1130F0073696E6720627574746F6E203520747215
S1130F1069676765727320706C61796261636B20C5
S1130F206F66207468652066696C65202230322EF5
S1130F307761762220286966206974206578697350
S1130F407473290A736574202D702062746E5F7047
S1130F506C61796E65787420310A736574202D7024
S1130F602062746E5F706175736520320A736574F4
S1130F70202D702062746E5F726573756D65203804
S1130F800A736574202D702062746E5F73746F70C1
S1130F9020330A736574202D702062746E5F3031C3
S1130FA02E77617620340A736574202D7020627464
S1130FB06E5F30322E77617620350A2354686520BF
S1130FC0666F6C6C6F77696E672066756E637469A3
S1130FD06F6E7320617265206E6F74207573656423
S1130FE020696E2074686973206578616D706C6522
S1130FF020616E6420617265206C65667420756E74
S11310007573656420696E207468697320657861FE
S11310106D706C650A2362746E5F74676C5F7061D7
S11310207573652C2062746E5F30332E7761762081
S11310302D2D2D2062746E5F30362E7761760A2353
S11310405365652074686520646F63756D656E749F
S11310506174696F6E20666F72206D6F72652074A3
S1131060686F726F75676820646573637269707402
S1131070696F6E73206F6620686F7720746865737C
S113108065206576656E742062696E64696E677347
S113109020776F726B2E0A234E6F74653A20546862
S11310A065206C617374206C696E6520746F2070A8
S11310B061727365206D7573742068617665206153
S11310C0206E65776C696E65206368617261637414
S11310D0657220696E206F7264657220746F20627D
S11310E065207061727365642E0A2D2D2D20454E86
S11310F044204F462046494C45202D2D2D0A003CC6
S1131100657865637574696E673E20003C65786533
S1131110637574696F6E20636F6D706C657465645C
S11311203E0A003E0045525230353A20417564690A
S11311306F2073747265616D2062756666657220D6
S1131140756E64657272756E2C20636F756C6420A5
S11311506E6F7420726561642064617461206672CC
S11311606F6D206D656D6F7279206361726420719B
S11311707569636B6C7920656E6F7567682E0A50AC
S11311806F737369626C65207265736F6C757469D3
S11311906F6E733B0A092D204465667261676D6545
S11311A06E74206D656D6F727920636172640A09D3
S11311B02D20466F726D6174206D656D6F7279209C
S11311C0636172642077697468206C617267657208
S11311D020626C6F636B2073697A650A092D205352
S11311E07769746368206D656D6F727920636172CD
S11311F064730A092D20506C6179206D6F6E6F2025
S1131200617564696F20616E642F6F72206175640B
S1131210696F207769746820382D62697420646569
S11312207074680A004D534730343A20506C617929
S11312306261636B20636F6D706C657465642E0A04
S1131240004D534730353A20506C61796261636BCD
S11312502073746F707065642E0A004D53473037E5
S11312603A20506C61796261636B20726573756DAD
S113127065642E0A004D534730363A20506C61792C
S11312806261636B207061757365642E0A004D534F
S11312904730363A20506C61796261636B2070612B
S11312A0757365642E0A004D534730373A20506CED
S11312B061796261636B20726573756D65642E0A72
S11312C0004D534730383A2043616E6E6F7420628C
S11312D0726F7773652066696C6573797374656D75
S11312E0207768696C6520706C61796261636B203A
S11312F06163746976652E0A005B4E414D455D005D
S11313005B53697A6520286279746573295D0025C9
S11313106C75004D534730393A20506C61796261E5
S1131320636B206163746976652E0A004D534731FF
S1131330303A20506C61796261636B20696E61633D
S1131340746976652E0A004D534730383A2043615C
S11313506E6E6F742062726F7773652066696C6558
S113136073797374656D207768696C6520706C613E
S1131370796261636B206163746976652E0A004D3E
S1131380534730383A2043616E6E6F742062726F37
S11313907773652066696C6573797374656D2077FE
S11313A068696C6520706C61796261636B2061634C
S11313B0746976652E0A004572726F723A20636F03
S11313C0756C64206E6F742066696E642064697243
S11313D06563746F72793A2025730A004D53473060
S11313E0333A20506C61796261636B20696E2070BE
S11313F0726F67726573732C2073746F7070696E8B
S1131400672063757272656E742066696C652E0A56
S1131410004552523A20636F756C64206E6F7420DD
S113142066696E642066696C6520272573272E0A19
S11314300052494646004552523A2057617665208B
S1131440686561646572206368756E6B69642069A0
S11314506E636F72726563743B20252E34730A00C9
S11314604552523A2046696C652073697A65206555
S113147072726F7220746F6F206C617267653B20AB
S113148000576176652068656164657220737065D4
S1131490636966696573206120746F74616C20737D
S11314A0697A65206F6620256C752062797465738E
S11314B02C2066696C652069732061637475616CA6
S11314C06C7920256C752062797465732E000A008E
S11314D05741524E30323A20005761766520686594
S11314E06164657220737065636966696573206100
S11314F020746F74616C2073697A65206F6620258F
S11315006C752062797465732C2066696C6520693A
S1131510732061637475616C6C7920256C7520622D
S1131520797465732E0020417373756D696E67203D
S1131530736D616C6C6573742076616C75652E0ACD
S11315400057415645004552523A2057617665206E
S113155068656164657220666F726D617420696E7E
S1131560636F72726563743B20252E34730A0066C0
S11315706D7420004552523A2057617665206865A3
S113158061646572207375626368756E6B3169643A
S113159020696E636F72726563743B20252E347309
S11315A00A004552523A20576176652068656164A5
S11315B0657220737065636966696573206E6F6E0A
S11315C02D50434D20666F726D61742E0A00455292
S11315D0523A2057617665206865616465722073AC
S11315E07065636966696573202575206368616E3B
S11315F06E656C732C206F6E6C792031206F7220B5
S11316003220737570706F727465642E0A004552CF
S1131610523A20576176652068656164657220736B
S113162070656369666965732073616D706C6520AC
S11316307261746520256C752C20737570706F72DF
S1131640746564207261746573206172652038303A
S113165030302C2031313032352C2031363030309E
S11316602C2032323130302C2033323030302C20A8
S113167034343130302C20616E64203438303030D2
S113168020487A2E0A004552523A20576176652046
S11316906865616465722073706563696669657302
S11316A0206269742064657074682025752C207329
S11316B07570706F727465642076616C75657320E3
S11316C061726520382C2031362C206F7220323420
S11316D00064617461004D534730323A20466F759F
S11316E06E642076616C696420776176652064613C
S11316F0746120686561646572210A004552523A3A
S113170020436F756C64206E6F7420646574656328
S113171074207374617274206F662077617665201B
S11317206461746120636F6E74656E743B20006D38
S11317306178696D756D206E756D626572206F6676
S113174020756E7265636F676E697A656420666979
S1131750656C647320736B69707065642E0A00573E
S113176041524E30313A20556E6578706563746528
S113177064207761766520686561646572206669B6
S1131780656C6420646574656374656421204174C8
S113179074656D7074696E6720746F20627970610E
S11317A07373206669656C642022252E34732220AD
S11317B0776974682025752062797465730A004519
S11317C052523A20436F756C64206E6F74206465C6
S11317D074656374207374617274206F662077611A
S11317E07665206461746120636F6E74656E743B0A
S11317F020007363616E6E6564207061737420658C
S11318006E64206F662066696C652E0A004552522C
S11318103A20436F756C64206E6F74206F70656E30
S11318202066696C652C2068656164657220696E48
S1131830636F72726563742F636F72727570742E46
S11318400A004D534730313A205374617274656411
S113185020706C61796261636B206F662066696CCD
S1131860652077697468202575206368616E6E65EC
S11318706C2873292C20256C7520487A2073616D9F
S1131880706C6520726174652C2025752062697402
S113189073207065722073616D706C652C20616EAD
S11318A06420612073697A65206F6620256C752039
S11318B062797465732E0A004552523A20436F755B
S11318C06C64206E6F74206F70656E2066696C6541
S11318D02C2068656164657220696E636F7272653D
S11318E063742F636F72727570742E0A00504152C4
S11318F0414D20202020202020207C545950452078
S1131900202020207C56414C55452020202020209A
S1131910202020207C4D494E494D554D202020202B
S1131920202020207C4D4158494D554D0A00494EF8
S1131930544547455200535452494E47005B727711
S11319405D00205B725D00205B775D00205B2D5D98
S1131950005B72775D00205B725D00205B775D0049
S1131960205B2D5D005B72775D00205B725D002063
S11319705B775D00205B2D5D00256C6400701B753A
S11319801B3E23AB1BB01B7E10EC1BF21B632A6BAC
S11319901C721C4E2AB31CBD1C822A471D4B1D9C65
S11319A032911D951D5031FA1EFD1E8224461F4999
S11319B01F3025991FA21F2225E71FEC1FDD32438C
S11319C0204820EA344D534730333A20506C617933
S11319D06261636B20696E2070726F6772657373E6
S11319E02C2073746F7070696E67206375727265F2
S11319F06E742066696C652E0A0045525230363A80
S1131A00204E6F7420656E6F7567682076616C690F
S1131A1064202E7761762066696C657320666F7525
S1131A206E64212028312066696C65206E656564CA
S1131A3065642069662073687566666C65206469F0
S1131A407361626C65642C20322066696C65732056
S1131A506E65656465642069662073687566666C86
S1131A606520656E61626C65642E290A004D5347DA
S1131A7031323A2052616E646F6D697A6564206612
S1131A80696C6520706C61796261636B206F66209C
S1131A90222573222E0A0045525230363A204E6FC8
S1131AA07420656E6F7567682076616C6964202E9A
S1131AB07761762066696C657320666F756E642144
S1131AC02028312066696C65206E65656465642034
S1131AD069662073687566666C6520646973616203
S1131AE06C65642C20322066696C6573206E6565B4
S1131AF06465642069662073687566666C65206534
S1131B006E61626C65642E290A004D534731333A85
S1131B10204F72647265642066696C6520706C6124
S1131B20796261636B206F6620222573222E0A007E
S1131B302E776176004D534731313A2045787465EC
S1131B40726E616C20636F6E74726F6C2074726954
S1131B5067676572656420766F6C756D6520636870
S1131B60616E676520746F2025642064422E0A002C
S1131B70627573790055736167653A2027627573DE
S1131B8079272E0A204F75747075747320746865F4
S1131B902063757272656E7420706C617962616322
S1131BA06B207374617475732E0A0073746F700004
S1131BB055736167653A202773746F70272E0A5333
S1131BC0746F707320706C61796261636B206F66EF
S1131BD020616E792063757272656E746C79207001
S1131BE06C6179696E672066696C650070617573F4
S1131BF0650055736167653A2027706175736527C1
S1131C002E0A50617573657320706C61796261632B
S1131C106B206F6620616E792063757272656E74D5
S1131C206C7920706C6179696E672066696C652EC9
S1131C300A4E4F54453A2044657669636520646FC3
S1131C406573202A4E4F542A20656E746572206C89
S1131C506F7720706F776572206D6F646520776889
S1131C60656E207061757365642100726573756DAE
S1131C70650055736167653A2027726573756D65F4
S1131C80272E0A526573756D657320706C617962D5
S1131C9061636B206F6620616E7920637572726573
S1131CA06E746C79207061757365642066696C6507
S1131CB02E0A00706C6179706175736500557361EB
S1131CC067653A2027706C61797061757365272E9A
S1131CD00A546F67676C65732074686520706C6163
S1131CE0792F7061757365207374617465206F66F4
S1131CF0207468652063757272656E746C792070E7
S1131D006C6179696E672066696C652E0A4E4F5462
S1131D10453A2044657669636520646F6573202ABB
S1131D204E4F542A20656E746572206C6F77207054
S1131D306F776572206D6F6465207768656E2070BB
S1131D406175736564210067657400557361676527
S1131D503A20276765742720286E6F2061726775A3
S1131D606D656E7473290A4C69737420616C6C2000
S1131D70706172616D657465727320616E64207444
S1131D80686569722070726F706572746965732E0C
S1131D90007365740055736167653A202773657431
S1131DA0202D70203C706172616D3E203C6E657721
S1131DB02076616C75653E270A092D70203C7061A0
S1131DC072616D3E3B20706172616D657465722055
S1131DD0746F206170706C79206368616E67652030
S1131DE0746F2E0A093C6E65772076616C75653ECA
S1131DF03B206E65772076616C756520746F206179
S1131E0070706C792E0A092D7375646F3B20666FB0
S1131E1072636573207772697465202869676E6FD1
S1131E2072657320706172616D657465722077727A
S1131E30697465207065726D697373696F6E292E9C
S1131E400A092D6D61783B206170706C696573209F
S1131E506368616E676520746F20706172616D657F
S1131E607465722773206D6178696D756D20766174
S1131E706C75652E0A092D6D696E3B206170706C5E
S1131E80696573206368616E676520746F20706193
S1131E9072616D657465722773206D696E696D7505
S1131EA06D2076616C75652E0A536574732061200C
S1131EB06E65772076616C756520746F2061207083
S1131EC06172616D657465722E204C696D6974650B
S1131ED06420746F2072616E6765206F66206D697F
S1131EE06E696D756D20616E64206D6178696D75C4
S1131EF06D2076616C7565732E006C73005573618B
S1131F0067653A20276C732720286E6F20617267FB
S1131F10756D656E7473292E0A4C6973747320741D
S1131F20686520636F6E74656E7473206F662074C9
S1131F3068652063757272656E7420646972656386
S1131F40746F72792E0063640055736167653A207B
S1131F50276364203C6469723E272E0A4D6F7665C0
S1131F607320746F206469726563746F7279203CA6
S1131F706469723E2C2072656C61746976652074A4
S1131F806F207468652063757272656E742064696D
S1131F90726563746F72792E006469736B696E661F
S1131FA06F0055736167653A20276469736B696EC6
S1131FB0666F2720286E6F20617267756D656E7479
S1131FC073292E0A446973706C6179732076617287
S1131FD0696F7573206469736B20696E666F726DC7
S1131FE06174696F6E2E00706C617900557361675E
S1131FF0653A2027706C6179203C66696C656E6176
S11320006D653E272E0A53746172747320706C617F
S1132010796261636B206F662066696C65203C663B
S1132020696C656E616D653E20696E20746865201B
S113203063757272656E74206469726563746F721D
S1132040792E006E6578740055736167653A2027B0
S11320506E657874272E0A506C61797320746865F4
S1132060206E65787420747261636B2C2072616ECB
S1132070646F6D6C792069662073687566666C653B
S1132080206973207365742C20696E20616C7068FC
S1132090616265746963616C206F72646572206F3C
S11320A074686572776973652E0A000011241FBE77
S11320B0CFEFDFE2DEBFCDBF12E2A0E0B0E2ECE69C
S11320C0FCE802C005900D92AE38B107D9F72BE2B7
S11320D0AEE8B2E201C01D92AE3AB207E1F70E9447
S11320E0D9360C9434460C94CA218FB7F89491E0F5
S11320F09093902B1092912B8FBF0895F6DF80E080
S1132100089580914820909147208917A1F090E08C
S113211001966091492070E00E9404408093482019
S113212020914A20289FF001299FF00D1124E95B9A
S1132130FF4D84810895FFCF209190223091912208
S113214021153105E1F08091032090910220981728
S1132150F1F090E001966091042070E00E94044048
S11321608093032040910520489FF001499FF00D82
S11321701124EE5FFF4D84818A3011F00895FFCF62
S11321802150310920939022309391220895FFCF5A
S1132190D3DF90E008958F929F92AF92BF92CF9237
S11321A0DF92EF92FF920F931F93CF93DF93CDB7FC
S11321B0DEB72697CDBFDEBFFC01009709F454C0FB
S11321C0423051056105710508F44EC0A081B1810A
S11321D018968C9118974A015B019A01A50160E059
S11321E070E08B3009F455C080E090E001E00E947B
S11321F06840A284B384C484D584E684F7840089C7
S113220011890E948640ED91FC91A2E0EA2EF12C06
S11322108E010B5F1F4F0995882331F1CD80DE803D
S1132220E12CF12CC114D104E104F104E9F087EFAD
S1132230C8168FEFD806E104F104B1F097018601C6
S1132240005F1F4F210931090730110521053105B0
S113225058F0A7019601285F3F4F410951092830E2
S113226031054105510518F4C12CD12C7601B60174
S1132270C7012696CDBFDEBFDF91CF911F910F918D
S1132280FF90EF90DF90CF90BF90AF909F908F9092
S1132290089580E090E002E00E946840A284B38444
S11322A0C484D584E684F784008911890E94864019
S11322B0ED91FC91B4E0EB2EF12C8E010F5F1F4FDA
S11322C00995882389F2C980DA80EB80FC80C114E7
S11322D0D104E104F10441F287EFC8168FEFD80668
S11322E0E8068FE0F80609F4BFCFB701A601405F06
S11322F05F4F6F4F7F40473051056105710508F40A
S1132300B3CFC701B601685F7F4F8F4F9F406830DE
S113231071058105910508F0AACFA6CF8093C00965
S11323200895E0ECF9E0818185FB882780F991E04C
S113233089270895863060F42091080630E002C0B1
S1132340359527958A95E2F7822F809581700895B7
S113235080E00895CF93DF93EC01462F8091B42A57
S11323602091B52A90E002966AE070E00E94044051
S113237030E08217930761F1A091B42A30E8A39F5B
S1132380D0011124AC54BA4DFD013196BD016F57F3
S11323907F4F0AC0299139913C9320834150129672
S11323A03296E617F70749F04111F4CF1C921082D8
S11323B012963296E617F707B9F75091B42A852F8B
S11323C090E001966AE070E00E9404408093B42A91
S11323D0DF91CF910895CF93DF93EC01462F809145
S11323E0B42A2091B52A90E002966AE070E00E9437
S11323F0044030E08217930761F1A091B42A30E8D9
S1132400A39FD0011124AC54BA4DFD013196BD01F6
S11324106F577F4F0AC059915F575C9310824150A8
S113242012963296E617F70749F04111F4CF1C9241
S1132430108212963296E617F707B9F77091B42A0C
S1132440872F90E001966AE070E00E940440809338
S1132450B42ADF91CF910895CF92DF92EF92FF9249
S1132460CF93DF9300D000D0CDB7DEB72FB7F89469
S1132470C090B62AD090B72AE090B82AF090B92A32
S1132480C982DA82EB82FC822FBF29813A814B8197
S11324905C81261B370B480B590B81E02F3F9FEFC4
S11324A0390749079FE7590708F080E02496CDBF14
S11324B0DEBFDF91CF91FF90EF90DF90CF90089532
S11324C0CF92DF92EF92FF920F931F93CF93DF93FC
S11324D000D000D0CDB7DEB74FB7F8940091B62A3C
S11324E01091B72A2091B82A3091B92A09831A8306
S11324F02B833C834FBFC980DA80EB80FC802FEFB5
S1132500C21AD20AE20AF20A24EF31E040E050E0B3
S11325100E94AA45C20ED31EE41EF51E01E010E07F
S113252020E030E08FEFC816D806E806F80618F465
S113253000E010E098010C0D1D1D2E1D3F1DB8017B
S1132540C9012496CDBFDEBFDF91CF911F910F91BA
S1132550FF90EF90DF90CF900895CF92DF92EF92AB
S1132560FF92882319F1D0906406D2FE1AC0B0E419
S1132570B0930206E0E8E0930206F1E0F09342062D
S113258080E28093620622E02093420638E0309392
S1132590420640E14093620654E05093660640933D
S11325A04506FF90EF90DF90CF90089580916406E8
S11325B082FDF7CF24E02093650660E375E780E0B1
S11325C090E07EDF6B017C01C701B60145DF882303
S11325D0D9F330E4309306063093010640E8409383
S11325E006064093010651E0509345065093410678
S11325F060E26093610672E07093410698E0909304
S11326004106A0E1A0936106A0934606FF90EF90D7
S1132610DF90CF900895CF93C82FE0914523F09198
S113262046233097A9F02091432330914423232B50
S113263029F40EC0E0914523F091462309958111B8
S1132640F9CFE0914323F09144238C2FCF91099447
S1132650CF910895CF93C82F20918E2230918F224D
S11326602F5F3F4F20938E2230938F228A3029F0A0
S11326708D3029F08C2FCF91CECF8DE0CCDF10920E
S11326808E2210928F228C2FCF91C5CFE3DF80E072
S113269090E008950AC03A3019F18093032033235F
S11326A0F9F088E0D7DF80E2D5DF88E0D3DF8091DE
S11326B0032090910220891799F090E0019660918F
S11326C0042070E00E94044020910520289FF0011E
S11326D0299FF00D1124EE5FFF4D34813D30D9F672
S11326E00895CF93DF93EC012196FC018491882314
S11326F031F0B0DFFE01219684918111FACFDF9190
S1132700CF9108950F931F93CF93DF93CDB7DEB787
S11327108E01095F1F4FF801819191918F01BADFFA
S1132720A8016F8178858091AA2B9091AB2B0E9490
S1132730284383E291E1D5DFDF91CF911F910F917F
S11327400895CF93DF93EC018881882329F02196A3
S113275081DF89918111FCCFDF91CF910895AF92F0
S1132760BF92CF92DF92EF92FF920F931F93CF937A
S1132770DF93CDB7DEB7C254D109CDBFDEBF20E4AD
S1132780E22EF12CEC0EFD1E8FEFE81AF80A31E46C
S1132790C32ED12CCC0EDD1EEFEFCE1ADE0A9091A3
S11327A0482080914720981709F47AC0A09003200C
S11327B0B12C30910420032F10E08091022090E08E
S11327C08A199B09800F911FB8010E940440381B8D
S11327D0313009F4D7C095DC582F22968FAF229759
S11327E080528F3508F0E9C000918E2210918F221B
S11327F00F3311050CF41CC15D3009F012C18DE0DA
S11328000ADF8AE008DF80910320B09002208B1554
S113281009F43FC12091042040E0A090052090E0FD
S11328200196622F742F0E940440A89EF001A99E75
S1132830F00D1124EE5FFF4DB481BA3009F4AFCF2F
S1132840FAE02196FFAF21978B2D90E00196622F3D
S1132850742F0E94044080930220AA2071F08A9D64
S1132860F0011124EA5FFF4DD7019AE060E001C056
S11328709D9191936F5F6A11FBCF8091902290910B
S113288091220196809390229093912210928E220D
S113289010928F229091482080914720981386CFE0
S11328A0A0910020B0910120109709F019C1E09186
S11328B09022F0919122309709F0F1C0A090502518
S11328C0AA2009F450C01092502567E372E281E512
S11328D095E20E94D6406C01009709F4FDC0AC015A
S11328E061E575E2CE0101960E94F340E1E0F0E07B
S11328F0EC0FFD1FEC0DFD1D108249E050E061EB73
S113290070E0CE0101960E949B42892B09F4F0C02D
S1132910E12CF12C5701AA0CBB1CAE0CBF1CAA0C59
S1132920BB1CF501E358F64E2591349149E050E083
S1132930B901CE0101960E949B42892B09F4E8C09B
S11329408FEFE81AF80AECE0EE16F10419F7CE015D
S11329500196F7DE8EE191E0C4DE61E070E0609301
S1132960002070930120CE5BDF4FCDBFDEBFDF912F
S1132970CF911F910F91FF90EF90DF90CF90BF9078
S1132980AF900895BEDB883009F009CFC5010196E8
S1132990B8010E9404408093032088E03CDE80E27A
S11329A03ADE88E038DEA0918E22B0918F22119712
S11329B0A0938E22B0938F22F2CE5830A9F5809145
S11329C08E2290918F22029764F1C5010196B8017D
S11329D00E94044010910520189FF001199FF00DEA
S11329E01124EE5FFF4D74817A30D9F088E013DE54
S11329F080E211DE88E00FDE8091022090E00197F2
S1132A006091042070E00E94044080930220A09111
S1132A108E22B0918F221197A0938E22B0938F2291
S1132A20BECE87E0F8DDBBCE5A3009F0E5CEE7CE66
S1132A30852F23965FAF2397EEDD30910220832FFD
S1132A4090E001966091042070E00E94044080931D
S1132A5002205091052023967FAD2397552379F0CA
S1132A60589FF001599FF00D1124EA5FFF4DD601E4
S1132A7010E001C07D9171931F5F1513FBCF80910E
S1132A808E2290918F22019680938E2290938F2292
S1132A9086CEA09005202091042040E0D1CEB090B5
S1132AA05025B11010CF01E515E2F801119285E22D
S1132AB0E139F807D9F705C0F5E200391F0709F431
S1132AC004CF3ADBF80181938F0180919022909199
S1132AD09122892B89F7F9CE8FEA90E002DE43CF69
S1132AE08CEA90E0FEDD1092002010920120DFCEEF
S1132AF0EDE0F7E1309729F00995823081F08130DB
S1132B0091F061E070E060930020709301202BCF7E
S1132B10F501EF57F64E45915491FA01EBCF86EB50
S1132B2090E0DFDDEECF8AEE90E0DBDDEACFCF92FE
S1132B30DF92EF92FF920F931F93CF93DF93CDB762
S1132B40DEB7C254D109CDBFDEBFDC010D90002039
S1132B50E9F79D0121503109281B390B09F060C0A8
S1132B604FE350E061E575E201E010E00C0F1D1F3A
S1132B70C8010E94F34021961FAE2197D8010D9001
S1132B800020E9F71197A01BB10B9D0121503109D9
S1132B9081F0A00FB11FF80160E070E080819E9188
S1132BA091938C936F5F7F4F2150310962177307A4
S1132BB0A8F36EE572E0C8010E948F427C0163E6CF
S1132BC072E080E090E00E948F4211E0F701D08033
S1132BD0DD2009F472C0DC013C91332341F06DE245
S1132BE070E00E94C24031E0892B09F030E01123EB
S1132BF009F453C0332309F450C041E555E2FA0106
S1132C0001900020E9F78F01D7010D900020E9F72A
S1132C101197AE19BF090A1B1B0B025011093FC0C3
S1132C2040E249830DE20A83FE013396D9011196ED
S1132C30AD01BC01CF0122962FAF229723963FAF5F
S1132C4023970E94B940EE24E394F12CEC0EFD1E70
S1132C50B70181E595E20E9402418C0122962FADD5
S1132C60229723963FAD23970097B9F06901B2E00C
S1132C70CB0ED11CF801EC0DFD1D608170E087E3E3
S1132C8092E20E94C240892B51F4B701C801019617
S1132C900E9402418C01009769F700E010E0C8012E
S1132CA0CE5BDF4FCDBFDEBFDF91CF911F910F9180
S1132CB0FF90EF90DF90CF90089510E0DC013C91FD
S1132CC031118DCF94CF0F931F93CF93DF93CDB753
S1132CD0DEB7C054D109CDBFDEBF8AE392E227DF5D
S1132CE0892B71F14FE350E061E575E2CE01019665
S1132CF00E94F34021961FAE21976AE472E0CE0150
S1132D0001960E948F420097D9F0DC010D900020BB
S1132D10E9F78D0101501109081B190B6FE472E0EA
S1132D2080E090E00E948F42009779F7C801C05C70
S1132D30DF4FCDBFDEBFDF91CF911F910F9108957B
S1132D4000E010E0F3CFCF92DF92EF92FF920F9367
S1132D501F93CF93DF93CDB7DEB7C054D109CDBF56
S1132D60DEBF7C018B016A01E2DE009729F1D70105
S1132D702C9121112EC04FE350E061E575E2CE01A4
S1132D8001960E94F34021961FAE219764E572E0FC
S1132D90CE0101960E948F42009771F07601A7013F
S1132DA0BC01C8010E94F34069E572E080E090E054
S1132DB00E948F42009799F7C05CDF4FCDBFDEBF02
S1132DC0DF91CF911F910F91FF90EF90DF90CF9003
S1132DD00895F701D7010D900020E9F77D01EE1A5F
S1132DE0FF0AE2E0EE0EF11CE80EF91E67E372E260
S1132DF0C7010E94D640A601415051096C014817F1
S1132E0059070CF46A01A601B701C8010E94F340F6
S1132E10F801EC0DFD1D1082CFCFEF92FF920F93BE
S1132E201F93CF93DF93CDB7DEB7EF97CDBFDEBF50
S1132E304ADF009739F1AC014F5F5F4FBE016F5F0E
S1132E407F4F8AE392E27FDFE12CF12C8701000FB0
S1132E50111F0E0D1F1D000F111FF801E358F64E30
S1132E6085919491BC01CE0101960E949242892BD6
S1132E70A1F18FEFE81AF80A8CE0E816F10431F7B3
S1132E8082E021C08EE591E02CDC00E010E085E8D2
S1132E9091E027DCF801EE0FFF1FE00FF11FEE0FAA
S1132EA0FF1FE358F64E25913491C9011ADC8AE8D4
S1132EB091E017DC0F5F1F4F0C30110541F78CE8D0
S1132EC091E00FDC80E0EF96CDBFDEBFDF91CF91C4
S1132ED01F910F91FF90EF9008950158164EF8013D
S1132EE045915491CA01FDDB80E0EDCF0F9388E654
S1132EF092E09F938F930E94EA42809192251F92C1
S1132F008F9383E892E09F938F930E94EA4283E930
S1132F1095E29F938F9381E992E09F938F930E9410
S1132F20EA4286E995E29F938F938DE992E09F931D
S1132F308F930E94EA4200919C251F920F9389EA85
S1132F4092E09F938F930E94EA42EDE9F5E2238198
S1132F502F9332813F9341814F9350815F9385EB4F
S1132F6092E09F938F930E94EA426091A125862F5D
S1132F7090E01F926F938053984F9F938F9383ECAD
S1132F8092E09F938F930E94EA42E3EAF5E2208164
S1132F90318142815381648175818681978104E105
S1132FA00E9477409F938F937F936F935F934F9388
S1132FB03F932F9388ED92E09F938F930E94EA4270
S1132FC0ADB7BEB79896ADBFBEBF0F9108950F932E
S1132FD01F93CF93DF93CDB7DEB72A97CDBFDEBF64
S1132FE09FEF9093E3080091E20807FFFCCF109154
S1132FF0E2081A872091E3082A879A859091E308CA
S1133000382F30643093E308A091E208A7FFFCCF87
S1133010B091E208B987E091E308E9879985072F21
S11330201127222733270093E308F091E208F7FFE2
S1133030FCCF9091E20898870091E308088798856F
S11330408B01222733270093E3081091E20817FF2E
S1133050FCCF2091E2082F833091E3083F839F81C6
S1133060052F162F272F33270093E3085091E208EA
S113307057FFFCCF6091E2086E837091E3087E8372
S11330809E814093E3084091E20847FFFCCFA09162
S1133090E208AD83B091E308BD839D8181110FC027
S11330A055E95093E3086091E20867FFFCCF709103
S11330B0E2087C834091E3084C838C8110C0883003
S11330C059F18FEF8093E308E091E208E7FFFCCF2A
S11330D0F091E208FA839091E3089A838A81AAE046
S11330E0BFEFB093E3088091E20887FFFCCFE09143
S11330F0E208E983F091E308F98389818091E30888
S11331008F3F11F4A15069F72A96CDBFDEBFDF913E
S1133110CF911F910F91089507E80093E308109150
S1133120E20817FFFCCF2091E2082B833091E308DB
S11331303B838B81D4CF2F923F924F925F926F92B9
S11331407F928F929F92AF92BF92CF92DF92EF9233
S1133150FF920F931F93CF93DF93CDB7DEB76C9796
S1133160CDBFDEBF222E3A8B4F8B588F698F7A8F5B
S11331708B8F9C8F38012701E114F10409F408C1F5
S113318033243A94BA8821E0B2222E82BF82222DBF
S11331903A894F89588D698D7A8D8B8D9C8DA22C9F
S11331A0C12CD12CE12CF12C00E010E00E949B40BA
S11331B02E873F87488B598B6B8B7C8B8D8B9E8B9B
S11331C0812CF2E09F2E4E815F81841A950A481467
S11331D0590408F44201A0904725B0904825C090B6
S11331E04925D0904A25E0904B25F0904C2500913C
S11331F04D2510914E252E853F85488959896B8927
S11332007C898D899E890E94A44009F4E6C052E01D
S113321050936606A0904F25A2FED1C02E853F850F
S1133220488959896B897C898D899E8909E00E9426
S11332307740BA01422F532F81E1C9DE8111C8C002
S11332403092E308C090E208C7FEFCCFD090E208B9
S1133250DD82E090E308ED828D810091E3080E3F6A
S113326079F7E7E4F3E23092E308F090E208F7FE3E
S1133270FCCF1091E2081C833091E3083C838C81DD
S11332806091E308619365E2E734F60761F77E85B0
S113329070934725AF85A0934825B889B0934925F5
S11332A0F989F0934A252B8920934B254C89409327
S11332B04C258D8980934D255E8950934E250E8132
S11332C01F81095B1C4DA401B801C3010E94B940D0
S11332D0680C791C3092E308A090E208A7FEFCCFAA
S11332E09091E2089B83B090E308BB828B8180912C
S11332F0E3083092E308C090E208C7FEFCCFD09008
S1133300E208DA82E090E308EA828A818091E308A5
S1133310E2E0E09365063092E308F090E208F7FEFD
S1133320FCCF1091E20819833091E3083983898135
S11333308091E30848185908940140E050E060E0A7
S113334070E0CB018E823F83488759876A877B87E9
S11333508C879D87222D3A894F89588D698D7A8D66
S11333608B8D9C8DAE80BF80C12CD12CE12CF12C97
S113337000E010E00E948640222E3A8B4F8B588F3B
S1133380698F7A8F8B8F9C8F4114510409F0FACE88
S113339081E06C96CDBFDEBFDF91CF911F910F917D
S11333A0FF90EF90DF90CF90BF90AF909F908F9061
S11333B07F906F905F904F903F902F9008954E852F
S11333C05F856889798981E102DE882309F438CF31
S11333D062E06093650680E0DCCF8E819F81895B2B
S11333E09C4DA401BC01C3010E94B940680C791C26
S11333F0A1CF2F923F924F925F926F927F928F92C2
S11334009F92AF92BF92CF92DF92EF92FF920F936F
S11334101F93CF93DF93CDB7DEB76097CDBFDEBFE9
S11334202F87388B742E652E562E472E382E292E34
S113343009831A838601AB86BC8629813A81232BB2
S113344009F455C0E114F10409F451C0CE14DF04A9
S113345008F44DC0AB2809F44AC09701EB823C83C1
S11334608D869E864701DF84C88853013801740124
S113347009811A812D2D3C2D4B2D5A2D652D742D2E
S1133480832D922D58DE882391F1ED84FE840D2D39
S11334901C2D2B2D3A2D452D542D632D722D8981F4
S11334A09A81EB85FC8509958823F9F02D2D3C2D17
S11334B04B2D5A2D652D742D832D922DAB80BC8000
S11334C0C12CD12CE12CF12C00E010E00E948640AC
S11334D0D22EC32EB42EA52E562E472E382E292E8C
S11334E0681879086814790410F681E001C080E056
S11334F06096CDBFDEBFDF91CF911F910F91FF90FA
S1133500EF90DF90CF90BF90AF909F908F907F907F
S11335106F905F904F903F902F900895CF93DF93DB
S11335200097A1F06115710589F0FB0120A124FF2A
S11335300DC040919222509193224115510561F0A2
S1133540A091CB22B091CC221097F1F0C0E0D0E052
S1133550CE01DF91CF910895C2E9D2E2DE01129645
S113356031E3FB0101900D923A95E1F78883998349
S1133570FB0161A172A183A194A16BAB7CAB8DAB68
S11335809EAB1FAA18AEE4CFCBECD2E2E7CF0097F4
S113359071F06115710559F0FB0120A124FD07C0EC
S11335A040910423509105234115510521F060E019
S11335B070E0CB01089531E3FB01A6E0B3E2019092
S11335C00D923A95E1F7809304239093052310928A
S11335D03723109238231092392310923A231092F1
S11335E03B2310923C2310923D2310923E23FB0177
S11335F081A192A1A3A1B4A180933F2390934023DE
S1133600A0934123B093422364E073E2CB01089575
S11336102F923F924F925F926F927F928F929F92DE
S1133620AF92BF92CF92DF92EF92FF920F931F93CC
S1133630CF93DF93CDB7DEB7C054D109CDBFDEBF82
S113364089AB9AAB892B51F16115710539F1A9A99F
S1133650BAA94D905C901197F201208C318CD396CD
S11336600D911D912D913C91D6970BAB1CAB2DABBD
S11336703EABD7966D907C90D8976214730430F16A
S11336809396AD90BD90CD90DC909697E9A9FAA958
S1133690A3AAB4AAC5AAD6AA17AA10AE80E0C05C91
S11336A0DF4FCDBFDEBFDF91CF911F910F91FF9010
S11336B0EF90DF90CF90BF90AF909F908F907F90CE
S11336C06F905F904F903F902F9008959E012F5DD3
S11336D03F4F2FA338A786E0D9011D928A95E9F7B9
S11336E011E3FB0111921A95E9F769A37AA38BA858
S11336F09CA8ADA8BEA881149104A104B10409F446
S1133700E0C080E047C040E050E060E070E080E06E
S113371090E0D2019296AC9092979396BC90939736
S11337209496CC9094979596DC9095979696EC9079
S113373096979796FC90979798960C919897999648
S11337401C910E9486401BA21CA2F2010190F081F0
S1133750E02D0280F381E02DA1E28A2E912C8C0EC3
S11337609D1EBEE4AB2EB3E2BB2ECFA8D8AC10E2B4
S1133770E12EF12C8E010F5F1F4F0995882309F468
S11337808DCF8BA19CA1680E791E6214730408F07E
S113379075C08EA18111A4C07101E618F708EFAAC3
S11337A0F8AE930140E050E060E070E0CB0169A620
S11337B03AA74BA75CA76DA77EA78FA798AB4BA989
S11337C05CA96DA97EA9452B462B472B09F49BCFF9
S11337D04114510409F449C06BA97CA98DA99EA97F
S11337E0623071058105910508F43FC08B019C018D
S11337F0025011092109310940E050E0BA0109AF32
S11338001AAF2BAF3CAF4DAF5EAF6FAF21967FAF1A
S11338102197D20158962D913C9159975901C12C69
S1133820D12CE12CF12C00E010E029AD3AAD4BADE8
S11338305CAD60E070E080E090E00E941740F2012F
S1133840A28CB38CC48CD58CE68CF78C00A111A10E
S11338500E948640A9A4BAA4CBA4DCA4EDA4FEA42F
S11338600FA518A90E9486406ECF20E030E040E00A
S113387050E060E070E080E090E0ECCF4BA95CA900
S11338806DA97EA9C2010E94CB106BAB7CAB8DAB42
S11338909EAB672B682B692B81F48EA1811120C00C
S11338A0E9A9FAA963A074A085A096A063AA74AA42
S11338B085AA96AA17AA10AEF2CE8EA1612C712CFD
S11338C069CFD201ED91FC91119730853B30C9F05D
S11338D0F201228C338CA2A0B3A02A183B0811CF8A
S11338E08BA89CA8ADA8BEA8A9A9BAA9D3968D9265
S11338F09D92AD92BC92D697D7966D927C92D897B2
S1133900CECE9A96CD90DD90ED90FC909D97CBAA6B
S1133910DCAAEDAAFEAAF5CEFC01009761F043A152
S113392054A165A176A143AB54AB65AB76AB17AAA2
S113393010AE81E0089580E00895EF92FF920F9316
S11339401F93CF93DF938B017A01E90106C0B7017E
S1133950CE010E94CD40009761F0BE01C80158DE3F
S11339608111F5CFDF91CF911F910F91FF90EF90CF
S11339700895C801D1DF81E0DF91CF911F910F91AC
S1133980FF90EF9008952F923F924F925F926F9223
S11339907F928F929F92AF92BF92CF92DF92EF92DB
S11339A0FF920F931F93CF93DF93CDB7DEB76D973D
S11339B0CDBFDEBF1C016B8B7C8B4F8B588F009768
S11339C009F4D7C0AB88BC88AB2809F4D2C0CF882F
S11339D0D88CC114D10409F4CCC0DC01D396FC9179
S11339E0D397D496EC91D497D596BC91B98FDC013A
S11339F0D6964C904A8EDC01D7965C905C8EDC01A6
S1133A00D8966C906B8EDC01D9967C90798ADC0117
S1133A10DA968C908982DC0197964D905D906D903A
S1133A207C909A97960140E050E060E070E080E07E
S1133A3090E0AF2EBE2EC98CDA8CEC8CFB8C0989FD
S1133A4019810E94864063015201E12CF12C870107
S1133A504986BA86CB86DC86ED86FE860F87188B70
S1133A60E12CF12C00E010E00E94A44029F120F1A7
S1133A70CF01092F182F9201201B310B2F8B388F68
S1133A8021153105E1F420E030E0C9016D96CDBF88
S1133A90DEBFDF91CF911F910F91FF90EF90DF90E8
S1133AA0CF90BF90AF909F908F907F906F905F90DA
S1133AB04F903F902F900895CF01092F182FD101D7
S1133AC08D909C90D40158964D915C9159974D8B53
S1133AD05E8BD101DB964D905D906D907C90DE976E
S1133AE0411451046104710409F049C093964D9046
S1133AF05D906D907C9096972F2F3E2F498D5A8D17
S1133B006C8D7B8D89899981A0E0411451046104F5
S1133B10710409F42EC10E94AD4089F19F01C32EA6
S1133B20D22EE42EF52E6D897E899B0140E050E073
S1133B3029873A874B875C87B301A201C401498472
S1133B405A846B847C8403C0F10180819181C41404
S1133B50D504E604F70480F0C418D508E608F7088D
S1133B600E94CB10AB01BC014115510561057105E3
S1133B7059F72FEF3FEF89CF2A013B014C01ED8923
S1133B80FE893197E023F123E98BFA8B0F89188D95
S1133B9009871A872C8E3D8E0FC0AC8DBD8DDB96A8
S1133BA04D925D926D927C92DE9789859A850097FD
S1133BB009F4DCC08D909C908114910409F4CDC06B
S1133BC002E0401651046104710408F4C6C0A30164
S1133BD09201225031094109510959016A01E12C2C
S1133BE0F12C87012983BA82CB82DC82ED82FE82AA
S1133BF00F831887D40158962D903C905997510102
S1133C00C12CD12CE12CF12C00E010E029813A8167
S1133C104B815C8160E070E080E090E00E9417409E
S1133C20F401A28CB38CC48CD58CE68CF78C00A1E7
S1133C3011A10E9486402D883E88A988BA882A1836
S1133C403B08C984DA84C214D30408F41601D401ED
S1133C50ED91FC9189889A885401C12CD12CE12CD6
S1133C60F12C87018982BA82CB82DC82ED82FE82CA
S1133C700F831887C12CD12CE12CF12C00E010E02B
S1133C800E9486400190F081E02D71010B891C890E
S1133C900995882309F472C0EB88FC88E20CF31CB4
S1133CA0EB8AFC8A49855A854219530949875A8700
S1133CB0910140E050E060E070E080E090E0AC8D85
S1133CC0BD8DD396AC90D397D496BC90D497D5960B
S1133CD0CC90D597D696DC90D697D796EC90D7977C
S1133CE0D896FC90D897D9960C91D997DA961C91CE
S1133CF0DA970E948640D3962C93D397D4963C931C
S1133D00D497D5964C93D597D6965C93D697D79659
S1133D106C93D797D8967C93D897D9968C93D99748
S1133D20DA969C93DA9769897A89260E371E0D896B
S1133D301E892016310608F430CFB301A2018D91FB
S1133D409C910E94CB102B013C01611571058105EA
S1133D509105D9F0198A1A8A20CF20E030E040E09A
S1133D6050E060E070E080E090E065CF2F89388D0E
S1133D708CCE0E94AD4009F486CEFBCE2F89388DBF
S1133D80C984DA842C193D0980CE6C8C7D8CF301B6
S1133D9013AE14AE15AE16AE2F89388DA984BA842D
S1133DA02A193B0972CE0F931F93FC018381028170
S1133DB010E020E030E0980111270027382B4081E3
S1133DC0042B5181152BB801C9011F910F9108953E
S1133DD08131D4F4992787FD9095DC01AA0FBB1F8C
S1133DE0FD01E80FF91FEE0FFF1FEE0FFF1FEE0F8F
S1133DF0FF1FE659FF4D3685311106C03189325017
S1133E00323020F0213011F080E00895613049F122
S1133E1008F043C0EFB7F894A80FB91FAA0FBB1F4F
S1133E20AA0FBB1FAA0FBB1FA659BF4D52968D9157
S1133E309C915397EFBF7FB7F89455962D913C9181
S1133E4056977FBF48175907FCF224173507E4F249
S1133E509FB7F8941F964D935C9350979FBF81E052
S1133E600895FFB7F894A80FB91FAA0FBB1FAA0F94
S1133E70BB1FAA0FBB1FA659BF4D52964D935C930F
S1133E805397FFBF3FB7F8941F966D917C9150975D
S1133E903FBF64177507E4F2E2CF623009F0B4CF94
S1133EA02FB7F894A80FB91FAA0FBB1FAA0FBB1FE7
S1133EB0AA0FBB1FA659BF4D55964D935C935697B9
S1133EC02FBF6FB7F8941F968D919C9150976FBF39
S1133ED0481759070CF4BCCFC2CF813114F084E0E9
S1133EE00895992787FD9095FC01EE0FFF1FE80FB9
S1133EF0F91FEE0FFF1FEE0FFF1FEE0FFF1FE65916
S1133F00FF4D8685813069F0613031F088F42FB738
S1133F10F89481892FBF08953FB7F89484893FBFEF
S1133F20089561110CC04FB7F89487854FBF089569
S1133F306230A9F69FB7F89487899FBF089580E0FF
S1133F400895813114F082E008952FB7F8949927E9
S1133F5087FD9095FC01EE0FFF1FE80FF91FEE0F90
S1133F60FF1FEE0FFF1FEE0FFF1FE659FF4D868563
S1133F702FBF0895992787FD90959C01220F331F29
S1133F80F901E80FF91FEE0FFF1FEE0FFF1FEE0FF1
S1133F90FF1FE659FF4D5685511107C05189513015
S1133FA041F0533031F0413021F020E030E0C901DC
S1133FB00895613039F190F46FB7F894F901E80F7E
S1133FC0F91FEE0FFF1FEE0FFF1FEE0FFF1FE65945
S1133FD0FF4D278530896FBFC9010895623029F7E5
S1133FE04FB7F894F901E80FF91FEE0FFF1FEE0F1A
S1133FF0FF1FEE0FFF1FE659FF4D258936894FBF7E
S1134000C90108957FB7F894F901E80FF91FEE0F7D
S1134010FF1FEE0FFF1FEE0FFF1FE659FF4D228912
S113402033897FBFC9010895382F3F7720E0C90144
S1134030862BBC0181E080934506AFE0B0E0000030
S1134040000000001197D9F720E420930606000031
S11340500000000031E0309346060000000000003C
S11340608FE090E041E050E0F0E8E0E40EC0F0932F
S11340700506000000000000E093050600000000B3
S11340800000E0930606019770F0DA01082E02C0E2
S1134090AA0FBB1F0A94E2F7A623B723109739F798
S11340A0F0930606E6CF51E0509345060895CF936A
S11340B08C3954F0181654F4CFEF6C2F80E1B4DF30
S11340C06C2F81E1CF91B0CFCBE9F7CFC82FC1508E
S11340D0F4CF0F932FB7F8941BBEFC0108ED04BF77
S11340E060832FBF0F91089581E08093000294E7CD
S11340F09093010220E12093020235E03093040200
S11341004FE34093080252E05093CA01E0E2F0E02A
S1134110E4911092CA01E0930D025093CA01E1E2C6
S1134120F0E064911092CA0160930C028093200223
S11341301092210270912302716070932302A09166
S11341402002A068A0932002B0912302B0FFFCCF0C
S1134150809124029091250290E320E032E0D9017D
S11341601D929A95E9F730E140E252E0DA011D929E
S11341703A95E9F70895609155005091410020E087
S113418030E088E09CE041EC0DC02730310591F02F
S1134190F901ED5DFD4D4081F901E45EFD4D908135
S11341A02F5F3F4F5913F1CF6413EFCF822F273086
S11341B0310571F70895FF920F931F93CF93DF9307
S11341C0C82F611104C0D7DF8C1709F451C0C33064
S11341D009F473C008F452C0C53009F468C008F487
S11341E053C0C63009F46FC0C73009F469C010E089
S11341F000E081E080935000F0905100F0FEFCCF8D
S1134200FFB6F89460E080E490E063DF2091500012
S11342102F7E209350002C2F21502730D8F1DCE042
S113422061EC85E590E055DF6D2F81E490E051DF8E
S1134230909150009061909350003091510034FF60
S1134240FCCF64E080E490E044DFC73068F5EC2FF5
S1134250F0E0EE0FFF1FE25FFD4D4081518140937E
S11342602608509327080093C6091093C709FFBE78
S1134270DF91CF911F910F91FF900895C130D1F03C
S113428030F012E900E9B5CF15E900EAB2CF10E940
S11342900EE0AFCF30E0D901AD5DBD4D6C91F901B9
S11342A0E45EFD4DD081BDCF40E050E3D8CF18E9A6
S11342B003E69FCF11E908EB9CCF13E901EF99CFF7
S11342C01CE905ED96CF1BE900EC93CFCF92DF926A
S11342D0EF92FF92CF93C82F83E10E940B1360E10A
S11342E077E280E090E00E9460126B017C01C701DC
S11342F0B6010E942C128823D1F360E08C2F5BDF7F
S113430081E1CF91FF90EF90DF90CF900C940B134D
S1134310809100018F77809300012091000127FD97
S1134320FCCF1092B52A1092B42A31E0309365067E
S11343300895E0ECF8E0128288E0838392EC9483A1
S113434020E4A0E4B6E051962C9337E03683E0E411
S1134350F9E0808342E64093800153E05183128266
S1134360138264E0648381E090E080A391A32FE151
S113437030E026A337A3A0E1B0E0A2A7B3A7E0E40E
S1134380F8E0118271E0778340E058E046A357A338
S1134390608308951F920F920FB60F921124FFCFDE
S11343A01F920F920FB60F9211241F932F933F93D6
S11343B04F935F936F937F938F939F93AF93BF9329
S11343C0EF93FF93CF93DF931F92CDB7DEB7409166
S11343D0C0094983E0914720F0E010914920212F42
S11343E030E080914820BF01681B7109CB01820F26
S11343F0931FB9010E940440181B1130D9F0CF015A
S11344000196B9010E9404408093472020914A20DC
S1134410222381F0289FF001299FF00D1124E55BF0
S1134420FF4DDE01129630E001C04D9141933F5F94
S11344303213FBCF0F90DF91CF91FF91EF91BF919A
S1134440AF919F918F917F916F915F914F913F9128
S11344502F911F910F900FBE0F901F9018951F92D0
S11344600F920FB60F9211242F934F935F936F9374
S11344707F938F939F93AF93BF932FB7F8948091BB
S1134480B62A9091B72AA091B82AB091B92A2FBF21
S11344900196A11DB11D41E050E060E070E08F3F46
S11344A02FEF9207A207B20718F440E050E0BA01D8
S11344B0480F591F6A1F7B1F9FB7F8944093B62A71
S11344C05093B72A6093B82A7093B92A9FBFBF91BB
S11344D0AF919F918F917F916F915F914F912F91A8
S11344E00F900FBE0F901F9018951F920F920FB64A
S11344F00F9211242F933F934F935F936F937F9366
S11345008F939F93AF93BF93EF93FF938091210178
S113451085FD33C0209121012061209321019091D8
S1134520B52A3091B42A931771F16091B52A50E8F5
S1134530659FC00111248C549A4D6F5F6A3008F056
S113454060E06093B52A80932801909329017091CB
S11345502001706270932001FF91EF91BF91AF91A0
S11345609F918F917F916F915F914F913F912F9187
S11345700F900FBE0F901F901895A0912101A0627B
S1134580A0932101E9CFC4DE41E04093B325E4CFF9
S11345901F920F920FB60F9211242F933F934F93B4
S11345A05F936F937F938F939F93AF93BF93EF9397
S11345B0FF938091110185FD33C020911101206189
S11345C0209311019091B52A3091B42A931771F177
S11345D06091B52A50E8659FC00111248C549A4D0E
S11345E06F5F6A3008F060E06093B52A8093180129
S11345F09093190170911001706270931001FF91F2
S1134600EF91BF91AF919F918F917F916F915F9146
S11346104F913F912F910F900FBE0F901F901895BF
S1134620A0911101A062A0931101E9CF71DE41E0D4
S11346304093B325E4CF1F920F920FB60F9211242B
S11346402F933F934F935F936F937F938F939F9396
S1134650AF93BF93EF93FF93C4D2FF91EF91BF91B8
S1134660AF919F918F917F916F915F914F913F9106
S11346702F910F900FBE0F901F9018958091912548
S1134680811106C08CE293E10E94711380E00895C9
S113469083E193E10E94711380E008959F92AF92A9
S11346A0BF92CF92DF92EF92FF920F931F93CF931B
S11346B0DF93CDB7DEB72D97CDBFDEBFD701CD9049
S11346C0DC9011971296ED91FC911397B096129687
S11346D0ED93FC931397FC01A081A53E09F4B0C0AF
S11346E0AA2309F4ADC0FC01A384FFE0AF1609F4CA
S11346F0B9C0F601B081BB2381F0F7019480FC01BD
S11347003196B1E0A0FBA795A7F9B190AB0DBF5FBF
S1134710BB30C1F79A1609F462C0F1E3D6011D92C9
S1134720FA95E9F7F60101A712A723A734A745A72D
S113473056A767A770ABFC01B60120E030E0122F4A
S113474040814032C1F0DB014C93DC011C965C914A
S113475053FF08C00081013428F00B3518F4405E83
S1134760DB014C932F5F3F4F31966F5F7F4F2830B3
S1134770310529F718E0F6017081753009F4BFC0DE
S1134780DC011896FC91F03221F1F601E20FF31FDF
S11347902EE22083212F2F5FFC0138961C5F30818D
S11347A03032B1F05601A20EB11CD5013C93DC01AC
S11347B01C969C9094FE08C06081613428F06B358F
S11347C018F4305ED5013C932F5F31962113E7CF67
S11347D030E0F601E20FF31F1082FC01A384D6013E
S11347E09096AC929097FC01138D00E0B28C0B294B
S11347F020E030E091960D931D932D933C93949774
S1134800558940E0B4894B2B60E070E0BA0155272C
S11348104427402B512B622B732BF60141A352A347
S113482063A374A34C96BFDAD60195966D937D93DA
S11348308D939C93989781E0F701858380E003C072
S1134840F701148281E02D96CDBFDEBFDF91CF91B9
S11348501F910F91FF90EF90DF90CF90BF90AF909A
S11348609F900895F7019480992021F0FC01F5852B
S11348709F16A9F0E1E3D6011D92EA95E9F7DC0160
S11348801D96AC90F701A482F60101A712A723A7F5
S113489034A745A756A767A770ABFC01A081AF73E7
S11348A02A2F30E0215031090DE0029F7001039F4F
S11348B0F00C1124EAE2F2E2DE01119601900D926D
S11348C00A95E1F7FE013196CE0CDF1CBE01625F52
S11348D07F4FEE1AFF0A97012E0F3F1F2F3131052C
S11348E060F451915C01A50EB11CD5011C91D60157
S11348F01D936D01E617F70771F781E0A4CFB5EEBC
S1134900B0833ECF9F92AF92BF92CF92DF92EF924D
S1134910FF920F931F93CF93DF93CDB7DEB7E19749
S1134920CDBFDEBF80919125811182C024DCB82ED9
S1134930882309F482C0A12C8091AF259091B025E1
S11349400E948C1C8E010F5F1F4FB8018091AF2510
S11349509091B0250E94081B89EF92E10E94711387
S1134960BFE1FB2E80E20E942A13FA94D9F780E07B
S113497093E10E9471138091AF259091B0250E941C
S11349808C1CF3E29F2EAFE0EA2EA3E1FA2EB801CD
S11349908091AF259091B0250E94081B8823A1F136
S11349A08AE00E942A13F80101900020E9F7319768
S11349B0CE2EC01AC8010E94A113D9A0D4FE22C0D1
S11349C08FE20E942A13D92CDC1824E2C21639F093
S11349D080E20E942A139D2DDA949111F9CF39A512
S11349E03F9348A54F935FA15F936EA16F93FF928E
S11349F0EF920E94EA420F900F900F900F900F9049
S1134A000F90C5CF80E2DDCFAA2011F08B2D5EDCA4
S1134A1080E0E196CDBFDEBFDF91CF911F910F9172
S1134A20FF90EF90DF90CF90BF90AF909F9008954C
S1134A3081EC92E10E947113EBCF87E047DCAA245A
S1134A40A3947ACF80919125811104C00E94761796
S1134A5080E0089587E493E10E94711380E0089553
S1134A60CF92DF92EF92FF920F931F93CF93DF9336
S1134A70CDB7DEB7E197CDBFDEBFEDB6FEB68AE3B4
S1134A8092E20E949715892B09F44BC080919125DD
S1134A90811141C00E946316AC014F5F5F4FCDB6D8
S1134AA0DEB6C41AD50ACDBEDEBE0DB71EB70F5F83
S1134AB01F4FD02EC12EB8018AE392E20E94A316A2
S1134AC06091AF257091B0259E012F5F3F4FA801E3
S1134AD08091B1259091B2250E949D1C811123C023
S1134AE0CF92DF9287EB93E19F938F930E94EA42E8
S1134AF00F900F900F900F9082E0EDBEFEBEE196F6
S1134B00CDBFDEBFDF91CF911F910F91FF90EF904A
S1134B10DF90CF9008958FE793E10E94711380E0B6
S1134B20ECCF81E0EACFBE016F5F7F4F8091B1256A
S1134B309091B2250E948E1A009791F2E091AF25D0
S1134B40F091B025309711F0108211828093AF2537
S1134B509093B02580E0D1CFCF93DF93EB012097E2
S1134B60C9F0813114F541E060E004DA97FD12C028
S1134B7086309105F4F00697282F30E0263050F463
S1134B80FC01FF27EE5FFD4D828186FB992790F99A
S1134B90391719F0DF91CF91089587FFFBCF8F77F5
S1134BA08283FE01DF91CF91099431E080E090E0AF
S1134BB0E7CF282F31E0E2CFCF93DF9300D0CDB7FA
S1134BC0DEB789839A830E944A1389819A810E945D
S1134BD0711383E291E10F900F90DF91CF910C94C8
S1134BE071136F927F928F929F92AF92BF92CF92E6
S1134BF0DF92EF92FF920F931F93CF93DF93CDB782
S1134C00DEB7CC5ED109CDBFDEBF9FB7F8948CE28E
S1134C10E2E4FBE2DE01AF53BF4F01900D928A95AF
S1134C20E1F7C952DF4F08811981C75DD040CD51EA
S1134C30DF4FA880B980C35ED040C751DF4FC88022
S1134C40D980EA80FB80C95ED0409FBF6090B325C5
S1134C50611016C130919125323009F4D7C0D8F0D3
S1134C60333009F469C1343009F427C11092912515
S1134C70C451DF4FCDBFDEBFDF91CF911F910F91A4
S1134C80FF90EF90DF90CF90BF90AF909F908F9068
S1134C907F906F900895332309F4FBC0313031F7CE
S1134CA07090640672FCF8C160E47DE083E090E0FB
S1134CB00E9460126093352B7093362B8093372BB0
S1134CC09093382B80E00E94AD1218E01093660692
S1134CD041E04093392B1CDB1092B3251092302B0A
S1134CE01092912BC0923A2BD0923B2BE0923C2B0A
S1134CF0F0923D2B8091B42A2091B52A90E002963F
S1134D006AE070E00E94044030E082179307F1F0FB
S1134D108E010F5F1F4F50E4D52E6AE0E62EF12C72
S1134D20D801ED2D1D92EA95E9F760E4C8010E94CF
S1134D30EB118091B42A2091B52A90E00296B70134
S1134D400E94044030E08217930751F7F2DA61E0E1
S1134D5086E16AD961E085E167D98BE9A8D950E495
S1134D60509300018090000186FCFCCF64E06093C6
S1134D70000174E27093100170932001A7E0A093E6
S1134D801101A0932101B1E3B0931201B093220168
S1134D90FDE4F0931401F093240190E8909316013C
S1134DA0909326012091B52A80E8289FC001112400
S1134DB08C549A4D2F5F2A3008F020E02093B52AB6
S1134DC080931801909319011091B52A30E8139F2C
S1134DD0C00111248C549A4D1F5F1A3008F010E062
S1134DE01093B52A809328019093290140910001E2
S1134DF04068409300010091100100680093100185
S1134E00E1E0E093660652E0509391256091352BE2
S1134E107091362B8091372B9091382B0E942C1255
S1134E20811149C18091B42A2091B52A90E002965B
S1134E306AE070E00E94044030E08217930709F4AE
S1134E4017CF8E010F5F1F4F30E4D32E4AE0842E1C
S1134E50912CD801BD2C1D92BA94E9F760E4C801E5
S1134E600E94EB118091B42A2091B52A90E0029619
S1134E70B4010E94044030E08217930751F7F8CE42
S1134E8085E291E199DE21E02093902B1092B325E5
S1134E90E1CE6091312B7091322B8091332B909124
S1134EA0342B0E942C12811161C19090902B992077
S1134EB009F4DECE1092902BDBCEB090392BBB20C0
S1134EC009F43FC160913E2B70913F2B8091402BA0
S1134ED09091412B0E942C12811100C18091B42A1F
S1134EE02091B52A90E002966AE070E00E940440A6
S1134EF030E08217930709F4BBCE8E010F5F1F4F7A
S1134F0080E4C82E9AE0692E712CD801FC2C1D92E5
S1134F10FA94E9F760E0C8010E94EB118091B42A89
S1134F202091B52A90E00296B3010E94044030E03B
S1134F308217930751F79CCE60913A2B70913B2BCB
S1134F4080913C2B90913D2B611571058105910554
S1134F5009F495C07090902B711091C00130110527
S1134F6009F41EC10230110509F080CE88E0A816AC
S1134F70B10409F4AEC180E1A816B10409F076CEFB
S1134F802AE0E22EF12C30E8D32E8E010F5F1F4F62
S1134F908091B42A2091B52A90E00296B7010E942C
S1134FA0044030E08217930709F462CE8090302BDE
S1134FB08110E8C07091392B7111E4C040913A2BF3
S1134FC050913B2B60913C2B70913D2B4138510506
S1134FD06105710508F468C14058510961097109F6
S1134FE040933A2B50933B2B60933C2B70933D2B77
S1134FF040E8A42EB12CA501B80180916E2B9091AC
S11350006F2B0E94C31C80913A2B90913B2BA09153
S11350103C2BB0913D2B892B8A2B8B2B51F49A2D51
S1135020A7FC07C0F801E90FF11D10829F5F97FFED
S1135030F9CF3091B42A20E8329FF0011124EC54C6
S1135040FA4D40E0842F90E0A2E0B0E0AC0FBD1F29
S1135050A80FB91F5C915083D801A80FB91F9C9069
S1135060918232964E5F403869F78091B42A90E07D
S11350700196B7010E9404408093B42A89CFF0902E
S1135080902BF11028C0B1E0B093912B1092902B8B
S113509004E000939125ECCD60EA76E881E090E0AD
S11350A00E9460126093352B7093362B8093372BBC
S11350B09093382B0ACE78E0709365061092392BC2
S11350C093E09093912541E060E082E00E94BA1F52
S11350D00E945720CDCD1092912BD8CF19D960E4DE
S11350E07BE48CE490E00E9460126093312B709317
S11350F0322B8093332B9093342B10929125E09193
S11351006E2BF0916F2B309711F01082118241E0D9
S113511060E080E00E94BA1F892B81F0A0903A2BB6
S1135120B0903B2BC0903C2BD0903D2BA114B104EC
S1135130C104D10489F585E292E13EDD80E0C6D860
S113514097CD60E573EC80E090E00E94601260937C
S11351503E2B70933F2B8093402B9093412BA8E0E0
S1135160A0936606B1E0B093392BB4CE41E060E081
S113517081E00E94BA1F892B09F497CE81E00E9436
S1135180AD1293CED801FD2D1D92FA95E9F760E496
S1135190C8010E94AA11FCCE81E492E10DDDCECFBC
S11351A0F8E0AF16B10409F4F0C0F0E1AF16B104B1
S11351B009F05CCD5AE0C52ED12C60E8762EEE24A1
S11351C0E394F12CEC0EFD1EE1E8AE2EB12CAC0EF6
S11351D0BD1E3FEFA31AB30A8E010E531F4F8091D9
S11351E0B42A2091B52A90E00296B6010E940440A8
S11351F030E08217930709F43BCD6091302B6111A5
S113520049C08090392B811045C080913A2B9091F0
S11352103B2BA0913C2BB0913D2B81349105A105F2
S1135220B10508F44BC080549109A109B1098093D8
S11352303A2B90933B2BA0933C2BB0933D2BF0E463
S11352406F2E40E450E0BE016F577F4F80916E2B6C
S113525090916F2B0E94C31CF501A701CF01019708
S1135260DC019C919080812C9401290F311DDA017D
S11352702D933C93119712962D933C93139732964A
S11352804C5F5F4FE017F10749F7662DC7010E9495
S1135290AA11A5CFF701772D11927A95E9F760E469
S11352A0C7010E94AA119BCF5A0110923A2B109267
S11352B03B2B10923C2B10923D2B9DCEAC011092B7
S11352C03A2B10923B2B10923C2B10923D2B682EC4
S11352D0BACFAAE0CA2ED12CB0E4BB2E66246394C4
S11352E0712C6C0E7D1E8091B42A2091B52A90E019
S11352F00296B6010E94044030E08217930709F435
S1135300B7CC1091302B11112CC0B091392BB111A5
S113531028C000913A2B10913B2B20913C2B3091CB
S11353203D2B013411052105310528F100541109E3
S11353302109310900933A2B10933B2B20933C2BEA
S113534030933D2B00E440E450E0B30180916E2B98
S113535090916F2B0E94C31C602FC3010E94EB111C
S1135360C2CFD301AB2C1D92AA94E9F760E4C30128
S11353700E94EB11B8CFA80110923A2B10923B2B4C
S113538010923C2B10923D2BE0CF0AE0A02EB12CC2
S113539080E4982ECC24C394D12CCC0EDD1E21E8BD
S11353A0E22EF12CEC0EFD1E30E2E30EF11C809196
S11353B0B42A2091B52A90E00296B5010E940440D7
S11353C030E08217930709F453CCF091302BF1119C
S11353D03FC03091392B31113BC000913A2B1091D1
S11353E03B2B20913C2B30913D2B013211052105A3
S11353F03105C0F1005211092109310900933A2BFA
S113540010933B2B20933C2B30933D2B00E440E244
S113541050E0BE016F577F4F80916E2B90916F2BA0
S11354200E94C31CAE014F575F4FFE013296DA0152
S11354301D91AD01CF010197DC011C9310833296BD
S11354404E155F05A1F7602FC6010E94EB11AFCF87
S1135450F601592D11925A95E9F760E4C6010E94AC
S1135460EB11A5CFA80110923A2B10923B2B10926E
S11354703C2B10923D2B000FCCCF1092302B8091FF
S11354809125811101C0089541E060E080E00E940F
S1135490BA1F892BC1F38BE592E18ECBEEDF80E05E
S11354A0089581E08093302B20919125211101C032
S11354B0089541E060E080E00E94BA1F892BC1F3A7
S11354C085E792E179CBEDDF80E008958091302B80
S11354D091E089278093302B20919125211101C0DF
S11354E0089541E060E080E00E94BA1F892BC1F377
S11354F03091302B311103C087EA92E15DCB8EE805
S113550092E15ACBE3DF80E00895CF92DF92EF92ED
S1135510FF920F931F93CF93DF937C016B011616B9
S11355201706F4F400E010E0C0E0D0E009C00E94E7
S11355302A13FFEFEF1AFF0A2196CC15DD0581F03F
S11355400115110521F4F70180818111F0CF80E26A
S11355500E942A1301E010E02196CC15DD0581F7A5
S1135560DF91CF911F910F91FF90EF90DF90CF903B
S113557008954F925F926F927F929F92AF92BF92E3
S1135580CF92DF92EF92FF920F931F93CF93DF930B
S1135590CDB7DEB7C35AD109CDBFDEBF7C01809140
S11355A09125811140C287E00E9466218091AF2538
S11355B09091B0250E948C1C6091AF257091B0250C
S11355C09E012E5C3F4FA7018091B1259091B22599
S11355D00E949D1C811128C041E060E080E00E948F
S11355E0BA1F892B09F03BC2E0916E2BF0916F2B0F
S11355F0309711F01082118280E00E94662180E0D1
S1135600CD55DF4FCDBFDEBFDF91CF911F910F91FD
S1135610FF90EF90DF90CF90BF90AF909F907F90DE
S11356206F905F904F9008950091B1251091B2252D
S11356306091AF257091B0259E012F5F3F4FA70168
S1135640C8010E949D1C882309F41DC2BE016F5F1E
S11356507F4FC8010E94C71A3C0180936E2B909320
S11356606F2B009761F240E250E0B70180E79BE2C4
S11356700E94F3404CE250E0BE016F5F7F4FC301D4
S11356800E94C31C8E010D591F4F3CE2F801119278
S11356903A95E9F7A980BA80CB80DC80F801A08232
S11356A0B182C282D382CD80DE80EF80F884C4824E
S11356B0D582E682F78249855A856B857C85408749
S11356C05187628773876D857E858F859889648706
S11356D075878687978789899A89AB89BC89808BE6
S11356E0918BA28BB38BED88FE88E48AF58AAF890F
S11356F0B88DA68BB78B498C5A8C6B8C7C8C408E66
S1135700518E628E738E2D8D3E8D4F8D58A1248FB8
S1135710358F468F578F69A07AA060A271A2ABA083
S1135720BCA0A2A2B3A2CDA0DEA0EFA0F8A4C4A204
S1135730D5A2E6A2F7A249A55AA56BA57CA540A7C8
S113574051A762A773A741E060E080E00E94BA1FFE
S1135750AA24A394892B09F480C144E050E061E3B6
S113576074E1C8010E949B42892B09F071C1912CFC
S1135770F801448055806680778028E030E040E07E
S113578050E0240D351D461D571D6B966CAD7DAD47
S11357908EAD9FAD6B97621773078407950708F06A
S11357A03EC269017A01C61AD70AE80AF90AC70192
S11357B0B60151E0611571058105910509F4BCC17B
S11357C0613171058105910508F4A4C1A110F9C2E4
S11357D09924939444E050E06FE675E1C8010C9677
S11357E00E949B42892B21F0A110CDC1992493944E
S11357F0F801A489B589A130B10521F0A110D8C15F
S113580099249394F801868997899C012150310940
S11358102230310520F0A110E3C199249394F801BA
S1135820C08CD18CE28CF38CF0E4CF16FFE1DF0660
S1135830E104F10469F121E1C2162BE2D206E1048C
S1135840F10431F130E8C3163EE3D306E104F10478
S1135850F9F042E2C41646E5D406E104F104C1F0CD
S1135860C1145DE7D506E104F10491F064E4C616C1
S11358706CEAD606E104F10459F070E8C7167BEB34
S1135880D706E104F10421F0A1101BC399249394D9
S1135890F80182A193A18830910531F0409721F05D
S11358A0A11036C299249394B12C7801F4E2EF0E3E
S11358B0F11C8FE5C82E87E1D82E44E050E061ED5D
S11358C076E1C7010E949B42892B09F4BBC1FAE02F
S11358D0BF1609F492C1A110E0C0A0916E2BB09143
S11358E06F2B109709F4F1C0D3962C91D397D496CB
S11358F03C91D497D5964C91D597D6965C91D697F2
S113590097964D905D906D907C909A9742165306B1
S11359106406750608F4BDC0D7961C92D797D8962E
S11359201C92D897D9961C92D997DA961C92DA973A
S1135930DB961D921D921D921C92DE97F80160A5C4
S113594071A582A593A5C056DF4F688379838A83A6
S11359509B83C05AD040620F731F841F951F6B96A0
S11359602CAD3DAD4EAD5FAD6B972617370748079D
S1135970590708F4BBC0D3962D913D914D915C918C
S1135980D697C056DF4F688179818A819B81C05A3E
S1135990D040260F371F481F591F4216530664066E
S11359A07506F0F0D3962C93D397D4963C93D49762
S11359B0D5964C93D597D6965C93D697D7961C924A
S11359C0D797D8961C92D897D9961C92D997DA96DD
S11359D01C92DA97DB961D921D921D921C92DE9703
S11359E048E050E0BE0161577F4FCD010E94C31CC7
S11359F0C157DF4F88819981AA81BB81CF58D0409C
S1135A00F80184A395A3A6A3B7A3CD56DF4F28819D
S1135A1039814A815B81C359D04020A731A742A76D
S1135A2053A7B3944ACF41E060E080E00E94BA1FDC
S1135A30892B09F0FEC04FB6F89491E09093902B17
S1135A401092912B4FBE209191252111FCCFABCD0B
S1135A50A11071C1992493948BCEA12C7ECEFF9278
S1135A60EF9281E194E19F938F930E9482130F90B0
S1135A700F900F900F90E0916E2BF0916F2B309759
S1135A8009F0B8CDB9CD10926E2B10926F2B80E037
S1135A90B7CD20E030E0A90151CFF80193A59F9341
S1135AA032A53F9361A46F9240A44F92FF92EF926C
S1135AB0DF92CF920E948213CDBFDEBFA0916E2BE6
S1135AC0B0916F2B109709F00FCFF80140A451A4A7
S1135AD062A473A46B964CAD5DAD6EAD7FAD6B9758
S1135AE0441555056605770508F07ACFAA2009F410
S1135AF086C08FEB97E19F938F930E94821382EF6E
S1135B0097E19F938F930E9482130F900F900F90B1
S1135B100F9075C0A11091C1552371F06B968CAD97
S1135B209DADAEADBFAD6B970897A109B109F80162
S1135B3084839583A683B78344E050E061E475E1F0
S1135B40C80108960E949B42892B09F443CEAA20DF
S1135B5009F43ECEC80108969F938F9386E495E19D
S1135B609F938F930E94821344E050E06FE675E1A7
S1135B70C8010C960E949B420F900F900F900F90BB
S1135B80892B09F433CEC80108969F938F9384E739
S1135B9095E19F938F930E9482130F900F900F9023
S1135BA00F90F801448955894130510509F428CEF4
S1135BB0C80108969F938F9382EA95E19F938F93F0
S1135BC00E948213F80186899789BC01615071098A
S1135BD00F900F900F900F906230710508F41DCE56
S1135BE09F938F938EEC95E19F938F930E948213E2
S1135BF00F900F900F900F9010CEA11078C08DE0F1
S1135C0098E19F938F930E948213E0916E2BF09101
S1135C106F2B0F900F90309709F0ECCCEDCC6850BF
S1135C20710981099109641975098609970950E078
S1135C30C1CD2CED33E13F932F930E9482130F903B
S1135C400F90F9CEAA2009F485C0B11031C191108A
S1135C50D6CFF80184819581A681B7810896A11DCC
S1135C60B11DBF93AF939F938F93E3A0EF92C2A014
S1135C70CF92538C5F92728C7F92D18CDF92508D35
S1135C805F93F788FF9276897F9382E498E19F93EC
S1135C908F930E948213CDBFDEBFF801A08CB18C1C
S1135CA0C28CD38CF2E2AF16F6E5BF06C104D10470
S1135CB009F47FC008F052C031E1A3163BE2B306F9
S1135CC0C104D10409F477C040E8A4164EE3B40635
S1135CD0C104D10409F46BC050E4A5165FE1B50614
S1135CE0C104D10409F461C088EB98E18ACF8CEF38
S1135CF096E19F938F930E9482138FE297E19F9383
S1135D008F930E9482130F900F900F900F9077CF74
S1135D10FF92EF92DF92CF9286E896E19F938F9362
S1135D200E9482130F900F900F900F900F900F907E
S1135D3099249394B9CD1F930F9386E394E19F9391
S1135D408F930E9482130F900F900F900F909924BD
S1135D5093940ECD992009F4A0CF51CF64E4A616F4
S1135D606CEAB606C104D10451F170E8A7167BEBC6
S1135D70B706C104D10409F1A114EDE7BE06C104BC
S1135D80D10409F0B1CF85E00E9466219FB7F89451
S1135D903CE2F801A2E4BBE201900D923A95E1F7EE
S1135DA09FBF81E0809391252BCC81E0EDCF83E0F0
S1135DB0EBCF84E0E9CF82E0E7CF87E0E5CF86E070
S1135DC0E3CF80E694E19F938F930E9482136B96B6
S1135DD09FAC6B979F926A96FFAC6A97FF92699605
S1135DE07FAD69977F936896BFAD6897BF93F801BD
S1135DF084819581A681B7810896A11DB11DBF93A9
S1135E00AF939F938F9381E894E19F938F930E9424
S1135E1082138EEC94E19F938F930E94821344E04B
S1135E2050E061E475E1C80108960E949B42CDBF31
S1135E30DEBF892B09F4CCCC8DCE80ED94E19F9309
S1135E408F93C556DF4F5883CB59D0400E9482139D
S1135E506B965FAC6B975F926A967FAC6A977F9202
S1135E606996BFAC6997BF926896DFAC6897DF927A
S1135E70F80184819581A681B7810896A11DB11D81
S1135E80BF93AF939F938F9389ED94E19F938F93E7
S1135E900E94821386E295E19F938F930E9482135E
S1135EA0CDBFDEBFC556DF4F5881CB59D04034CE6D
S1135EB086ED96E19F938F930E9482130F900F902B
S1135EC0C6CEFF92EF92DF92CF928EE096E19F933F
S1135ED08F930E9482130F900F900F900F900F904A
S1135EE00F9099249394D4CCEF92FF920F931F9325
S1135EF0CF93DF93CDB7DEB76A97CDBFDEBFF82E61
S1135F0080E18F150CF4A0C12F2D332727FD309588
S1135F10C901880F991F820F931F880F991F880F3B
S1135F20991F880F991F86599F4D6DE070E0EDDA37
S1135F308CE70E942A138F2D0E94A11F8E018111CC
S1135F4093C00F5E1F4F49E050E06EE279E1C80153
S1135F500E94A9421A8E69E070E0C801D6DA8CE783
S1135F600E942A1319828F2D0E94A11F811182C0C1
S1135F7060E08F2D0E946D1F833009F4F8C060E04B
S1135F808F2D0E946D1F813009F4F1C08E010F5FC7
S1135F901F4F6BE070E0C801B8DA60E08F2D0E94FB
S1135FA06D1F813009F4DEC008F099C08CE499E1DA
S1135FB00E9471138CE70E942A1319828F2D0E946C
S1135FC0A11F8111A8C061E08F2D0E946D1F833035
S1135FD009F40AC161E08F2D0E946D1F813009F41C
S1135FE003C16BE070E0C80190DA61E08F2D0E947C
S1135FF06D1F813009F41EC108F099C080E699E153
S11360000E9471138CE70E942A1319828F2D0E941B
S1136010A11F811178C062E08F2D0E946D1F833013
S113602009F4C5C062E08F2D0E946D1F813009F410
S1136030BEC06BE070E0C80168DA62E08F2D0E9498
S11360406D1F813009F4FBC008F07CC084E799E13E
S11360500E9471136A96CDBFDEBFDF91CF911F916D
S11360600F91FF90EF900895813009F442C00F5EC4
S11360701F4F70CF813009F089CF60E08F2D0E94CF
S11360806D1F833039F060E08F2D0E946D1F8130C9
S113609009F07CCF90E19F15B4F0AF2DBB27A7FD8D
S11360A0B095BD01660F771FFB01EA0FFB1FEE0FD2
S11360B0FF1FEE0FFF1FEE0FFF1FE659FF4D168562
S11360C0113009F4D0C046E0EFE4F2E28E010F5F34
S11360D01F4FD80101900D924A95E1F75ACF8230B3
S11360E0E1F1833009F066CF8DE399E10E947113E9
S11360F061CF0F5E1F4F49E050E066E379E1C801CC
S11361000E94A94227CF813009F093CF86E390E023
S113611089839A838ECF813009F063CF66E0EFE400
S1136120F2E2D80101900D926A95E1F75ACF8230DC
S113613009F476C0833009F065CF81E599E10E94C6
S1136140711360CF823009F470C0833009F082CFBC
S113615085E699E10E9471137DCF87E499E10E945D
S1136160711328CF82E499E10E94711323CF50E187
S11361705F150CF474C040E060E08F2D0E94BA1FDC
S1136180AC01662757FD6095762F7F936F935F93DD
S11361904F9389E799E19F938F938E010F5F1F4F70
S11361A01F930F930E940943CDBFDEBFF2CEB0E12F
S11361B0BF150CF44CC040E062E08F2D0E94BA1F62
S11361C0AC01662757FD6095762F7F936F935F939D
S11361D04F9389E799E19F938F931F930F930E94A5
S11361E00943CDBFDEBF25CF70E17F15A4F140E0A8
S11361F061E08F2D0E94BA1FAC01662757FD6095A0
S1136200762F7F936F935F934F9389E799E19F93E1
S11362108F931F930F930E940943CDBFDEBFE1CE3E
S11362208BE599E10E947113EDCE8FE699E10E940E
S1136230711310CF86E599E10E947113E3CE8AE6CB
S113624099E10E94711306CF80E090E06ECE40E0A9
S113625050E0BA01BACF40E050E0BA01D2CF40E0FA
S113626050E0BA0192CF3785313019F0333009F05C
S11362702ACFEFB6F8946A0F7B1F660F771F660F5D
S1136280771F660F771F66587F4D46E050E08E01FA
S11362900F5F1F4FC8010E94F340EFBE1F8279CEEB
S11362A04F925F926F927F92BF92CF92DF92EF9262
S11362B0FF920F931F93CF93DF93CDB7DEB7C258EE
S11362C0D109CDBFDEBF85E592E20E949715892BE7
S11362D059F18AE392E20E949715892B29F187E507
S11362E092E20E9497156C018CE592E20E94971548
S11362F0892BE1F080E692E20E949715892BB1F098
S113630012E0812FCE57DF4FCDBFDEBFDF91CF919B
S11363101F910F91FF90EF90DF90CF90BF907F90EF
S11363206F905F904F90089511E0EBCF8CE592E26F
S11363300E949715892B09F4C0C022E0E22E80E662
S113634092E20E949715892B11F0EE24E39440E425
S113635050E0BE016F5B7F4F85E592E20E94A31679
S113636000E010E0FF24FA94B801660F771F600F75
S1136370711F660F771F660F771F660F771F6659A9
S11363807F4D4DE050E0CE018F5B9F4F0E94E54072
S1136390009709F4F02E0F5F1F4F0131110521F70B
S11363A00FEFF01609F4ACCFBB24B394CD2809F455
S11363B086C08F2D0E94A11F811146C08AE392E2FC
S11363C00E949715892B09F49BCF40E450E08E017D
S11363D00F5F1F4FB8018AE392E20E94A316109246
S11363E0A62B1092A72B4AE050E0BE016F577F4FB7
S11363F0C8010E947641A091A62BB091A72BA2328E
S1136400B10509F45EC0109709F06DC0CF57DF4F96
S113641028813981C158D0400217130709F470CF7D
S11364202B2DAB016E2D8F2D0E94E81E882309F4BD
S113643061C010E08DEE98E10E9471138F2D54DD40
S11364408AE00E942A135DCF813009F059CF60E4BD
S113645070E0CE018F5B9F4F0E94DF42079708F0E8
S11364604FCF40E450E08E010F5F1F4FB8018AE325
S113647092E20E94A31680E18F15A4F04F2C5524BC
S113648047FC5094F201EE0FFF1FE40DF51DEE0FD3
S1136490FF1FEE0FFF1FEE0FFF1FE659FF4D36855E
S11364A0313051F18DEE98E10E9471138F2D1CDD76
S11364B08AE00E942A1310E024CFE12C40CFB12CB3
S11364C078CF44244A94542C642CBFE77B2E460E88
S11364D0571E681E791E2EEF42162FEF52066206D3
S11364E0720608F00DCF611571058105910509F05B
S11364F08DCF06CF12E09ECF47854250423018F030
S113650051E0B512CFCF6FB6F89468E1649D600195
S1136510659DD00C112446E050E0B801C6018658B0
S11365209F4D0E94F3406FBE5FB6F894F601E659A2
S1136530FF4D168A5FBEB6CFCF938DEE98E10E94D1
S11365407113C0E08C2FD0DC8AE00E942A13CF5F45
S1136550C131C1F780E0CF910895CF93DF93EB0170
S113656081313CF541E060E00E94BA1F97FD12C002
S113657086309105DCF00697282F30E0263050F461
S1136580FC01FF27EE5FFD4D828186FB992790F980
S1136590391719F0DF91CF91089587FFFBCF8F77DB
S11365A08283CE01DF91CF910C94B92A282F31E058
S11365B0E5CF31E080E090E0E3CFEF92FF920F93DC
S11365C01F93CF93DF93CDB7DEB7EDB6FEB68AE364
S11365D092E20E949715892B09F10E946316AC017F
S11365E04F5F5F4F8DB79EB7841B950B8DBF9EBFCA
S11365F00DB71EB70F5F1F4FB8018AE392E20E94E6
S1136600A316C8010E94B92A80E0EDBEFEBEDF9148
S1136610CF911F910F91FF90EF90089581E0F5CFF6
S11366206F927F928F929F92AF92BF92CF92DF929E
S1136630EF92FF920F931F93CF93DF93CDB7DEB703
S1136640C155D109CDBFDEBF182F8091912581118D
S113665068C187E00E946621112361F18091AF2512
S11366609091B0250E948C1CE12CF12C8E010F5FBF
S11366701F4FB8018091AF259091B0250E94081B4F
S1136680882309F4AFC060E270E0C8010E94DF42D1
S1136690843078F39927049744E050E060E37BE189
S11366A0800F911F0E949B42892B19F75FEFE51A17
S11366B0F50ADFCF8091AF259091B0250E948C1C04
S11366C0C12CD12C8E010F5F1F4F03C0FFEFCF1AD7
S11366D0DF0AB8018091AF259091B0250E94081B74
S11366E08111F4CFC114D10409F437C182E3A82E77
S11366F0B12CAC0EBD1E90E2992E8091AF259091E5
S1136700B0250E948C1CF501492D11924A95E9F798
S1136710E12CF12CB8018091AF259091B0250E9415
S1136720081B60E270E0C8010E94DF42843068F117
S11367309927049744E050E060E37BE1800F911FC8
S11367400E949B42892B09F540E250E0B80180E7A2
S11367509BE20E94E54097FD83C088248394309196
S1136760702B3111812C40E250E0B801C5010E9428
S1136770E540181619060CF067C0882031F040E295
S113678050E0B801C5010E94F3404FEFE41AF40A47
S1136790EC14FD0409F0BECF60E270E0C5010E9474
S11367A0DF42892B09F4BAC041E060E080E00E9436
S11367B0BA1F892B09F001C1C5010E94B92ACF5A19
S11367C0DF4FCDBFDEBFDF91CF911F910F91FF90BF
S11367D0EF90DF90CF90BF90AF909F908F907F907D
S11367E06F90089542E0E416F10408F4CAC047012A
S11367F0AA24AA942FE7B22E8091AF259091B025B8
S11368000E948C1C7401612C712C15C06E147F04C1
S113681009F46AC00E9468419C01B70166197709AE
S11368206F5F7F4FC5010E940440F501E81BF90B1F
S11368302E173F07C4F0E614F70444F7D62C772D3F
S11368403701ED2CF72EE6CF5AA9552309F495CF3D
S11368504FEFE41AF40AEC14FD0409F05BCF9CCF6B
S11368608824839480CFC9010E9404406B01C60C24
S1136870D71CC114D104E1F1612C712CB8018091B1
S1136880AF259091B0250E94081B60E270E0C8011A
S11368900E94DF42843090F39927049744E050E04B
S11368A060E37BE1800F911F0E949B42892B31F7AB
S11368B08FEF681A780A6C147D0401F740E250E007
S11368C0B80180E79BE20E94E540009709F494CF69
S11368D041E060E080E00E94BA1F892B09F060C0AB
S11368E0C8010E94B92A6BCF6301C114D10421F6F7
S11368F060E270E0C8010E94DF42843008F47CCF7B
S11369009927049744E050E060E37BE1800F911FF6
S11369100E949B42892B09F06FCFD0CF1092702B2D
S1136920ECCE41E060E080E00E94BA1F892B41F088
S113693025EC39E13F932F930E9482130F900F901F
S11369406FB6F89491E09093902B1092912B6FBEB8
S1136950709091257110FCCF7CCE41E060E080E026
S11369600E94BA1F892B41F087E99AE19F938F9384
S11369700E9482130F900F9080E00E94662180E0B5
S11369801ECF41E060E00E94BA1F892BA9F38AEF71
S113699099E19F938F930E9482130F900F90ECCFF5
S11369A01F930F938DE69AE19F938F930E94821316
S11369B00F900F900F900F9093CFBF92AF928AE0F9
S11369C09BE19F938F930E9482130F900F900F90DF
S11369D00F90F2CE41E060E084E00E94BA1F21E013
S11369E0892B09F420E0822F1BDE80E00895DF92DA
S11369F0EF92FF920F931F93CF93DF93CDB7DEB740
S1136A002697CDBFDEBFA89541E060E085E00E94F7
S1136A10BA1F892B09F4D9C08091912B8111A4C18B
S1136A206091922B7091932B8091942B9091952B44
S1136A300E942C12811117C161E57AE286E00E945E
S1136A40AC256DE37AE287E00E94AC2566E67AE243
S1136A5088E00E94AC2565E770E189E00E94AC25DE
S1136A6041E060E084E00E94BA1F8C0141E060E0F4
S1136A708AE00E94BA1F97FD12C0863091050CF07F
S1136A80A7C041E0863058F4FC01FF27EE5FFD4DBE
S1136A90528156FBEE24E0F84E1509F473C164E606
S1136AA072E28BE05ADD6BE672E28CE056DD62E75F
S1136AB072E28DE052DD69E772E28EE04EDD60E85D
S1136AC072E28FE04ADD67E872E280E146DD6091C0
S1136AD09F2B7091A02B8091A12B9091A22B0E94AF
S1136AE02C12811104C0F0909125FF20B1F060EECA
S1136AF073E984E090E00E94601260939F2B70938E
S1136B00A02B8093A12B9093A22B41E060E083E023
S1136B100E94BA1F892B09F05EC041E060E082E068
S1136B200E94BA1F6091962B681721F08093962BD0
S1136B300E9457206091972B7091982B8091992BEC
S1136B4090919A2B0E942C12882321F07091912508
S1136B507111D4C060E070E0CB010E9460126093B8
S1136B60972B7093982B8093992B90939A2B0E9438
S1136B7068418D839E838D819E8160919B2B709152
S1136B809C2B80919D2B90919E2B0E942C128823EC
S1136B9089F060E47BE48CE490E00E9460126093EE
S1136BA09B2B70939C2B80939D2B90939E2B81E128
S1136BB00E940B132696CDBFDEBFDF91CF911F91AC
S1136BC00F91FF90EF90DF9008951092912B28CFB2
S1136BD0069740E057CF0E9474201FE7181B1D3012
S1136BE008F083C020E030E060E04091A32B5527FB
S1136BF047FD5095C901841B950B97FDD3C002979F
S1136C000CF48BCF421753070CF0C8C0615060934B
S1136C10A32B062F045641E062E082E00E94BA1FD3
S1136C20D02E80170CF4D82E0D2D112707FD1095AA
S1136C3020E0A80160E082E00E94E81E41E060E0FC
S1136C4080E00E94BA1F892B09F467CF1F93DF925B
S1136C5085E39BE19F938F930E9482130F900F9083
S1136C600F900F905ACF60E177E280E090E00E94AD
S1136C7060126093922B7093932B8093942B909338
S1136C80952BE0910222F0910322309709F4D4CE9F
S1136C9034E0E32E32E2F32E870111C0311122C019
S1136CA08F7B8068F80180830F5F1F4FB2E20A3048
S1136CB01B0709F4C1CEE0910222F0910322D8010E
S1136CC0DC90DD0C802F8E1909958D298F73F801C6
S1136CD09081907C892B382F3F7386FDDFCF3F3323
S1136CE009F45AC0D8018C93DFCF62E7681B65367C
S1136CF008F45CC024E630E064E677CF0E94742098
S1136D00282F30E040E050E060E070E080E090E068
S1136D10AAE00E948F40A8EEB3E00E94E7450E94DB
S1136D2060126093972B7093982B8093992B909378
S1136D309A2B0E9468419C01BFB7F8944091B62AEF
S1136D405091B72A6091B82A7091B92A49835A831D
S1136D506B837C83BFBF89819A81AB81BC8182278D
S1136D6093270E946B4109CF1092912B41E060E080
S1136D7084E00E94BA1F21E0892B09F420E0822FCD
S1136D804FDC4ECE57FF8BCE5F77528381E0012BD1
S1136D9009F480E045DC83CE806CA4CF6F5F609300
S1136DA0A32B37CF91958195910929CF262F30E0D8
S1136DB01CCFCF93DF93CDB7DEB7C95AD109CDBF6E
S1136DC0DEBFF8948FE38093B00018E110931006AF
S1136DD020E42093020600E80093020691E09093D9
S1136DE0420660E26093620652E05093420648E035
S1136DF04093420670E17093620634E03093420699
S1136E00909352069093650690936106709345069D
S1136E1070934106609346066093410620934206B0
S1136E201093560600934506009341065093650659
S1136E30509361064093660640936106309366065C
S1136E4030936106A091B400A268A093B400B091FD
S1136E506E06B061B0936E060093650600936106FA
S1136E6020936206EBE4E093520066EC85E590E043
S1136E700E94692060E081E490E00E946920109300
S1136E8050002090510024FEFCCF64E080E490E0A8
S1136E900E94692061E087E00E94DB2010920108D3
S1136EA0F2E0F093070811E01093000880E2809369
S1136EB0C20928E12093C30903E00093C4090E9496
S1136EC099210E94882161E971E1609345237093BF
S1136ED046234EE851E14093432350934423ACE5C9
S1136EE0B0E2A093A82BB093A92BA093AA2BB093A4
S1136EF0AB2B0E94742090E00E946B419091A20001
S1136F0097609093A20078941093660650E1509392
S1136F10450660E271EA87E090E00E9460126B012E
S1136F207C0101C0A895C701B6010E942C128823D8
S1136F30C9F370E17093460631E03093650660E270
S1136F4071EA87E090E00E9460124B015C0101C08D
S1136F50A895C501B4010E942C128823C9F3B1E09D
S1136F60B0936506E0E1E093450681E00E94AD122E
S1136F70F2E0F093650612E51093E00810924F25B5
S1136F800AE02FEF2093E3083090E20837FEFCCFAD
S1136F904090E208E8964FAEE8975090E308E896F0
S1136FA05FAEE897E8968FADE8978091E3080150CB
S1136FB049F782E08093660600E012E004C00150C5
S1136FC0110909F474C040E050E0BA0180E00E9465
S1136FD0E7178130A1F7F82E4AEA51E060E070E04B
S1136FE088E00E94E71782FD66C16FEF6093E308B3
S1136FF06090E20867FEFCCF7090E208E9967FAEED
S1137000E9978090E308E9968FAEE997E9968FAD0A
S1137010E9978091E3084FEF4093E3089090E208EA
S113702097FEFCCFA090E208EA96AFAEEA97B09044
S1137030E308EA96BFAEEA97EA968FADEA978091A5
S1137040E308AFEFA093E308C090E208C7FEFCCFCB
S1137050D090E208EB96DFAEEB97E090E308EB9676
S1137060EFAEEB97EB968FADEB972090E30820FE05
S113707018C09FEF9093E3085091E20857FFFCCFAC
S11370807091E208EC967FAFEC973091E308EC96B0
S11370903FAFEC97EC968FADEC97B091E308BA3A1A
S11370A051F08AEE92E00E947113A1DCFECFB2E0AF
S11370B0B0936506F6CFE2E0E0934F2500E010E8D8
S11370C013C0412C512C320140E050E0BA0187E357
S11370D00E94E717B301A20189E20E94E71780FF2B
S11370E018C00150110919F3F0914F252F2F237067
S11370F041F0F1FFE6CF412C512C612CB0E47B2E02
S1137100E3CF40E050E0BA0181E00E94E71780FD40
S1137110E8CF10914F2511FF6BC040E050E0BA0159
S11371208AE30E94E7178111C2CF8FEF8093E308AF
S11371303090E20837FEFCCF5090E208ED965FAE47
S1137140ED97F090E308ED96FFAEED97ED968FADD9
S1137150ED976091E30866FF03C0146010934F2518
S11371604FEF4093E3086090E20867FEFCCF709015
S1137170E208EE967FAEEE978090E308EE968FAE2F
S1137180EE97EE968FADEE978091E308AFEFA09364
S1137190E3089090E20897FEFCCFA090E208EF96F7
S11371A0AFAEEF97B090E308EF96BFAEEF97EF96D0
S11371B08FADEF978091E3089FEF9093E308C09021
S11371C0E208C7FEFCCFD090E208C158DF4FD88256
S11371D0CF57D040E090E308C158DF4FE882CF5743
S11371E0D040C158DF4F8881CF57D0408091E30809
S11371F040E052E060E070E080E10E94E717811116
S113720056CF52E0509365067091E0087C7F7093EE
S1137210E0083091E00830683093E008BFEFB093A5
S11372204725B0934825B0934925B0934A25B09398
S11372304B25B0934C25B0934D25B0934E25E12CAE
S1137240A2E0FA2E07E413E220E030E040E050E050
S113725060E070E080E090E00E949B18882309F4CD
S113726020CF81E493E00E947113B0E1EB2EF12C66
S11372708E010F5F1F4F2EEB31E040E050E060E0E5
S113728070E080E090E00E949B18882329F12D8013
S1137290F091F52A222019F0FF2309F4AAC0FF2354
S11372A0F1F01092BA2A1092BB2A89E195E00E946B
S11372B071139DDBFECF40E050E0BA0187E30E94EA
S11372C0E71740E050E0BA0189E20E94E71782FD27
S11372D0F5CEF0924F25F2CEF091F52AE0CF6DEE87
S11372E07AE211E1DB011D921A95E9F74BE958E1C5
S11372F04093ED2A5093EE2AA9EFB9E1A093EF2A27
S1137300B093F02A9FEF9093F52A6093BA2A709372
S1137310BB2A8EE595E00E9471132090BA2A309022
S1137320BB2A2114310431F0E091FE2AF091FF2AA6
S1137330309751F01092B1251092B22582ED95E06C
S11373400E94711354DBFECF52E3EEEFFAE2119286
S11373505A95E9F72092FE2A3092FF2AD101199614
S11373608D909D90AD90BC901C979401A50160E018
S113737070E080E090E009E0ABD6CE56DF4F288382
S1137380C259D040CD56DF4F3883C359D040CC5674
S1137390DF4F4883C459D040CB56DF4F5883C5597B
S11373A0D040CA56DF4F6883C659D040C956DF4F14
S11373B07883C759D040CC55DF4F8883C45AD04016
S11373C0CB55DF4F9883C55AD040ABE0A8D6F10126
S11373D00190F081E02DA5E2EA2EF12C8E010F5FE1
S11373E01F4F099581113BC01092FE2A1092FF2A6B
S11373F0A1CF0DEE1AE221E1F80111922A95E9F7E5
S1137400EBE9F8E1E093ED2AF093EE2A89EF99E1B4
S11374108093EF2A9093F02A2092F52ACE010996C0
S11374200E94D31E6093F62A7093F72A8093F82A59
S11374309093F92ACE010D960E94D31E6093FA2AE6
S11374407093FB2A8093FC2A9093FD2A0093BA2A16
S11374501093BB2A80EA95E00E9471135ECF9A8054
S1137460812C498094012429C856DF4F288339830D
S1137470C859D0409D8180E05C80AC014529C0574B
S1137480DF4F48835983C059D040FB80CF55DF4F2D
S1137490F882C15AD0406E80C656DF4F6882CA59FE
S11374A0D040988580E07F80DC01A729CE55DF4F4E
S11374B0A883B983C25AD0409A8580E089848C011C
S11374C008299D8580E09C84FC01E929C556DF4F8D
S11374D0E883F983CB59D040CE0146960E94D31E4F
S11374E06B017C01CE014A960E94D31E2B013C0104
S11374F0CE0182960E94D31ECA55DF4F68837983DA
S11375008A839B83C65AD040C114D104E104F10498
S113751039F40115110509F467CF6801E12CF12C48
S1137520C556DF4FA880B980CB59D040A114B1040F
S113753009F419C52501612C712C46015701C05766
S1137540DF4F08811981C059D040801A910AA108DF
S1137550B108C656DF4F7881CA59D040A72FB0E092
S1137560A30192010E94E745861A970AA80AB90A5C
S1137570C856DF4F88819981C859D0400197CE55AC
S1137580DF4F28813981C25AD040220F331F229500
S11375903295307F3227207F3227820F931FC856BF
S11375A0DF4F68817981C859D0401AD5861A970A65
S11375B0A108B108CF55DF4F3881C15AD040232FDD
S11375C030E040E050E0C501B4010E94AA45C35632
S11375D0DF4F288339834A835B83CD59D040253FCD
S11375E07FE037074105510508F4FECE253F3F4FA4
S11375F04105510508F0B3C486E0D10118968C9377
S11376006CE240E05BE2DA011D926A95E9F7C85644
S1137610DF4FA880B980C859D040950140E050E0C0
S113762060E070E0CB01C058DF4FA882C058D04062
S1137630CF57DF4F3883C158D040CE57DF4F4883F0
S1137640C258D040CD57DF4F5883C358D040CC5791
S1137650DF4F6883C458D040CB57DF4F7883C55879
S1137660D040CA57DF4F8883C658D040C957DF4F30
S11376709883C758D040A701960160E070E0CB0121
S1137680C857DF4FC882C858D040C757DF4F388328
S1137690C958D040C657DF4F4883CA58D040C55751
S11376A0DF4F5883CB58D040C457DF4F6883CC5842
S11376B0D040C357DF4F7883CD58D040C257DF4FF7
S11376C08883CE58D040C157DF4F9883CF58D040DD
S11376D0C058DF4FA880C058D040CF57DF4FB88084
S11376E0C158D040C12CD12CE12CF12C00E010E089
S11376F060E070E080E090E09AD42093002B309317
S1137700012B4093022B5093032B6093042B709313
S1137710052B8093062B9093072BC057DF4F88804F
S11377209980C059D040940140E050E060E070E09E
S113773080E090E07CD4CE56DF4FA880C259D04080
S1137740CD56DF4FB880C359D040CC56DF4FC880E8
S1137750C459D040CB56DF4FD880C559D040CA5603
S1137760DF4FE880C659D040C956DF4FF880C7596B
S1137770D040CC55DF4F0881C45AD040CB55DF4FA1
S11377801881C55AD040C2D4C857DF4F2883C8587F
S1137790D040C057DF4F3883C059D040CE56DF4F5A
S11377A04883C259D040CD56DF4F5883C359D04087
S11377B0CC56DF4F6883C459D040CB56DF4F788313
S11377C0C559D040CA56DF4F8883C659D040C956E0
S11377D0DF4F9883C759D0402093082B3093092B4F
S11377E040930A2B50930B2B60930C2B70930D2B0F
S11377F080930E2B90930F2BC356DF4F68817981B2
S11378008A819B81CD59D0406E5F7F4F8F4F9F4FB0
S1137810F101F085F63009F49DC324E030E040E046
S113782050E00E949B456093102B7093112B809322
S1137830122B9093132BC856DF4FC880D980C85998
S1137840D040C092142BD092152BCF55DF4FB88067
S1137850C15AD040BC9C7001BD9CF00C1124E09234
S1137860162BF092172BD10118961C91163009F49F
S1137870CFC2C656DF4FA880CA59D040B12CC12C04
S1137880D12CE12CF12C00E010E0C058DF4F28810E
S1137890C058D040CF57DF4F3881C158D04040E066
S11378A050E060E070E080E090E0C1D31201230179
S11378B051016201BCD3C857DF4FA880C858D040DB
S11378C0C057DF4FB880C059D040CE56DF4FC88074
S11378D0C259D040CD56DF4FD880C359D040CC5682
S11378E0DF4FE880C459D040CB56DF4FF880C559EC
S11378F0D040CA56DF4F0881C659D040C956DF4F21
S11379001881C759D04002D42093182B3093192BD7
S113791040931A2B50931B2B60931C2B70931D2B9D
S113792080931E2B90931F2BCA55DF4F28803980DC
S11379304A805B80C65AD0402092282B3092292B53
S113794040922A2B50922B2B6EEF7AE26093B12552
S11379507093B22591E34CEB5AE2DA011D929A95A9
S1137960E9F770E17093DC2ABA018EEF9AE20E9483
S11379708E1A8093AF259093B025892B09F441C2C8
S11379805DE122E935E2D9011D925A95E9F712E049
S11379901093660640E050E0BA018AE00E94E717BF
S11379A0811149C03FEF3093E308D090E208D7FE3D
S11379B0FCCFF090E208E496FFAEE4977090E30801
S11379C0E4967FAEE497E4969FADE497F091E308E4
S11379D0FE3F49F7C090922580919D2590919E2568
S11379E0A0919F25B091A025EE24E394BB24BA94E2
S11379F00CE010E0EE2DE150B092E3089090E20824
S1137A0097FEFCCFA090E208E596AFAEE597809094
S1137A10E308E5968FAEE597E5962FADE59740919F
S1137A20E308E83088F4E33068F1F0E0EE56FA4D0C
S1137A304183E394DFCF109365068EE796E00E94BE
S1137A4071130E94F734FDCFED3008F5E93008F4E6
S1137A509FC050E060E070E098012E1B3109220FB6
S1137A60331F220F331F220F331F04C0440F551F2F
S1137A70661F771F2A95D2F7842B952BA62BB72B3D
S1137A80E394B8CFE11188C0C42EE394B3CFED30B2
S1137A9009F478C0EE3009F468C0E2E1EE12C9CF0F
S1137AA0C092922580939D2590939E25A0939F2517
S1137AB0B093A02540E050E0BA0189E00E94E717A6
S1137AC0811170C0AFEFA093E308B090E208B7FE55
S1137AD0FCCFE090E208E696EFAEE6972090E3084C
S1137AE0E6962FAEE697E6969FADE697B091E3084B
S1137AF0BE3F49F78090A3259090A425A090A5258A
S1137B00B090A625C090A725D090A825E090A925DF
S1137B10F090AA25A0E044244394512CB0E0E0E086
S1137B20F0E0712C22242A9411E02092E308309092
S1137B30E20837FEFCCF0091E208E7960FAFE79723
S1137B408091E308E7968FAFE797E7968FADE797C5
S1137B508091E308A1112AC0782E729476947694C9
S1137B6033E073224394AF5FE0CF642F62956F706C
S1137B709090A12569296093A1254F704093A22577
S1137B80E39438CF4295407F4093A125E39432CFCC
S1137B9040939C25E3942ECFF0E0EE56FA4D4083BB
S1137BA0E39428CFF2E0F093650647CFAE3009F4B2
S1137BB0FAC061E0761609F408C171100BC0A73051
S1137BC009F4F9C108F0DAC1A53009F405C2A630F8
S1137BD009F4D0C192E14912C5CF8092A3259092B5
S1137BE0A425A092A525B092A625C092A725D0923F
S1137BF0A825E092A925F092AA2542E040936506C3
S1137C000E9476176091AF257091B0259E012F5B7D
S1137C103F4F4BE352E28091B1259091B2250E94EF
S1137C209D1C882309F488C14090B1255090B22549
S1137C306091AF257091B0259E012F5F3F4F4BE3BC
S1137C4052E2C2010E949D1C882309F470C1BE0146
S1137C506F5F7F4FC2010E94C71A3C01009709F46D
S1137C6066C185EE96E00E947113DD24D394F12C55
S1137C7000E010E041E050E0BE016E587F4FC301C8
S1137C800E94C31C181619065CF5E3967FADE397B2
S1137C900E33110548F4E1E0F0E0EC0FFD1FE00FB6
S1137CA0F11F70830F5F1F4F7A3029F07D3019F078
S1137CB0FF24F394DFCFE1E0F0E0EC0FFD1FE00FD1
S1137CC0F11F1082DD2089F145E150E063E277E0A5
S1137CD0CE01019630D4892B09F033C1D12CC7CF02
S1137CE0E1E0F0E0EC0FFD1FE00FF11F1082F11056
S1137CF0E9CF8BEA97E00E94DC25D3011D921C9208
S1137D0080919125811102C00E94662141E060E0CA
S1137D1081E00E94BA1F892B19F480E00E94AD1201
S1137D200E94F7340E94AF13FBCF59815332B1F252
S1137D305A30A1F25D3091F20E94AF134FE350E04C
S1137D40BE016F5F7F4F81E595E24DD2E1E5F5E23B
S1137D5007C02A3041F0319645E2E039F40749F092
S1137D6020812D30B1F71082319645E2E039F407D5
S1137D70B9F7109290250E944A138FEF90E10E9468
S1137D80711381E595E20E94A1138AE00E942A13EF
S1137D9011E0109350250E94AF138CE091E10E94F2
S1137DA07113D12C64CF86FD1093AB2585FD109300
S1137DB0AC2584FD1093AD258C7090E09595879546
S1137DC0959587958093AE25CDCEA730A9F010F078
S1137DD0AA3098F0A93009F0FDCE31969F0140E019
S1137DE050E060E070E080E090E003E171D149018F
S1137DF05A016B017C01B6CE8F73FE2FEE27E82B60
S1137E00E9CF88E296E00E9471130E94F734FDCF17
S1137E10C556DF4F48805980CB59D0405201C12C00
S1137E20D12CE12CF12C00E010E0C058DF4F288168
S1137E30C058D040CF57DF4F3881C158D04040E0C0
S1137E4050E060E070E080E090E0F1D0C656DF4F93
S1137E50A880CA59D040B12CEAD0C857DF4FA880B7
S1137E60C858D040C057DF4FB880C059D040CE5614
S1137E70DF4FC880C259D040CD56DF4FD880C35998
S1137E80D040CC56DF4FE880C459D040CB56DF4FAA
S1137E90F880C559D040CA56DF4F0881C659D04032
S1137EA0C956DF4F1881C759D04030D139014A0132
S1137EB0362E572EB82FE92F2093202B7092212B8A
S1137EC04093222B9092232B6093242B7093252B89
S1137ED08093262B9093272BCE55DF4F0881198151
S1137EE0C25AD040980140E050E060E070E080E089
S1137EF090E005E0EDD059016A017B018C0193010A
S1137F00A401632D752D8B2F9E2F00D12093182B48
S1137F103093192B40931A2B50931B2B60931C2BDB
S1137F2070931D2B80931E2B90931F2B0DCD8AEBEA
S1137F3096E00E947113E4CE89EE97E00E94DC255E
S1137F40DFCE89E397E00E94DC2589EE97E00E946A
S1137F50DC25D3CE22E030E040E050E062CCBBE050
S1137F60F101B0874DCB411451046104710409F04F
S1137F70E4CA3ACAF82FF370E0E0F4CDA93041F135
S1137F8000F1AA3009F026CE881F8827881FB82B55
S1137F904F01A12CB12C852D90E08B0F911D0296E1
S1137FA004C0880C991CAA1CBB1C8A95D2F7C12C4E
S1137FB0D12C7601D7CDE82BEE0FFF1FEE0FFF1F5C
S1137FC0D1CD8295869586958370E82B3196CACD5E
S1137FD0B82FB370BB0FC6CD9FE0592E5822C2CD27
S1137FE0AA1BBB1B51E107C0AA1FBB1FA617B707DB
S1137FF010F0A61BB70B881F991F5A95A9F78095F7
S11380009095BC01CD01089597FB072E16F40094BA
S113801006D077FD08D0E4DF07FC05D03EF4909548
S113802081959F4F0895709561957F4F0895DF93D3
S1138030CF931F930F939A9DF02D219FF00D8B9D4D
S1138040F00D8A9DE02DF10D039FF00D029FE00DD0
S1138050F11D4E9DE00DF11D5E9DF00D4F9DF00D47
S11380607F936F93BF92AF925F934F93D501F0D5F7
S11380708B01AC01D701ECD5EB01E80FF91FD60158
S11380801FD02F913F91D601E3D5C60FD71FE81F0C
S1138090F91FAF91BF9114D02F913F91D9D5C60F3D
S11380A0D71FE81FF91FD601D3D5E60FF71F980194
S11380B0BE01CF0111240F911F91CF91DF9108953B
S11380C0C7D5460F571FC81FD91F08F43196089506
S11380D00F930F7351F0220F331F441F551F661F58
S11380E0771F881F991F0A95B1F70F9108950F9371
S11380F00F7351F0969587957795679557954795A2
S1138100379527950A95B1F70F9108952A0D3B1DD0
S11381104C1D5D1D6E1D7F1D801F911F0895002441
S1138120A7FD00942A0F301D401D501D601D701DB9
S1138130801D901D08952A193B094C095D096E099B
S11381407F09800B910B08952A153B054C055D05AD
S11381506E057F058007910708950024A7FD00940C
S11381602A17300540055005600570058005900507
S11381700895FB01DC0102C001900D924150504072
S1138180D8F70895FC018191861721F08823D9F747
S1138190992708953197CF010895FB01DC018D9152
S11381A0019080190110D9F3990B0895DC015D91B8
S11381B0552331F0FB01019005160110E1F7B9F7E1
S11381C0809590958A0F9B1F0895FB01DC01415017
S11381D0504030F08D910190801919F40020B9F7C6
S11381E0881B990B0895FB01DC014150504048F075
S11381F001900D920020C9F701C01D9241505040DA
S1138200E0F70895FB0151915523A9F0BF01DC016A
S11382104D9145174111E1F759F4CD01019000202A
S113822049F04D9140154111C9F3FB014111EFCFC4
S113823081E090E0019708958F929F92AF92BF9250
S1138240CF92DF92EF92FF92CF93DF93EC0168819C
S113825079818A819B81611571058105910521F4DC
S113826064E279ED8BE597E02DE133EF41E050E0F6
S113827093D449015A019B01AC01A7EAB1E4A7D404
S11382806B017C01ACEEB4EFA5019401ACD4C60E35
S1138290D71EE81EF91EF7FE06C081E0C81AD108F1
S11382A0E10880E8F80AC882D982EA82FB82E8946D
S11382B0D7F8EE24FF24C601DF91CF91FF90EF9011
S11382C0DF90CF90BF90AF909F908F900895B4CFE0
S11382D08AE092E2B1CFA0E0B0E080930A229093CA
S11382E00B22A0930C22B0930D220895A0E0B0E0DD
S11382F0EBE7F1E47EC45B01EA016115710519F055
S1138300FB0180839183209739F09E01225031092B
S11383102332310508F0E3C07C01F70191907F011D
S11383208F01892D90E0F3D0892BB9F7FDE29F12DC
S113833006C0F70191908F018824839407C0FBE263
S11383409F1203C0F70191908F01812C209709F4AB
S1138350D4C0C031D10581F4CCC0F8018081883704
S113836019F0883509F0BFC0F80191800E5F1F4FE6
S1138370F2E08F2AC0E1D0E0C830D105D9F024F46E
S1138380C230D105F9F407C0CA30D10551F0C0316B
S1138390D105C1F424C0C12CD12CE12C40E4F42E2D
S11383A023C0CAE0D0E03CECC32EDC2CEC2C3CE037
S11383B0F32E1AC0C8E0D0E0C12CD12CE12C20E16E
S11383C0F22E12C09E01442737FD4095542F60E0E1
S11383D070E080E090E8BED369017A0105C0C12C49
S11383E0D12CE12C98E0F92E40E060E070E0CB0164
S11383F02E01662457FC6094762CE92DE053EA3074
S113840060F0292D21542A3110F4E75006C0292D9B
S113841021562A3120F5E92DE7552E2F30E02C176F
S11384203D07ECF447FD17C0C616D706E806F90663
S113843078F09B01AC01C301B2017DD36E0F711DB5
S1138440811D911D61307105810520E8920710F0AE
S11384504FEF01C041E0F80191908F01CECFA114FC
S1138460B10481F0442331F001501109F501008376
S1138470118308C081FE1AC002501109F50100835E
S1138480118314C047FF12C080FE05C060E070E095
S113849080E090E804C06FEF7FEF8FEF9FE722E268
S11384A030E02093A62B3093A72B16C080FE08C083
S11384B090958095709561957F4F8F4F9F4F0CC01D
S11384C097FF0AC082E290E08093A62B9093A72B9B
S11384D06FEF7FEF8FEF9FE78B019C0112C000E0ED
S11384E010E098010EC080E3982E209709F462CF23
S11384F043CFF0E39F1240CF30CF20E3921251CF0D
S11385002CCFB801C901CDB7DEB7E0E18BC391111F
S11385107AC2803219F089508550D0F7089544EA20
S11385205BE226C0FB01DC018D91059080190110EE
S1138530D9F3990B0895FB01DC014150504030F010
S11385408D910590801919F40020B9F7881B990BB7
S11385500895FB01DC014150504048F005900D9214
S11385600020C9F701C01D9241505040E0F7089522
S1138570FA01A191B081009719F41097E1F0CD01AF
S1138580DC01CD010D90002011F4C00113C0FB01EA
S11385902591222319F02015D9F7F3CFFB0125915A
S11385A0201519F41E92119606C02223C1F70D90CE
S11385B00020A1F7D001FA01A193B0830895FC0132
S11385C06150704001900110D8F7809590958E0FFE
S11385D09F1F0895A0E0B0E0EFEEF2E416C3FE01A1
S11385E03796619171910AEA1BE2D8018D919C91B1
S11385F0DC0113962C911397286013962C93AF01EA
S113860035D0D801ED91FC912381277F2383E4E0C9
S113861015C3AEE0B0E0EEE0F3E4F7C20D891E89C5
S11386208EE08C8309831A838FEF9FE78D839E836B
S1138630CE014996AC016F89788DCE01019616D092
S1138640EF81F885E00FF11F10822E96E4E0F6C268
S1138650CF93DF93EC018B8188608B83CE0106D0AE
S11386602B81277F2B83DF91CF910895ACE0B0E07D
S1138670EBE3F3E4BCC27C016B018A01FC011682CA
S11386801782838181FFB9C188248394912C8C0E35
S11386909D1EF7019381F60193FD859193FF8191CE
S11386A06F01882309F4A5C1853239F493FD8591BE
S11386B093FF81916F01853221F4B70190E0B1D12C
S11386C0E8CF512C312C20E02032A8F48B3261F019
S11386D028F4803251F0833271F40BC08D3239F0BA
S11386E0803349F4216028C02260246025C02860BA
S11386F023C0206121C027FD27C0382F30533A30D2
S113870078F426FF06C0FAE05F9E300D1124532E44
S113871013C08AE0389E300D1124332E20620CC021
S11387208E3221F426FD65C1206406C08C3611F416
S1138730206802C0883641F4F60193FD859193FFC9
S113874081916F018111C0CF982F9554933018F007
S11387509052933028F40C5F1F4FFFE3F9830DC050
S1138760833631F0833771F0833509F05AC022C063
S1138770F801808189830E5F1F4F44244394512C58
S1138780540114C03801F2E06F0E711CF801A0808E
S1138790B18026FF03C0652D70E002C06FEF7FEF4C
S11387A0C5012C870CDF2C0183012C856FE7262E55
S11387B0222217C03801F2E06F0E711CF801A0806C
S11387C0B18026FF03C0652D70E002C06FEF7FEF1C
S11387D0C5012C871BD12C012C8550E8252E222A7B
S11387E0830123FC1AC005C0B70180E290E019D1CF
S11387F03A94832D90E048165906B0F30EC0F50163
S113880027FC859127FE81915F01B70190E009D192
S113881031103A94F1E04F1A51084114510479F798
S1138820E5C0843611F0893639F5F80127FF07C011
S113883060817181828193810C5F1F4F08C06081C8
S11388407181882777FD8095982F0E5F1F4F4FE623
S1138850B42EB22297FF09C09095809570956195CA
S11388607F4F8F4F9F4FF0E8BF2A2AE030E0A401EA
S113887004D1A82EA81842C0853731F43FEEB32E98
S1138880B2222AE030E024C099EFB92EB2228F360A
S1138890B9F020F4883509F0ACC00DC0803721F060
S11388A0883709F0A6C002C020E1B22AB4FE0BC08A
S11388B084E0B82A08C024FF09C0E6E0BE2A06C046
S11388C028E030E005C020E130E002C020E132E0E1
S11388D0F801B7FE07C060817181828193810C5FCA
S11388E01F4F06C06081718180E090E00E5F1F4FD2
S11388F0A401C3D0A82EA818FFE7BF22B6FE0BC060
S11389002B2D2E7FA51450F4B4FE0AC0B2FC08C06F
S11389102B2D2E7E05C07A2C2B2D03C07A2C01C062
S1138920752C24FF0DC0FE01EA0DF11D80818033FA
S113893011F4297E09C022FF06C07394739404C005
S1138940822F867809F0739423FD13C020FF0EC094
S11389505A2C731458F4530C5718732C07C0B701CE
S113896080E290E02C875DD073942C857314B8F367
S113897004C0731410F4371801C0312C24FF11C043
S1138980B70180E390E02C874CD02C8522FF1CC0DB
S113899021FF03C088E590E002C088E790E0B701BA
S11389A00CC0822F867881F021FD02C080E201C0D4
S11389B08BE227FD8DE2B70190E033D005C0B7010B
S11389C080E390E02ED05A94A514C8F3AA94F4013D
S11389D0EA0DF11DB701808190E023D0A110F6CFFC
S11389E005C0B70180E290E01CD03A943110F9CF71
S11389F050CEF7012681378102C02FEF3FEFC90126
S1138A002C96E2E10DC1992788270895FC01059071
S1138A10615070400110D8F7809590958E0F9F1F7C
S1138A2008950F931F93CF93DF938C01EB018B81F8
S1138A3081FD03C00FEF1FEF1AC082FF0DC02E810E
S1138A403F818C819D812817390764F4E881F9817D
S1138A500193E883F98306C0E885F985802F099599
S1138A60892B41F78E819F8101968E839F83C80154
S1138A70DF91CF911F910F910895FA01AA27283011
S1138A8051F1203181F1E8946F936E7F6E5F7F4FD7
S1138A908F4F9F4FAF4FB1E03ED0B4E03CD0670F53
S1138AA0781F891F9A1FA11D680F791F8A1F911DA6
S1138AB0A11D6A0F711D811D911DA11D20D009F4F6
S1138AC068943F912AE0269F11243019305D319338
S1138AD0DEF6CF010895462F4770405D4193B3E021
S1138AE00FD0C9F7F6CF462F4F70405D4A3318F0C8
S1138AF0495D31FD4052419302D0A9F7EACFB4E079
S1138B00A6959795879577956795BA95C9F7009730
S1138B106105710508959B01AC010A2E06945795D1
S1138B20479537952795BA95C9F7620F731F841F28
S1138B30951FA01D0895DB018F939F9348D0BF918B
S1138B40AF91A29F800D911DA39F900DB29F900D98
S1138B5011240895A1E21A2EAA1BBB1BFD010DC00E
S1138B60AA1FBB1FEE1FFF1FA217B307E407F507D9
S1138B7020F0A21BB30BE40BF50B661F771F881FB5
S1138B80991F1A9469F760957095809590959B014B
S1138B90AC01BD01CF010895052E97FB16F4009496
S1138BA006D057FD0CD0D6DF07FC09D07EF4909593
S1138BB08095709561957F4F8F4F9F4F0895509585
S1138BC04095309521953F4F4F4F5F4F089540D0CA
S1138BD0A59F900DB49F900DA49F800D911D11240D
S1138BE00895B7FFF4CFF3DF821B930B08952F9200
S1138BF03F924F925F926F927F928F929F92AF9229
S1138C00BF92CF92DF92EF92FF920F931F93CF9375
S1138C10DF93CDB7DEB7CA1BDB0BCDBFDEBF099434
S1138C202A88398848885F846E847D848C849B84F8
S1138C30AA84B984C884DF80EE80FD800C811B8106
S1138C40AA81B981CE0FD11DCDBFDEBFED0108953C
S1138C50A29FB001B39FC001A39F01D0B29F700D2A
S10F8C60811D1124911D0895F894FFCF8C
S1138C6C01000000400100000000000000000000B2
S1138C7C00000000000000000000000000000000E4
S1138C8C00000000000000000000000000000000D4
S1138C9C00000000000000000000000000000000C4
S1138CAC00000000000000000010010000000000A3
S1138CBC00000000000000000000000000000003A1
S1138CCC000000004613C8100000766572626F73D2
S1138CDC6500000000000000000100030000010119
S1138CEC00016C6F777077720000000000000000C8
S1138CFC00010003000001010001766F6C756D65C5
S1138D0C0000000000000000009CFF039CFF010019
S1138D1C0001635F766F6C5F656E000000000000FD
S1138D2C0000000300000101000173687566666CA5
S1138D3C65000000000000000000000300000101B9
S1138D4C00016175746F706C6179000000000000A3
S1138D5C0001000300000101000162746E5F706188
S1138D6C757365000000000000FFFF03FFFF010B9B
S1138D7C000162746E5F726573756D6500000000AE
S1138D8C00FFFF03FFFF010B000162746E5F746749
S1138D9C6C5F70617573650000FFFF03FFFF010BCF
S1138DAC000162746E5F73746F7000000000000049
S1138DBC00FFFF03FFFF010B000162746E5F706C18
S1138DCC61796E657874000000FFFF03FFFF010BEF
S1138DDC000162746E5F30312E7761760000000002
S1138DEC00FFFF03FFFF010B000162746E5F303262
S1138DFC2E7761760000000000FFFF03FFFF010BDC
S1138E0C000162746E5F30332E77617600000000CF
S1138E1C00FFFF03FFFF010B000162746E5F30342F
S1138E2C2E7761760000000000FFFF03FFFF010BAB
S1138E3C000162746E5F30352E776176000000009D
S1138E4C00FFFF03FFFF010B000162746E5F3036FD
S1138E5C2E7761760000000000FFFF03FFFF010B7B
S1138E6C00019A1100000000000001000000000243
S1138E7C0008060B00100C160020192C0014000C12
S1138E8C000400C1CBC2CBC4CBC601030507090E39
S1138E9C10121416181C1E200D0A007761766570CA
S1138EAC6C61795F636F6E6669672E747874003CCD
S1138EBC4E2F413E0070007375646F006D61780035
S1138ECC6D696E0030312E7761760030322E776109
S1138EDC760030332E7761760030342E776176004D
S1118EEC30352E7761760030362E77617600B1
S9030000FC
